:020000040000fa
:10000000f87f0020597d00005f4300005f4300003f
:1000100000000000000000000000000000000000e0
:100020000000000000000000000000005f4300002e
:1000300000000000000000005f4300004366000075
:100040005f4300005f4300005f4300005f43000028
:100050005f430000db3b00005f4300005f430000a4
:100060005f4300005f4300005f4300005f43000008
:100070005f4300005f4300005f4300005f430000f8
:100080005f4300005f4300005f4300005f430000e8
:100090005f4300005f4300005f4300005f430000d8
:1000a0005f4300005f4300005f4300005f430000c8
:1000b0005f4300005f4300005f4300005f430000b8
:1000c0005f4300005f4300005f4300005f430000a8
:1000d0005f4300005f4300005f4300005f43000098
:1000e0005f4300005f4300005f4300005f43000088
:1000f0005f4300005f4300005f4300005f43000078
:100100005f4300005f4300005f4300005f43000067
:100110005f4300005f4300005f4300005f43000057
:100120005f4300005f4300005f4300005f43000047
:100130005f4300005f4300005f4300005f43000037
:100140005f4300005f4300005f4300005f43000027
:0c0150005f4300005f4300005f430000bd
:020000040000fa
:10015c00f8b5c046f8bc08bc9e4670472184000028
:10016c00f8b5c046f8bc08bc9e467047fd8300003d
:020000040000fa
:10017c00706a000001000000826d000001000000a8
:020000040000fa
:10018c00b0b5aab000aff860b960bb1d1a80bb1d3a
:10019c001b88002b00d189e044f68003c0f20003d9
:1001ac00fa681900100000f008f9bb68a422ba180c
:1001bc001360bb1d1b88ba68d3189822ba18136039
:1001cc006be0a423fb181b68a022ba18136005e08f
:1001dc00a022bb181b680133ba181360a0217b182e
:1001ec001a689823fb181b689a4209d27b181b6863
:1001fc001b780a2b04d07b181b681b780d2be7d1be
:10020c00a023fb181a68a423fb181b68d21a9e2182
:10021c007b181a800a00bb181b88fbb1bb181b8803
:10022c00802b02d9bb1880221a809e257b191a8834
:10023c00a423fb18196814243b19180008f04efb72
:10024c007b191b883a190021d1543a1944f69003b2
:10025c00c0f20003f868190000f0aff8a023fb18f7
:10026c001b68a422ba18136005e0a422bb181b68f3
:10027c000133ba181360a4217b181a689823fb1851
:10028c001b689a4209d27b181b681b780a2becd08e
:10029c007b181b681b780d2be7d0a423fb181a685e
:1002ac009823fb181b689a428bd300e0c046bd46ce
:1002bc002ab0b0bd90b59bb000aff860b960bb1d63
:1002cc001a80bb1d1b884bb944f69403c0f2000383
:1002dc00fa681900100000f070f86be0bb1d1a886a
:1002ec0044f6b003c0f20003f868190000f065f89a
:1002fc006223fb1800221a8055e000237b666023e2
:10030c00fb1800221a8020e07b6e1022ba18d0183d
:10031c007b6e5022d11a6223fb181a8860243b1979
:10032c001b88d3181a00bb689b181b7844f6cc02a8
:10033c00c0f2000208f0b2fa02007b6e9b187b66da
:10034c003b193a19128801321a8060217b181b88dc
:10035c000f2b09d86223fb181a887b181b88d2181c
:10036c00bb1d1b889a42cfdb7b6e002b15dd7b6e91
:10037c00013b10217a18d35c202b04d17b6e013bfe
:10038c007a180021d1541023fa1844f69003c0f2c5
:10039c000003f868190000f010f86222bb18ba18b4
:1003ac00128810321a806223fa18bb1d12881b881f
:1003bc009a42a2d3bd461bb090bd0eb4b0b5cfb01f
:1003cc0000af786047f2305340f23412ba18136021
:1003dc0001e003f0dcfc7b681b68402213401bb976
:1003ec0001f021fd030043b140f234117b181b686e
:1003fc005a1e79180a60002bebd17b681b684022cf
:10040c001340002b00d00be101f00dfd0300002b7d
:10041c0000d005e140f2481340f2080cbc446344a0
:10042c00fb60fb6840f2441240f2080cbc4462448e
:10043c00126840f26060c2f2000040f2001107f056
:10044c00a7fd030040f22c117a1813607b181b686f
:10045c00002b00dce6e07b181b68ff2b00d9e1e0e9
:10046c007b181b68012b15dd7b181b689a1e40f24c
:10047c006063c2f200039b5c0d2b0bd17b181b68d5
:10048c005a1e40f26063c2f200039b5c0a2b01d13e
:10049c00012200e0002240f22b103b181a701a784f
:1004ac0001210a401a703b181b7801225340dbb221
:1004bc008bb140f22c12bb181b68002b0bddbb1848
:1004cc001b685a1e40f26063c2f200039b5c0a2b4d
:1004dc0001d1012200e0002240f22a13fb181a700d
:1004ec001a7801210a401a7040f22b13fb181b7862
:1004fc0073b140f26063c2f2000344f6d402c0f25e
:10050c0000021021781840f2181108f0c7f92ce0fd
:10051c0040f22a13fb181b78cbb140f22c13fb18ba
:10052c001b685a1e40f26063c2f20003002199540a
:10053c0040f26063c2f2000344f6e002c0f2000233
:10054c001021781840f2181108f0a8f90de040f2cb
:10055c006063c2f2000344f6e002c0f20002102114
:10056c00781840f2181108f099f910257b19180029
:10057c0008f070f9030040f22c143a1913603b197f
:10058c001b68002b50d03b191b68ff2b4cd87b6889
:10059c000c3318003b191b6801331a007b19190026
:1005ac0008f09cf97b680c331a007b685a603b1985
:1005bc001b689ab27b681a817b681b6840221a43bd
:1005cc007b681a607b6804330121180001f018fc69
:1005dc000300ebb147f2305340f23012ba181360fb
:1005ec0001e003f0d4fb01f01efc030043b140f228
:1005fc0030117b181b685a1e79180a60002bf0d139
:10060c007b681b68402293431a007b681a600ce0dd
:10061c007b681b68402293431a007b681a6004e0d5
:10062c00c04602e0c04600e0c046bd464fb0b0bc7c
:10063c0008bc03b0184790b589b000aff860b9603a
:10064c007a60ba68f96814243b19180006f0c3f8ec
:10065c0020003b181a6813005b019b1a9b009b1827
:10066c00db0019003b185a6844f24023c0f20f0318
:10067c00b2fbf3f3cb18fb61f9697a680023914262
:10068c005b41dbb21800bd4609b090bdb0b588b077
:10069c0002af786040f24c63c2f200031b88002b5f
:1006ac0000d1a2e015217b1800221a7040f24c6395
:1006bc00c2f200031b88012b10d940f2cc53c2f2ba
:1006cc0000031b78422b09d140f2cc53c2f2000339
:1006dc005b784d2b02d17b1801221a701623fb1864
:1006ec0000221a8067e07b6840f28052991816232a
:1006fc00fb181a8840f2cc53c2f200039a5c7b6858
:10070c0040f2a65c634414257c19786803f05efe05
:10071c00030023707b191b78002b46d17b681b6868
:10072c0020221a437b681a607b6840f2ac529b5ab9
:10073c001c007b6840f2ae529b5a1d007b6840f255
:10074c00b0529b5a44f6f001c0f200017868009355
:10075c002b002200fff731fe0021012003f0e7f906
:10076c0008243b19180005f0d5ff20003b181a6827
:10077c0013005b019b1a9b009b18db0019003b18b4
:10078c005a6844f24023c0f20f03b2fbf3f3cb18c8
:10079c003b6140f25863c2f200033a691a6040f2be
:1007ac005c63c2f2000301221a701622bb18ba183d
:1007bc00128801321a8040f24c63c2f200031b888b
:1007cc001622ba1812889a428dd340f24c63c2f2a8
:1007dc00000300221a8040f2cc53c2f200038022a4
:1007ec000021180008f084f800e0c046bd4606b0b1
:1007fc00b0bd80b500af40f20003c2f2000340f27e
:10080c00cc520021180008f073f803f0a5fa00216f
:10081c00012003f08cf944f61c12c0f2000240f2e5
:10082c000003c2f2000311001800fff7c6fd764b5f
:10083c00180003f08ffd44f65012c0f2000240f293
:10084c000003c2f2000311001800fff7b6fd40f2de
:10085c000003c2f2000340f2c852c821995040f282
:10086c000003c2f2000340f2c4520021995040f23e
:10087c000003c2f2000340f2bf520121995444f626
:10088c006812c0f2000240f20003c2f20003110031
:10089c001800fff792fd40f20003c2f2000340f291
:1008ac0058115a4a5a5040f20003c2f2000340f267
:1008bc005c1240f200219952554b180005f0c8fa11
:1008cc0003001a0001235340dbb263b144f67c12df
:1008dc00c0f2000240f20003c2f200031100180043
:1008ec00fff76bfd0be044f69812c0f2000240f2e9
:1008fc000003c2f2000311001800fff75efd40f286
:10090c000003c2f2000340f23451424a5a5040f202
:10091c000003c2f2000340f23852402199523e4b80
:10092c00180005f06dfc03001a0001235340dbb2e4
:10093c0063b144f6b012c0f2000240f20003c2f2fe
:10094c00000311001800fff738fd0be044f6cc1241
:10095c00c0f2000240f20003c2f2000311001800c2
:10096c00fff72bfd40f20003c2f2000340f20c1122
:10097c002a4a5a5040f20003c2f2000340f210120d
:10098c0040219952264b180001f0a3fa03001a00db
:10099c0001235340dbb263b144f6e412c0f200020f
:1009ac0040f20003c2f2000311001800fff705fd2e
:1009bc000be044f60022c0f2000240f20003c2f247
:1009cc00000311001800fff7f8fc40f20003c2f21c
:1009dc0000031b6801221a4340f20003c2f2000319
:1009ec001a600121002003f0a2f844f61822c0f28c
:1009fc00000240f20003c2f2000311001800fff7de
:100a0c00dcfcc046bd4680bd800500206401002092
:100a1c00580100204005002034050020180100205a
:100a2c000c01002090b587b000aff860b9607a6017
:100a3c001a00bb1c1a8044f64423c0f20003fa6867
:100a4c001900100007f0f4fc03007b617b690bb903
:100a5c0000233be07a69fb68d31a9ab212217b1807
:100a6c0002321a807a18bb1c12881b889a4201d356
:100a7c0000232be012243b191a88f9687b681800b4
:100a8c0007f02cff20003b181b887a68d318002233
:100a9c001a70bb68198810243b193a1812888a1ae4
:100aac001a803b191b884bb13b181b88fa68d1186c
:100abc003b191a88fb68180007f026febb68102249
:100acc00ba1812881a801223fb181b881800bd460e
:100adc0007b090bdb0b58eb002af03f058f90c243e
:100aec003b19180005f016fe20003b181a6813007d
:100afc005b019b1a9b009b18db0019003b185a6882
:100b0c0044f24023c0f20f03b2fbf3f3cb183b6269
:100b1c0040f25c63c2f200031b78f3b140f25863fd
:100b2c00c2f200031b683a6ad31a312b15d9012182
:100b3c00002002f0fcff40f25c63c2f200030022d2
:100b4c001a7044f64822c0f2000240f20003c2f2ce
:100b5c00000311001800fff730fc03f0cdf8030080
:100b6c00190040f20003c2f2000340f2c052995245
:100b7c0040f20003c2f2000340f2c0529b5a1a002a
:100b8c00012313407bb340f20003c2f200031b6845
:100b9c0001221a4340f20003c2f200031a600c2334
:100bac00fb181a6840f26073c2f200031a6044f634
:100bbc005c22c0f2000240f20003c2f200031100fa
:100bcc001800fff7fafb0021012002f0b0ff40f201
:100bdc005863c2f200033a6a1a6040f25c63c2f2d4
:100bec00000301221a7040f20003c2f20003180045
:100bfc0001f0f0f940f26473c2f200031b685a1c56
:100c0c0040f26473c2f200031a6040f26473c2f2e1
:100c1c0000031b6840f2e73293422bd940f20003e9
:100c2c00c2f2000340f25e129b5a9bb21c0040f2cf
:100c3c000003c2f2000340f260129b5a9bb21d00eb
:100c4c0040f20003c2f2000340f264429b5a44f6a5
:100c5c008021c0f2000140f20000c2f200000093bb
:100c6c002b002200fff7a9fb40f26473c2f20003d1
:100c7c0000221a6040f20003c2f2000340f25e123e
:100c8c009b5a9bb2012b00d09ee040f20003c2f2b3
:100c9c00000340f260129b5a9bb21a0044f6c82122
:100cac00c0f2000140f20003c2f200031800fff78b
:100cbc0084fb40f20003c2f200031b6802221a43b9
:100ccc0040f20003c2f200031a600c23fb181a68ee
:100cdc0040f26073c2f200031a600021012002f09e
:100cec0026ff40f25863c2f200033a6a1a6040f2df
:100cfc005c63c2f2000301221a7044f6f422c0f2c3
:100d0c00000240f20003c2f2000311001800fff7ca
:100d1c0054fb40f20003c2f2000340f260129b5af3
:100d2c009bb283b140f20003c2f2000340f26012a6
:100d3c009b5a9ab2ce4940f20003c2f2000318004b
:100d4c00fff71efa0be044f62c32c0f2000240f220
:100d5c000003c2f2000311001800fff72efb40f253
:100d6c000003c2f2000340f25e1200219952c14b03
:100d7c0002220021180007f0bbfd40f20003c2f272
:100d8c00000340f25811ba4a5a5040f20003c2f222
:100d9c00000340f25c1240f200219952b64b18004d
:100dac0005f056f803001a0001235340dbb25bb187
:100dbc0044f66032c0f2000240f20003c2f20003bb
:100dcc0011001800fff7f9fa2f243b1900221a70b2
:100ddc0040f24c63c2f200031b8893b13b1d180018
:100dec0005f098fc40f22c1240f25063c2f2000362
:100dfc00381d1900fff71ffc030013b13b1901222a
:100e0c001a7040f20003c2f2000340f23a529b5aad
:100e1c009bb2012b00d092e01e243a1940f2000341
:100e2c00c2f2000340f23c515b5a13803b191b8801
:100e3c00002b5ad040f25063c2f20003180005f0a8
:100e4c0069fc40f24c63c2f200031b881a002100bb
:100e5c007b181b88d318802b20d840f24c63c2f22d
:100e6c0000031b881a0040f2cc53c2f20003d018c6
:100e7c000c007b181a88814b190007f02ffd40f2eb
:100e8c004c63c2f200031a883b191b88d3189ab220
:100e9c0040f24c63c2f200031a8026e040f2cc53bd
:100eac00c2f2000380220021180007f021fd1e234e
:100ebc00fb181b889ab2802a00d980239bb21a0097
:100ecc006e4940f2cc53c2f20003180007f006fd45
:100edc001e23fb181b889ab2802a00d980239ab251
:100eec0040f24c63c2f200031a80654b02220021cf
:100efc00180007f0fdfc40f20003c2f2000340f2c0
:100f0c0034515e4a5a5040f20003c2f2000340f2e0
:100f1c0038524021995240f20003c2f2000340f2d1
:100f2c003a520021995205f07df903001a00012371
:100f3c005340dbb21bb1534b180005f061f940f282
:100f4c004c63c2f200031b881f2b09d82f23fb18fc
:100f5c001b78a3b140f24c63c2f200031b8873b13f
:100f6c0040f24c63c2f2000300221a8040f2cc53d0
:100f7c00c2f2000380220021180007f0b9fc40f2f5
:100f8c006473c2f200031b685a1c40f26473c2f211
:100f9c0000031a6040f26473c2f200031b6840f253
:100fac00e732934205d940f26473c2f20003002287
:100fbc001a6040f20003c2f2000340f25e129b5a28
:100fcc009bb2012b00d090e11c203a1840f2000398
:100fdc00c2f2000340f260115b5a138001007b18cf
:100fec001b88002b00d155e140f20003c2f2000334
:100ffc0040f264429b5a1a007b181b88d318ff2bb3
:10100c0044dc40f20003c2f2000340f264429b5afb
:10101c001a001d4bd0180c007b181a88144b1900a1
:10102c0007f05cfc40f20003c2f2000340f26442a1
:10103c009a5a3b191b88d31899b240f20003c2f29a
:10104c00000340f26442995240f20003c2f20003e2
:10105c0040f264429b5a190040f20003c2f20003b2
:10106c0040f264325b189b1800221a7044e0c046b0
:10107c006401002060010020580100204005002080
:10108c003c0500203405002064030020704b40f226
:10109c0000120021180007f02bfc1c23fb181b88e6
:1010ac009ab2ff2a00d9ff239bb21a006949684bf8
:1010bc00180007f013fc1c23fb181b889ab2ff2a9c
:1010cc0000d9ff2399b240f20003c2f2000340f2b0
:1010dc006442995240f20003c2f2000340f26442af
:1010ec009b5a190040f20003c2f2000340f2643232
:1010fc005b189b1800221a70554bbb622623fb18f9
:10110c0000221a804de0ba69bb6ad31a9ab2162330
:10111c00fb1802321a801523fb18ba6912781a7060
:10112c001423fb18ba6952781a70bb6900221a7022
:10113c0044f68033c0f20003b86a0622190007f0a7
:10114c0038fb0300e3b94449bb6a9622180002f04d
:10115c0014ff030063b140f20003c2f200031b68ea
:10116c0008221a4340f20003c2f200031a6007e09f
:10117c0040f20003c2f2000340f29e420021995457
:10118c00bb691522ba1812781a702622bb18b91826
:10119c001622ba18098812888a181a80bb69023379
:1011ac00bb6244f64423c0f20003ba6a1900100073
:1011bc0007f03ef90300bb61bb69002ba3d12624c9
:1011cc003b191b88002b49d040f20003c2f20003ec
:1011dc0040f264429b5a3a1912889a423ed83b1903
:1011ec001a881b4bd11840f20003c2f2000340f2e4
:1011fc0064429b5a1a003b191b88d31a1a00144bd1
:10120c00180007f081fa40f20003c2f2000340f22a
:10121c0064429a5a3b191b88d31a99b240f20003c4
:10122c00c2f2000340f26442995240f20003c2f24f
:10123c00000340f264429b5a190040f20003c2f2d0
:10124c00000340f264325b189b1800221a7021e0f4
:10125c0064030020640100209e04002040f200037f
:10126c00c2f2000340f264429b5a2622ba1812883a
:10127c009a420fd940f20003c2f2000340f26442da
:10128c000021995240f20003c2f2000340f2643292
:10129c0000219954b24b02220021180007f028fbc0
:1012ac0040f20003c2f2000340f25811ad4a5a500a
:1012bc0040f20003c2f2000340f25c1240f2002143
:1012cc00995240f20003c2f2000340f25e12002178
:1012dc00995204f0cffd03001a0001235340dbb2f6
:1012ec001bb1a14b180004f0b3fd40f20003c2f295
:1012fc0000031b6820221340002b42d040f2000355
:10130c00c2f2000340f2c4529b583a6ad21a40f21d
:10131c000003c2f2000340f2c8515b589a4230d32a
:10132c0040f20003c2f20003180000f02cf940f266
:10133c000003c2f200031b68202293431a0040f200
:10134c000003c2f200031a6040f20003c2f2000371
:10135c001b680822134063b140f20003c2f2000381
:10136c001b68082293431a0040f20003c2f20003e8
:10137c001a6040f20003c2f2000340f2c4513a6a10
:10138c005a5000f050fd03001a0001235340dbb209
:10139c0063b140f20003c2f200031b684022934386
:1013ac001a0040f20003c2f200031a600c23fb186f
:1013bc001a6840f26073c2f200031b68d31a052b43
:1013cc0000d8c9e044f68832c0f2000240f20003b3
:1013dc00c2f2000311001800fef7efff40f2000309
:1013ec00c2f200031b68402293431a0040f2000330
:1013fc00c2f200031a6004f03dfd0300002b4fd035
:10140c0044f6d432c0f2000240f20003c2f20003f0
:10141c0011001800fef7d1ff04f039fd40f2000373
:10142c00c2f2000340f25e12002199524c4b022290
:10143c000021180007f05cfa40f20003c2f200032e
:10144c0040f25811474a5a5040f20003c2f20003ce
:10145c0040f25c1240f200219952434b180004f008
:10146c00f7fc03001a0001235340dbb263b144f6ce
:10147c000042c0f2000240f20003c2f2000311006d
:10148c001800fef79aff0be044f63842c0f2000257
:10149c0040f20003c2f2000311001800fef78dffaa
:1014ac0004f0c0fe0300002b4ed044f66c42c0f298
:1014bc00000240f20003c2f2000311001800fef714
:1014cc007cff04f0bcfe40f20003c2f2000340f2c9
:1014dc003a5200219952254b02220021180007f0a4
:1014ec0007fa40f20003c2f2000340f23451204ae2
:1014fc005a5040f20003c2f2000340f2385240212d
:10150c0099521c4b180004f07bfe03001a000123b7
:10151c005340dbb263b144f69842c0f2000240f291
:10152c000003c2f2000311001800fef746ff0be0a7
:10153c0044f6cc42c0f2000240f20003c2f20003b7
:10154c0011001800fef739ff0c23fb181a6840f243
:10155c006073c2f200031a60c046bd460cb0b0bd49
:10156c006001002064010020580100203c0500208f
:10157c00400500203405002080b500affff739f995
:10158c00fff7a8fafce7f0b587b002af786047f236
:10159c003053fb6001e002f0fafb7b681b684022d1
:1015ac0013401bb900f03ffc030023b1fb685a1e2b
:1015bc00fa60002befd1fb6853b97b681b684022a3
:1015cc001340002b4cd100f02efc0300002b47d114
:1015dc007b681b680822134013b37b6840f29e4261
:1015ec009b5cebb17b6840f29e429c187b6840f29e
:1015fc00ac529b5a1e007b6840f2ae529b5a1d00a7
:10160c007b6840f2b0529b5a44f60051c0f2000184
:10161c0078680193009533002200fef7cefe17e0a8
:10162c007b6840f2ac529b5a1c007b6840f2ae5275
:10163c009b5a1d007b6840f2b0529b5a44f63051c5
:10164c00c0f20001786800932b002200fef7b5fe73
:10165c007b681b68282293431a007b681a6000e0a1
:08166c00c046bd4605b0f0bd0b
:020000040000fa
:1016740080b500af41f60043c4f20003d0224221fa
:10168400995000e0c04641f60043c4f20003d02262
:101694009b5840221340002bf4d040f26873c2f2ee
:1016a40000032c220021180007f026f940f2687389
:1016b400c2f2000341f20002c4f200221a6041f2b5
:1016c4000003c4f2002301221a6000e0c04641f284
:1016d4000003c4f20023db6901221340002bf5d17f
:1016e40041f20003c4f2002304221a6041f2000311
:1016f400c4f20023196841f20003c4f2002300225b
:10170400c4f210020a431a6041f20002c4f2002239
:1017140041f20003c4f2002352685a6041f200030c
:10172400c4f200232c4a9a8140f26873c2f2000387
:1017340000225a6240f26873c2f200034ef6c232cb
:10174400c0f20b029a6241f20003c4f200235a6809
:1017540041f20003c4f20023c32109040a435a607e
:1017640000e0c04641f20003c4f20023db69042216
:101774001340002bf5d143f20023c4f2000384226a
:1017840040f20011995043f20023c4f20003c8222e
:101794000321995443f20023c4f20003b422032129
:1017a400995441f20003c4f200231a6841f2000381
:1017b400c4f2002302210a431a6000e0c04641f249
:1017c4000003c4f20023db6902221340002bf5d18d
:1017d400c046bd4680bdc0462bf6ffff80b500afb6
:1017e40041f60043c4f20003c8224221995000e0ac
:1017f400c04641f60043c4f20003c8229b5840226d
:101804001340002bf4d040f29473c2f200032c2254
:101814000021180007f070f840f29473c2f200033c
:1018240040f60002c4f200221a6040f60003c4f23b
:10183400002301221a6000e0c04640f60003c4f20f
:101844000023db6901221340002bf5d140f600038d
:10185400c4f2002304221a6040f60003c4f20023f9
:10186400196840f60003c4f200230022c4f21002f7
:101874000a431a6040f60003c4f200235a6840f693
:101884000003c4f2002340210a435a6040f60003d7
:10189400c4f200232b4a9a8140f29473c2f20003eb
:1018a40000225a6240f29473c2f200034ef6c2322e
:1018b400c0f20b029a6240f60003c4f200235a6895
:1018c40040f60003c4f20023c32109040a435a600a
:1018d40000e0c04640f60003c4f20023db690422a2
:1018e4001340002bf5d143f20023c4f200038022fd
:1018f40092025a6043f20023c4f2000351220321ee
:10190400995443f20023c4f200033822202199544d
:1019140040f60003c4f200231a6840f60003c4f240
:10192400002302210a431a6000e0c04640f6000387
:10193400c4f20023db6902221340002bf5d1c04618
:10194400bd4680bd2bf6ffff80b500af41f60043d6
:10195400c4f20003c4224221995000e0c04641f67b
:101964000043c4f20003c4229b5840221340002bbe
:10197400f4d040f2c073c2f200032c2200211800fc
:1019840006f0baff40f2c073c2f2000340f2004214
:10199400c4f200221a6040f20043c4f20023012280
:1019a4001a6000e0c04640f20043c4f20023db6941
:1019b40001221340002bf5d140f20043c4f200236e
:1019c40004221a6040f20043c4f20023196840f272
:1019d4000043c4f200230022c4f210020a431a6036
:1019e40040f20042c4f2002240f20043c4f2002359
:1019f40052685a6040f20043c4f200232b4a9a8191
:101a040040f2c073c2f2000300225a6240f2c07373
:101a1400c2f200034ef6c232c0f20b029a6240f2e6
:101a24000043c4f200235a6840f20043c4f2002386
:101a3400c32109040a435a6000e0c04640f200434f
:101a4400c4f20023db6904221340002bf5d143f2d6
:101a54000023c4f2000320225a6043f20023c4f29c
:101a6400000345220321995443f20023c4f20003e6
:101a740032223021995440f20043c4f200231a6800
:101a840040f20043c4f2002302210a431a6000e03a
:101a9400c04640f20043c4f20023db690222134033
:101aa400002bf5d1c046bd4680bdc0462bf6ffffd6
:101ab40080b582b000af78607b685b6963b17b6896
:101ac4005b690122da807b685b697a68128c92b266
:101ad4001a817b6800225a617b6800229a617b68c4
:101ae4000022da617b6800221a84c046bd4602b037
:101af40080bd90b587b000af786039601623fb18bd
:101b040000221a801523fb1800221a707b681b68b8
:101b14001b7edbb21a0001231340002b50d07b68dc
:101b24001b8a9bb283b17b68db68591c7a68d160dd
:101b34001b78dab27b681b689a627b681b8a9bb24b
:101b4400013b9ab27b681a827b681b8a9bb2002b8a
:101b540036d17b680022da607b681b899bb22bb389
:101b64007b685b681a687b68da607b685b689b8863
:101b74009ab27b681a827b685b6808331a007b68b8
:101b84005a607b681b899bb2013b9ab27b681a81bd
:101b94007b68db681bb17b681b8a9bb283b97b685b
:101ba4000022da607b6800221a8209e07b681b68e5
:101bb40001221a757b6800225a607b680022da6071
:101bc4007b681b681b7edbb21a000423134073b1cd
:101bd4007b681b685b8b9ab21623fb1836490a4351
:101be4001a807b681b689a6a1523fb181a707b6835
:101bf4005b69002b59d01623fb181b8848f203029b
:101c0400134048f20002934213d17b685b691a685f
:101c14007b681b8c9bb2591c88b279680884d318e2
:101c24001522ba1812781a707b683a68183303caf6
:101c340003c37b681b685b8b9bb21ab21623fb1829
:101c440000215b5ef7210b401bb213431ab27b6881
:101c54001b6892b25a837b681b8c9ab27b685b695f
:101c64009b889bb29a4204d37b681800fff720ff3d
:101c74001ce07b681b8c9bb2cbb17b6818331a00c9
:101c840039680c243b19180004f0a9fd7b6824333f
:101c94001a003b191100180004f0a5fc031e06db12
:101ca4007b681800fff704ff00e0c046c046c0464a
:101cb400bd4607b090bdc0460080ffff80b582b02e
:101cc40000af78607a6840f26873c2f200031100d2
:101cd4001800fff70eff7a6840f29473c2f2000313
:101ce40011001800fff705ff7a6840f2c073c2f2d2
:101cf400000311001800fff7fcfec046bd4602b009
:101d040080bd80b582b000af78607b681b8a9bb2cf
:101d14005bb97b681b899bb23bb97b681b681b7ee4
:101d2400dbb21a00012313400bb9012300e00023a6
:101d34001a1c01231340dbb21800bd4602b080bd5b
:101d440080b588b000aff860b9607a601e23fb18d4
:101d5400082252421a80bb680bb17b680bb901237d
:101d64003ae07b68202b01d9002335e0fb6818009a
:101d7400fff7c7ff03000bb100232de00023bb6175
:101d840000237b611ce0bb69db00ba68d3189b8825
:101d94001e22ba1812889a4201d200231ce0bb69a1
:101da400db00ba68d3189a881e217b187918098831
:101db4008a1a1a807b6901337b61bb690133bb6179
:101dc400ba697b689a42ded3fb68ba685a607b685a
:101dd4009ab2fb681a8101231800bd4608b080bd81
:101de40080b582b000af78607b6800221a817b687e
:101df40000225a607b6800221a827b680022da6023
:101e0400c046bd4602b080bd80b582b000af7860e8
:101e140039603a68796840f26873c2f200031800c6
:101e2400fff78eff03001800bd4602b080bd80b5e9
:101e340000af40f26873c2f200031800fff761ffbd
:101e440003001800bd4680bd80b500af40f2687342
:101e5400c2f200031800fff7c3ffc046bd4680bdb1
:101e640080b582b000af78607b685b695a1e93418d
:101e7400dbb21800bd4602b080bd80b582b000afb1
:101e8400786039603b685bb13b681b6843b13b6871
:101e94009b882bb13b689b884ff6f872934201d91b
:101ea400002316e07b685b690bb1002311e03b68fb
:101eb4000022da803b6800221a817b6800221a849f
:101ec4007b681833180004f046fc7b683a685a6152
:101ed40001231800bd4602b080bd80b582b000afba
:101ee40078607a6840f26873c2f200031100180047
:101ef400fff7c3ff03001800bd4602b080bd80b5e4
:101f040000af40f26873c2f200031800fff7a8ffa5
:101f140003001800bd4680bd80b500af40f2687371
:101f2400c2f200031800fff7c3fdc046bd4680bde2
:101f340080b582b000af78607a6840f29473c2f2e0
:101f4400000311001800fff798ff03001800bd46b6
:101f540002b080bd80b500af40f29473c2f20003ba
:101f64001800fff77dff03001800bd4680bd80b553
:101f740000af40f29473c2f200031800fff798fd1b
:101f8400c046bd4680bd80b582b000af78607a6837
:101f940040f2c073c2f2000311001800fff76dff96
:101fa40003001800bd4602b080bd80b500af40f20a
:101fb400c073c2f200031800fff752ff03001800b9
:101fc400bd4680bd80b500af40f2c073c2f20003cd
:0c1fd4001800fff76dfdc046bd4680bd43
:020000040000fa
:101fe00090b585b000af78607b681b680122134014
:101ff000002b4bd0fff71dff0300002b48d17b685f
:102000001b6840221340002b44d17a6845f2bc6320
:10201000c0f2000353607b6840f298221a817b680b
:102020001b6840221a437b681a607b6804330121d5
:102030001800fff7ebfe03009bb17b681b680122d1
:1020400093431a007b681a607b681b6840229343a5
:102050001a007b681a607b6840f2be5201219954d5
:1020600019e008243b19180004f05afb21007b18e2
:102070001a684cf60023c3f69a335a437b185b6800
:10208000d2187b6840f2c4515a5004e0c04602e0c6
:10209000c04600e0c046bd4605b090bdf0b597b063
:1020a00006af78613961fa60bb60fff7c2fe0300da
:1020b0000bb10023c0e07b691b6840221340002b5a
:1020c00045d0142608217b189b19180004f028fb22
:1020d00008217b189b191b683b6000237b604cf632
:1020e0000022c3f69a3200233868796806f064f952
:1020f00002000b0008217918891949680c00002595
:1021000012196b411c001300bb63fc637b6940f236
:10211000c4529b583b6300237b63b96bfa6b3b6be8
:102120007c6bc91aa2410b00140034b96cb94cf68f
:102130000022c3f69a32934207d97b691b6840227a
:1021400093431a007b691a6001e0002374e07b6905
:102150000c33180045f2ac61c0f2000145f658128c
:10216000c0f20002bb68059345f28863c0f2000329
:102170000493fb68039345f28863c0f20003029363
:102180003b69019345f2a463c0f2000300930b0086
:1021900040f2001106f088fb0300fb62fb6a002b93
:1021a00002ddfb6aff2b01dd002345e07b690c3378
:1021b0001a007b695a60fb6a9ab27b691a817b6953
:1021c0001b6840221a437b691a601c2408257b196e
:1021d0001b19180004f0a4fa210028003b185b1812
:1021e0001a684cf60023c3f69a335a433b185b181f
:1021f0005b68d2187b6940f2c4515a507b69043342
:1022000001211800fff702fe0300a3b17b691b68e0
:10221000402293431a007b691a607b691b6808227d
:1022200093431a007b691a60bb6d13b1bb6d00222a
:102230001a70012300e000231800bd4611b0f0bd64
:10224000f0b595b004af78610e00100019000a23b4
:1022500040f2080cbc446344321c1a80082340f24c
:10226000080cbc446344021c1a800e23fb180a1c91
:102270001a80fff7defd03000bb10023b8e07b6995
:102280001b6840221340002b45d0142608217b18e0
:102290009b19180004f044fa08217b189b191b684d
:1022a0003b6000237b604cf60022c3f69a32002389
:1022b0003868796806f080f802000b000821791868
:1022c000891949680c00002512196b411c00130084
:1022d000bb63fc637b6940f2c4529b583b630023a1
:1022e0007b63b96bfa6b3b6b7c6bc91aa2410b0029
:1022f000140034b96cb94cf60022c3f69a329342fa
:1023000007d97b691b68402293431a007b691a60d6
:1023100001e000236ce07b690c331d000a2340f2ce
:10232000080cbc4463441988082340f2080cbc44e0
:10233000634418880e23fb181c8845f2b463c0f26e
:10234000000345f68812c0f2000202940190009149
:1023500040f20011280006f0a7fa0300fb62fb6ab6
:10236000002b02ddfb6aff2b01dd002340e07b69cf
:102370000c331a007b695a60fb6a9ab27b691a8136
:102380007b691b6840221a437b691a601c2408255c
:102390007b191b19180004f0c3f9210028003b1811
:1023a0005b181a684cf60023c3f69a335a433b185d
:1023b0005b185b68d2187b6940f2c4515a507b6944
:1023c000043301211800fff721fd03007bb17b6975
:1023d0001b68402293431a007b691a607b691b6863
:1023e000202293431a007b691a60012300e0002336
:1023f0001800bd4611b0f0bdf0b591b00aaff8605d
:10240000b9607a603b60fff714fd03000bb1002355
:10241000bee0fb681b68402213400bb10023b7e00d
:10242000bb6873b1bb681b785bb17b684bb17b68e1
:102430001b7833b13b6823b13b681b780bb1012299
:1024400000e0002213203b181a701a7801210a407c
:102450001a703b181b78a3b3fb680c331e003023a3
:10246000fb1818883423fb181c883823fb181d8898
:1024700045f2ac61c0f2000145f6c412c0f20002a0
:1024800045f28863c0f2000308930795069405900f
:1024900045f2b463c0f2000304933b6803937b6886
:1024a0000293bb68019345f2a463c0f2000300935a
:1024b0000b0040f20011300006f0f6f903007b61da
:1024c00028e0fb680c331e003023fb1818883423e7
:1024d000fb181c883823fb181d8845f2ac61c0f23c
:1024e000000145f62c22c0f2000245f28863c0f2da
:1024f0000003049303950294019045f2b463c0f283
:10250000000300930b0040f20011300006f0ccf9fc
:1025100003007b617b69002b02dd7b69ff2b01dd02
:10252000002335e0fb680c331a00fb685a607b69b6
:102530009ab2fb681a81fb681b6840221a43fb6849
:102540001a60fb68043301211800fff75ffc0300e9
:10255000ebb1fb681b68402293431a00fb681a60ca
:10256000fb681b68082293431a00fb681a60fb682b
:102570001b68202293431a00fb681a60fb681b68e3
:10258000802293431a00fb681a60012300e00023b5
:102590001800bd4607b0f0bd80b58ab000aff86046
:1025a000b9607a603b60fff744fc03000bb1002385
:1025b000bce1fb681b68402213400bb10023b5e16e
:1025c00000237b623b681bb17b680bb90023ade144
:1025d000bb68002b00d183e045f68823c0f20003de
:1025e000b8680e22190006f0eaf803005bb145f660
:1025f0009823c0f20003b8681122190006f0dff832
:102600000300002b6cd1fb680c331800bb6845f647
:10261000ac22c0f2000240f2001106f045f90300be
:102620007b6200233b6252e07a683b6ad218172132
:102630007b1812781a707b181b781f2b0cd97b180b
:102640001b787e2b08d87b6a5a1c7a62fa68d318ea
:102650007a1812781a7337e01722bb181b780d2be3
:1026600031d0bb181b780a2b15d1fb680c331a002c
:102670007b6ad0187b6a40f20012d11abb6845f61b
:10268000b422c0f2000206f00ff903001a007b6ac0
:102690009b187b6218e0fb680c331a007b6ad01829
:1026a0007b6a40f20012d11a1723fb181b7845f6fb
:1026b000bc22c0f2000206f0f7f803001a007b6aa1
:1026c0009b187b6200e0c0463b6a01333b623a6a7a
:1026d0003b689a4200d3d7e07b6af52ba4d9d3e0bc
:1026e000bb68002b62d045f6c423c0f20003b86873
:1026f0000a22190006f063f80300002b56d1fb688c
:102700000c33180045f6d023c0f200031a0040f243
:10271000001106f0c9f803007b620023fb613ce076
:10272000fb680c331a007b6ad0187b6a40f20012f7
:10273000d11a7a68fb69d3181b7845f6e022c0f2fb
:10274000000206f0b1f803001a007b6a9b187b6256
:10275000fb6901330f221340e3b93b68013bfa697f
:102760009a4217d27b6af02b14d8fb680c331a00fc
:102770007b6ad0187b6a40f20012d11a45f6e82332
:10278000c0f200031a0006f08ff803001a007b6afb
:102790009b187b62fb690133fb61fa693b689a42d3
:1027a00000d373e07b6afb2bbad96fe0bb686bb1d7
:1027b000fb680c331800bb6845f6ac22c0f200027f
:1027c00040f2001106f070f803007b620023bb6149
:1027d00052e07a68bb69d21816217b1812781a70f9
:1027e0007b181b781f2b0cd97b181b787e2b08d8e5
:1027f0007b6a5a1c7a62fa68d3187a1812781a73ac
:1028000037e01622bb181b780d2b31d0bb181b7874
:102810000a2b15d1fb680c331a007b6ad0187b6a2f
:1028200040f20012d11a45f6f823c0f200031a0054
:1028300006f03af803001a007b6a9b187b6218e0e6
:10284000fb680c331a007b6ad0187b6a40f20012d6
:10285000d11a1623fb181b7845f6bc22c0f20002e1
:1028600006f022f803001a007b6a9b187b6200e0e6
:10287000c046bb690133bb61ba693b689a4206d264
:102880007b6af52ba5d902e0c04600e0c0467b6a12
:102890000bb37b6afd2b1ed87b6a012b0dd97b6a9b
:1028a000023bfa68d3181b7b0d2b06d17b6a013bd8
:1028b000fa68d3181b7b0a2b0dd07b6a5a1c7a62ec
:1028c000fa68d3180d221a737b6a5a1c7a62fa6866
:1028d000d3180a221a73fa687b6ad3180c330022c1
:1028e0001a707b6a0bb9002320e0fb680c331a00d6
:1028f000fb685a607b6a9ab2fb681a81fb681b68a6
:1029000040221a43fb681a60fb6804330121180057
:10291000fff77cfa030043b1fb681b684022934336
:102920001a00fb681a60012300e000231800bd466e
:042930000ab080bdac
:020000040000fa
:10293400f0b5bc4ca5441093040000230800089291
:102944000693302851d02e2877d1e36be26c934262
:1029540058d25a1ce263187800220023029203938f
:10296400302853d001230993002300221e001500b0
:102974001f001293059300930300303b092b62d987
:102984002e2862d0099b0bb902950396069b002b57
:1029940000d1aee320230343652b00d0c1e3999912
:1029a400200004f081fe70b980231b0699420ad1ed
:1029b400999b002b00d1aae3e36c0020002113b102
:1029c400e36b013be363029b039c1b184c410293a2
:1029d4000394129c002c00d088e0989805f022ff04
:1029e4000022002304f0b6fd97e3e36be26c93420c
:1029f40004d25a1ce26318780123a1e7200005f0f1
:102a040059fbf9e7200005f055fba5e701225242e6
:102a1400d3170298039980185941e36be26c029032
:102a24000391934205d25a1ce2631878012306935a
:102a340096e7200005f03efbf8e700230022099307
:102a44000292039390e72e280ed1099b002b4bd1c1
:102a54000295039601330993e36be26c93423fd2f0
:102a64005a1ce263187887e7009a7c2a20dc290044
:102a7400320001250026491972410d001600302844
:102a840000d0059137b1009a12a9920052580a2138
:102a94004a43d318009a12a99200535001230137d4
:102aa4000693092fd8d1009b002701330093d3e765
:102ab4002a003300012500265219734115001e0017
:102ac4003028c9d040f2f01212ab9b580593012371
:102ad40005990b4312a98b5040f25c430593bbe765
:102ae400200005f0e7fa47e72e204fe7029a9542c7
:102af4001bd1039a964218d1002e16dc0eb9092d6b
:102b040013d8089b1e2b03dc2300089ad34063b917
:102b1400989805f087fe060020000f0005f090fe4f
:102b240002000b00300039005ce7109b109adb0fa9
:102b34009b185b1003995b42da17914203dc11d1b5
:102b4400029a9a420ed92222374b98981a6005f0bd
:102b540069fe0122354b524204f0fcfc0122334b46
:102b640052423fe7109b03996a3bda178a4203dc1f
:102b740011d1029a93420ed922222b4b98981a60b3
:102b840005f050fe802300225b0304f0e3fc802365
:102b940000225b0326e70a21f7b9059b029c082b58
:102ba4006bdca34269dc112c67dc092c1ad1129866
:102bb40005f046fe040098980d0005f033fe02006f
:102bc4000b00200029000de79a0012abd35812a87d
:102bd40006934b4301371350009b082ff4dd013358
:102be4000093dae7082c25dc129805f029fe06008c
:102bf40098980f0005f016fe02000b003000390013
:102c040004f0a8fc08231c1b094ba4000600e05890
:102c14000f0005f007fe02000b003000390004f03d
:102c240089fe7ae2b4fdffffc4080020ffffef7fb6
:102c3400408700002300093b9a009b1a089a9b18be
:102c44001e2b02dc129ada40bab9129805f0f8fd8c
:102c5400060098980f0005f0e5fd02000b00300017
:102c6400390004f077fc0a3c8e4ba4000600e058bf
:102c74000f0005f0d7fd53e70093009b12a9013b19
:102c84009a005258002af7d0092394fbf3f25343d5
:102c9400e31a0293dbb1002c01da0933029308230f
:102ca400029a12a89b1a7f4a9b009f5800231a007d
:102cb4001900009da9420dd12bb1a90012a80b50f7
:102cc4002b0001330093029b0292e41a093400237f
:102cd400059378e00568b5fbf7f6f3189c460360a6
:102ce400714b7e4393fbf7f3ae1b7343914205d1c3
:102cf40065461db97f224d1c2a40093c0131043030
:102d0400d7e7059b1d3b0593009b5d1e7f231d405c
:102d14000023069312aaab009b58da085b070a93b8
:102d2400069b0b920c9300230a9e0b9f0d930c9a07
:102d34000d9bb6185f4117b95b4b9e421ed95a4a88
:102d440000233000390005f097fb574a0690002312
:102d54003000390005f090fbab0012a95a50009bdb
:102d6400591e7f230b40ab420bd1029b9d4273d073
:102d740002b900957f23013d1d40cbe73200069741
:102d8400eae7029a9542f5d1069ae2b17f21029ac6
:102d94000934013a0a4002920298009a82420dd103
:102da4005a1e0a40920012a810589900009012a8c6
:102db400095800980093014312a81150029b0699e8
:102dc4009b0012aa9950112c9bdd122c06d1029b58
:102dd40012a99b00354a5b58934292d90126029b63
:102de400009a934215d012aa9b009b582f4a9342f3
:102df4000fd92f4a93420ed17f22029b01331340f5
:102e0400009a9a4205d09b0012a92a4a5b58934221
:102e140001d8122c50d032001b2c00dd0922059b56
:102e240000219b18059333009340013b06931e4bee
:102e340013419c46029b009883420fd10029ced0b7
:102e4400421c7f20029b02409a4220d0009b12a881
:102e54009b00c1500092c2e7029b95e79f0012a815
:102e64003d582800d040401812a9785006992940ae
:102e740065466943029dab4205d120b95d1c7f3094
:102e840005400295093c7f2001330340d3e7009bb2
:102e940012aa013b03409b00d25812a90692324366
:102ea400ca509ce74087000000ca9a3b5e708900c4
:102eb4005f708900ff092f0f029b009a934209d18a
:102ec4005a1c7f231a40130000920022013b9b00ee
:102ed40012a9ca50029b12aa9b00d05805f0b0fc5c
:102ee4000022002304f038fa029b009a5e1c7f2320
:102ef4001e40964208d101321a401300009200226b
:102f0400013b9b0012ace2500022874b04f022fbf1
:102f140004000d0012abb600f05805f091fc22003d
:102f24002b0004f019fa04000d00989805f07afcbf
:102f340022002b000690079104f00cfb059b109acd
:102f4400353311939b1a089a0a900b910c93934270
:102f540000dbb1e0002b00dab1e01d00012309938e
:102f6400342d00ddafe069220020521b6f4905f0cb
:102f74001ff90a9a0b9b05f0f5fc35220e900f9170
:102f8400521b0020694905f013f902000b000a984e
:102f94000b9905f047fd02000b0006000f000a988c
:102fa4000b9905f0bdfc02000b000e980f9904f07c
:102fb400d3f90a900b917f22029b009902331340ac
:102fc4008b4232d012a99b005b5859498b4200d9dd
:102fd40080e02bb9029c009b033414409c420dd02a
:102fe4000022544b0698079904f0b4fa02000b002f
:102ff4003000390004f0b0f906000f0035235b1be4
:10300400012b12dd0022494b3000390005f00afd86
:103014000022002305f04efb38b1300039000022b5
:10302400424b04f099f906000f000a980b99109b83
:1030340032005c42089be41a3b0004f08df90e9abe
:103044000f9b05f06dfc119b621e5b0000900191cb
:103054005b089a422adc05f0e1fc0022364b05f0bd
:1030640087f990b1099b2bb10c9b5d1b2b005d1e56
:10307400ab410993314b00980199002204f06afa9c
:10308400059b0090019101330593059b0334343370
:10309400a34208da099b4bb1002200233000390017
:1030a40005f008fb10b92222254b1a60059a0098f6
:1030b400019905f0affc30e0089d00234fe70123a0
:1030c400002509934fe7002300241e000e930f945c
:1030d400270070e71b498b4202d000221a4b81e77c
:1030e400029c009b0334144000229c42f6d1134bf3
:1030f40078e7002808dbe36c13b1e36b013be3637f
:10310400069b002b00d064e416220d4b1a600021ac
:10311400200005f0affb0020002140f24c239d4429
:10312400f0bd0028e7da54e465cdcd410000f03f5e
:10313400ff64cd1d0000d03f000040430000e03f8d
:0c314400c40800200065cd1d0000e83f1d
:020000040000fa
:10315000f0b595b004000492022900d929e1af4be3
:1031600001335b18db7f49005bb21293ab4bc9188c
:1031700024228b5e0a93e36be26c93422cd25a1c9e
:10318000e2631d78202df6d02b00093b042bf2d9e9
:1031900001222b2d25d0069202232d2d22d000278f
:1031a00020239f4a2b43ba181278934229d0032f29
:1031b00003d040d9049b002b3ed0e26c12b1e36bec
:1031c000013be363049b4bb3032f27d012b1e36ba6
:1031d000013be363013ff7e7200004f06dff0500ca
:1031e000d0e70023d31a0693e26ce36b934203d239
:1031f0005a1ce2631d78d2e7200004f05dff050051
:10320000cde77e1c072f09d0e36be26c93420dd211
:103210005a1ce2631d783700082ec1d1069b00209e
:10322000013300d1a2e27f4915b0f0bd200004f0c7
:1032300043ff0500efe7b7b1e36c002b00d1b1e02d
:10324000e36b013be363ade07e1c022f00d19ae209
:10325000e36be26c93426bd25a1ce2631d78370039
:10326000032e00d18fe220236f4a2b43ba18127825
:103270009342e9d0002fdfd1129b0b93302d00d069
:1032800069e2e36be26c934200d39ce05a1ce26378
:1032900018782023e26c0343782b00d057e2e36bcd
:1032a000934200d393e05a1ce263187800230f93f3
:1032b000302800d18fe02e2800d199e00022002391
:1032c000089209930e93002300221393574b002575
:1032d0001092119300230026029203930300303bc7
:1032e0000c93092b00d8bbe020230343613b052b43
:1032f00000d8b5e02e2800d1b4e00f9b002b00d001
:103300001be1e36c002b00d132e2049ae36b002a4c
:1033100000d10be10e9a002a00d005e1023be363e5
:10332000069805f081fa0022002304f015f97be7e6
:10333000200004f0c1fe050091e75a1ce2631878f2
:103340002838431e9841c0b2012540b1e36c13b93f
:103350000020374968e7e36b013be363f8e7e36b81
:10336000e26c934211d25a1ce26318780300303b9e
:10337000092b08d9202302009a431300413b192b43
:1033800001d95f2805d10135e9e7200004f094fe5a
:10339000ece72928dcd0e26c12b1e36b013be3637c
:1033a000049b6bb91622234b1a600021200005f004
:1033b00063fa0020002137e712b1e36b013be363be
:1033c000013df9d2c4e7200004f076fe61e7200059
:1033d00004f072fe6ae7e36be26c934204d25a1c7b
:1033e000e2631878012362e7200004f065fef9e744
:1033f000e36be26c93420dd25a1ce2631878002210
:10340000002301256d42ee1708920993302813d04e
:10341000012357e7200004f04ffef0e7408700004b
:10342000b28900000000f07fbb8900000000f03f7f
:103430000000f87fc4080020e36be26c93420bd2db
:103440005a1ce2631878089a099b52197341089232
:10345000099301230f93d9e7200004f02dfef2e732
:103460002e2813d10e9b002b00d086e10c950d96d3
:1034700001330e93e36be26c934251d25a1ce26328
:103480001878089509960c9d0d9e27e7392803ddcd
:1034900020230343573b0c93002e2adc0eb9072d43
:1034a0000dd80c9b3f01df190122002352197341f3
:1034b000089d099e0c920d9301230f93dae70d2dc1
:1034c00017d8109811990022b34b04f045f81090ca
:1034d00011910c9805f0a8f9109a119b04f03cf892
:1034e00002000b000298039903f038ff0290039149
:1034f000dae70c9b002bd7d0139b002bd4d110986c
:1035000011990022a54b04f027f80b000200029845
:10351000039903f023ff0123029003911393c3e760
:10352000200004f0c9fdace7033bf8e6013be36390
:103530000021200005f0a0f9f2e60e9b0bb90895da
:1035400009960122002302e0ad185e413f01002ee2
:1035500003dc002ef8d1072df6d920263043702841
:103560000cd10499200004f0a1f870b980231b0647
:1035700099420ad1049b002b00d116e7e36c13b1ea
:10358000e36b013be36300200021002f00d1c7e67d
:10359000089a099b08246442e51712196b4114002c
:1035a000960f9b003343a20012184b4104920593df
:1035b0000a9b05995b42da17914203dc11d1049a08
:1035c0009a420ed92222764b06981a6005f02cf901
:1035d0000122744b524203f0bfff0122714b524251
:1035e000a3e60a9b05996a3bda178a4203dc33d1ca
:1035f000049a934230d92222694b06981a6005f04a
:1036000013f9802300225b0303f0a6ff802300222e
:103610005b038ae6002202980399604b04f0aafe3d
:103620007f00002800d187e00298039900225e4bba
:1036300005f078f9013702000b000298039903f0b6
:103640008dfe01225242d3170290039104980599ee
:103650008018594104900591002fdbda04980599f0
:10366000129b2022dc17002312184b410a98c11725
:10367000121a8b419c4203dc08d11299914205d960
:10368000049b0a9a9b1a20330b935ad40b9b342b1e
:103690005adc54220b9b0020d21a434904f08afdc5
:1036a000040006980d0005f0bff80b000200290089
:1036b000200005f059f90b9b04000d001f2b0ddcb9
:1036c000029803990022002304f0f6ff30b9fb07ab
:1036d00004d400220023029203930137069805f0d8
:1036e000a3f8029a039b0690079103f035ff02901e
:1036f0000391380005f0a6f8069a079b03f02cff0b
:1037000022002b0003f02afe029a039b03f026fe00
:1037100022002b0005f006f90022002304000d0012
:1037200004f0caff10b122221d4b1a60049a200037
:10373000290005f071f977e5029a039b1000190042
:103740007de700230b93a4e700240025c6e712b110
:10375000e36b013be363049b129a0193069b2900f0
:10376000009320000a9bfff7e5f85de50f495be554
:10377000049b002b00d0d3e5dae60f9b2e20002b14
:1037800000d0dee6bde5e36be26c934200d2d4e507
:10379000200004f091fcd3e50000b03f0000e03fc2
:1037a000c4080020ffffef7f0000f03f0000f0ffa3
:020000040000fa
:1037b00080b582b000af0200fb1d1a70fb1d1b78a4
:1037c0007f2b12d8fb1d1b781a001f231a401100f3
:1037d0004ef20013cef20003fa1d127852b25209d3
:1037e0000120884001009200d150c046bd4602b081
:1037f00080bd90b583b000af02003960fb1d1a7028
:10380000fb1d1b787f2b2fd84ef20013cef2000346
:10381000fa1d127852b29208c0329200d358fa1da3
:103820001278110003220a40d200ff2191400a00c1
:10383000d2431a4010003b689b01ff221a40fb1d37
:103840001b78190003230b40db009a4011004ef255
:103850000013cef20003fa1d127852b2920801430f
:10386000c0329200d15037e04ef60053cef2000342
:10387000fa1d127811000f220a40083a9208063207
:1038800092009b1804331b68fa1d12781100032262
:103890000a40d200ff2191400a00d2431a40100092
:1038a0003b689b01ff221a40fb1d1b781900032374
:1038b0000b40db009a404ef60053cef20003f91d98
:1038c00009780c000f21214008398908024306318c
:1038d00089005b1804331a60c046bd4603b090bd32
:1038e00080b582b000af00237b6040f20043c4f299
:1038f000000301229a7140f20043c4f20003022245
:103900009a7000e0c04640f20043c4f200039b7985
:10391000dbb21a0001231340002bf3d040f2004326
:10392000c4f2000301229a7145f20003c4f20013ad
:1039300004225a6041f60003c4f2000340f202324e
:103940001a6200e0c04641f60003c4f20003da68e0
:103950008023db021340002bf4d041f20003c4f2b9
:10396000000300221a8600e0c04641f20003c4f2c0
:1039700000031a6980235b041340002bf4d046f245
:103980002003c0f280031b687b607a68fc23db05a0
:1039900013407b607b68db0b7b607b6840f200221e
:1039a00013437b6041f20003c4f200037a685a6358
:1039b00000e0c04641f20003c4f200031a6980230c
:1039c0005b041340002bf4d041f20003c4f2000367
:1039d0001b8e9ab241f20003c4f2000302210a4393
:1039e00092b21a8600e0c04641f20003c4f200031e
:1039f0001a6980235b041340002bf4d041f6004386
:103a0000c4f2000340f205129a6200e0c04641f69b
:103a10000043c4f200035b6810221340002bf5d171
:103a200041f60043c4f2000340f20712c0f2020262
:103a30001a6200e0c04641f60043c4f200035b682e
:103a400004221340002bf5d1c046bd4602b080bd14
:103a500080b500af41f60043c4f20003902242213a
:103a6000995000e0c04641f60043c4f200039022a2
:103a70009b5842221340002bf4d042f60023c4f29c
:103a8000000301221a7000e0c04642f60023c4f28f
:103a900000035b6801221340002bf5d142f600239e
:103aa000c4f200030f225a63c046bd4680bd80b5f4
:103ab00000af42f60023c4f200031b78dab242f6ec
:103ac0000023c4f2000302210a43d2b21a7000e0bc
:103ad000c04642f60023c4f200035b680222134092
:103ae000002bf5d1c046bd4680bd80b500af40f289
:103af0000023c4f2002301221a70c046c046c0460b
:103b0000c046bd4680bd80b500af43f20023c4f27d
:103b1000000348f200025a6143f20023c4f200039a
:103b200048f200029a6043f20023c4f200034f22dd
:103b300000219954c046bd4680bd80b586b000af17
:103b40000200bb1d1a803b1d0a1c1a8010217b1825
:103b500000221a607b1800225a6008203b180022bd
:103b60001a603b1800225a603b1d00229b5edb431b
:103b70001bb2ba1d0020125e13401ab2bb1d1a8080
:103b8000bb1d1b880122134033b17b181b6848f210
:103b900000021a437b181a603b1d1b880122134048
:103ba0003bb108217b181b6848f200021a437b18be
:103bb0001a6043f20023c4f200031022ba181268fc
:103bc0009a6143f20023c4f200030822ba18126873
:103bd0005a61c046bd4606b080bd80b500af40f614
:103be000cc03c2f200031b889bb2032293439ab218
:103bf00040f6cc03c2f200031a8042f60023c4f25e
:103c000000039b6b0422134073b940f6cc03c2f24d
:103c100000031b889bb2012213439ab240f6cc03e7
:103c2000c2f200031a800de040f6cc03c2f200039a
:103c30001b889bb2022213439ab240f6cc03c2f215
:103c400000031a8042f60023c4f200035a6942f6c8
:103c50000023c4f2000304210a435a61c046bd4652
:103c600080bd80b500af43f20023c4f20003802280
:103c700012045a6043f20023c4f2000357220321c6
:103c8000995443f20023c4f200033b229b5cdab256
:103c900043f20023c4f200030f210a40d1b23b22b9
:103ca000995442f60023c4f200031a6b42f6002333
:103cb000c4f2000304210a431a6342f60023c4f24b
:103cc0000003da6942f60023c4f200030c490a40fb
:103cd000da6142f60023c4f20003da6942f60023f7
:103ce000c4f2000340f600310a43da6142f60023d1
:103cf000c4f2000304221a61c046bd4680bdc0461e
:103d0000fff0ffff80b582b000afba1d40f6cc03d4
:103d1000c2f200031b88138040f6cc03c2f20003fa
:103d200000221a80bb1d1b881800bd4602b080bd52
:103d300080b500afbff35f8f62b603210520fff7a8
:103d400058fd01235b4203211800fff752fd0520b7
:103d5000fff72efd01235b421800fff729fdc04647
:103d6000bd4680bd80b500affff7bafdfff7bdfed1
:103d7000fff76efefff775fffff7c5fefdf77afc54
:103d800002f098f801f0bafefff791fe02f0adfce8
:103d9000fff7ceffc046bd4680bd80b582b000af04
:103da0003b00180002f0d9fc3b001800fdf788ff2b
:103db0003b00180002f0dcf93b00180002f000f8ac
:083dc000c046bd4602b080bd03
:020000040000fa
:103dc800f0b58fb002aff860b9607a60fb6833b1c4
:103dd800fb68180004f040fd0300052b0ad847f6dd
:103de8001843c0f200037968b8681a0004f058fd57
:103df80000235ae01c203b1800210a1c1a800222ca
:103e0800995418257b1900210a1c1a8002229954fa
:103e18001426bb1900210a1c1a8002229954f96839
:103e280004003b180222180004f0c6fdfb68991c28
:103e38007b190222180004f0bffdfb68191dbb198d
:103e48000222180004f0b8fd3b19180004f032fbf8
:103e58000300bb627b19180004f02cfb03007b6293
:103e6800bb19180004f026fb03003b62bb6a083349
:103e7800fb62fb6a172b03ddfb6a183bfb6205e05c
:103e8800fb6a002b02dafb6a1833fb62fc6a47f60e
:103e98002442c0f200027968b8683b6a01937b6ae1
:103ea8000093230004f0fcfc01231800bd460db06c
:103eb800f0bd90b58db000af786039607b6813b104
:103ec8007b681b7813b90023002453e07b68180033
:103ed80004f0c2fc02003b689a4202d2002300248c
:103ee80048e03a68796818243b19180004f064fd22
:103ef80021007a183b68d31800221a707b18180022
:103f080004f066fd03000c00bb62fc627b681800cd
:103f180004f0a2fc02003b689a420cd93b687a681c
:103f2800d11808243b190f22180004f045fd3b194d
:103f38000022da7303e00823fb1800221a70082312
:103f4800fb18180004f044fd03000c003b627c627f
:103f580000220023c4f24e03386a796a03f0e8fcb1
:103f680003000c0018002100ba6afb6a03f0f2f99a
:103f780003000c0018002100bd460db090bdb0b57f
:103f8800e2b004aff860b9607a60fb681bb1bb6847
:103f98000bb17b680bb90023d9e1bb6800221a700a
:103fa80047f63443c0f20003f8680722190004f00a
:103fb80002fc03000bb10023c9e1f968bc243b19da
:103fc8006b22180004f0f8fc3b196b22002199546d
:103fd800002340f27412ba18136011e0a023fa18f3
:103fe80040f274103b181b68990047f63c43c0f236
:103ff80000038b500200bb181b680133ba1813600a
:1040080040f27413fb181b68062be7ddbc23fb1872
:10401800073340f27012b9180b60002340f26c119c
:1040280079180b60bb181b6840f26812ba18136045
:1040380037e040f27012bb181b681b782c2b04d099
:10404800bb181b681b782a2b24d140f267143b1934
:1040580040f270103a18126812781a703b181b68f0
:1040680000221a7040f26c117b181b685a1c7918d0
:104078000a60a022ba189b0040f2681579190968ed
:1040880099503b181b6801337a1913603b191b7848
:104098002a2b13d040f27012bb181b680133ba18d0
:1040a800136040f27013fb181b681b783bb140f299
:1040b8006c13fb181b68062bbbdd00e0c04640f202
:1040c80068117b181b681b78c3b140f26c103b1851
:1040d8001b68062b12dc7b181a6840f27013fb1859
:1040e8001b689a420ad23b181b685a1c381802608f
:1040f800a022ba189b00791809689950a022bb1809
:104108001b6840f2601179180b60bb185b6840f2bd
:104118005c1179180b60bb189b6840f2581179182c
:104128000b60bb18db6840f2541179180b6040f241
:104138006c13fb181b68042b02ddbb181b6903e01a
:1041480047f63c43c0f2000340f25012b9180b6026
:104158009423f918bb181b680c221800fff730fecf
:1041680040f26013fb181b681a7840f24f13fb18d3
:10417800511e8a411a7040f25c12bb181b681b78ea
:104188005bb1bb181b681b784e2b04d0bb181b688f
:104198001b78532b01d1012200e0002240f24e157a
:1041a8007b191a701a7801210a401a7040f24f13cd
:1041b800fb181b7883b340f26013fb181b680221bd
:1041c8001800fff776fe03000c0040f24012ba1800
:1041d800136054607b191b782bb140f25c13fb18f9
:1041e8001b681a7800e02d2240f23f117b181a70e4
:1041f8007b181b7847f64042c0f200025421781819
:10420800029340f24013fb185c681b68009301940a
:10421800402104f045fb09e047f65443c0f200038f
:104228005422b8181a00402104f03afb40f25813ff
:10423800fb181b681a7840f23e13fb18511e8a417e
:104248001a7040f25412bb181b681b785bb1bb187c
:104258001b681b78452b04d0bb181b681b78572b91
:1042680001d1012200e0002240f23d157b191a70ad
:104278001a7801210a401a7040f23e13fb181b7885
:1042880083b340f25813fb181b6803211800fff78b
:1042980010fe03000c0040f23012ba18136054608c
:1042a8007b191b782bb140f25413fb181b681a7842
:1042b80000e02d2240f22f117b181a707b181b7812
:1042c80047f67042c0f2000214217818029340f2b7
:1042d8003013fb185c681b6800930194402104f0bc
:1042e800dffa09e047f68443c0f200031422b81845
:1042f8001a00402104f0d4fa9423fc1847f6a4428b
:10430800c0f200027968b86847f6b443c0f2000307
:1043180002931423fb1801935423fb1800932300e2
:1043280004f0befa030040f22812b9180b60bb185b
:104338001b68002b06ddbb181b687a689a4201d9f6
:10434800012300e000231a1c01231340dbb21800ec
:06435800bd465eb0b0bde1
:020000040000fa
:02435e00fee778
:020000040000fa
:1043600080b582b000af78607b68262200211800fb
:1043700004f0c4fa7b682122002199547b68202232
:10438000002199547b6800229a84c046bd4602b041
:1043900080bd80b582b000af786039603b68212273
:1043a0009b5c1a0047f26013c0f2000378681900a2
:1043b000fcf709f83b682122002199543b68202230
:1043c000002199543b6800229a843b6800225a8459
:1043d000c046bd4602b080bd90b587b000aff86062
:1043e000b9603b60fb1d1a70bb6820229b5c1f2bd1
:1043f00017d9bb6821229b5c9bb1bb6820229b5cc8
:104400001a0047f29813c0f20003f8681900fbf78e
:10441000daffba68fb6811001800fff7baff06233d
:1044200028e2bb6821229b5c062b00d90be29a0094
:10443000844bd3181b689f46fb1d1b78422b00d072
:1044400014e2bb68fa1d12781a70bb6820220121a1
:104450009954fb1d1b789ab2bb689a84bb682122d1
:104460000121995402e2fb1d1b784d2b1ad1bb6828
:1044700020229b5c5a1cd0b2ba68202150541900eb
:10448000bb68fa1d12785a54bb689a8cfb1d1b78c6
:104490009bb2d3189ab2bb689a84bb6821220221ce
:1044a0009954e6e1fb1d1a7847f2cc13c0f20003e1
:1044b000f8681900fbf787ffba68fb68110018005d
:1044c000fff767fffb1d1b78422b09d13c68fb1de2
:1044d0001a78b968f8682300fff77eff0300c9e186
:1044e0000423c7e1bb6820229b5c5a1cd0b2ba6887
:1044f000202150541900bb68fa1d12785a54bb6829
:104500009a8cfb1d1b789bb2d3189ab2bb689a8415
:10451000fb1d1b789bb21b029ab2bb685a84bb6816
:10452000212203219954a4e1bb6820229b5c5a1ce0
:10453000d0b2ba68202150541900bb68fa1d127815
:104540005a54bb689a8cfb1d1b789bb2d3189ab245
:10455000bb689a84bb685a8cfb1d1b789bb21343c3
:104560009ab2bb685a84bb685b8c1a00bb685b8cd0
:1045700047f20821c0f20001f868fbf724ffbb688e
:104580005b8c3bb1bb685b8c1c2b03d8bb685b8c22
:10459000012b12d8bb685b8c1a0047f23823c0f29b
:1045a0000003f8681900fbf70effba68fb681100fa
:1045b0001800fff7eefe05235ce1bb682122042111
:1045c000995456e1bb6820229b5c5a1cd0b2ba6851
:1045d000202150541900bb68fa1d12785a54bb6848
:1045e00020229b5c1a00bb685b8c02339a4208dc79
:1045f000bb689a8cfb1d1b789bb2d3189ab2bb6820
:104600009a84bb6820229b5c023bba68528c93421e
:1046100000d02de1bb6821220521995428e1bb6817
:1046200020229b5c5a1cd0b2ba6820215054190039
:10463000bb68fa1d12785a54bb682122062199548e
:1046400017e1c04640730000bb6820229b5c5a1ce7
:10465000d0b2ba68202150541900bb68fa1d1278f4
:104660005a54bb6820229b5c023bba68d35c1b0295
:104670001ab2bb6820215b5c013bb968cb5c1bb202
:1046800013431ab216217b181a80bb689b8c1a0040
:104690000c007b181b8847f26421c0f20001f86807
:1046a000fbf791febb689b8c3a1912889a4200d0a6
:1046b000b8e047f29023c0f20003fa681900100036
:1046c000fbf781febb685b8c1b2b00d897e0bb68b7
:1046d0001b791b021ab2bb685b791bb213431bb276
:1046e0009ab23b681a80bb689b791b021ab2bb68fe
:1046f000db791bb213431bb29ab23b685a80bb688a
:104700001b7a1b021ab2bb685b7a1bb213431bb243
:104710009ab23b689a80bb689b7a1b021ab2bb684c
:10472000db7a1bb213431bb29ab23b68da80bb68d8
:104730001b7b1b021ab2bb685b7b1bb213431bb211
:104740009ab23b681a81bb689b7b1b021ab2bb689a
:10475000db7b1bb213431bb29ab23b685a81bb6826
:104760001b7c1b021ab2bb685b7c1bb213431bb2df
:104770009ab23b689a81bb689b7c1b021ab2bb68e9
:10478000db7c1bb213431bb29ab23b68da81bb6875
:104790001b7d1b021ab2bb685b7d1bb213431bb2ad
:1047a0009ab23b681a82bb689b7d1b021ab2bb6837
:1047b000db7d1bb213431bb29ab23b685a82bb68c3
:1047c0001b7e1b021ab2bb685b7e1bb213431bb27b
:1047d0009ab23b689a82bb689b7e1b021ab2bb6886
:1047e000db7e1bb213431bb29ab23b68da82ba6813
:1047f000fb6811001800fff7ccfd00233ae0bb680e
:104800005b8c1a0047f2a823c0f20003f868190075
:10481000fbf7d9fdba68fb6811001800fff7b9fd76
:10482000052327e047f2e823c0f20003fa681900e5
:104830001000fbf7c8fdba68fb6811001800fff70d
:10484000a8fd032316e0bb6821229b5c1a0047f2f7
:104850001433c0f20003f8681900fbf7b4fdba681e
:10486000fb6811001800fff794fd02e0c04600e06d
:0c487000c04601231800bd4607b090bdf3
:020000040000fa
:10487c002c01000047505320526177204461746131
:10488c003a00c04625730000504d3a2074686520ec
:10489c0068657864756d7020283020627974657352
:1048ac00293a0000504d3a20746865206865786498
:1048bc00756d7020282575206279746573293a000e
:1048cc00253032582000c0465b44454255475d2098
:1048dc00257300005b44454255475d2025730d0a46
:1048ec000000c046504d3a20506172736564204ff1
:1048fc004b3a20504d312e303d25752c20504d32e9
:10490c002e353d25752c20504d31303d2575000040
:10491c00436f6d62696e65642047505320616e640d
:10492c0020504d2073656e736f722070726f6a65c4
:10493c006374207374617274696e672075702e2ea7
:10494c002e00c046504d5320706172736572206901
:10495c006e697469616c697a65640000446562759e
:10496c0067206d6f646520656e61626c6564000024
:10497c004552524f523a204750532052582073659b
:10498c00747570206661696c656421004750532012
:10499c0052582073657475702073756363657373f7
:1049ac0066756c004552524f523a20504d20525869
:1049bc00207365747570206661696c6564210000f4
:1049cc00504d205258207365747570207375636355
:1049dc0065737366756c00004552524f523a204312
:1049ec004443205258207365747570206661696c5d
:1049fc0065642100434443205258207365747570dc
:104a0c00207375636365737366756c00496e6974a6
:104a1c0069616c697a6174696f6e20636f6d706c1b
:104a2c006574652c20656e746572696e67206d61a6
:104a3c00696e206c6f6f70000d0a00004c454420ad
:104a4c00626c696e6b20636f6d706c6574650000d1
:104a5c00427574746f6e2070726573736564202d6b
:104a6c0020646973706c6179696e672062616e6e27
:104a7c0065720000475053204c6f6f70204368657f
:104a8c00636b20287468726f74746c6564293a20a7
:104a9c00636f6d706c5f747970653d25642c206854
:104aac00775f6c656e3d25752c20617373656d6247
:104abc006c795f6c656e3d257500c0464750533a66
:104acc002052585f434f4d504c5f44415441206538
:104adc0076656e742e204861726477617265206c05
:104aec00656e3a2025752e004750532052415720b1
:104afc0044415441204445544543544544202d20c1
:104b0c005052494e54494e47204449524543542033
:104b1c0042554646455220434f4e54454e54530041
:104b2c004750533a2052585f434f4d504c5f4441cd
:104b3c005441206576656e742c2062757420686112
:104b4c00726477617265206c656e20697320302efb
:104b5c000000c0464750533a204552524f5220460f
:104b6c0061696c656420746f2072652d61726d20b3
:104b7c0052580000244750474c4c00005761746356
:104b8c0068646f673a20436c656172696e67207068
:104b9c006f74656e7469616c6c7920737475636b7a
:104bac0020666c61677320616674657220352073b2
:104bbc0065636f6e6473206f6620696e61637469e0
:104bcc00766974790000c0465761746368646f67d6
:104bdc003a204750532052582061707065617273af
:104bec0020737475636b2c2072652d61726d696e08
:104bfc006700c0465761746368646f673a2045521a
:104c0c00524f52204661696c656420746f20726546
:104c1c002d61726d20475053205258206166746587
:104c2c00722061626f72742e0000c046576174630b
:104c3c0068646f673a204750532052582072652d94
:104c4c0061726d6564207375636365737366756cef
:104c5c006c792061667465722061626f72742e00cb
:104c6c005761746368646f673a20504d2052582026
:104c7c006170706561727320737475636b2c207234
:104c8c00652d61726d696e670000c0465761746373
:104c9c0068646f673a204552524f52204661696ce6
:104cac00656420746f2072652d61726d20504d20eb
:104cbc0052582061667465722061626f72742e00a6
:104ccc005761746368646f673a20504d20525820c6
:104cdc0072652d61726d65642073756363657373a2
:104cec0066756c6c792061667465722061626f7296
:104cfc00742e00004750533a202573207c20504dd1
:104d0c003a20504d312e303a2025752c20504d3202
:104d1c002e353a2025752c20504d31303a202575f2
:104d2c000000c0464750533a2044617461204e2f16
:104d3c0041207c20504d3a20504d312e303a2025c8
:104d4c00752c20504d322e353a2025752c20504d87
:084d5c0031303a2025750000fa
:020000040000fa
:104d6400f0b59bb013930b6815900a934b680d91a3
:104d740002938b68ce680b930b69189313680693a0
:104d840053680698089300220023089903f0d2fb85
:104d940060b90a9b5b0734d408200a9b034009933b
:104da4000b9b0393099b73b1202306e08022120618
:104db4009446089b634408932d2333700b9b013b5b
:104dc400039301230993089b06995b005b088e4ab1
:104dd400d9b9934219d1139b099a413bb018192ba5
:104de40011d88a4903f0f0fd300003f037fd0a9b27
:104df4000200009331000b9b159802f0eaff1bb0f0
:104e0400f0bd2b23d9e78249ece7934202d80bd1ba
:104e1400069b4bb1139b099a413bb018192b01d83f
:104e24007c49dfe77c49dde70022002306980899e6
:104e340003f040fc0024794d0027e8bb070002e0a2
:104e44000137049c059d0022754b2000290002f0c7
:104e540081fb069a089b0490059103f04cfb002803
:104e6400eed0002304931fe06e4b9f4213da049ba1
:104e74008bb900226c4b0698089902f06bfb6a4bc5
:104e84000690089120002900002202f063fb012310
:104e940004000d000493200029000022604b02f05e
:104ea40049fd04000d00013f22002b0006980899db
:104eb40003f040fb0028d7d1139803f06afdc3b276
:104ec4000c93029b002b00da93e10c9b0493672b59
:104ed40000d0afe0029b002b00d185e13b1d03db3a
:104ee400029b9f4200daa1e06523b5e00022002383
:104ef4000e920f9303e106940795049b0897652b84
:104f040000d01ce10023089319e1029b5bb9089bc4
:104f1400002b08da2e23149a0134b354039b013b6b
:104f240003930123029323002a19302101e0f15451
:104f340001339a42fbd1039a2b193030551b5c1c68
:104f4400f0546b1e0393002523e00d9b14941b69fe
:104f54001093053ba34200d8fde0069a079b0e98e8
:104f6400129902f0e7fc02f045fd1090119103f054
:104f74006dfb092800dd092010230a9a134003431e
:104f8400002bc2d10c9b672bbfd1089b002bcada24
:104f9400013580200006844612990e9a61440b0064
:104fa4001098119900920193069a079b03f0e2fc72
:104fb40080231b06cb180e90129306980799184b62
:104fc400002202f0b7fc089b06900791013b08936e
:104fd400bce00a9bdb0600d4c1e02e233355013428
:104fe400bde00a2297fbf2f56a43ba1a3032013b5c
:104ff400f254039a2f00013a0392bde0039b325c02
:10500400f3181a540138e3e00000f07f58890000d7
:105014005c89000060890000648900000000f03fa2
:1050240000002440d4feffff00005043002f12da9a
:1050340066230493029b01330293049b662b0cd1d9
:10504400002f02da002400276d4d0c9b672b02d041
:10505400029bdb19029366230493069b0e940f951f
:105064001293089b1093002314930e9a0f9b12988b
:10507400109902f05ffc02f0bdfc1690179103f04a
:10508400e5fa19908020000684461099129a61442a
:105094000b0016981799009201930e9a0f9b03f038
:1050a40069fc80231b06cb181290109300220e98e3
:1050b4000f99544b02f03efc149b0e900f91013358
:1050c4001493149a029b9342cfd100224e4b02f0c8
:1050d40041fa0e900f9102000b001298109903f000
:1050e40029fa002800d001e70e9a0f9b1298109914
:1050f40003f0e0fa18b1199bdb0700d4f6e60e9a28
:105104000f9b0698089902f027f900220e9012913d
:105114003c4b2000290002f01dfa0e9a129b0690c7
:10512400079103f003f9002800d1e4e6049b01375a
:10513400662b00d0e1e6029b089701330293002519
:10514400029a089b099c9b1a16930295089b169a2f
:10515400934200d0f9e6029b002b00d139e70021ed
:10516400049b30190170652b25d1189b013bf15428
:105174008f4201da7f420131002f00d031e7189ac3
:105184009a1a0332002a00dd2be75d1e2d2201b995
:10519400023a7255139a023b413a192a01d8452220
:1051a4000492049af1180a70039a023a03929c42f8
:1051b40001da03f009fc03230a9a1340022b00d0fe
:1051c40012e6039b002b00dc0ee6300003f046fbe6
:1051d400099b834200dc11e7f018039a302103f0a5
:1051e4008bfb00230b93ffe50123029376e6062352
:1051f400fbe70c9b672bfad004930623029319e771
:0c5204000000f03f0000244000001440b7
:020000040000fa
:10521000f0b599b014930b68576809934b681390d5
:105220000d938b68ce680c930b693900119313684a
:10523000002208930898002303f07ef960b9099bc7
:105240005b072fd40820099b0c9d0340059363b195
:105250002023013d337006e080231b06ff182d2319
:1052600033700c9b5d1e01230593089a7b005b083d
:10527000e2b9ab4a934219d1149b059a413bb0184d
:10528000192b11d8a74903f0a1fba74803f0e8faae
:10529000099b0200009331000c9b139802f09bfdc8
:1052a00019b0f0bd2b23dbe79f49ece79c4a934202
:1052b00002d80ed1089b63b1149b059a413bb018ec
:1052c000192b04d8994903f081fb9948dee79849e6
:1052d000f9e7059b05995a1c30237354149b413bf5
:1052e0000e930e995823192900d920330599b354e8
:1052f0000231ab1e05910793002200230898390064
:1053000003f0daf9002800d15fe10023894c06930d
:10531000029303940d9b1093002b01da1823109332
:10532000029b039c0a930b943c000023089d12935c
:1053300028000a9a0b9b210002f0fefa02f05cfba7
:105340000a9a0b9b1690179102f006f902000b00c7
:105350002800210003f0e6fa774b05000c000a98bc
:105360000b99002202f0f8f8129b0a900b9101337e
:105370000f930d9b002b06da00220023280021004a
:1053800003f09af930b9109b129a934200dd22e1a2
:1053900001330f9300220a980b99684b02f0dcf856
:1053a0000a900b9102000b002800210003f0c4f8c2
:1053b000002800d011e10a9a0b9b2800210003f07d
:1053c0007bf930b11698179903f042f9c30700d45e
:1053d00003e10a9a0b9b0898390001f0bfff169170
:1053e00049000a90490818b94d4b994200d143e74a
:1053f0000025059c10950895119b2700053ba342ad
:1054000031d9029a039b0a98169902f095fa02f094
:10541000f3fa1490159103f01bf90300002800d053
:10542000e0e0089a002a00d1dce00135029a039bf3
:105430001498159902f090f802000b000a9816993a
:1054400003f070fa00220a9016913b4b02980399e0
:1054500002f082f8089b0290039101330893089aa6
:105460000f9b9342c8d1109bd3b9002d00d1fde012
:105470000d9b002b00dcf9e0099bdb0700d5f5e074
:105480002e22302133191a702a19b218597001339b
:105490009a42fbd12c19ed43079b0134eb1807937b
:1054a0000021119b069a3019013b0170f1548a4288
:1054b00002da524206920131069a002a00d0bfe079
:1054c000119a9a1a013200d1bae05d1e2d2201b95b
:1054d000023a0e997255023b5022192900d9203206
:1054e000f1180a709c4201da03f070fa0323099a5a
:1054f0001340022b11d1079b9c1e002c0ddd3000a8
:1055000003f0aef9059b984200dba8e0f0182200fa
:10551000302103f0f3f900230c933000b6e6c046c7
:105520000000f07f488900004c890000508900008d
:10553000548900000000f03f0000b03f0000204010
:10554000069b0294039501330693029a039b100075
:10555000190001f003ff04000d0002000b00089881
:10556000390002f0e9ff0028ead0029a039b08986c
:10557000390002f0e1ff002800d1cbe60298039940
:1055800000223e4b01f0e8ff0022002303f094f8d4
:1055900078b1029803990022394b01f0ddff002217
:1055a00002900391364b0898390001f0d5ff0f00a7
:1055b0000890324b02980399002201f0cdff069b20
:1055c00002900391013b0693cfe700232d4c0690f8
:1055d00002930394b9e70f9ba9e6002300240a93e2
:1055e0000b94f6e6109a4ab9089a3ab12e22f2556f
:1055f000079a0134013a0792012210922a19129255
:10560000302201e03255013412998c42fad118004f
:10561000079a5730571b092b01dc303318000e9bbb
:10562000192b06d820230343613b192b01d803f023
:10563000b9f9129b00255c1cf0547b1e0793f5e61c
:105640000a22069d069f95fbf2f56a43ba1a30328c
:10565000013bf254079a0695013a07922ce7079b03
:10566000325c023bf3181a5401384be7099bdb0606
:1056700000d415e72e233355013411e70000e03f35
:08568000000050430000f03f60
:020000040000fa
:105688001b5b306d0000c0461b5b324a0000c04601
:105698001b5b313b314800001b5b4b001b5b316dd2
:1056a8000000c0461b5b33326d00c0461b5b3336bf
:1056b8006d00c0461b5b306d1b5b324a1b5b313b88
:1056c80031482b2d2d2d2d2d2d2d2d2d2d2d2d2de5
:1056d8002d2d2d2d2d2d2d2d2d2d2d2d2d2d2d2df2
:1056e8002d2d2d2d2d2d2d2d2d2d2d2d2d2d2d2de2
:1056f8002d2d2d2d2d2d2d2d2d2d2d2d2d2d2d2dd2
:105708002d2d2d2d2d2d2d2b0d0a7c204545452089
:105718003139323a20456c656374726963616c2073
:10572800616e6420456c656374726f6e6963732083
:10573800456e67696e656572696e67204c61626f58
:105748007261746f72792056492020202020207cb5
:105758000d0a7c2020202020202020202041636169
:1057680064656d6963205965617220323032342d69
:10577800323032352c2053656d6573746572203272
:105788002020202020202020202020202020202011
:10579800202020202020207c0d0a7c202020202072
:1057a80020202020202020202020202020202020f1
:1057b80020202020202020202020202020202020e1
:1057c80020202020202020202020202020202020d1
:1057d8002020202020202020202020202020207c65
:1057e8000d0a7c20436f6d62696e65642050726f8c
:1057f8006a6563743a20475053204d6f64756c6531
:1058080020616e6420504d2053656e736f722020a6
:105818002020202020202020202020202020202080
:10582800202020202020207c0d0a7c2020202020e1
:105838002020202020202020202020202020202060
:105848002020202020202020202020202020202050
:105858002020202020202020202020202020202040
:105868002020202020202020202020202020207cd4
:105878000d0a7c20417574686f72733a2044652064
:1058880056696c6c612c20457374726164612c20bc
:10589800262052616d6f73202845454520313932e5
:1058a80020325329202020202020202020202020a2
:1058b800202020202020207c0d0a7c204461746553
:1058c8003a2020202032303235202020202020206d
:1058d80020202020202020202020202020202020c0
:1058e80020202020202020202020202020202020b0
:1058f8002020202020202020202020202020207c44
:105908000d0a2b2d2d2d2d2d2d2d2d2d2d2d2d2d04
:105918002d2d2d2d2d2d2d2d2d2d2d2d2d2d2d2daf
:105928002d2d2d2d2d2d2d2d2d2d2d2d2d2d2d2d9f
:105938002d2d2d2d2d2d2d2d2d2d2d2d2d2d2d2d8f
:105948002d2d2d2d2d2d2d2b0d0a0d0a0000c046b5
:1059580025735b4750535d2054696d653a20257364
:105968002573207c204c61743a2025732573207c94
:10597800204c6f6e3a20257325730d0a0000c0462f
:1059880025735b504d5d20504d312e303a202575e2
:105998002075672f6d33207c20504d322e353a20ec
:1059a80025752075672f6d33207c20504d31303a96
:1059b8002025752075672f6d330d0a0025735b4709
:1059c80050535d2054696d653a2025732573207cfa
:1059d800204c61743a202573207c204c6f6e3a204d
:1059e8002573202025735b504d5d20504d312e309e
:1059f8003a2025752075672f6d33207c20504d3255
:105a08002e353a2025752075672f6d33207c205060
:105a18004d31303a2025752075672f6d3325730d6c
:105a28000a00c04625735b4750535d20576169746f
:105a3800696e6720666f7220646174612e2e2e2055
:105a48002025735b504d5d20504d312e303a202576
:105a5800752075672f6d33207c20504d322e353ad6
