:020000040000fa
:10000000f07f002045760000473c0000473c0000a0
:1000100000000000000000000000000000000000e0
:10002000000000000000000000000000473c00004d
:100030000000000000000000473c00002f5f0000af
:10004000473c0000473c0000473c0000473c0000a4
:10005000473c0000e72e0000473c0000473c000002
:10006000473c0000473c0000473c0000473c000084
:10007000473c0000473c0000473c0000473c000074
:10008000473c0000473c0000473c0000473c000064
:10009000473c0000473c0000473c0000473c000054
:1000a000473c0000473c0000473c0000473c000044
:1000b000473c0000473c0000473c0000473c000034
:1000c000473c0000473c0000473c0000473c000024
:1000d000473c0000473c0000473c0000473c000014
:1000e000473c0000473c0000473c0000473c000004
:1000f000473c0000473c0000473c0000473c0000f4
:10010000473c0000473c0000473c0000473c0000e3
:10011000473c0000473c0000473c0000473c0000d3
:10012000473c0000473c0000473c0000473c0000c3
:10013000473c0000473c0000473c0000473c0000b3
:10014000473c0000473c0000473c0000473c0000a3
:0c015000473c0000473c0000473c00001a
:020000040000fa
:10015c00f8b5c046f8bc08bc9e4670470d7d000043
:10016c00f8b5c046f8bc08bc9e467047e97c000058
:020000040000fa
:10017c005c630000010000006e66000001000000de
:020000040000fa
:10018c000eb4b0b5cdb000af786004f0cff9030079
:10019c00002b00d0ede07b681b6840221340002b45
:1001ac0000d0e6e040f2401340f2080cbc4463443b
:1001bc00fb60fb6840f23c1240f2080cbc44624409
:1001cc00126840f24c40c2f2000040f2001107f0fd
:1001dc0055fb030040f22c117a1813607b181b6836
:1001ec00002b00dcc7e07b181b68ff2b00d9c2e09a
:1001fc007b181b68012b15dd7b181b689a1e40f2bf
:10020c004c43c2f200039b5c0d2b0bd17b181b687b
:10021c005a1e40f24c43c2f200039b5c0a2b01d1e4
:10022c00012200e0002240f22b103b181a701a78c1
:10023c0001210a401a703b181b7801225340dbb293
:10024c008bb140f22c12bb181b68002b0bddbb18ba
:10025c001b685a1e40f24c43c2f200039b5c0a2bf3
:10026c0001d1012200e0002240f22a13fb181a707f
:10027c001a7801210a401a7040f22b13fb181b78d4
:10028c0073b140f24c43c2f2000343f2d802c0f205
:10029c0000021021781840f2181107f075ff2ce0bd
:1002ac0040f22a13fb181b78cbb140f22c13fb182d
:1002bc001b685a1e40f24c43c2f2000300219954b1
:1002cc0040f24c43c2f2000343f2e402c0f20002db
:1002dc001021781840f2181107f056ff0de040f28b
:1002ec004c43c2f2000343f2e402c0f200021021bc
:1002fc00781840f2181107f047ff10257b191800e9
:10030c0007f01eff030040f22c143a1913603b193e
:10031c001b6893b33b191b68ff2b2ed87b680c33df
:10032c0018003b191b6801331a007b19190007f0e0
:10033c004bff7b680c331a007b685a603b191b68b7
:10034c009ab27b681a817b681b6840221a437b68cf
:10035c001a607b6804330121180004f0d4f8030000
:10036c0063b17b681b68402293431a007b681a6058
:10037c0004e0c04602e0c04600e0c046bd464db0b9
:10038c00b0bc08bc03b0184790b589b000aff8609a
:10039c00b9607a60ba68f96814243b19180005f042
:1003ac0090fe20003b181a6813005b019b1a9b00ff
:1003bc009b18db0019003b185a6844f24023c0f22a
:1003cc000f03b2fbf3f3cb18fb61f9697a680023d6
:1003dc0091425b41dbb21800bd4609b090bdb0b58f
:1003ec0088b002af786040f23843c2f200031b8839
:1003fc00002b00d1ebe040f23843c2f200031b8823
:10040c001a0043f2f403c0f2000378681900fff7f6
:10041c00b7fe15217b1800221a7040f23843c2f245
:10042c0000031b88012b19d940f2b833c2f2000328
:10043c001b78422b12d140f2b833c2f200035b7826
:10044c004d2b0bd17b1801221a7043f21813c0f2fa
:10045c0000037a6819001000fff792fe40f238434f
:10046c00c2f200031b881c0004f060f803001d009e
:10047c007b681b68402213405a1e9341dbb243f247
:10048c003811c0f20001786800932b002200fff7ae
:10049c0077fe7b681b68402293431a007b681a60c6
:1004ac0040f23843c2f200031b8840f2b832c2f269
:1004bc00000243f28811c0f20001786801f0ecf9f7
:1004cc001623fb1800221a8067e07b6840f26c321e
:1004dc0099181623fb181a8840f2b833c2f200039d
:1004ec009a5c7b6840f2923c634414257c197868d2
:1004fc0003f0e0fb030023707b191b78002b46d123
:10050c007b681b6820221a437b681a607b6840f268
:10051c0098329b5a1c007b6840f29a329b5a1d0001
:10052c007b6840f29c329b5a43f29411c0f200015a
:10053c00786800932b002200fff722fe0021012097
:10054c0002f07bfc08243b19180005f059fd200033
:10055c003b181a6813005b019b1a9b009b18db006d
:10056c0019003b185a6844f24023c0f20f03b2fb47
:10057c00f3f3cb183b6140f24443c2f200033a69f7
:10058c001a6040f24843c2f2000301221a7016228c
:10059c00bb18ba18128801321a8040f23843c2f2e2
:1005ac0000031b881622ba1812889a428dd340f287
:1005bc003843c2f2000300221a8040f2b833c2f270
:1005cc00000380220021180007f008fe00e0c0465e
:1005dc00bd4606b0b0bd80b500af40f20003c2f21c
:1005ec00000340f2b8320021180007f0f7fd02f0ca
:1005fc0039fd0021012002f020fc43f2c012c0f2b0
:10060c00000240f20003c2f2000311001800fff7d1
:10061c00b7fd764b180003f011fb43f2f412c0f255
:10062c00000240f20003c2f2000311001800fff7b1
:10063c00a7fd40f20003c2f2000340f2b432c8211d
:10064c00995040f20003c2f2000340f2b032002194
:10065c00995040f20003c2f2000340f2ab32012188
:10066c00995443f20c22c0f2000240f20003c2f291
:10067c00000311001800fff783fd40f20003c2f2e3
:10068c00000340f258115a4a5a5040f20003c2f289
:10069c00000340f25c1280219952564b180005f071
:1006ac004ef803001a0001235340dbb263b143f24e
:1006bc002022c0f2000240f20003c2f2000311003b
:1006cc001800fff75dfd0be043f23c22c0f2000284
:1006dc0040f20003c2f2000311001800fff750fdb6
:1006ec0040f20003c2f2000340f22031424a5a5059
:1006fc0040f20003c2f2000340f22432402199522e
:10070c003e4b180005f0f2f903001a000123534088
:10071c00dbb263b143f25422c0f2000240f2000398
:10072c00c2f2000311001800fff72afd0be043f2a0
:10073c007022c0f2000240f20003c2f2000311006a
:10074c001800fff71dfd40f20003c2f2000340f257
:10075c000c112b4a5a5040f20003c2f2000340f233
:10076c00101240219952274b180003f035ff03005b
:10077c001a0001235340dbb263b143f28822c0f26a
:10078c00000240f20003c2f2000311001800fff750
:10079c00f7fc0be043f2a422c0f2000240f200038b
:1007ac00c2f2000311001800fff7eafc40f200034c
:1007bc00c2f200031b6801221a4340f20003c2f28a
:1007cc0000031a600121002002f037fb43f2bc2227
:1007dc00c0f2000240f20003c2f200031100180044
:1007ec00fff7cefcc046bd4680bdc0466c03002062
:1007fc0064010020580100202c030020200300205d
:10080c00180100200c01002090b587b000aff860f3
:10081c00b9607a601a00bb1c1a8043f2e823c0f25c
:10082c000003fa681900100007f078fa03007b61e6
:10083c007b690bb900233be07a69fb68d31a9ab247
:10084c0012217b1802321a807a18bb1c12881b8862
:10085c009a4201d300232be012243b191a88f96821
:10086c007b68180007f0b0fc20003b181b887a68e6
:10087c00d31800221a70bb68198810243b193a1837
:10088c0012888a1a1a803b191b884bb13b181b889b
:10089c00fa68d1183b191a88fb68180007f0aafbf4
:1008ac00bb681022ba1812881a801223fb181b88f6
:1008bc001800bd4607b090bdf0b5ebb004af02f028
:1008cc00ecfb40f280143b19180005f099fb20005a
:1008dc003b181a6813005b019b1a9b009b18db00ea
:1008ec0019003b185a6844f24023c0f20f03b2fbc4
:1008fc00f3f3cb1840f29412ba18136040f2384359
:10090c00c2f200031b881bb340f22c1240f23c4392
:10091c00c2f2000338181900fff736fd0300bbb113
:10092c0040f23843c2f200031b881a0043f2ec2158
:10093c00c0f2000140f20003c2f200031800fff7fe
:10094c001ffc40f20003c2f200031800fff747fd42
:10095c0040f24843c2f200031b780bb340f244430d
:10096c00c2f200031b6840f29412ba181268d31a30
:10097c00312b15d90121002002f05ffa40f24843d7
:10098c00c2f2000300221a7043f21c32c0f20002c1
:10099c0040f20003c2f2000311001800fff7f0fb55
:1009ac0002f030fb0300190040f20003c2f2000316
:1009bc0040f2ac32995240f20003c2f2000340f212
:1009cc00ac329b5a1a00012313409bb340f2000334
:1009dc00c2f200031b6801221a4340f20003c2f268
:1009ec0000031a6040f28013fb181a6840f24c5353
:1009fc00c2f200031a6043f23032c0f2000240f23d
:100a0c000003c2f2000311001800fff7b9fb00212c
:100a1c00012002f012fa40f24443c2f2000340f209
:100a2c009412ba1812681a6040f24843c2f20003da
:100a3c0001221a7040f20003c2f20003180000f009
:100a4c004ffc40f20003c2f2000340f25e129b5acc
:100a5c009bb2012b00d009e240f20003c2f200036a
:100a6c0040f260129b5a9bb21a0043f25431c0f20e
:100a7c00000140f20003c2f200031800fff780fbf4
:100a8c0040f20003c2f200031b6802221a4340f238
:100a9c000003c2f200031a6040f28013fb181a68bc
:100aac0040f24c53c2f200031a6040f20003c2f24f
:100abc00000340f260129b5a9bb21a0043f27c3145
:100acc00c0f2000140f20003c2f200031800fff76d
:100adc0057fb0021012002f0b0f940f24443c2f26e
:100aec00000340f29412ba1812681a6040f248439c
:100afc00c2f2000301221a7040f20003c2f200039a
:100b0c0040f2e4229b5a190040f20003c2f20003a7
:100b1c0040f260129b5a9bb2cb18ff2b00dd92e087
:100b2c0040f20003c2f2000340f2e4229b5ae1338c
:100b3c00ff331a0040f20003c2f20003d318181d51
:100b4c0040f20003c2f2000340f260129b5a9bb2c7
:100b5c001a00a84b190007f037fb40f20003c2f251
:100b6c00000340f260129b5a9ab240f20003c2f2a8
:100b7c00000340f2e4215b5ad31899b240f200030f
:100b8c00c2f2000340f2e422995240f20003c2f296
:100b9c00000340f2e4229b5a190040f20003c2f217
:100bac00000340f2e4125b189b1800221a7040f20a
:100bbc000003c2f2000340f2e4229b5a002b56d0f1
:100bcc0040f20003c2f2000340f2e4229b5a1c00e4
:100bdc0003f0acfc03001d0040f20003c2f2000362
:100bec001b68402213405a1e9341dbb243f29431ee
:100bfc00c0f2000140f20000c2f2000000932b0092
:100c0c002200fff7bdfa40f20003c2f200031b689a
:100c1c00402293431a0040f20003c2f200031a6010
:100c2c0040f20003c2f2000340f2e4229b5a724ae3
:100c3c0043f2e831c0f2000140f20000c2f20000c1
:100c4c0000f02afe13e040f20003c2f2000340f26f
:100c5c0060129b5a9bb21a0043f2f831c0f20001a9
:100c6c0040f20003c2f200031800fff789fa40f2c9
:100c7c009213fb1800221a80d4e040f29213fb1856
:100c8c001a885d4bd01840f29016bc193a005b499b
:100c9c008023fff7b9fd03002380bb191b88002bb1
:100cac0000d1bfe0bb191c8803f040fc03001d0001
:100cbc0040f20003c2f200031b68402213405a1e8c
:100ccc009341dbb243f22c41c0f2000140f2000030
:100cdc00c2f2000000932b002200fff751fa40f201
:100cec000003c2f200031b68402293431a0040f237
:100cfc000003c2f200031a60bb191b883a0043f2ce
:100d0c009041c0f2000140f20000c2f2000000f07d
:100d1c00c3fd43f2a443c0f20003380006221900bd
:100d2c0007f0bdf90300002b00d07be03a0043f242
:100d3c00ac41c0f2000140f20003c2f20003180003
:100d4c00fff71efa40f20003c2f2000340f2e62263
:100d5c000021995440f20003c2f2000340f2f62243
:100d6c000021995440f20003c2f2000340f20a320f
:100d7c0000219954802439193b0040f200121800cc
:100d8c0002f06ffd0300002b40d03a1943f2c8412a
:100d9c00c0f2000140f20003c2f200031800fff79a
:100dac00eff943f2e843c0f2000315481022190092
:100dbc0007f076fa43f2f443c0f200031148142210
:100dcc00190007f06dfa43f2fc43c0f200030e4821
:100ddc001422190007f064fa40f20003c2f2000377
:100dec001b6808221a4340f20003c2f200031a6087
:100dfc0018e0c04664010020e4010020e402002059
:100e0c00e6020020f60200200a03002043f20452fe
:100e1c00c0f2000240f20003c2f2000311001800fd
:100e2c00fff7aef940f20003c2f2000340f2e422f5
:100e3c009b5a40f29212ba1812889a4200d21ce7be
:100e4c00614b180004f07bfc03001a000123534093
:100e5c00dbb25bb143f22452c0f2000240f2000359
:100e6c00c2f2000311001800fff78af940f20003e8
:100e7c00c2f2000340f226329b5a9bb2012b00d0e7
:100e8c00d6e040f280143b19180005f0b9f840f296
:100e9c003c43c2f200033a1903ca03c340f238437d
:100eac00c2f200031b88190040f20003c2f20003d7
:100ebc0040f228329b5a9bb2cb187f2b3ad840f287
:100ecc003843c2f200031b881a0040f2b833c2f256
:100edc000003d01840f20003c2f2000340f22832a3
:100eec009b5a9bb21a00394b190007f06df940f26e
:100efc000003c2f2000340f228329b5a9ab240f22d
:100f0c003843c2f200031b88d3189ab240f238431c
:100f1c00c2f200031a8040f23843c2f200031b886d
:100f2c001f2b6fd940f20003c2f200031800fff729
:100f3c0056fa67e040f23843c2f200031b881c00eb
:100f4c0040f20003c2f2000340f228329b5a9bb2db
:100f5c0043f24451c0f2000140f20000c2f2000022
:100f6c002200fff70df940f20003c2f20003180053
:100f7c00fff735fa40f20003c2f2000340f22832c8
:100f8c009b5a9bb27f2b23d840f20003c2f2000382
:100f9c0040f228329b5a9bb21a000c4940f2b833eb
:100fac00c2f20003180007f00ff940f20003c2f27e
:100fbc00000340f228329b5a9ab240f23843c2f2f4
:100fcc0000031a801ee0c046580100202c030020ac
:100fdc0040f20003c2f2000340f228329b5a9bb24b
:100fec001a0043f28451c0f2000140f20003c2f235
:100ffc0000031800fff7c4f840f23843c2f20003b4
:10100c0000221a80ad4b180004f070fd03001a008a
:10101c0001235340dbb25bb143f2c852c0f2000271
:10102c0040f20003c2f2000311001800fff7a8f809
:10103c0040f20003c2f200031b6808221340002b8d
:10104c003ed040f20003c2f2000340f2e6229b5c69
:10105c0043b943f2e853c0f2000399481022190037
:10106c0007f01ef940f20003c2f2000340f2f62230
:10107c009b5c43b943f2f453c0f200039148142231
:10108c00190007f00df940f20003c2f2000340f220
:10109c000a329b5c43b943f20063c0f200038a48f6
:1010ac001422190007f0fcf840f20003c2f200030e
:1010bc001b6880221a4340f20003c2f200031a603c
:1010cc0040f20003c2f200031b68202213405bb104
:1010dc0040f20003c2f200031b6880221a4340f264
:1010ec000003c2f200031a6040f25053c2f2000334
:1010fc001b685a1c40f25053c2f200031a6040f2b3
:10110c000003c2f2000340f2b4329b585b0840f279
:10111c008c117a18136040f25053c2f20003186815
:10112c0040f28b143a197b181968002388425b41f2
:10113c0013703b191b782bb140f25053c2f20003d1
:10114c0000221a6040f20003c2f200031b688022e6
:10115c00134083b340f20003c2f200031b68402229
:10116c00134043bb40f28b13fb181b781bb340f2ac
:10117c000003c2f2000340f298329a5a40f2000384
:10118c00c2f2000340f29a31595a40f20003c2f203
:10119c00000340f29c301b5a4b4e4a4d484c40f2d7
:1011ac000000c2f2000002930191009233002a0069
:1011bc00210000f0a1fa03f0b9f903001a00012391
:1011cc005340dbb263b140f20003c2f200031b6870
:1011dc00402293431a0040f20003c2f200031a604b
:1011ec0040f28013fb181a6840f24c53c2f2000311
:1011fc001b68d31a052b5dd943f20c62c0f20002b6
:10120c0040f20003c2f2000311001800fef7b8ff11
:10121c0040f20003c2f200031b68402293431a0001
:10122c0040f20003c2f200031a6004f09afa0300c1
:10123c00cbb143f25862c0f2000240f20003c2f29a
:10124c00000311001800fef79bff04f097fa40f220
:10125c000003c2f2000340f25e12002199521b4bb4
:10126c00180004f06cfa04f053fc0300cbb143f209
:10127c008462c0f2000240f20003c2f200031100cb
:10128c001800fef77dff04f050fc40f20003c2f2a0
:10129c00000340f2263200219952084b180004f04a
:1012ac0025fc40f28013fb181a6840f24c53c2f232
:1012bc0000031a60c046bd4667b0f0bd2003002095
:1012cc00e6020020f60200200a030020580100204c
:1012dc0080b500affff77ff9fff7eefafce7c046e9
:020000040000fa
:1012ec0090b585b000af78607b681b680122134015
:1012fc00002b4bd003f01af90300002b48d17b686c
:10130c001b6840221340002b44d17a6844f6947336
:10131c00c0f2000353607b6840f298221a817b680c
:10132c001b6840221a437b681a607b6804330121d6
:10133c00180003f0e8f803009bb17b681b680122de
:10134c0093431a007b681a607b681b6840229343a6
:10135c001a007b681a607b6840f2aa32012199540a
:10136c0019e008243b19180004f04afe21007b18f0
:10137c001a684cf60023c3f69a335a437b185b6801
:10138c00d2187b6840f2b0315a5004e0c04602e0fb
:10139c00c04600e0c046bd4605b090bdf0b597b064
:1013ac0006af78613961fa60bb6003f0bff80300e7
:1013bc000bb10023c0e07b691b6840221340002b5b
:1013cc0045d0142608217b189b19180004f018fe30
:1013dc0008217b189b191b683b6000237b604cf633
:1013ec000022c3f69a3200233868796806f054fc60
:1013fc0002000b0008217918891949680c00002596
:10140c0012196b411c001300bb63fc637b6940f237
:10141c00b0329b583b6300237b63b96bfa6b3b6b1d
:10142c007c6bc91aa2410b00140034b96cb94cf690
:10143c000022c3f69a32934207d97b691b6840227b
:10144c0093431a007b691a6001e0002374e07b6906
:10145c000c33180044f68471c0f2000145f23022be
:10146c00c0f20002bb68059344f66073c0f200033f
:10147c000493fb68039344f66073c0f20003029379
:10148c003b69019344f67c73c0f2000300930b009c
:10149c0040f2001106f078fe0300fb62fb6a002ba1
:1014ac0002ddfb6aff2b01dd002345e07b690c3379
:1014bc001a007b695a60fb6a9ab27b691a817b6954
:1014cc001b6840221a437b691a601c2408257b196f
:1014dc001b19180004f094fd210028003b185b1820
:1014ec001a684cf60023c3f69a335a433b185b1820
:1014fc005b68d2187b6940f2b0315a507b69043377
:10150c000121180002f0ffff0300a3b17b691b68e7
:10151c00402293431a007b691a607b691b6808227e
:10152c0093431a007b691a60bb6d13b1bb6d00222b
:10153c001a70012300e000231800bd4611b0f0bd65
:10154c00f0b595b004af78610e00100019000a23b5
:10155c0040f2080cbc446344321c1a80082340f24d
:10156c00080cbc446344021c1a800e23fb180a1c92
:10157c001a8002f0dbff03000bb10023b8e07b699b
:10158c001b6840221340002b45d0142608217b18e1
:10159c009b19180004f034fd08217b189b191b685b
:1015ac003b6000237b604cf60022c3f69a3200238a
:1015bc003868796806f070fb02000b000821791876
:1015cc00891949680c00002512196b411c00130085
:1015dc00bb63fc637b6940f2b0329b583b630023d6
:1015ec007b63b96bfa6b3b6b7c6bc91aa2410b002a
:1015fc00140034b96cb94cf60022c3f69a329342fb
:10160c0007d97b691b68402293431a007b691a60d7
:10161c0001e000236ce07b690c331d000a2340f2cf
:10162c00080cbc4463441988082340f2080cbc44e1
:10163c00634418880e23fb181c8844f68c73c0f284
:10164c00000345f26022c0f2000202940190009166
:10165c0040f20011280006f097fd0300fb62fb6ac4
:10166c00002b02ddfb6aff2b01dd002340e07b69d0
:10167c000c331a007b695a60fb6a9ab27b691a8137
:10168c007b691b6840221a437b691a601c2408255d
:10169c007b191b19180004f0b3fc210028003b181f
:1016ac005b181a684cf60023c3f69a335a433b185e
:1016bc005b185b68d2187b6940f2b0315a507b6979
:1016cc0004330121180002f01eff03007bb17b697b
:1016dc001b68402293431a007b691a607b691b6864
:1016ec00202293431a007b691a60012300e0002337
:1016fc001800bd4611b0f0bdf0b591b00aaff8605e
:10170c00b9607a603b6002f011ff03000bb100235b
:10171c00bee0fb681b68402213400bb10023b7e00e
:10172c00bb6873b1bb681b785bb17b684bb17b68e2
:10173c001b7833b13b6823b13b681b780bb101229a
:10174c0000e0002213203b181a701a7801210a407d
:10175c001a703b181b78a3b3fb680c331e003023a4
:10176c00fb1818883423fb181c883823fb181d8899
:10177c0044f68471c0f2000145f29c22c0f20002d2
:10178c0044f66073c0f20003089307950694059025
:10179c0044f68c73c0f2000304933b6803937b689c
:1017ac000293bb68019344f67c73c0f20003009370
:1017bc000b0040f20011300006f0e6fc03007b61e8
:1017cc0028e0fb680c331e003023fb1818883423e8
:1017dc00fb181c883823fb181d8844f68471c0f252
:1017ec00000145f20432c0f2000244f66073c0f20c
:1017fc000003049303950294019044f68c73c0f299
:10180c00000300930b0040f20011300006f0bcfc0a
:10181c0003007b617b69002b02dd7b69ff2b01dd03
:10182c00002335e0fb680c331a00fb685a607b69b7
:10183c009ab2fb681a81fb681b6840221a43fb684a
:10184c001a60fb6804330121180002f05cfe0300ef
:10185c00ebb1fb681b68402293431a00fb681a60cb
:10186c00fb681b68082293431a00fb681a60fb682c
:10187c001b68202293431a00fb681a60fb681b68e4
:10188c00802293431a00fb681a60012300e00023b6
:10189c001800bd4607b0f0bd80b58ab000aff86047
:1018ac00b9607a603b6002f041fe03000bb100238b
:1018bc00bce1fb681b68402213400bb10023b5e16f
:1018cc0000237b623b681bb17b680bb90023ade145
:1018dc00bb68002b00d183e045f26033c0f20003fb
:1018ec00b8680e22190006f0dafb03005bb145f272
:1018fc007033c0f20003b8681122190006f0cffb58
:10190c000300002b6cd1fb680c331800bb6845f24c
:10191c008432c0f2000240f2001106f035fc0300e4
:10192c007b6200233b6252e07a683b6ad218172133
:10193c007b1812781a707b181b781f2b0cd97b180c
:10194c001b787e2b08d87b6a5a1c7a62fa68d318eb
:10195c007a1812781a7337e01722bb181b780d2be4
:10196c0031d0bb181b780a2b15d1fb680c331a002d
:10197c007b6ad0187b6a40f20012d11abb6845f220
:10198c008c32c0f2000206f0fffb03001a007b6ae7
:10199c009b187b6218e0fb680c331a007b6ad0182a
:1019ac007b6a40f20012d11a1723fb181b7845f200
:1019bc009432c0f2000206f0e7fb03001a007b6ac7
:1019cc009b187b6200e0c0463b6a01333b623a6a7b
:1019dc003b689a4200d3d7e07b6af52ba4d9d3e0bd
:1019ec00bb68002b62d045f29c33c0f20003b86890
:1019fc000a22190006f053fb0300002b56d1fb689a
:101a0c000c33180045f2a833c0f200031a0040f260
:101a1c00001106f0b9fb03007b620023fb613ce084
:101a2c00fb680c331a007b6ad0187b6a40f20012f8
:101a3c00d11a7a68fb69d3181b7845f2b832c0f218
:101a4c00000206f0a1fb03001a007b6a9b187b6264
:101a5c00fb6901330f221340e3b93b68013bfa6980
:101a6c009a4217d27b6af02b14d8fb680c331a00fd
:101a7c007b6ad0187b6a40f20012d11a45f2c0334f
:101a8c00c0f200031a0006f07ffb03001a007b6a09
:101a9c009b187b62fb690133fb61fa693b689a42d4
:101aac0000d373e07b6afb2bbad96fe0bb686bb1d8
:101abc00fb680c331800bb6845f28432c0f200029c
:101acc0040f2001106f060fb03007b620023bb6157
:101adc0052e07a68bb69d21816217b1812781a70fa
:101aec007b181b781f2b0cd97b181b787e2b08d8e6
:101afc007b6a5a1c7a62fa68d3187a1812781a73ad
:101b0c0037e01622bb181b780d2b31d0bb181b7875
:101b1c000a2b15d1fb680c331a007b6ad0187b6a30
:101b2c0040f20012d11a45f2d033c0f200031a0071
:101b3c0006f02afb03001a007b6a9b187b6218e0f4
:101b4c00fb680c331a007b6ad0187b6a40f20012d7
:101b5c00d11a1623fb181b7845f29432c0f20002fe
:101b6c0006f012fb03001a007b6a9b187b6200e0f4
:101b7c00c046bb690133bb61ba693b689a4206d265
:101b8c007b6af52ba5d902e0c04600e0c0467b6a13
:101b9c000bb37b6afd2b1ed87b6a012b0dd97b6a9c
:101bac00023bfa68d3181b7b0d2b06d17b6a013bd9
:101bbc00fa68d3181b7b0a2b0dd07b6a5a1c7a62ed
:101bcc00fa68d3180d221a737b6a5a1c7a62fa6867
:101bdc00d3180a221a73fa687b6ad3180c330022c2
:101bec001a707b6a0bb9002320e0fb680c331a00d7
:101bfc00fb685a607b6a9ab2fb681a81fb681b68a7
:101c0c0040221a43fb681a60fb6804330121180058
:101c1c0002f079fc030043b1fb681b68402293433c
:101c2c001a00fb681a60012300e000231800bd466f
:041c3c000ab080bdad
:020000040000fa
:101c4000f0b5bc4ca5441093040000230800089292
:101c50000693302851d02e2877d1e36be26c934263
:101c600058d25a1ce2631878002200230292039390
:101c7000302853d001230993002300221e001500b1
:101c80001f001293059300930300303b092b62d988
:101c90002e2862d0099b0bb902950396069b002b58
:101ca00000d1aee320230343652b00d0c1e3999913
:101cb000200005f071f970b980231b0699420ad102
:101cc000999b002b00d1aae3e36c0020002113b103
:101cd000e36b013be363029b039c1b184c410293a3
:101ce0000394129c002c00d088e0989806f012fa19
:101cf0000022002305f0a6f897e3e36be26c934221
:101d000004d25a1ce26318780123a1e7200005f0f1
:101d100049fef9e7200005f045fea5e70122524201
:101d2000d3170298039980185941e36be26c029033
:101d30000391934205d25a1ce2631878012306935b
:101d400096e7200005f02efef8e700230022099315
:101d50000292039390e72e280ed1099b002b4bd1c2
:101d60000295039601330993e36be26c93423fd2f1
:101d70005a1ce263187887e7009a7c2a20dc290045
:101d8000320001250026491972410d001600302845
:101d900000d0059137b1009a12a9920052580a2139
:101da0004a43d318009a12a99200535001230137d5
:101db0000693092fd8d1009b002701330093d3e766
:101dc0002a003300012500265219734115001e0018
:101dd0003028c9d040f2f01212ab9b580593012372
:101de00005990b4312a98b5040f25c430593bbe766
:101df000200005f0d7fd47e72e204fe7029a9542d5
:101e00001bd1039a964218d1002e16dc0eb9092d6b
:101e100013d8089b1e2b03dc2300089ad34063b918
:101e2000989806f077f9060020000f0006f080f978
:101e300002000b00300039005ce7109b109adb0faa
:101e40009b185b1003995b42da17914203dc11d1b6
:101e5000029a9a420ed92222374b98981a6006f0bd
:101e600059f90122354b524204f0ecff0122334b69
:101e700052423fe7109b03996a3bda178a4203dc20
:101e800011d1029a93420ed922222b4b98981a60b4
:101e900006f040f9802300225b0304f0d3ff802387
:101ea00000225b0326e70a21f7b9059b029c082b59
:101eb0006bdca34269dc112c67dc092c1ad1129867
:101ec00006f036f9040098980d0006f023f9020098
:101ed0000b00200029000de79a0012abd35812a87e
:101ee00006934b4301371350009b082ff4dd013359
:101ef0000093dae7082c25dc129806f019f90600a1
:101f000098980f0006f006f902000b003000390027
:101f100004f098ff08231c1b094ba4000600e0589e
:101f20000f0006f0f7f802000b003000390005f052
:101f300079f97ae2b4fdffff58060020ffffef7f3a
:101f40002c8000002300093b9a009b1a089a9b18da
:101f50001e2b02dc129ada40bab9129806f0e8f8a1
:101f6000060098980f0006f0d5f802000b0030002c
:101f7000390004f067ff0a3c8e4ba4000600e058cd
:101f80000f0006f0c7f853e70093009b12a9013b2e
:101f90009a005258002af7d0092394fbf3f25343d6
:101fa000e31a0293dbb1002c01da09330293082310
:101fb000029a12a89b1a7f4a9b009f5800231a007e
:101fc0001900009da9420dd12bb1a90012a80b50f8
:101fd0002b0001330093029b0292e41a0934002380
:101fe000059378e00568b5fbf7f6f3189c460360a7
:101ff000714b7e4393fbf7f3ae1b7343914205d1c4
:1020000065461db97f224d1c2a40093c0131043030
:10201000d7e7059b1d3b0593009b5d1e7f231d405d
:102020000023069312aaab009b58da085b070a93b9
:10203000069b0b920c9300230a9e0b9f0d930c9a08
:102040000d9bb6185f4117b95b4b9e421ed95a4a89
:1020500000233000390005f087fe574a0690002320
:102060003000390005f080feab0012a95a50009be9
:10207000591e7f230b40ab420bd1029b9d4273d074
:1020800002b900957f23013d1d40cbe73200069742
:10209000eae7029a9542f5d1069ae2b17f21029ac7
:1020a0000934013a0a4002920298009a82420dd104
:1020b0005a1e0a40920012a810589900009012a8c7
:1020c000095800980093014312a81150029b0699e9
:1020d0009b0012aa9950112c9bdd122c06d1029b59
:1020e00012a99b00354a5b58934292d90126029b64
:1020f000009a934215d012aa9b009b582f4a9342f4
:102100000fd92f4a93420ed17f22029b01331340f5
:10211000009a9a4205d09b0012a92a4a5b58934222
:1021200001d8122c50d032001b2c00dd0922059b57
:1021300000219b18059333009340013b06931e4bef
:1021400013419c46029b009883420fd10029ced0b8
:10215000421c7f20029b02409a4220d0009b12a882
:102160009b00c1500092c2e7029b95e79f0012a816
:102170003d582800d040401812a9785006992940af
:1021800065466943029dab4205d120b95d1c7f3095
:1021900005400295093c7f2001330340d3e7009bb3
:1021a00012aa013b03409b00d25812a90692324367
:1021b000ca509ce72c80000000ca9a3b5e708900e0
:1021c0005f708900ff092f0f029b009a934209d18b
:1021d0005a1c7f231a40130000920022013b9b00ef
:1021e00012a9ca50029b12aa9b00d05805f0a0ff6a
:1021f0000022002304f028fd029b009a5e1c7f232e
:102200001e40964208d101321a401300009200226b
:10221000013b9b0012ace2500022874b04f012feff
:1022200004000d0012abb600f05805f081ff22004b
:102230002b0004f009fd04000d00989805f06affda
:1022400022002b000690079104f0fcfd059b109adc
:10225000353311939b1a089a0a900b910c93934271
:1022600000dbb1e0002b00dab1e01d00012309938f
:10227000342d00ddafe069220020521b6f4905f0cc
:102280000ffc0a9a0b9b05f0e5ff35220e900f918b
:10229000521b0020694905f003fc02000b000a985c
:1022a0000b9906f037f802000b0006000f000a98a1
:1022b0000b9905f0adff02000b000e980f9904f08a
:1022c000c3fc0a900b917f22029b009902331340ba
:1022d0008b4232d012a99b005b5859498b4200d9de
:1022e00080e02bb9029c009b033414409c420dd02b
:1022f0000022544b0698079904f0a4fd02000b003d
:102300003000390004f0a0fc06000f0035235b1bf1
:10231000012b12dd0022494b3000390005f0faff95
:102320000022002305f03efe38b1300039000022c3
:10233000424b04f089fc06000f000a980b99109b91
:1023400032005c42089be41a3b0004f07dfc0e9acc
:102350000f9b05f05dff119b621e5b0000900191d9
:102360005b089a422adc05f0d1ff0022364b05f0cb
:1023700077fc90b1099b2bb10c9b5d1b2b005d1e64
:10238000ab410993314b00980199002204f05afdaa
:10239000059b0090019101330593059b0334343371
:1023a000a34208da099b4bb1002200233000390018
:1023b00005f0f8fd10b92222254b1a60059a009805
:1023c000019905f09fff30e0089d00234fe70123ae
:1023d000002509934fe7002300241e000e930f945d
:1023e000270070e71b498b4202d000221a4b81e77d
:1023f000029c009b0334144000229c42f6d1134bf4
:1024000078e7002808dbe36c13b1e36b013be3637f
:10241000069b002b00d064e416220d4b1a600021ad
:10242000200005f09ffe0020002140f24c239d4437
:10243000f0bd0028e7da54e465cdcd410000f03f5f
:10244000ff64cd1d0000d03f000040430000e03f8e
:0c245000580600200065cd1d0000e83f8c
:020000040000fa
:10245c00f0b595b004000492022900d929e1af4be4
:10246c0001335b18db7f49005bb21293ab4bc9188d
:10247c0024228b5e0a93e36be26c93422cd25a1c9f
:10248c00e2631d78202df6d02b00093b042bf2d9ea
:10249c0001222b2d25d0069202232d2d22d0002790
:1024ac0020239f4a2b43ba181278934229d0032f2a
:1024bc0003d040d9049b002b3ed0e26c12b1e36bed
:1024cc00013be363049b4bb3032f27d012b1e36ba7
:1024dc00013be363013ff7e7200005f05dfa0500df
:1024ec00d0e70023d31a0693e26ce36b934203d23a
:1024fc005a1ce2631d78d2e7200005f04dfa050066
:10250c00cde77e1c072f09d0e36be26c93420dd212
:10251c005a1ce2631d783700082ec1d1069b00209f
:10252c00013300d1a2e27f4915b0f0bd200005f0c7
:10253c0033fa0500efe7b7b1e36c002b00d1b1e043
:10254c00e36b013be363ade07e1c022f00d19ae20a
:10255c00e36be26c93426bd25a1ce2631d7837003a
:10256c00032e00d18fe220236f4a2b43ba18127826
:10257c009342e9d0002fdfd1129b0b93302d00d06a
:10258c0069e2e36be26c934200d39ce05a1ce26379
:10259c0018782023e26c0343782b00d057e2e36bce
:1025ac00934200d393e05a1ce263187800230f93f4
:1025bc00302800d18fe02e2800d199e00022002392
:1025cc00089209930e93002300221393574b002576
:1025dc001092119300230026029203930300303bc8
:1025ec000c93092b00d8bbe020230343613b052b44
:1025fc0000d8b5e02e2800d1b4e00f9b002b00d002
:10260c001be1e36c002b00d132e2049ae36b002a4d
:10261c0000d10be10e9a002a00d005e1023be363e6
:10262c00069805f071fd0022002304f005fc7be701
:10263c00200005f0b1f9050091e75a1ce263187807
:10264c002838431e9841c0b2012540b1e36c13b940
:10265c000020374968e7e36b013be363f8e7e36b82
:10266c00e26c934211d25a1ce26318780300303b9f
:10267c00092b08d9202302009a431300413b192b44
:10268c0001d95f2805d10135e9e7200005f084f96f
:10269c00ece72928dcd0e26c12b1e36b013be3637d
:1026ac00049b6bb91622234b1a600021200005f005
:1026bc0053fd0020002137e712b1e36b013be363cc
:1026cc00013df9d2c4e7200005f066f961e720006e
:1026dc0005f062f96ae7e36be26c934204d25a1c90
:1026ec00e2631878012362e7200005f055f9f9e759
:1026fc00e36be26c93420dd25a1ce2631878002211
:10270c00002301256d42ee1708920993302813d04f
:10271c00012357e7200005f03ff9f0e72c8000007b
:10272c009e8200000000f07fa78200000000f03fb6
:10273c000000f87f58060020e36be26c93420bd24a
:10274c005a1ce2631878089a099b52197341089233
:10275c00099301230f93d9e7200005f01df9f2e747
:10276c002e2813d10e9b002b00d086e10c950d96d4
:10277c0001330e93e36be26c934251d25a1ce26329
:10278c001878089509960c9d0d9e27e7392803ddce
:10279c0020230343573b0c93002e2adc0eb9072d44
:1027ac000dd80c9b3f01df190122002352197341f4
:1027bc00089d099e0c920d9301230f93dae70d2dc2
:1027cc0017d8109811990022b34b04f035fb1090d8
:1027dc0011910c9805f098fc109a119b04f02cfbad
:1027ec0002000b000298039904f028fa029003915e
:1027fc00dae70c9b002bd7d0139b002bd4d110986d
:10280c0011990022a54b04f017fb0b000200029853
:10281c00039904f013fa0123029003911393c3e775
:10282c00200005f0b9f8ace7033bf8e6013be363a5
:10283c000021200005f090fcf2e60e9b0bb90895e8
:10284c0009960122002302e0ad185e413f01002ee3
:10285c0003dc002ef8d1072df6d920263043702842
:10286c000cd10499200004f091fb70b980231b0655
:10287c0099420ad1049b002b00d116e7e36c13b1eb
:10288c00e36b013be36300200021002f00d1c7e67e
:10289c00089a099b08246442e51712196b4114002d
:1028ac00960f9b003343a20012184b4104920593e0
:1028bc000a9b05995b42da17914203dc11d1049a09
:1028cc009a420ed92222764b06981a6005f01cfc0f
:1028dc000122744b524204f0affa0122714b524266
:1028ec00a3e60a9b05996a3bda178a4203dc33d1cb
:1028fc00049a934230d92222694b06981a6005f04b
:10290c0003fc802300225b0304f096fa8023002250
:10291c005b038ae6002202980399604b05f09af952
:10292c007f00002800d187e00298039900225e4bbb
:10293c0005f068fc013702000b000298039904f0c3
:10294c007df901225242d317029003910498059904
:10295c008018594104900591002fdbda04980599f1
:10296c00129b2022dc17002312184b410a98c11726
:10297c00121a8b419c4203dc08d11299914205d961
:10298c00049b0a9a9b1a20330b935ad40b9b342b1f
:10299c005adc54220b9b0020d21a434905f07af8da
:1029ac00040006980d0005f0affb0b000200290097
:1029bc00200005f049fc0b9b04000d001f2b0ddcc7
:1029cc00029803990022002305f0e6fa30b9fb07c0
:1029dc0004d400220023029203930137069805f0d9
:1029ec0093fb029a039b0690079104f025fa029040
:1029fc000391380005f096fb069a079b04f01cfa2d
:102a0c0022002b0004f01af9029a039b04f016f929
:102a1c0022002b0005f0f6fb0022002304000d0021
:102a2c0005f0bafa10b122221d4b1a60049a20004c
:102a3c00290005f061fc77e5029a039b1000190050
:102a4c007de700230b93a4e700240025c6e712b111
:102a5c00e36b013be363049b129a0193069b2900f1
:102a6c00009320000a9bfff7e5f85de50f495be555
:102a7c00049b002b00d0d3e5dae60f9b2e20002b15
:102a8c0000d0dee6bde5e36be26c934200d2d4e508
:102a9c00200004f081ffd3e50000b03f0000e03fd0
:102aac0058060020ffffef7f0000f03f0000f0ff12
:020000040000fa
:102abc0080b582b000af0200fb1d1a70fb1d1b78a5
:102acc007f2b12d8fb1d1b781a001f231a401100f4
:102adc004ef20013cef20003fa1d127852b25209d4
:102aec000120884001009200d150c046bd4602b082
:102afc0080bd90b583b000af02003960fb1d1a7029
:102b0c00fb1d1b787f2b2fd84ef20013cef2000347
:102b1c00fa1d127852b29208c0329200d358fa1da4
:102b2c001278110003220a40d200ff2191400a00c2
:102b3c00d2431a4010003b689b01ff221a40fb1d38
:102b4c001b78190003230b40db009a4011004ef256
:102b5c000013cef20003fa1d127852b29208014310
:102b6c00c0329200d15037e04ef60053cef2000343
:102b7c00fa1d127811000f220a40083a9208063208
:102b8c0092009b1804331b68fa1d12781100032263
:102b9c000a40d200ff2191400a00d2431a40100093
:102bac003b689b01ff221a40fb1d1b781900032375
:102bbc000b40db009a404ef60053cef20003f91d99
:102bcc0009780c000f21214008398908024306318d
:102bdc0089005b1804331a60c046bd4603b090bd33
:102bec0080b582b000af00237b6040f20043c4f29a
:102bfc00000301229a7140f20043c4f20003022246
:102c0c009a7000e0c04640f20043c4f200039b7986
:102c1c00dbb21a0001231340002bf3d040f2004327
:102c2c00c4f2000301229a7145f20003c4f20013ae
:102c3c0004225a6041f60003c4f2000340f202324f
:102c4c001a6200e0c04641f60003c4f20003da68e1
:102c5c008023db021340002bf4d041f20003c4f2ba
:102c6c00000300221a8600e0c04641f20003c4f2c1
:102c7c0000031a6980235b041340002bf4d046f246
:102c8c002003c0f280031b687b607a68fc23db05a1
:102c9c0013407b607b68db0b7b607b6840f200221f
:102cac0013437b6041f20003c4f200037a685a6359
:102cbc0000e0c04641f20003c4f200031a6980230d
:102ccc005b041340002bf4d041f20003c4f2000368
:102cdc001b8e9ab241f20003c4f2000302210a4394
:102cec0092b21a8600e0c04641f20003c4f200031f
:102cfc001a6980235b041340002bf4d041f6004387
:102d0c00c4f2000340f205129a6200e0c04641f69c
:102d1c000043c4f200035b6810221340002bf5d172
:102d2c0041f60043c4f2000340f20712c0f2020263
:102d3c001a6200e0c04641f60043c4f200035b682f
:102d4c0004221340002bf5d1c046bd4602b080bd15
:102d5c0080b500af41f60043c4f20003902242213b
:102d6c00995000e0c04641f60043c4f200039022a3
:102d7c009b5842221340002bf4d042f60023c4f29d
:102d8c00000301221a7000e0c04642f60023c4f290
:102d9c0000035b6801221340002bf5d142f600239f
:102dac00c4f200030f225a63c046bd4680bd80b5f5
:102dbc0000af42f60023c4f200031b78dab242f6ed
:102dcc000023c4f2000302210a43d2b21a7000e0bd
:102ddc00c04642f60023c4f200035b680222134093
:102dec00002bf5d1c046bd4680bd80b500af40f28a
:102dfc000023c4f2002301221a70c046c046c0460c
:102e0c00c046bd4680bd80b500af43f20023c4f27e
:102e1c00000348f200025a6143f20023c4f200039b
:102e2c0048f200029a6043f20023c4f200034f22de
:102e3c0000219954c046bd4680bd80b586b000af18
:102e4c000200bb1d1a803b1d0a1c1a8010217b1826
:102e5c0000221a607b1800225a6008203b180022be
:102e6c001a603b1800225a603b1d00229b5edb431c
:102e7c001bb2ba1d0020125e13401ab2bb1d1a8081
:102e8c00bb1d1b880122134033b17b181b6848f211
:102e9c0000021a437b181a603b1d1b880122134049
:102eac003bb108217b181b6848f200021a437b18bf
:102ebc001a6043f20023c4f200031022ba181268fd
:102ecc009a6143f20023c4f200030822ba18126874
:102edc005a61c046bd4606b080bd80b500af40f219
:102eec006063c2f200031b889bb2032293439ab225
:102efc0040f26063c2f200031a8042f60023c4f26f
:102f0c0000039b6b0422134073b940f26063c2f25e
:102f1c0000031b889bb2012213439ab240f26063f8
:102f2c00c2f200031a800de040f26063c2f20003ab
:102f3c001b889bb2022213439ab240f26063c2f226
:102f4c0000031a8042f60023c4f200035a6942f6c9
:102f5c000023c4f2000304210a435a61c046bd4653
:102f6c0080bd80b500af43f20023c4f20003802281
:102f7c0012045a6043f20023c4f2000357220321c7
:102f8c00995443f20023c4f200033b229b5cdab257
:102f9c0043f20023c4f200030f210a40d1b23b22ba
:102fac00995442f60023c4f200031a6b42f6002334
:102fbc00c4f2000304210a431a6342f60023c4f24c
:102fcc000003da6942f60023c4f200030c490a40fc
:102fdc00da6142f60023c4f20003da6942f60023f8
:102fec00c4f2000340f600310a43da6142f60023d2
:102ffc00c4f2000304221a61c046bd4680bdc0461f
:10300c00fff0ffff80b582b000afba1d40f26063e5
:10301c00c2f200031b88138040f26063c2f200030b
:10302c0000221a80bb1d1b881800bd4602b080bd53
:10303c0080b500afbff35f8f62b603210520fff7a9
:10304c0058fd01235b4203211800fff752fd0520b8
:10305c00fff72efd01235b421800fff729fdc04648
:10306c00bd4680bd80b500affff7bafdfff7bdfed2
:10307c00fff76efefff775fffff7c5fe01f06cf86a
:10308c0002f088fb02f0a0f9fff791fe02f09dff21
:10309c00fff7ceffc046bd4680bd80b582b000af05
:1030ac003b00180002f0c9ff3b00180001f097f933
:1030bc003b00180002f0ccfc3b00180002f0ecfacc
:0830cc00c046bd4602b080bd04
:020000040000fa
:1030d4002c0100005b44454255475d2025730000e8
:1030e4005b44454255475d2025730d0a0000c046e8
:1030f400504d3a2050726f63657373696e67206137
:103104006363756d756c61746564202575206279df
:1031140074657300504d3a2056616c69642068658b
:10312400616465722030783432344420666f756e81
:10313400642e0000504d3a20507265706172696ec1
:103144006720746f207072696e7420524157204852
:10315400455820282575206279746573292e2043eb
:10316400444320427573795f48573a2025642c20e4
:103174004344435f427573795f466c61673a202527
:103184006400c046504d2052415720484558000025
:10319400504d3a20506172736564204f4b3a205071
:1031a4004d312e303d25752c20504d322e353d2588
:1031b400752c20504d31303d25750000436f6d62f4
:1031c400696e65642047505320616e6420504d2021
:1031d40073656e736f722070726f6a6563742073a7
:1031e40074617274696e672075702e2e2e00c0464d
:1031f400504d532070617273657220696e697469f1
:10320400616c697a656400004465627567206d6f5e
:10321400646520656e61626c656400004552524fbe
:10322400523a2047505320525820736574757020c9
:103234006661696c656421004750532052582073bd
:1032440065747570207375636365737366756c005c
:103254004552524f523a20504d20525820736574b3
:103264007570206661696c6564210000504d2052c0
:103274005820736574757020737563636573736622
:10328400756c00004552524f523a20434443205239
:1032940058207365747570206661696c65642100db
:1032a40043444320525820736574757020737563ca
:1032b4006365737366756c00496e697469616c69e2
:1032c4007a6174696f6e20636f6d706c6574652cc0
:1032d40020656e746572696e67206d61696e206c1d
:1032e4006f6f70000d0a0000504d3a204163637502
:1032f4006d756c6174696f6e2074696d656f75743a
:103304002c2070726f63657373696e672025752056
:10331400627974657300c0464c454420626c696ee2
:103324006b20636f6d706c65746500004275747416
:103334006f6e2070726573736564202d20646973e9
:10334400706c6179696e672062616e6e65720000ef
:103354004750533a2052585f434f4d504c5f4441bd
:1033640054412064657465637465642c206c656ed7
:103374003a2025750000c0464750533a20526563f1
:10338400656976656420257520627974657300002b
:103394004750533a20507265706172696e672074a9
:1033a4006f207072696e7420524157204255464610
:1033b400455220282575206279746573292e20438f
:1033c400444320427573795f48573a2025642c2082
:1033d4004344435f427573795f466c61673a2025c5
:1033e4006400c04647505320524157204255464638
:1033f400455200004750533a20417373656d626c27
:103404007920627566666572206f766572666c6f88
:10341400772c2064697363617264696e6720257513
:1034240020627974657300004750533a20457874dc
:10343400726163746564204e4d45412073656e74fa
:10344400656e63652c206c656e2025752e20507288
:1034540065706172696e6720666f72207261772091
:103464007072696e742e2043444320427573795ff1
:1034740048573a2025642c204344435f42757379ae
:103484005f466c61673a20256400c046475053206c
:103494004e4d45412053454e54454e434500c0468c
:1034a400244750474c4c00004750474c4c20736510
:1034b4006e74656e636520666f756e643a2025735d
:1034c4000000c0464750474c4c20706172736564dd
:1034d400207375636365737366756c6c793a202524
:1034e4007300c04630303a30303a30300000c046c5
:1034f400302e303030304e00302e303030304500f9
:103504004661696c656420746f2070617273652014
:103514004750474c4c2073656e74656e63650000bc
:103524004750533a204552524f52204661696c65c8
:103534006420746f2072652d61726d2052580000f2
:10354400504d3a20416363756d756c6174696f6e9b
:10355400206275666665722066756c6c2028257518
:10356400202b202575292c2070726f636573736975
:103574006e67207468656e20616464696e672e00ee
:10358400504d3a204552524f52202d20696e636fa0
:103594006d696e67207061636b657420746f6f2052
:1035a4006c6172676520666f7220656d7074792036
:1035b4006275666665722028257520627974657364
:1035c4002900c046504d3a204552524f5220466180
:1035d400696c656420746f2072652d61726d205270
:1035e4005800c04631323a33343a35360000c046ca
:1035f40031342e313233344e0000c0463132312e54
:10360400313233344500c0465761746368646f6770
:103614003a20436c656172696e6720706f74656ee1
:103624007469616c6c7920737475636b20666c616a
:1036340067732061667465722035207365636f6eed
:103644006473206f6620696e616374697669747946
:103654000000c0465761746368646f673a2047503e
:1036640053205258206170706561727320737475b1
:10367400636b2c2072652d61726d696e6700c046a4
:103684005761746368646f673a20504d2052582024
:103694006170706561727320737475636b2c207232
:0c36a400652d61726d696e670000c04604
:020000040000fa
:1036b000f0b58fb002aff860b9607a60fb6833b1e3
:1036c000fb68180004f042fd0300052b0ad847f2fe
:1036d0000453c0f200037968b8681a0004f05afd78
:1036e00000235ae01c203b1800210a1c1a800222e9
:1036f000995418257b1900210a1c1a80022299541a
:103700001426bb1900210a1c1a8002229954f96858
:1037100004003b180222180004f0c8fdfb68991c45
:103720007b190222180004f0c1fdfb68191dbb19aa
:103730000222180004f0bafd3b19180004f034fb13
:103740000300bb627b19180004f02efb03007b62b0
:10375000bb19180004f028fb03003b62bb6a083366
:10376000fb62fb6a172b03ddfb6a183bfb6205e07b
:10377000fb6a002b02dafb6a1833fb62fc6a47f231
:103780001052c0f200027968b8683b6a01937b6a04
:103790000093230004f0fefc01231800bd460db089
:1037a000f0bd90b58db000af786039607b6813b123
:1037b0007b681b7813b90023002453e07b68180052
:1037c00004f0c4fc02003b689a4202d200230024a9
:1037d00048e03a68796818243b19180004f066fd3f
:1037e00021007a183b68d31800221a707b18180041
:1037f00004f068fd03000c00bb62fc627b681800eb
:1038000004f0a4fc02003b689a420cd93b687a6839
:10381000d11808243b190f22180004f047fd3b196a
:103820000022da7303e00823fb1800221a70082331
:10383000fb18180004f046fd03000c003b627c629c
:1038400000220023c4f24e03386a796a03f0eafcce
:1038500003000c0018002100ba6afb6a03f0f4f9b7
:1038600003000c0018002100bd460db090bdb0b59e
:10387000e2b004aff860b9607a60fb681bb1bb6866
:103880000bb17b680bb90023d9e1bb6800221a7029
:1038900047f22053c0f20003f8680722190004f031
:1038a00004fc03000bb10023c9e1f968bc243b19f7
:1038b0006b22180004f0fafc3b196b22002199548a
:1038c000002340f27412ba18136011e0a023fa1812
:1038d00040f274103b181b68990047f22853c0f25d
:1038e00000038b500200bb181b680133ba18136029
:1038f00040f27413fb181b68062be7ddbc23fb1892
:10390000073340f27012b9180b60002340f26c11bb
:1039100079180b60bb181b6840f26812ba18136064
:1039200037e040f27012bb181b681b782c2b04d0b8
:10393000bb181b681b782a2b24d140f267143b1953
:1039400040f270103a18126812781a703b181b680f
:1039500000221a7040f26c117b181b685a1c7918ef
:103960000a60a022ba189b0040f26815791909680c
:1039700099503b181b6801337a1913603b191b7867
:103980002a2b13d040f27012bb181b680133ba18ef
:10399000136040f27013fb181b681b783bb140f2b8
:1039a0006c13fb181b68062bbbdd00e0c04640f221
:1039b00068117b181b681b78c3b140f26c103b1870
:1039c0001b68062b12dc7b181a6840f27013fb1878
:1039d0001b689a420ad23b181b685a1c38180260ae
:1039e000a022ba189b00791809689950a022bb1828
:1039f0001b6840f2601179180b60bb185b6840f2dd
:103a00005c1179180b60bb189b6840f2581179184b
:103a10000b60bb18db6840f2541179180b6040f260
:103a20006c13fb181b68042b02ddbb181b6903e039
:103a300047f22853c0f2000340f25012b9180b604d
:103a40009423f918bb181b680c221800fff730feee
:103a500040f26013fb181b681a7840f24f13fb18f2
:103a6000511e8a411a7040f25c12bb181b681b7809
:103a70005bb1bb181b681b784e2b04d0bb181b68ae
:103a80001b78532b01d1012200e0002240f24e1599
:103a90007b191a701a7801210a401a7040f24f13ec
:103aa000fb181b7883b340f26013fb181b680221dc
:103ab0001800fff776fe03000c0040f24012ba181f
:103ac000136054607b191b782bb140f25c13fb1818
:103ad0001b681a7800e02d2240f23f117b181a7003
:103ae0007b181b7847f22c52c0f200025421781840
:103af000029340f24013fb185c681b68009301942a
:103b0000402104f047fb09e047f24053c0f20003b4
:103b10005422b8181a00402104f03cfb40f258131c
:103b2000fb181b681a7840f23e13fb18511e8a419d
:103b30001a7040f25412bb181b681b785bb1bb189b
:103b40001b681b78452b04d0bb181b681b78572bb0
:103b500001d1012200e0002240f23d157b191a70cc
:103b60001a7801210a401a7040f23e13fb181b78a4
:103b700083b340f25813fb181b6803211800fff7aa
:103b800010fe03000c0040f23012ba1813605460ab
:103b90007b191b782bb140f25413fb181b681a7861
:103ba00000e02d2240f22f117b181a707b181b7831
:103bb00047f25c52c0f2000214217818029340f2de
:103bc0003013fb185c681b6800930194402104f0db
:103bd000e1fa09e047f27053c0f200031422b8186a
:103be0001a00402104f0d6fa9423fc1847f29052b0
:103bf000c0f200027968b86847f2a053c0f200032f
:103c000002931423fb1801935423fb180093230001
:103c100004f0c0fa030040f22812b9180b60bb1878
:103c20001b68002b06ddbb181b687a689a4201d915
:103c3000012300e000231a1c01231340dbb218000b
:063c4000bd465eb0b0bd00
:020000040000fa
:023c4600fee797
:020000040000fa
:103c480080b582b000af78607b682622002118001a
:103c580004f0c6fa7b682122002199547b6820224f
:103c6800002199547b6800229a84c046bd4602b060
:103c780080bd80b582b000af786039603b68212292
:103c88009b5c1a0046f64c23c0f2000378681900c2
:103c9800fcf778fa3b682122002199543b682022de
:103ca800002199543b6800229a843b6800225a8478
:103cb800c046bd4602b080bd90b587b000aff86081
:103cc800b9603b60fb1d1a70bb6820229b5c1f2bf0
:103cd80017d9bb6821229b5c9bb1bb6820229b5ce7
:103ce8001a0046f68423c0f20003f8681900fcf7ae
:103cf80049faba68fb6811001800fff7baff0623f3
:103d080028e2bb6821229b5c062b00d90be29a00b3
:103d1800844bd3181b689f46fb1d1b78422b00d091
:103d280014e2bb68fa1d12781a70bb6820220121c0
:103d38009954fb1d1b789ab2bb689a84bb682122f0
:103d48000121995402e2fb1d1b784d2b1ad1bb6847
:103d580020229b5c5a1cd0b2ba682021505419000a
:103d6800bb68fa1d12785a54bb689a8cfb1d1b78e5
:103d78009bb2d3189ab2bb689a84bb6821220221ed
:103d88009954e6e1fb1d1a7846f6b823c0f2000301
:103d9800f8681900fcf7f6f9ba68fb681100180012
:103da800fff767fffb1d1b78422b09d13c68fb1d01
:103db8001a78b968f8682300fff77eff0300c9e1a5
:103dc8000423c7e1bb6820229b5c5a1cd0b2ba68a6
:103dd800202150541900bb68fa1d12785a54bb6848
:103de8009a8cfb1d1b789bb2d3189ab2bb689a8435
:103df800fb1d1b789bb21b029ab2bb685a84bb6836
:103e0800212203219954a4e1bb6820229b5c5a1cff
:103e1800d0b2ba68202150541900bb68fa1d127834
:103e28005a54bb689a8cfb1d1b789bb2d3189ab264
:103e3800bb689a84bb685a8cfb1d1b789bb21343e2
:103e48009ab2bb685a84bb685b8c1a00bb685b8cef
:103e580046f6f421c0f20001f868fcf793f9bb6854
:103e68005b8c3bb1bb685b8c1c2b03d8bb685b8c41
:103e7800012b12d8bb685b8c1a0046f62433c0f2bb
:103e88000003f8681900fcf77df9ba68fb681100af
:103e98001800fff7eefe05235ce1bb682122042130
:103ea800995456e1bb6820229b5c5a1cd0b2ba6870
:103eb800202150541900bb68fa1d12785a54bb6867
:103ec80020229b5c1a00bb685b8c02339a4208dc98
:103ed800bb689a8cfb1d1b789bb2d3189ab2bb683f
:103ee8009a84bb6820229b5c023bba68528c93423e
:103ef80000d02de1bb6821220521995428e1bb6837
:103f080020229b5c5a1cd0b2ba6820215054190058
:103f1800bb68fa1d12785a54bb68212206219954ad
:103f280017e1c0462c6c0000bb6820229b5c5a1c21
:103f3800d0b2ba68202150541900bb68fa1d127813
:103f48005a54bb6820229b5c023bba68d35c1b02b4
:103f58001ab2bb6820215b5c013bb968cb5c1bb221
:103f680013431ab216217b181a80bb689b8c1a005f
:103f78000c007b181b8846f65031c0f20001f86827
:103f8800fcf700f9bb689b8c3a1912889a4200d05a
:103f9800b8e046f67c33c0f20003fa681900100056
:103fa800fcf7f0f8bb685b8c1b2b00d897e0bb686c
:103fb8001b791b021ab2bb685b791bb213431bb295
:103fc8009ab23b681a80bb689b791b021ab2bb681d
:103fd800db791bb213431bb29ab23b685a80bb68a9
:103fe8001b7a1b021ab2bb685b7a1bb213431bb263
:103ff8009ab23b689a80bb689b7a1b021ab2bb686c
:10400800db7a1bb213431bb29ab23b68da80bb68f7
:104018001b7b1b021ab2bb685b7b1bb213431bb230
:104028009ab23b681a81bb689b7b1b021ab2bb68b9
:10403800db7b1bb213431bb29ab23b685a81bb6845
:104048001b7c1b021ab2bb685b7c1bb213431bb2fe
:104058009ab23b689a81bb689b7c1b021ab2bb6808
:10406800db7c1bb213431bb29ab23b68da81bb6894
:104078001b7d1b021ab2bb685b7d1bb213431bb2cc
:104088009ab23b681a82bb689b7d1b021ab2bb6856
:10409800db7d1bb213431bb29ab23b685a82bb68e2
:1040a8001b7e1b021ab2bb685b7e1bb213431bb29a
:1040b8009ab23b689a82bb689b7e1b021ab2bb68a5
:1040c800db7e1bb213431bb29ab23b68da82ba6832
:1040d800fb6811001800fff7ccfd00233ae0bb682d
:1040e8005b8c1a0046f69433c0f20003f868190096
:1040f800fcf748f8ba68fb6811001800fff7b9fd2b
:10410800052327e046f6d433c0f20003fa68190005
:104118001000fcf737f8ba68fb6811001800fff7c1
:10412800a8fd032316e0bb6821229b5c1a0046f613
:104138000043c0f20003f8681900fcf723f8ba68d6
:10414800fb6811001800fff794fd02e0c04600e08c
:0c415800c04601231800bd4607b090bd12
:020000040000fa
:1041640080b500af41f60043c4f20003d0224221df
:10417400995000e0c04641f60043c4f20003d02247
:104184009b5840221340002bf4d040f2fc53c2f25f
:1041940000032c220021180004f024f840f2fc5300
:1041a400c2f2000341f20002c4f200221a6041f29a
:1041b4000003c4f2002301221a6000e0c04641f269
:1041c4000003c4f20023db6901221340002bf5d164
:1041d40041f20003c4f2002304221a6041f20003f6
:1041e400c4f20023196841f20003c4f20023002240
:1041f400c4f210020a431a6041f20002c4f200221f
:1042040041f20003c4f2002352685a6041f20003f1
:10421400c4f200232c4a9a8140f2fc53c2f20003f8
:1042240000225a6240f2fc53c2f200034ef6c2323c
:10423400c0f20b029a6241f20003c4f200235a68ee
:1042440041f20003c4f20023c32109040a435a6063
:1042540000e0c04641f20003c4f20023db690422fb
:104264001340002bf5d143f20023c4f2000384224f
:1042740040f20031995043f20023c4f20003c822f3
:104284000321995443f20023c4f20003b42203210e
:10429400995441f20003c4f200231a6841f2000366
:1042a400c4f2002302210a431a6000e0c04641f22e
:1042b4000003c4f20023db6902221340002bf5d172
:1042c400c046bd4680bdc0462bf6ffff80b582b018
:1042d40000af78607b685b6963b17b685b690122ce
:1042e400da807b685b697a68128c92b21a817b6887
:1042f40000225a617b6800229a617b680022da619d
:104304007b6800221a84c046bd4602b080bd80b5d9
:1043140086b000af786039601623fb1800221a803b
:104324001523fb1800221a707b681b681b7edbb206
:104334001a0001231340002b51d07b681b8a9bb2c7
:1043440083b17b68db68591c7a68d1601b78dab268
:104354007b681b689a627b681b8a9bb2013b9ab29a
:104364007b681a827b681b8a9bb2002b37d17b68df
:104374000022da607b681b899bb22bb37b685b6885
:104384001a687b68da607b685b689b889ab27b6892
:104394001a827b685b6808331a007b685a607b6802
:1043a4001b899bb2013b9ab27b681a817b68db68ec
:1043b4001bb17b681b8a9bb28bb97b680022da60d5
:1043c4007b6800221a820ae07b681b6801221a7546
:1043d4007b6800225a607b680022da60c046c046cf
:1043e400bd4606b080bd80b582b000af78607a6803
:1043f40040f2fc53c2f2000311001800fff787ffdc
:10440400c046bd4602b080bd80b582b000af7860c2
:104414007b681b8a9bb25bb97b681b899bb23bb9e7
:104424007b681b681b7edbb21a00012313400bb9a7
:10443400012300e000231a1c01231340dbb21800ff
:10444400bd4602b080bd80b588b000aff860b960e9
:104454007a601e23fb18082252421a80bb680bb1f3
:104464007b680bb901233ae07b68202b01d9002338
:1044740035e0fb681800fff7c7ff03000bb100230a
:104484002de00023bb6100237b611ce0bb69db00e2
:10449400ba68d3189b881e22ba1812889a4201d28d
:1044a40000231ce0bb69db00ba68d3189a881e217c
:1044b4007b18791809888a1a1a807b6901337b6111
:1044c400bb690133bb61ba697b689a42ded3fb687e
:1044d400ba685a607b689ab2fb681a810123180093
:1044e400bd4608b080bd80b582b000af78607b68ff
:1044f40000221a817b6800225a607b6800221a829b
:104504007b680022da60c046bd4602b080bd80b53b
:1045140082b000af786039603a68796840f2fc5341
:10452400c2f200031800fff78eff03001800bd4617
:1045340002b080bd80b500af40f2fc53c2f200036c
:104544001800fff761ff03001800bd4680bd80b569
:1045540000af40f2fc53c2f200031800fff7c3ffa0
:10456400c046bd4680bd80b582b000af78607b6830
:104574005b695a1e9341dbb21800bd4602b080bd90
:1045840080b582b000af786039603b685bb13b684e
:104594001b6843b13b689b882bb13b689b884ff6f3
:1045a400f872934201d9002316e07b685b690bb172
:1045b400002311e03b680022da803b6800221a8164
:1045c4007b6800221a847b681833180001f039fdd7
:1045d4007b683a685a6101231800bd4602b080bd69
:1045e40080b582b000af78607a6840f2fc53c2f2c2
:1045f400000311001800fff7c3ff03001800bd46b5
:1046040002b080bd80b500af40f2fc53c2f200039b
:104614001800fff7a8ff03001800bd4680bd80b551
:1046240000af40f2fc53c2f200031800fff74efe45
:08463400c046bd4680bdc04632
:020000040000fa
:10463c00f0b59bb013930b6815900a934b680d91d2
:10464c0002938b68ce680b930b69189313680693cf
:10465c0053680698089300220023089903f0dcfbaa
:10466c0060b90a9b5b0734d408200a9b034009936a
:10467c000b9b0393099b73b1202306e08022120647
:10468c009446089b634408932d2333700b9b013b8a
:10469c00039301230993089b06995b005b088e4ae0
:1046ac00d9b9934219d1139b099a413bb018192bd4
:1046bc0011d88a4903f0fafd300003f041fd0a9b42
:1046cc000200009331000b9b159802f0f4ff1bb015
:1046dc00f0bd2b23d9e78249ece7934202d80bd1ea
:1046ec00069b4bb1139b099a413bb018192b01d86f
:1046fc007c49dfe77c49dde7002200230698089916
:10470c0003f04afc0024794d0027e8bb070002e0c7
:10471c000137049c059d0022754b2000290002f0f6
:10472c008bfb069a089b0490059103f056fb00281e
:10473c00eed0002304931fe06e4b9f4213da049bd0
:10474c008bb900226c4b0698089902f075fb6a4bea
:10475c000690089120002900002202f06dfb012335
:10476c0004000d000493200029000022604b02f08d
:10477c0053fd04000d00013f22002b000698089900
:10478c0003f04afb0028d7d1139803f074fdc3b291
:10479c000c93029b002b00da93e10c9b0493672b88
:1047ac0000d0afe0029b002b00d185e13b1d03db69
:1047bc00029b9f4200daa1e06523b5e000220023b2
:1047cc000e920f9303e106940795049b0897652bb3
:1047dc0000d01ce10023089319e1029b5bb9089bf4
:1047ec00002b08da2e23149a0134b354039b013b9b
:1047fc0003930123029323002a19302101e0f15481
:10480c0001339a42fbd1039a2b193030551b5c1c97
:10481c00f0546b1e0393002523e00d9b14941b692d
:10482c001093053ba34200d8fde0069a079b0e9817
:10483c00129902f0f1fc02f04ffd1090119103f06f
:10484c0077fb092800dd092010230a9a1340034343
:10485c00002bc2d10c9b672bbfd1089b002bcada53
:10486c00013580200006844612990e9a61440b0093
:10487c001098119900920193069a079b03f0ecfc97
:10488c0080231b06cb180e90129306980799184b91
:10489c00002202f0c1fc089b06900791013b089393
:1048ac00bce00a9bdb0600d4c1e02e233355013457
:1048bc00bde00a2297fbf2f56a43ba1a3032013b8b
:1048cc00f254039a2f00013a0392bde0039b325c31
:1048dc00f3181a540138e3e00000f07f4482000022
:1048ec00488200004c820000508200000000f03f23
:1048fc0000002440d4feffff00005043002f12daca
:10490c0066230493029b01330293049b662b0cd108
:10491c00002f02da002400276d4d0c9b672b02d070
:10492c00029bdb19029366230493069b0e940f954e
:10493c001293089b1093002314930e9a0f9b1298ba
:10494c00109902f069fc02f0c7fc1690179103f065
:10495c00effa19908020000684461099129a61444f
:10496c000b0016981799009201930e9a0f9b03f067
:10497c0073fc80231b06cb181290109300220e9808
:10498c000f99544b02f048fc149b0e900f9101337d
:10499c001493149a029b9342cfd100224e4b02f0f7
:1049ac004bfa0e900f9102000b001298109903f025
:1049bc0033fa002800d001e70e9a0f9b1298109939
:1049cc0003f0eafa18b1199bdb0700d4f6e60e9a4d
:1049dc000f9b0698089902f031f900220e90129163
:1049ec003c4b2000290002f027fa0e9a129b0690ed
:1049fc00079103f00df9002800d1e4e6049b013780
:104a0c00662b00d0e1e6029b089701330293002548
:104a1c00029a089b099c9b1a16930295089b169a5e
:104a2c00934200d0f9e6029b002b00d139e700211c
:104a3c00049b30190170652b25d1189b013bf15457
:104a4c008f4201da7f420131002f00d031e7189af2
:104a5c009a1a0332002a00dd2be75d1e2d2201b9c4
:104a6c00023a7255139a023b413a192a01d845224f
:104a7c000492049af1180a70039a023a03929c4227
:104a8c0001da03f013fc03230a9a1340022b00d023
:104a9c0012e6039b002b00dc0ee6300003f050fb0b
:104aac00099b834200dc11e7f018039a302103f0d4
:104abc0095fb00230b93ffe50123029376e6062377
:104acc00fbe70c9b672bfad004930623029319e7a0
:0c4adc000000f03f0000244000001440e7
:020000040000fa
:104ae800f0b599b014930b68576809934b68139005
:104af8000d938b68ce680c930b693900119313687a
:104b0800002208930898002303f088f960b9099bec
:104b18005b072fd40820099b0c9d0340059363b1c4
:104b28002023013d337006e080231b06ff182d2348
:104b380033700c9b5d1e01230593089a7b005b086c
:104b4800e2b9ab4a934219d1149b059a413bb0187c
:104b5800192b11d8a74903f0abfba74803f0f2fac9
:104b6800099b0200009331000c9b139802f0a5fded
:104b780019b0f0bd2b23dbe79f49ece79c4a934231
:104b880002d80ed1089b63b1149b059a413bb0181b
:104b9800192b04d8994903f08bfb9948dee798490b
:104ba800f9e7059b05995a1c30237354149b413b24
:104bb8000e930e995823192900d920330599b35417
:104bc8000231ab1e05910793002200230898390093
:104bd80003f0e4f9002800d15fe10023894c069333
:104be800029303940d9b1093002b01da1823109362
:104bf800029b039c0a930b943c000023089d12938c
:104c080028000a9a0b9b210002f008fb02f066fbc1
:104c18000a9a0b9b1690179102f010f902000b00ec
:104c28002800210003f0f0fa774b05000c000a98e1
:104c38000b99002202f002f9129b0a900b910133a2
:104c48000f930d9b002b06da002200232800210079
:104c580003f0a4f930b9109b129a934200dd22e1c7
:104c680001330f9300220a980b99684b02f0e6f87b
:104c78000a900b9102000b002800210003f0cef8e7
:104c8800002800d011e10a9a0b9b2800210003f0ac
:104c980085f930b11698179903f04cf9c30700d479
:104ca80003e10a9a0b9b0898390001f0c9ff169195
:104cb80049000a90490818b94d4b994200d143e779
:104cc8000025059c10950895119b2700053ba342dc
:104cd80031d9029a039b0a98169902f09ffa02f0ba
:104ce800fdfa1490159103f025f90300002800d06f
:104cf800e0e0089a002a00d1dce00135029a039b23
:104d08001498159902f09af802000b000a9816995f
:104d180003f07afa00220a9016913b4b0298039905
:104d280002f08cf8089b0290039101330893089acb
:104d38000f9b9342c8d1109bd3b9002d00d1fde041
:104d48000d9b002b00dcf9e0099bdb0700d5f5e0a3
:104d58002e22302133191a702a19b21859700133ca
:104d68009a42fbd12c19ed43079b0134eb180793aa
:104d78000021119b069a3019013b0170f1548a42b7
:104d880002da524206920131069a002a00d0bfe0a8
:104d9800119a9a1a013200d1bae05d1e2d2201b98a
:104da800023a0e997255023b5022192900d9203235
:104db800f1180a709c4201da03f07afa0323099a7f
:104dc8001340022b11d1079b9c1e002c0ddd3000d7
:104dd80003f0b8f9059b984200dba8e0f018220020
:104de800302103f0fdf900230c933000b6e6c046ed
:104df8000000f07f34820000388200003c8200000e
:104e0800408200000000f03f0000b03f000020405a
:104e1800069b0294039501330693029a039b1000a4
:104e2800190001f00dff04000d0002000b000898a6
:104e3800390002f0f3ff0028ead0029a039b089891
:104e4800390002f0ebff002800d1cbe60298039965
:104e580000223e4b01f0f2ff0022002303f09ef8ef
:104e680078b1029803990022394b01f0e7ff00223c
:104e780002900391364b0898390001f0dfff0f00cc
:104e88000890324b02980399002201f0d7ff069b45
:104e980002900391013b0693cfe700232d4c069027
:104ea80002930394b9e70f9ba9e6002300240a9311
:104eb8000b94f6e6109a4ab9089a3ab12e22f2559e
:104ec800079a0134013a0792012210922a19129284
:104ed800302201e03255013412998c42fad118007f
:104ee800079a5730571b092b01dc303318000e9beb
:104ef800192b06d820230343613b192b01d803f053
:104f0800c3f9129b00255c1cf0547b1e0793f5e641
:104f18000a22069d069f95fbf2f56a43ba1a3032bb
:104f2800013bf254079a0695013a07922ce7079b32
:104f3800325c023bf3181a5401384be7099bdb0635
:104f480000d415e72e233355013411e70000e03f64
:084f5800000050430000f03f8f
:020000040000fa
:104f60001b5b306d0000c0461b5b324a0000c04630
:104f70001b5b313b314800001b5b4b001b5b316d01
:104f80000000c0461b5b33326d00c0461b5b3336ee
:104f90006d00c0461b5b306d1b5b324a1b5b313bb7
:104fa00031482b2d2d2d2d2d2d2d2d2d2d2d2d2d14
:104fb0002d2d2d2d2d2d2d2d2d2d2d2d2d2d2d2d21
:104fc0002d2d2d2d2d2d2d2d2d2d2d2d2d2d2d2d11
:104fd0002d2d2d2d2d2d2d2d2d2d2d2d2d2d2d2d01
:104fe0002d2d2d2d2d2d2d2b0d0a7c2045454520b9
:104ff0003139323a20456c656374726963616c20a3
:10500000616e6420456c656374726f6e69637320b2
:10501000456e67696e656572696e67204c61626f87
:105020007261746f72792056492020202020207ce4
:105030000d0a7c2020202020202020202041636198
:1050400064656d6963205965617220323032342d98
:10505000323032352c2053656d65737465722032a1
:105060002020202020202020202020202020202040
:10507000202020202020207c0d0a7c2020202020a1
:105080002020202020202020202020202020202020
:105090002020202020202020202020202020202010
:1050a0002020202020202020202020202020202000
:1050b0002020202020202020202020202020207c94
:1050c0000d0a7c20436f6d62696e65642050726fbb
:1050d0006a6563743a20475053204d6f64756c6560
:1050e00020616e6420504d2053656e736f722020d6
:1050f00020202020202020202020202020202020b0
:10510000202020202020207c0d0a7c202020202010
:10511000202020202020202020202020202020208f
:10512000202020202020202020202020202020207f
:10513000202020202020202020202020202020206f
:105140002020202020202020202020202020207c03
:105150000d0a7c20417574686f72733a2044652093
:1051600056696c6c612c20457374726164612c20eb
:10517000262052616d6f7320284545452031393214
:1051800020325329202020202020202020202020d1
:10519000202020202020207c0d0a7c204461746582
:1051a0003a2020202032303235202020202020209c
:1051b00020202020202020202020202020202020ef
:1051c00020202020202020202020202020202020df
:1051d0002020202020202020202020202020207c73
:1051e0000d0a2b2d2d2d2d2d2d2d2d2d2d2d2d2d34
:1051f0002d2d2d2d2d2d2d2d2d2d2d2d2d2d2d2ddf
:105200002d2d2d2d2d2d2d2d2d2d2d2d2d2d2d2dce
:105210002d2d2d2d2d2d2d2d2d2d2d2d2d2d2d2dbe
:105220002d2d2d2d2d2d2d2b0d0a0d0a0000c046e4
:1052300025735b4750535d2054696d653a20257393
:105240002573207c204c61743a2025732573207cc3
:10525000204c6f6e3a20257325730d0a0000c0465e
:1052600025735b504d5d20504d312e303a20257511
:105270002075672f6d33207c20504d322e353a201b
:1052800025752075672f6d33207c20504d31303ac5
:105290002025752075672f6d330d0a0025735b4738
:1052a00050535d2054696d653a2025732573207c29
:1052b000204c61743a202573207c204c6f6e3a207c
:1052c0002573202025735b504d5d20504d312e30cd
:1052d0003a2025752075672f6d33207c20504d3284
:1052e0002e353a2025752075672f6d33207c205090
:1052f0004d31303a2025752075672f6d3325730d9c
:105300000a00c04625735b4750535d20576169749e
:10531000696e6720666f7220646174612e2e2e2084
:105320002025735b504d5d20504d312e303a2025a5
:10533000752075672f6d33207c20504d322e353a05
:105340002025752075672f6d33207c20504d31301e
:105350003a2025752075672f6d3325730d0a0000df
:10536000475053205241572042554646455200006f
:10537000475053204e4d45412053454e54454e43d2
:105380004500c0465b25735d2000c0460d0a5b25c5
:10539000735d20003c253032583e0000504d2052b5
:1053a00041572048455800005b504d20524157203e
:1053b0004845585d2000c046253032582000c04680
:1053c0000d0a5b504d20524157204845585d200042
:0453d0000d0a0000c2
:020000040000fa
:1053d40080b500af41f60043c4f20003c822422165
:1053e400995000e0c04641f60043c4f20003c822cd
:1053f4009b5840221340002bf4d040f2a453c2f235
:1054040000032c220021180002f0ecfe40f2a45309
:10541400c2f2000340f60002c4f200221a6040f611
:105424000003c4f2002301221a6000e0c04640f6e3
:105434000003c4f20023db6901221340002bf5d1e1
:1054440040f60003c4f2002304221a6040f600036d
:10545400c4f20023196840f60003c4f200230022ba
:10546400c4f210020a431a6040f60003c4f2002397
:105474005a6840f60003c4f2002340210a435a60ec
:1054840040f60003c4f200232c4a9a8140f2a4534c
:10549400c2f2000300225a6240f2a453c2f2000393
:1054a4004ef6c232c0f20b029a6240f60003c4f216
:1054b40000235a6840f60003c4f20023c321090400
:1054c4000a435a6000e0c04640f60003c4f20023d9
:1054d400db6904221340002bf5d143f20023c4f20c
:1054e4000003842240f20031995043f20023c4f2b5
:1054f4000003c8220321995443f20023c4f2000399
:10550400b4220321995440f60003c4f200231a681c
:1055140040f60003c4f2002302210a431a6000e0ab
:10552400c04640f60003c4f20023db6902221340a4
:10553400002bf5d1c046bd4680bdc0462bf6ffff0b
:1055440080b582b000af78607b685b6963b17b68cb
:105554005b690122da807b685b697a68128c92b29b
:105564001a817b6800225a617b6800229a617b68f9
:105574000022da617b6800221a84c046bd4602b06c
:1055840080bd90b589b000af786039601e217b186a
:1055940000221a801d203b1800221a707b681b68a9
:1055a4001b7edbb21a00042313407bb17b681a68ac
:1055b4007b18528b1a807b187a18128837490a4351
:1055c4001a807b681b689a6a3b181a707b685b694f
:1055d400002b5dd01e23fb181b8848f203021340e6
:1055e40048f20002934213d17b685b691a687b68b6
:1055f4001b8c9bb2591c88b279680884d3181d226d
:10560400ba1812781a707b683a68183303ca03c34d
:105614007b681b685b8b9bb21ab21e23fb180021ac
:105624005b5ef7210b401bb213431ab27b681b6805
:1056340092b25a837b681b8c9ab27b685b699b88a5
:105644009bb29a4204d37b681800fff779ff20e0ed
:105654007b681b8c9bb2ebb10c217a187b681833e6
:1056640011cb11c27a18396814243b19180000f0c0
:105674002cfd7b6824331a003b191100180000f03c
:1056840028fc031e06db7b681800fff759ff00e0c7
:10569400c046c046c046bd4609b090bd0080ffff6d
:1056a40080b582b000af78607a6840f2a453c2f249
:1056b400000311001800fff764ffc046bd4602b0a6
:1056c40080bd80b582b000af78607b685b695a1e8c
:1056d4009341dbb21800bd4602b080bd90b585b0e1
:1056e40000af786039603b685bb13b681b6843b1cd
:1056f4003b689b882bb13b689b884ff6f8729342ba
:1057040001d900231be07b685b690bb1002316e021
:105714003b680022da803b6800221a817b68002201
:105724001a8408243b19180000f08bfc7b683a1992
:10573400183303ca03c37b683a685a61012318000b
:10574400bd4605b090bd80b582b000af78607a6880
:1057540040f2a453c2f2000311001800fff7beff89
:1057640003001800bd4602b080bd80b500af40f212
:10577400a453c2f200031800fff7a3ff03001800ac
:10578400bd4680bd80b500af40f2a453c2f2000311
:0c5794001800fff7d5fec046bd4680bde2
:020000040000fa
:1057a00080b500af41f60043c4f20003c422422199
:1057b000995000e0c04641f60043c4f20003c42201
:1057c0009b5840221340002bf4d040f2d053c2f239
:1057d00000032c220021180002f006fd40f2d053f5
:1057e000c2f2000340f20042c4f200221a6040f20a
:1057f0000043c4f2002301221a6000e0c04640f2d8
:105800000043c4f20023db6901221340002bf5d1d1
:1058100040f20043c4f2002304221a6040f2004325
:10582000c4f20023196840f20043c4f200230022ae
:10583000c4f210020a431a6040f20042c4f200228d
:1058400040f20043c4f2002352685a6040f2004321
:10585000c4f200232b4a9a8140f2d053c2f20003d3
:1058600000225a6240f2d053c2f200034ef6c23216
:10587000c0f20b029a6240f20043c4f200235a685d
:1058800040f20043c4f20023c32109040a435a60d2
:1058900000e0c04640f20043c4f20023db6904226a
:1058a0001340002bf5d143f20023c4f20003202261
:1058b0005a6043f20023c4f20003452203219954a5
:1058c00043f20023c4f2000332223021995440f203
:1058d0000043c4f200231a6840f20043c4f20023dc
:1058e00002210a431a6000e0c04640f20043c4f2bd
:1058f0000023db6902221340002bf5d1c046bd46d0
:1059000080bdc0462bf6ffff80b582b000af786047
:105910007b685b6963b17b685b690122da807b68c5
:105920005b697a68128c92b21a817b6800225a6194
:105930007b6800229a617b680022da617b68002222
:105940001a84c046bd4602b080bd90b587b000af96
:105950007860396016217b1800221a8015203b18c8
:1059600000221a707b681b681b7edbb21a000423be
:10597000134063b17b681b685b8b9ab27b18364916
:105980000a431a807b681b689a6a3b181a707b6806
:105990005b69002b59d01623fb181b8848f20302c1
:1059a000134048f20002934213d17b685b691a6886
:1059b0007b681b8c9bb2591c88b279680884d31809
:1059c0001522ba1812781a707b683a68183303ca1d
:1059d00003c37b681b685b8b9bb21ab21623fb1850
:1059e00000215b5ef7210b401bb213431ab27b68a8
:1059f0001b6892b25a837b681b8c9ab27b685b6986
:105a00009b889bb29a4204d37b681800fff77cff07
:105a10001ce07b681b8c9bb2cbb17b6818331a00ef
:105a200039680c243b19180000f051fb7b682433c3
:105a30001a003b191100180000f04dfa031e06db96
:105a40007b681800fff760ff00e0c046c046c04614
:105a5000bd4607b090bdc0460080ffff80b582b054
