:020000040000fa
:10000000f87f002001900000cb5a0000cb5a00007e
:1000100000000000000000000000000000000000e0
:10002000000000000000000000000000cb5a0000ab
:100030000000000000000000cb5a0000d77800004c
:10004000cb5a0000cb5a0000cb5a0000cb5a00001c
:10005000cb5a000047530000cb5a0000cb5a000097
:10006000cb5a0000cb5a0000cb5a0000cb5a0000fc
:10007000cb5a0000cb5a0000cb5a0000cb5a0000ec
:10008000cb5a0000cb5a0000cb5a0000cb5a0000dc
:10009000cb5a0000cb5a0000cb5a0000cb5a0000cc
:1000a000cb5a0000cb5a0000cb5a0000cb5a0000bc
:1000b000cb5a0000cb5a0000cb5a0000cb5a0000ac
:1000c000cb5a0000cb5a0000cb5a0000cb5a00009c
:1000d000cb5a0000cb5a0000cb5a0000cb5a00008c
:1000e000cb5a0000cb5a0000cb5a0000cb5a00007c
:1000f000cb5a0000cb5a0000cb5a0000cb5a00006c
:10010000cb5a0000cb5a0000cb5a0000cb5a00005b
:10011000cb5a0000cb5a0000cb5a0000cb5a00004b
:10012000cb5a0000cb5a0000cb5a0000cb5a00003b
:10013000cb5a0000cb5a0000cb5a0000cb5a00002b
:10014000cb5a0000cb5a0000cb5a0000cb5a00001b
:0c015000cb5a0000cb5a0000cb5a000034
:020000040000fa
:10015c00f8b5c046f8bc08bc9e4670470d97000029
:10016c00f8b5c046f8bc08bc9e467047e99600003e
:020000040000fa
:10017c00047d00000100000016800000010000005a
:020000040000fa
:10018c00b0b5aab000aff860b960bb1d1a80bb1d3a
:10019c001b88002b00d189e044f29c13c0f20003b1
:1001ac00fa681900100000f013febb68a422ba18fc
:1001bc001360bb1d1b88ba68d3189822ba18136039
:1001cc006be0a423fb181b68a022ba18136005e08f
:1001dc00a022bb181b680133ba181360a0217b182e
:1001ec001a689823fb181b689a4209d27b181b6863
:1001fc001b780a2b04d07b181b681b780d2be7d1be
:10020c00a023fb181a68a423fb181b68d21a9e2182
:10021c007b181a800a00bb181b88fbb1bb181b8803
:10022c00802b02d9bb1880221a809e257b191a8834
:10023c00a423fb18196814243b19180009f0dcfce2
:10024c007b191b883a190021d1543a1944f2ac138a
:10025c00c0f20003f868190000f0bafda023fb18e7
:10026c001b68a422ba18136005e0a422bb181b68f3
:10027c000133ba181360a4217b181a689823fb1851
:10028c001b689a4209d27b181b681b780a2becd08e
:10029c007b181b681b780d2be7d0a423fb181a685e
:1002ac009823fb181b689a428bd300e0c046bd46ce
:1002bc002ab0b0bd80b584b000af78600f23fb18b6
:1002cc0000221a707b681b78242b0dd17b680133bc
:1002dc007b6009e07b685a1c7a6019780f22bb1886
:1002ec00ba1812784a401a707b681b781bb17b686d
:1002fc001b782a2beed10f23fb181b781800bd4658
:10030c0004b080bdf0b5bbb00caff860b9607a60da
:10031c0040f26463c2f200031b68591c45f280135f
:10032c00c0f2010391fbf3f213005b009b181a015e
:10033c00d21a13019b1adb01ca1a40f26463c2f28f
:10034c0000031a6040f26463c2f200031b6840f6bb
:10035c00106293fbf2f3b422ba18136040f2646398
:10036c00c2f20003196840f6106391fbf3f213001c
:10037c001b019b1a1a01d21a13011a008b1a3c2268
:10038c0093fbf2f3b022ba18136040f26463c2f22a
:10039c0000031a683c2392fbf3f10b001b015b1a60
:1003ac009b00d31aac22ba18136009f0d5fb0300da
:1003bc0042f2283293fbf2f242f228314a439b1a62
:1003cc00180009f0a1fb00220023c4f2590308f025
:1003dc00f7fb03000c00a022ba181360546009f05c
:1003ec00bbfb03001a00012313400bb94e2200e0a3
:1003fc0053229f23fb181a70a0257b195c681b687d
:10040c001800210008f03cfc03000c00180021002f
:10041c0009f05afa03009822b9180b60bb18186837
:10042c0009f072fb03000c001a002300791908680c
:10043c00496809f0fffb03000c00180021000022a2
:10044c000023c4f24e0308f0cbf903000c009022f9
:10045c00ba181360546009f07ffb030044f2506239
:10046c0093fbf2f244f250614a439b1a180009f0d4
:10047c004bfb00220023c4f2590308f0a1fb03003c
:10048c000c008822ba181360546009f065fb030055
:10049c001a00012313400bb9452200e0572287258f
:1004ac007b191a708826bb195c681b681800210020
:1004bc0008f0e6fb03000c001800210009f004fa18
:1004cc0003008022b9180b60b918086809f01cfbee
:1004dc0003000c001a002300b9190868496809f0d8
:1004ec00a9fb03000c001800210000220023c4f219
:1004fc004e0308f075f903000c00bb67fc6777200e
:10050c003b1841221a709f217b1819787b191b7894
:10051c003a18107898243c19266844f2b012c0f2ac
:10052c00000210257d190a90ac203818006809903b
:10053c00b020381800680890b4203818006807906c
:10054c000693bb6ffc6f049305948023fb181b6808
:10055c00039302919023fb185c681b680093019431
:10056c0033006421280009f026fb7626bc191025df
:10057c007b191800fff79efe03002370bb191b7834
:10058c007c1944f2e812c0f200027968b868009352
:10059c00230009f010fbc046bd462fb0f0bdf0b5ee
:1005ac00ce46474680b5cdb014aff860b9607a60de
:1005bc0040f6e813c2f200031b68591c45f2801385
:1005cc00c0f2010391fbf3f213005b009b181a01bc
:1005dc00d21a13019b1adb01ca1a40f6e813c2f2b5
:1005ec0000031a6040f6e813c2f200031b6840f6e1
:1005fc00106293fbf2f3dc22ba18136040f6e81396
:10060c00c2f20003196840f6106391fbf3f2130079
:10061c001b019b1a1a01d21a13011a008b1a3c22c5
:10062c0093fbf2f3d822ba18136040f6e813c2f227
:10063c0000031a683c2392fbf3f10b001b015b1abd
:10064c009b00d31ad422ba1813600123d022ba18f3
:10065c0013600123cc22ba1813601823c822ba18cd
:10066c00136009f079fa030042f2283293fbf2f29c
:10067c0042f228314a439b1a180009f045fa00222d
:10068c000023c4f2590308f09bfa03000c00c022ab
:10069c00ba181360546009f05ffa03001a000123c2
:1006ac0013400bb94e2200e05322bf23fb181a70e3
:1006bc00c0257b195c681b681800210008f0e0fa63
:1006cc0003000c001800210009f0fef80300b8220a
:1006dc00b9180b60bb18186809f016fa03000c0067
:1006ec001a00230079190868496809f0a3fa030075
:1006fc000c001800210000220023c4f24e0308f065
:10070c006ff803000c00b022ba181360546009f0a3
:10071c0023fa030044f2506293fbf2f244f250616c
:10072c004a439b1a180009f0eff900220023c4f287
:10073c00590308f045fa03000c00a822ba181360fc
:10074c00546009f009fa03001a00012313400bb995
:10075c00452200e05722a7257b191a70a826bb1941
:10076c005c681b681800210008f08afa03000c0072
:10077c001800210009f0a8f80300a022b9180b609a
:10078c00b918086809f0c0f903000c001a0023001e
:10079c00b9190868496809f04dfa03000c001800f3
:1007ac00210000220023c4f24e0308f019f80300c4
:1007bc000c00982178180360446009f0cdf9010011
:1007cc0040f2f41391fbf3f213005b019b1a9b00b4
:1007dc009b189b00cb1a180009f096f900220023f5
:1007ec00c4f2240308f0ecf903000c0018002100fb
:1007fc0008f021fd031c94203c18236009f0acf98f
:10080c00010040f6106391fbf3f213001b019b1add
:10081c001a01d21a13011a008b1a180009f074f974
:10082c0000220023c4f2240308f0caf903000c00d0
:10083c001800210008f0fffc031c90243e193360c3
:10084c00bf26bb191e787b191d78a84694203d182d
:10085c00286808f0bbfe04000d00902038180068d2
:10086c0008f0b4fedc23fb181b68994644f2f41222
:10087c00c0f2000240f2140cbc44c823fb181b68e5
:10088c001293cc23fb181b681193d023fb181b6805
:10089c0010930e900f910c940d9540460a90982150
:1008ac0079180b684c6808930994a023fb181b68f3
:1008bc0007930696b023fb185c681b680493059499
:1008cc00b823fb181b680293d423fb181b680193f5
:1008dc00d823fb181b6800934b467821604609f01f
:1008ec006af98f257c191426bb191800fff7e2fc56
:1008fc00030023707b191b78bc1944f2e812c0f278
:10090c0000027968b8680093230009f054f9c046d6
:10091c00bd4639b00cbc90469946f0bdb0b5c2b0de
:10092c0000af78607b6840f26842002199527b6886
:10093c0040f2683c634440f200120021180009f0b8
:10094c0065f9082579197b6880221800fff727fec6
:10095c007b6840f268429b5a1c007b19180009f016
:10096c00eff80300e318ff2b18d87b6840f2683cc3
:10097c0063447a191100180009f012f97b6840f2ef
:10098c0068429c5a7b19180009f0daf803009bb2f4
:10099c00e31899b27b6840f268429952082579199c
:1009ac007b6880221800fff7adfc7b6840f2684240
:1009bc009b5a1c007b19180009f0c2f80300e318bd
:1009cc00ff2b18d87b6840f2683c63447a191100fd
:1009dc00180009f0e5f87b6840f268429c5a7b19d4
:1009ec00180009f0adf803009bb2e31899b27b68cc
:1009fc0040f2684299527b6840f268429b5a1a0056
:100a0c0044f24423c0f200037868190000f0e0f9c6
:100a1c00c046bd4642b0b0bd90b59bb000aff860cb
:100a2c00b960bb1d1a80bb1d1b884bb944f26823ef
:100a3c00c0f20003fa681900100000f0c9f96be06d
:100a4c00bb1d1a8844f28423c0f20003f868190015
:100a5c0000f0bef96223fb1800221a8055e0002337
:100a6c007b666023fb1800221a8020e07b6e10222c
:100a7c00ba18d0187b6e5022d11a6223fb181a8830
:100a8c0060243b191b88d3181a00bb689b181b7871
:100a9c0044f2a022c0f2000209f08df802007b6e35
:100aac009b187b663b193a19128801321a80602117
:100abc007b181b880f2b09d86223fb181a887b180c
:100acc001b88d218bb1d1b889a42cfdb7b6e002b78
:100adc0015dd7b6e013b10217a18d35c202b04d1e1
:100aec007b6e013b7a180021d1541023fa1844f282
:100afc00ac13c0f20003f868190000f069f9622227
:100b0c00bb18ba18128810321a806223fa18bb1d4f
:100b1c0012881b889a42a2d3bd461bb090bd0eb45e
:100b2c0090b5ccb002af786047f2305340f224124b
:100b3c00ba18136001e004f0e0fc7b681b684022eb
:100b4c0013401bb902f093f9030043b140f2241196
:100b5c007b181b685a1e79180a60002bebd17b6836
:100b6c001b6840221340002b00d023e102f07ff9d8
:100b7c000300002b00d01de140f23813fb1840f2ab
:100b8c001012b9180b60bb181b6840f23412ba185b
:100b9c00126840f26860c2f2000040f2001108f0e6
:100bac007bfb030040f22012b9180b60bb181b68ca
:100bbc00002b00dc00e1bb181b68ff2b0bd9ff23bb
:100bcc00b9180b6040f26863c2f20003ba181268dd
:100bdc009b1800221a7040f220117b181b68012b05
:100bec0015dd7b181b689a1e40f26863c2f2000385
:100bfc009b5c0d2b0bd17b181b685a1e40f2686353
:100c0c00c2f200039b5c0a2b01d1012200e00022fe
:100c1c0040f217103b181a701a7801210a401a700a
:100c2c003b181b7801225340dbb28bb140f22012ef
:100c3c00bb181b68002b0bddbb181b685a1e40f23f
:100c4c006863c2f200039b5c0a2b01d1012200e015
:100c5c00002240f21613fb181a701a7801210a4070
:100c6c001a7040f21713fb181b78e3b140f268635b
:100c7c00c2f200030c22b81840f20212190009f05b
:100c8c002df8524b40f2281cbc44634440f2021233
:100c9c000021995440f22013fb181b6840f21c12df
:100cac00ba18136032e040f21613fb181b78d3b15c
:100cbc0040f22013fb181b68591e44f2a822c0f204
:100ccc0000020c23f81840f26863c2f20003009390
:100cdc000b0040f2031108f06eff030040f21c12ef
:100cec00ba18136012e040f26863c2f2000344f2d7
:100cfc00b022c0f200020c21781840f2031108f067
:100d0c005aff030040f21c12ba18136040f21c1474
:100d1c003b191b68002b51dd3b191b68ff2b4dd871
:100d2c007b680c3318003b191b6801331a000c2329
:100d3c00fb18190008f060ff7b680c331a007b6805
:100d4c005a603b191b689ab27b681a817b681b68d6
:100d5c0040221a437b681a607b6804330121180017
:100d6c0002f072f80300ebb147f2305340f2181264
:100d7c00ba18136001e004f0c0fb02f078f803002d
:100d8c0043b140f218117b181b685a1e79180a607f
:100d9c00002bf0d17b681b68402293431a007b68c0
:100dac001a600ce07b681b68402293431a007b6836
:100dbc001a6004e0c04602e0c04600e0c046bd46f2
:100dcc004ab090bc08bc03b01847c046e4feffff15
:100ddc000eb4b0b5d1b002af78607b6840f2c352ac
:100dec009b5c01225340dbb2002b00d029e147f27f
:100dfc00305340f23412ba18136001e004f07dfb5a
:100e0c007b681b68402213401bb902f030f80300ca
:100e1c0043b140f234117b181b685a1e79180a60d2
:100e2c00002bebd17b681b6840221340002b00d0b9
:100e3c0009e102f01cf80300002b00d003e140f2a2
:100e4c00481340f2080cbc446344fb60fb6840f25e
:100e5c00441240f2080cbc446244126840f26870c0
:100e6c00c2f2000040f2001108f016fa030040f242
:100e7c002c117a1813607b181b68002b00dce4e043
:100e8c007b181b68ff2b00d9dfe07b181b68012b3c
:100e9c0015dd7b181b689a1e40f26873c2f20003c2
:100eac009b5c0d2b0bd17b181b685a1e40f2687390
:100ebc00c2f200039b5c0a2b01d1012200e000224c
:100ecc0040f22b103b181a701a7801210a401a7044
:100edc003b181b7801225340dbb28bb140f22c1231
:100eec00bb181b68002b0bddbb181b685a1e40f28d
:100efc006873c2f200039b5c0a2b01d1012200e053
:100f0c00002240f22a13fb181a701a7801210a40a9
:100f1c001a7040f22b13fb181b7873b140f26873f4
:100f2c00c2f2000344f2b822c0f200021021781879
:100f3c0040f2181108f03ffe28e040f22a13fb188b
:100f4c001b78abb140f22c13fb181b68591e44f2f2
:100f5c00c422c0f200021023f81840f26873c2f2e7
:100f6c00000300930b0040f2181108f024fe0de072
:100f7c0040f26873c2f2000344f2d422c0f20002c1
:100f8c001021781840f2181108f015fe10257b1965
:100f9c00180008f0d5fd030040f22c143a19136028
:100fac003b191b68002b52d03b191b68ff2b4ed8ea
:100fbc007b680c3318003b191b6801331a007b1932
:100fcc00190008f019fe7b680c331a007b685a6014
:100fdc003b191b689ab27b681a817b681b6840229c
:100fec001a437b681a607b6804330121180001f0f6
:100ffc002bff0300ebb147f2305340f23012ba181a
:10100c00136001e004f079fa01f031ff030043b101
:10101c0040f230117b181b685a1e79180a60002b9d
:10102c00f0d17b681b68402293431a007b681a60de
:10103c000ee07b681b68402293431a007b681a60a1
:10104c0006e0c04604e0c04602e0c04600e0c046f0
:10105c00bd464fb0b0bc08bc03b0184790b589b0c2
:10106c0000aff860b9607a60ba68f96814243b196b
:10107c00180006f0fafc20003b181a6813005b01fc
:10108c009b1a9b009b18db0019003b185a6844f212
:10109c004023c0f20f03b2fbf3f3cb18fb61f969e9
:1010ac007a68002391425b41dbb21800bd4609b05f
:1010bc0090bdb0b588b002af786040f25063c2f218
:1010cc0000031b88002b00d1cbe040f25063c2f22e
:1010dc0000031a8840f2d053c2f20003786819005a
:1010ec00fff79afc15217b1800221a7040f250630e
:1010fc00c2f200031b88012b10d940f2d053c2f26c
:10110c0000031b78422b09d140f2d053c2f20003ea
:10111c005b784d2b02d17b1801221a707b6840f250
:10112c00c3529b5cb3b17b681b68402293431a008b
:10113c007b681a6040f25063c2f200031b8840f2d5
:10114c00d052c2f2000244f2e421c0f200017868ed
:10115c0002f040fa1623fb1800221a8067e07b6825
:10116c0040f2845299181623fb181a8840f2d05377
:10117c00c2f200039a5c7b6840f2aa5c63441425bb
:10118c007c19786804f0d8fc030023707b191b7859
:10119c00002b46d17b681b6820221a437b681a609f
:1011ac007b6840f2b0529b5a1c007b6840f2b252f2
:1011bc009b5a1d007b6840f2b4529b5a44f2f021ba
:1011cc00c0f20001786800932b002200fff700feac
:1011dc000021012004f061f808243b19180006f0e6
:1011ec00e3fb20003b181a6813005b019b1a9b0061
:1011fc009b18db0019003b185a6844f24023c0f2dc
:10120c000f03b2fbf3f3cb183b6140f25c63c2f209
:10121c0000033a691a6040f26063c2f200030122d3
:10122c001a701622bb18ba18128801321a8040f2b2
:10123c005063c2f200031b881622ba1812889a4215
:10124c008dd340f25063c2f2000300221a8040f2a8
:10125c00d053c2f2000380220021180008f0d6fc03
:10126c0000e0c046bd4606b0b0bd80b582b000af50
:10127c0040f20003c2f2000340f2d05200211800e9
:10128c0008f0c4fc40f20003c2f2000340f2581212
:10129c000121995444f21c33c0f20003a2481a00f5
:1012ac00962108f088fc04f00df93b00180006f0bc
:1012bc0098fb3b005b68180008f016fd002101202c
:1012cc0003f0ebff44f26432c0f2000240f2000380
:1012dc00c2f2000311001800fff77afd934b1800bf
:1012ec0004f0eefb44f29832c0f2000240f200032c
:1012fc00c2f2000311001800fff76afd40f2000370
:10130c00c2f2000340f2cc52c821995040f20003c3
:10131c00c2f2000340f2c8520021995040f200037f
:10132c00c2f2000340f2c3520121995444f2b0328c
:10133c00c0f2000240f20003c2f2000311001800d8
:10134c00fff746fd40f20003c2f2000340f25c11cd
:10135c00774a5a5040f20003c2f2000340f2601286
:10136c0040f200219952734b180005f0bbfe0300ac
:10137c001a0001235340dbb263b144f2c432c0f211
:10138c00000240f20003c2f2000311001800fff744
:10139c001ffd0be044f2e032c0f2000240f2000309
:1013ac00c2f2000311001800fff712fd40f2000317
:1013bc00c2f2000340f238515f4a5a5040f2000327
:1013cc00c2f2000340f23c52402199525b4b180090
:1013dc0006f060f803001a0001235340dbb263b13e
:1013ec0044f2f832c0f2000240f20003c2f20003f1
:1013fc0011001800fff7ecfc0be044f21442c0f2b1
:10140c00000240f20003c2f2000311001800fff7c3
:10141c00dffc40f20003c2f2000340f20c11484a18
:10142c005a5040f20003c2f2000340f21012402165
:10143c009952444b180001f070fd03001a0001236f
:10144c005340dbb263b144f22c42c0f2000240f2d2
:10145c000003c2f2000311001800fff7b9fc0be007
:10146c0044f24842c0f2000240f20003c2f2000310
:10147c0011001800fff7acfc40f20003c2f20003ad
:10148c0040f258129b5c63b144f26042c0f200021d
:10149c0040f20003c2f2000311001800fff798fca1
:1014ac0022e0244b180005f01dfe03001a00012356
:1014bc005340dbb263b144f2c432c0f2000240f2da
:1014cc000003c2f2000311001800fff781fc0be0cf
:1014dc0044f2e032c0f2000240f20003c2f2000318
:1014ec0011001800fff774fc40f20003c2f2000375
:1014fc001b6801221a4340f20003c2f200031a6077
:10150c000121002003f0c9fe44f29842c0f200020f
:10151c0040f20003c2f2000311001800fff758fc60
:10152c00c046bd4602b080bda20400208405002048
:10153c00680100205c0100204405002038050020d3
:10154c00180100200c01002090b587b000aff860a6
:10155c00b9607a601a00bb1c1a8044f2c443c0f212
:10156c000003fa681900100008f0d8f803007b613a
:10157c007b690bb900233be07a69fb68d31a9ab2fa
:10158c0012217b1802321a807a18bb1c12881b8815
:10159c009a4201d300232be012243b191a88f968d4
:1015ac007b68180008f028fb20003b181b887a6821
:1015bc00d31800221a70bb68198810243b193a18ea
:1015cc0012888a1a1a803b191b884bb13b181b884e
:1015dc00fa68d1183b191a88fb68180008f00afa47
:1015ec00bb681022ba1812881a801223fb181b88a9
:1015fc001800bd4607b090bdb0b592b002af03f075
:10160c007cff03f07aff03f078ff0c243b191800e1
:10161c0006f0caf920003b181a6813005b019b1aec
:10162c009b009b18db0019003b185a6844f24023be
:10163c00c0f20f03b2fbf3f3cb18fb6240f20003d2
:10164c00c2f2000340f258129b5c002b00d178e0f0
:10165c0040f66803c2f200031b68fa6ad31a40f220
:10166c00e732934237d940f20003c2f2000318006c
:10167c00fff754f940f66803c2f20003fa6a1a60e5
:10168c0040f20003c2f2000340f2c3529b5c13b35e
:10169c0040f20003c2f2000340f268429b5ad3b1fd
:1016ac0044f2c842c0f2000240f20003c2f200034e
:1016bc0011001800fff78cfb40f20003c2f200038c
:1016cc0040f268429a5ac94940f20003c2f2000340
:1016dc001800fef755fd40f20003c2f2000340f281
:1016ec0062129b5a9bb2012b00d021e140f2000305
:1016fc00c2f2000340f2c3529b5c9bb140f2000368
:10170c00c2f2000340f264129b5a9bb21a0044f2dc
:10171c00f441c0f2000140f20003c2f200031800d1
:10172c00fff756fbb24b02220021180008f06efaac
:10173c0040f20003c2f2000340f2621200219952ff
:10174c00f6e040f20003c2f2000340f262129b5a30
:10175c009bb2012b00d0ebe02a243a1940f2000393
:10176c00c2f2000340f264115b5a13803b191a88d1
:10177c0044f23851c0f2000140f20003c2f20003ff
:10178c001800fff725fb3b191b88002b00d192e0ba
:10179c0040f20003c2f2000340f2c3529b5cabb1b7
:1017ac0044f26452c0f2000240f20003c2f20003a1
:1017bc0011001800fff70cfb3b191a888d4940f2f9
:1017cc000003c2f200031800fef7dafc40f200033b
:1017dc00c2f2000340f268429b5a1a002a217b187d
:1017ec001b88d318ff2b23dc40f20003c2f200034a
:1017fc0040f268429b5a1a007c4bd0180c007b18a4
:10180c001a887c4b190008f0f7f940f20003c2f279
:10181c00000340f268429a5a3b191b88d31899b2bc
:10182c0040f20003c2f2000340f26842995230e0e9
:10183c0040f20003c2f2000340f268429b5a1a00c5
:10184c002a243b191b8844f29c51c0f2000140f23f
:10185c000000c2f20000fff7bbfa3b191b889ab2da
:10186c00ff2a00d9ff239bb21a0062495f4b180074
:10187c0008f0c2f92a23fb181b889ab2ff2a00d958
:10188c00ff2399b240f20003c2f2000340f2684217
:10189c00995240f20003c2f2000340f268429b5a94
:1018ac00190040f20003c2f2000340f268325b18e8
:1018bc009b1800221a704e4b02220021180008f0cf
:1018cc00a5f940f20003c2f2000340f25c11494a50
:1018dc005a5040f20003c2f2000340f2601240f290
:1018ec000021995240f20003c2f2000340f262124e
:1018fc000021995205f008fc03001a000123534003
:10190c00dbb2abb13c4b180005f0ecfb03001a004a
:10191c0001235340dbb25bb144f2d052c0f200025f
:10192c0040f20003c2f2000311001800fff750fa56
:10193c0040f20003c2f2000340f268429b5a002bb3
:10194c0000d1f0e0294bfb633a23fb1800221a80ec
:10195c0075e07a6afb6bd31a9ab22223fb18023217
:10196c001a802123fb187a6a12781a707b6a00227b
:10197c001a7044f2f053c0f20003f86b06221900ff
:10198c0008f08df80300002b46d11c49fb6b962206
:10199c00180003f0a8fe030093b340f20003c2f258
:1019ac0000031b6808221a4340f20003c2f2000332
:1019bc001a6040f20003c2f2000340f258129b5c22
:1019cc0023b144f2f853c0f2000303e044f2006385
:1019dc00c0f2000344f20861c0f2000140f20000c2
:1019ec00c2f200001a00fff7f3f915e068030020bb
:1019fc0064010020680100205c010020a20400208a
:101a0c00fa6b44f23461c0f2000140f20003c2f2fe
:101a1c0000031800fff7dcf97b6a2122ba18127850
:101a2c001a703a22bb18b91822203a180988128861
:101a3c008a181a803b181b88fa6bd318fb6344f284
:101a4c00c443c0f20003fa6b1900100007f066fee5
:101a5c0003007b627b6a6bb140f20003c2f20003ad
:101a6c0040f268429b5a1a00bc4bd318fa6b9a424c
:101a7c0000d26ee73a243b191b88002b53d040f25e
:101a8c000003c2f2000340f268429b5a3a191288d2
:101a9c009a4238d23b191a88b04bd11840f2000345
:101aac00c2f2000340f268429b5a1a003b191b8891
:101abc00d31a1a00a94b180007f09cff40f2000340
:101acc00c2f2000340f268429a5a3b191b88d31a9f
:101adc0099b240f20003c2f2000340f268429952fc
:101aec0040f20003c2f2000340f268429b5a190014
:101afc0040f20003c2f2000340f268325b189b18fc
:101b0c0000221a700fe040f20003c2f2000340f210
:101b1c0068420021995240f20003c2f2000340f2e5
:101b2c0068320021995440f26063c2f200031b78c2
:101b3c00f3b140f25c63c2f200031b68fa6ad31a79
:101b4c00312b15d90121002003f0a7fb40f2606373
:101b5c00c2f2000300221a7044f25862c0f2000272
:101b6c0040f20003c2f2000311001800fff730f935
:101b7c0003f078fc0300190040f20003c2f20003ea
:101b8c0040f2c452995240f20003c2f2000340f2f8
:101b9c00c4529b5a1a00012313407bb340f200033a
:101bac00c2f200031b6801221a4340f20003c2f286
:101bbc0000031a600c23fb181a6840f66c03c2f27f
:101bcc0000031a6044f26c62c0f2000240f200039f
:101bdc00c2f2000311001800fff7faf800210120ef
:101bec0003f05bfb40f25c63c2f20003fa6a1a601a
:101bfc0040f26063c2f2000301221a7040f200034b
:101c0c00c2f20003180001f009fa40f67003c2f2a8
:101c1c0000031b685a1c40f67003c2f200031a60e2
:101c2c0040f67003c2f200031b6840f2e7329342a5
:101c3c002bd940f20003c2f2000340f262129b5a0d
:101c4c009bb21c0040f20003c2f2000340f264128b
:101c5c009b5a9bb21d0040f20003c2f2000340f2fb
:101c6c0068429b5a44f29061c0f2000140f20000bd
:101c7c00c2f2000000932b002200fff7a9f840f6f7
:101c8c007003c2f2000300221a6040f20003c2f299
:101c9c00000340f262129b5a9bb2012b00d0a2e0cf
:101cac0040f20003c2f2000340f264129b5a9bb252
:101cbc001a0044f23851c0f2000140f20003c2f2a3
:101ccc0000031800fff784f840f20003c2f200038f
:101cdc001b6802221a4340f20003c2f200031a608e
:101cec000c23fb181a6840f66c03c2f200031a604e
:101cfc000021012003f0d1fa40f25c63c2f2000330
:101d0c00fa6a1a6040f26063c2f2000301221a7090
:101d1c0044f26452c0f2000240f20003c2f200032b
:101d2c0011001800fff754f840f20003c2f2000350
:101d3c0040f264129b5a9bb2a3b140f20003c2f270
:101d4c00000340f264129b5a9ab2054940f2000318
:101d5c00c2f200031800fef713fa0fe0680300202c
:101d6c006801002044f2d862c0f2000240f2000385
:101d7c00c2f2000311001800fff72af840f200032a
:101d8c00c2f2000340f2621200219952c84b0222a7
:101d9c000021180007f03aff40f20003c2f20003e2
:101dac0040f25c11c34a5a5040f20003c2f20003e5
:101dbc0040f2601240f200219952bf4b180005f01e
:101dcc0091f903001a0001235340dbb25bb144f2da
:101ddc00d052c0f2000240f20003c2f20003110024
:101dec001800fef7f5ff39243b1900221a7040f257
:101dfc005063c2f200031b8893b13b1d180005f021
:101e0c00d3fd40f22c1240f25463c2f20003381d91
:101e1c001900fff723f9030013b13b1901221a70c3
:101e2c0040f20003c2f2000340f23e529b5a9bb2b6
:101e3c00012b00d092e01e243a1940f20003c2f2aa
:101e4c00000340f240515b5a13803b191b88002b56
:101e5c005ad040f25463c2f20003180005f0a4fdfe
:101e6c0040f25063c2f200031b881a0021007b1859
:101e7c001b88d318802b20d840f25063c2f2000389
:101e8c001b881a0040f2d053c2f20003d0180c0089
:101e9c007b181a88894b190007f0aefe40f250638c
:101eac00c2f200031a883b191b88d3189ab240f26d
:101ebc005063c2f200031a8026e040f2d053c2f203
:101ecc00000380220021180007f0a0fe1e23fb183f
:101edc001b889ab2802a00d980239bb21a007749ba
:101eec0040f2d053c2f20003180007f085fe1e2307
:101efc00fb181b889ab2802a00d980239ab240f230
:101f0c005063c2f200031a806d4b022200211800ac
:101f1c0007f07cfe40f20003c2f2000340f238519d
:101f2c00664a5a5040f20003c2f2000340f23c529f
:101f3c004021995240f20003c2f2000340f23e529b
:101f4c000021995205f0b8fa03001a0001235340fe
:101f5c00dbb21bb15b4b180005f09cfa40f25063ee
:101f6c00c2f200031b881f2b09d83923fb181b78de
:101f7c00dbb140f25063c2f200031b88abb140f2fc
:101f8c000003c2f200031800fff793f840f250630d
:101f9c00c2f2000300221a8040f2d053c2f20003b6
:101fac0080220021180007f031fe40f67003c2f2c7
:101fbc0000031b685a1c40f67003c2f200031a603f
:101fcc0040f67003c2f200031b6840f2e732934202
:101fdc0005d940f67003c2f2000300221a6040f2e9
:101fec000003c2f2000340f262129b5a9bb2012b17
:101ffc0000d09ae11c243a1940f20003c2f200030b
:10200c0040f264115b5a13803b191b88002b00d1e2
:10201c0060e13b191a88274940f20003c2f2000321
:10202c001800fef7adf840f20003c2f2000340f2d4
:10203c0068429b5a1a0021007b181b88d318ff2b6f
:10204c0044dc40f20003c2f2000340f268429b5aa7
:10205c001a001d4bd0180c007b181a88154b190050
:10206c0007f0cafd40f20003c2f2000340f26842de
:10207c009a5a3b191b88d31899b240f20003c2f24a
:10208c00000340f26842995240f20003c2f200038e
:10209c0040f268429b5a190040f20003c2f200035e
:1020ac0040f268325b189b1800221a7044e0c0465c
:1020bc0064010020680100205c0100204405002020
:1020cc00400500203805002068030020704b40f2ca
:1020dc0000120021180007f099fd1c23fb181b8827
:1020ec009ab2ff2a00d9ff239bb21a006949684ba8
:1020fc00180007f081fd1c23fb181b889ab2ff2add
:10210c0000d9ff2399b240f20003c2f2000340f25f
:10211c006842995240f20003c2f2000340f2684256
:10212c009b5a190040f20003c2f2000340f26832dd
:10213c005b189b1800221a70554b7b633223fb18db
:10214c0000221a804de0ba697b6bd31a9ab216231f
:10215c00fb1802321a801523fb18ba6912781a7010
:10216c001423fb18ba6952781a70bb6900221a70d2
:10217c0044f2f053c0f20003786b0622190007f00a
:10218c008efc0300e3b944497b6b9622180003f0e4
:10219c00aafa030063b140f20003c2f200031b6809
:1021ac0008221a4340f20003c2f200031a6007e04f
:1021bc0040f20003c2f2000340f2a2420021995403
:1021cc00bb691522ba1812781a703222bb18b918ca
:1021dc001622ba18098812888a181a80bb69023329
:1021ec007b6344f2c443c0f200037a6b1900100005
:1021fc0007f094fa0300bb61bb69002ba3d1322416
:10220c003b191b88002b49d040f20003c2f200039b
:10221c0040f268429b5a3a1912889a423ed83b19ae
:10222c001a881b4bd11840f20003c2f2000340f293
:10223c0068429b5a1a003b191b88d31a1a00144b7c
:10224c00180007f0d7fb40f20003c2f2000340f283
:10225c0068429a5a3b191b88d31a99b240f2000370
:10226c00c2f2000340f26842995240f20003c2f2fb
:10227c00000340f268429b5a190040f20003c2f27c
:10228c00000340f268325b189b1800221a7021e0a0
:10229c006803002068010020a204002040f2000323
:1022ac00c2f2000340f268429b5a3222ba181288da
:1022bc009a420fd940f20003c2f2000340f2684286
:1022cc000021995240f20003c2f2000340f268323e
:1022dc0000219954b24b02220021180007f096fc01
:1022ec0040f20003c2f2000340f25c11ad4a5a50b6
:1022fc0040f20003c2f2000340f2601240f20021ef
:10230c00995240f20003c2f2000340f26212002123
:10231c00995204f0f9fe03001a0001235340dbb27a
:10232c001bb1a14b180004f0ddfe40f20003c2f219
:10233c0000031b6820221340002b42d040f2000304
:10234c00c2f2000340f2c8529b58fa6ad21a40f209
:10235c000003c2f2000340f2cc515b589a4230d3d6
:10236c0040f20003c2f20003180000f02cf940f216
:10237c000003c2f200031b68202293431a0040f2b0
:10238c000003c2f200031a6040f20003c2f2000321
:10239c001b680822134063b140f20003c2f2000331
:1023ac001b68082293431a0040f20003c2f2000398
:1023bc001a6040f20003c2f2000340f2c851fa6afc
:1023cc005a5000f054fd03001a0001235340dbb2b5
:1023dc0063b140f20003c2f200031b684022934336
:1023ec001a0040f20003c2f200031a600c23fb181f
:1023fc001a6840f66c03c2f200031b68d31a052b53
:10240c0000d8c9e044f20c72c0f2000240f20003a2
:10241c00c2f2000311001800fef7dafc40f20003d0
:10242c00c2f200031b68402293431a0040f20003df
:10243c00c2f200031a6004f067fe0300002b4fd0b9
:10244c0044f25872c0f2000240f20003c2f20003e0
:10245c0011001800fef7bcfc04f063fe40f2000310
:10246c00c2f2000340f26212002199524c4b02223c
:10247c000021180007f0cafb40f20003c2f200036f
:10248c0040f25c11474a5a5040f20003c2f200037a
:10249c0040f2601240f200219952434b180004f0b4
:1024ac0021fe03001a0001235340dbb263b144f256
:1024bc008472c0f2000240f20003c2f20003110069
:1024cc001800fef785fc0be044f2bc72c0f200026f
:1024dc0040f20003c2f2000311001800fef778fc72
:1024ec0004f0eaff0300002b4ed044f2f072c0f26d
:1024fc00000240f20003c2f2000311001800fef7c4
:10250c0067fc04f0e6ff40f20003c2f2000340f265
:10251c003e5200219952254b02220021180007f04f
:10252c0075fb40f20003c2f2000340f23851204a1e
:10253c005a5040f20003c2f2000340f23c524021d8
:10254c0099521c4b180004f0a5ff03001a0001233c
:10255c005340dbb263b144f61c02c0f2000240f2fd
:10256c000003c2f2000311001800fef731fc0be06f
:10257c0044f65002c0f2000240f20003c2f2000323
:10258c0011001800fef724fc0c23fb181a6840f607
:10259c006c03c2f200031a60c046bd4610b0b0bd59
:1025ac0064010020680100205c010020400500202f
:1025bc00440500203805002080b500affef755fe1d
:1025cc00fff71af8fce7f0b5cdb008af786047f22a
:1025dc00305340f20c12ba18136001e002f08dff78
:1025ec007b681b68402213401bb900f040fc0300c1
:1025fc0043b140f20c117b181b685a1e79180a6003
:10260c00002bebd140f20c13fb181b6853b97b6801
:10261c001b6840221340002b46d100f028fc03001d
:10262c00002b41d17b6840f2a24298187b6840f2a3
:10263c00b0529b5a1d007b6840f2b2529b5a1e004e
:10264c007b6840f2b4529b5a9c4646f29c41c0f2c5
:10265c00000144f68402c0f200020c23fc1846f27e
:10266c009443c0f2000306936346059304960395c6
:10267c0046f2a443c0f20003029346f29443c0f224
:10268c000003019300900b0040f20011200007f0b2
:10269c0092fa0c23fa1844f2ac13c0f200037868d7
:1026ac001900fef73cfa00e0c046bd4645b0f0bd4f
:020000040000fa
:1026bc0080b500af41f60043c4f20003d0224221a2
:1026cc00995000e0c04641f60043c4f20003d0220a
:1026dc009b5840221340002bf4d040f67803c2f2f2
:1026ec0000032c220021180007f090fa40f6780322
:1026fc00c2f2000341f20002c4f200221a6041f25d
:10270c000003c4f2002301221a6000e0c04641f22b
:10271c000003c4f20023db6901221340002bf5d126
:10272c0041f20003c4f2002304221a6041f20003b8
:10273c00c4f20023196841f20003c4f20023002202
:10274c00c4f210020a431a6041f20002c4f20022e1
:10275c0041f20003c4f2002352685a6041f20003b4
:10276c00c4f200232c4a9a8140f67803c2f200038b
:10277c0000225a6240f67803c2f200034ef6c232cf
:10278c00c0f20b029a6241f20003c4f200235a68b1
:10279c0041f20003c4f20023c32109040a435a6026
:1027ac0000e0c04641f20003c4f20023db690422be
:1027bc001340002bf5d143f20023c4f20003842212
:1027cc0040f20011995043f20023c4f20003c822d6
:1027dc000321995443f20023c4f20003b4220321d1
:1027ec00995441f20003c4f200231a6841f2000329
:1027fc00c4f2002302210a431a6000e0c04641f2f1
:10280c000003c4f20023db6902221340002bf5d134
:10281c00c046bd4680bdc0462bf6ffff80b500af5d
:10282c0041f60043c4f20003c8224221995000e053
:10283c00c04641f60043c4f20003c8229b58402214
:10284c001340002bf4d040f6a403c2f200032c2258
:10285c000021180007f0daf940f6a403c2f20003d5
:10286c0040f60002c4f200221a6040f60003c4f2e3
:10287c00002301221a6000e0c04640f60003c4f2b7
:10288c000023db6901221340002bf5d140f6000335
:10289c00c4f2002304221a6040f60003c4f20023a1
:1028ac00196840f60003c4f200230022c4f210029f
:1028bc000a431a6040f60003c4f200235a6840f63b
:1028cc000003c4f2002340210a435a6040f600037f
:1028dc00c4f200232b4a9a8140f6a403c2f20003ef
:1028ec0000225a6240f6a403c2f200034ef6c23232
:1028fc00c0f20b029a6240f60003c4f200235a683d
:10290c0040f60003c4f20023c32109040a435a60b1
:10291c0000e0c04640f60003c4f20023db69042249
:10292c001340002bf5d143f20023c4f200038022a4
:10293c0092025a6043f20023c4f200035122032195
:10294c00995443f20023c4f20003382220219954f5
:10295c0040f60003c4f200231a6840f60003c4f2e8
:10296c00002302210a431a6000e0c04640f600032f
:10297c00c4f20023db6902221340002bf5d1c046c0
:10298c00bd4680bd2bf6ffff80b500af41f600437e
:10299c00c4f20003c4224221995000e0c04641f623
:1029ac000043c4f20003c4229b5840221340002b66
:1029bc00f4d040f6d003c2f200032c220021180000
:1029cc0007f024f940f6d003c2f2000340f20042b3
:1029dc00c4f200221a6040f20043c4f20023012228
:1029ec001a6000e0c04640f20043c4f20023db69e9
:1029fc0001221340002bf5d140f20043c4f2002316
:102a0c0004221a6040f20043c4f20023196840f219
:102a1c000043c4f200230022c4f210020a431a60dd
:102a2c0040f20042c4f2002240f20043c4f2002300
:102a3c0052685a6040f20043c4f200232b4a9a8138
:102a4c0040f6d003c2f2000300225a6240f6d003d3
:102a5c00c2f200034ef6c232c0f20b029a6240f28e
:102a6c000043c4f200235a6840f20043c4f200232e
:102a7c00c32109040a435a6000e0c04640f20043f7
:102a8c00c4f20023db6904221340002bf5d143f27e
:102a9c000023c4f2000320225a6043f20023c4f244
:102aac00000345220321995443f20023c4f200038e
:102abc0032223021995440f20043c4f200231a68a8
:102acc0040f20043c4f2002302210a431a6000e0e2
:102adc00c04640f20043c4f20023db6902221340db
:102aec00002bf5d1c046bd4680bdc0462bf6ffff7e
:102afc0080b582b000af78607b685b6963b17b683e
:102b0c005b690122da807b685b697a68128c92b20d
:102b1c001a817b6800225a617b6800229a617b686b
:102b2c000022da617b6800221a84c046bd4602b0de
:102b3c0080bd90b587b000af786039601623fb1864
:102b4c0000221a801523fb1800221a707b681b6860
:102b5c001b7edbb21a0001231340002b50d07b6884
:102b6c001b8a9bb283b17b68db68591c7a68d16085
:102b7c001b78dab27b681b689a627b681b8a9bb2f3
:102b8c00013b9ab27b681a827b681b8a9bb2002b32
:102b9c0036d17b680022da607b681b899bb22bb331
:102bac007b685b681a687b68da607b685b689b880b
:102bbc009ab27b681a827b685b6808331a007b6860
:102bcc005a607b681b899bb2013b9ab27b681a8165
:102bdc007b68db681bb17b681b8a9bb283b97b6803
:102bec000022da607b6800221a8209e07b681b688d
:102bfc0001221a757b6800225a607b680022da6019
:102c0c007b681b681b7edbb21a000423134073b174
:102c1c007b681b685b8b9ab21623fb1836490a43f8
:102c2c001a807b681b689a6a1523fb181a707b68dc
:102c3c005b69002b59d01623fb181b8848f2030242
:102c4c00134048f20002934213d17b685b691a6807
:102c5c007b681b8c9bb2591c88b279680884d3188a
:102c6c001522ba1812781a707b683a68183303ca9e
:102c7c0003c37b681b685b8b9bb21ab21623fb18d1
:102c8c0000215b5ef7210b401bb213431ab27b6829
:102c9c001b6892b25a837b681b8c9ab27b685b6907
:102cac009b889bb29a4204d37b681800fff720ffe5
:102cbc001ce07b681b8c9bb2cbb17b6818331a0071
:102ccc0039680c243b19180004f0cffe7b682433c0
:102cdc001a003b191100180004f0cbfd031e06db93
:102cec007b681800fff704ff00e0c046c046c046f2
:102cfc00bd4607b090bdc0460080ffff80b582b0d6
:102d0c0000af78607a6840f67803c2f200031100d5
:102d1c001800fff70eff7a6840f6a403c2f2000316
:102d2c0011001800fff705ff7a6840f6d003c2f2d5
:102d3c00000311001800fff7fcfec046bd4602b0b0
:102d4c0080bd80b582b000af78607b681b8a9bb277
:102d5c005bb97b681b899bb23bb97b681b681b7e8c
:102d6c00dbb21a00012313400bb9012300e000234e
:102d7c001a1c01231340dbb21800bd4602b080bd03
:102d8c0080b588b000aff860b9607a601e23fb187c
:102d9c00082252421a80bb680bb17b680bb9012325
:102dac003ae07b68202b01d9002335e0fb68180042
:102dbc00fff7c7ff03000bb100232de00023bb611d
:102dcc0000237b611ce0bb69db00ba68d3189b88cd
:102ddc001e22ba1812889a4201d200231ce0bb6949
:102dec00db00ba68d3189a881e217b1879180988d9
:102dfc008a1a1a807b6901337b61bb690133bb6121
:102e0c00ba697b689a42ded3fb68ba685a607b6801
:102e1c009ab2fb681a8101231800bd4608b080bd28
:102e2c0080b582b000af78607b6800221a817b6825
:102e3c0000225a607b6800221a827b680022da60ca
:102e4c00c046bd4602b080bd80b582b000af786090
:102e5c0039603a68796840f67803c2f200031800ca
:102e6c00fff78eff03001800bd4602b080bd80b591
:102e7c0000af40f67803c2f200031800fff761ffc1
:102e8c0003001800bd4680bd80b500af40f6780346
:102e9c00c2f200031800fff7c3ffc046bd4680bd59
:102eac0080b582b000af78607b685b695a1e934135
:102ebc00dbb21800bd4602b080bd80b582b000af59
:102ecc00786039603b685bb13b681b6843b13b6819
:102edc009b882bb13b689b884ff6f872934201d9c3
:102eec00002316e07b685b690bb1002311e03b68a3
:102efc000022da803b6800221a817b6800221a8447
:102f0c007b681833180004f06cfd7b683a685a61d2
:102f1c0001231800bd4602b080bd80b582b000af61
:102f2c0078607a6840f67803c2f20003110018004a
:102f3c00fff7c3ff03001800bd4602b080bd80b58b
:102f4c0000af40f67803c2f200031800fff7a8ffa9
:102f5c0003001800bd4680bd80b500af40f6780375
:102f6c00c2f200031800fff7c3fdc046bd4680bd8a
:102f7c0080b582b000af78607a6840f6a403c2f2e4
:102f8c00000311001800fff798ff03001800bd465e
:102f9c0002b080bd80b500af40f6a403c2f20003be
:102fac001800fff77dff03001800bd4680bd80b5fb
:102fbc0000af40f6a403c2f200031800fff798fd1f
:102fcc00c046bd4680bd80b582b000af78607a68df
:102fdc0040f6d003c2f2000311001800fff76dff9a
:102fec0003001800bd4602b080bd80b500af40f6ae
:102ffc00d003c2f200031800fff752ff03001800c1
:10300c00bd4680bd80b500af40f6d003c2f20003d0
:0c301c001800fff76dfdc046bd4680bdea
:020000040000fa
:1030280090b585b000af78607b681b6801221340bb
:10303800002b4bd0fff71dff0300002b48d17b6806
:103048001b6840221340002b44d17a6846f2d843cb
:10305800c0f2000353607b6840f298221a817b68b3
:103068001b6840221a437b681a607b68043301217d
:103078001800fff7ebfe03009bb17b681b68012279
:1030880093431a007b681a607b681b68402293434d
:103098001a007b681a607b6840f2c2520121995479
:1030a80019e008243b19180004f080fc21007b1863
:1030b8001a684cf60023c3f69a335a437b185b68a8
:1030c800d2187b6840f2c8515a5004e0c04602e06a
:1030d800c04600e0c046bd4605b090bdf0b597b00b
:1030e80006af78613961fa60bb60fff7c2fe030082
:1030f8000bb10023c0e07b691b6840221340002b02
:1031080045d0142608217b189b19180004f04efca2
:1031180008217b189b191b683b6000237b604cf6d9
:103128000022c3f69a3200233868796806f0b6faa6
:1031380002000b0008217918891949680c0000253c
:1031480012196b411c001300bb63fc637b6940f2de
:10315800c8529b583b6300237b63b96bfa6b3b6b8c
:103168007c6bc91aa2410b00140034b96cb94cf637
:103178000022c3f69a32934207d97b691b68402222
:1031880093431a007b691a6001e0002374e07b69ad
:103198000c33180046f2c841c0f2000146f27472be
:1031a800c0f20002bb68059346f29443c0f20003e4
:1031b8000493fb68039346f29443c0f2000302931e
:1031c8003b69019346f2c043c0f2000300930b0031
:1031d80040f2001106f0f1fc0300fb62fb6a002bd1
:1031e80002ddfb6aff2b01dd002345e07b690c3320
:1031f8001a007b695a60fb6a9ab27b691a817b69fb
:103208001b6840221a437b691a601c2408257b1915
:103218001b19180004f0cafb210028003b185b1892
:103228001a684cf60023c3f69a335a433b185b18c6
:103238005b68d2187b6940f2c8515a507b690433e5
:1032480001211800fff702fe0300a3b17b691b6888
:10325800402293431a007b691a607b691b68082225
:1032680093431a007b691a60bb6d13b1bb6d0022d2
:103278001a70012300e000231800bd4611b0f0bd0c
:10328800f0b595b004af78610e00100019000a235c
:1032980040f2080cbc446344321c1a80082340f2f4
:1032a800080cbc446344021c1a800e23fb180a1c39
:1032b8001a80fff7defd03000bb10023b8e07b693d
:1032c8001b6840221340002b45d0142608217b1888
:1032d8009b19180004f06afb08217b189b191b68ce
:1032e8003b6000237b604cf60022c3f69a32002331
:1032f8003868796806f0d2f902000b0008217918bd
:10330800891949680c00002512196b411c0013002b
:10331800bb63fc637b6940f2c8529b583b63002344
:103328007b63b96bfa6b3b6b7c6bc91aa2410b00d0
:10333800140034b96cb94cf60022c3f69a329342a1
:1033480007d97b691b68402293431a007b691a607e
:1033580001e000236ce07b690c331d000a2340f276
:10336800080cbc4463441988082340f2080cbc4488
:10337800634418880e23fb181c8846f2d043c0f219
:10338800000346f2a472c0f2000202940190009178
:1033980040f20011280006f010fc0300fb62fb6af3
:1033a800002b02ddfb6aff2b01dd002340e07b6977
:1033b8000c331a007b695a60fb6a9ab27b691a81de
:1033c8007b691b6840221a437b691a601c24082504
:1033d8007b191b19180004f0e9fa210028003b1892
:1033e8005b181a684cf60023c3f69a335a433b1805
:1033f8005b185b68d2187b6940f2c8515a507b69e8
:10340800043301211800fff721fd03007bb17b691c
:103418001b68402293431a007b691a607b691b680a
:10342800202293431a007b691a60012300e00023dd
:103438001800bd4611b0f0bdf0b591b00aaff86004
:10344800b9607a603b60fff714fd03000bb10023fd
:10345800bee0fb681b68402213400bb10023b7e0b5
:10346800bb6873b1bb681b785bb17b684bb17b6889
:103478001b7833b13b6823b13b681b780bb1012241
:1034880000e0002213203b181a701a7801210a4024
:103498001a703b181b78a3b3fb680c331e0030234b
:1034a800fb1818883423fb181c883823fb181d8840
:1034b80046f2c841c0f2000146f2e072c0f20002d2
:1034c80046f29443c0f200030893079506940590ca
:1034d80046f2d043c0f2000304933b6803937b6831
:1034e8000293bb68019346f2c043c0f20003009305
:1034f8000b0040f20011300006f05ffb03007b6117
:1035080028e0fb680c331e003023fb18188834238e
:10351800fb181c883823fb181d8846f2c841c0f2e6
:10352800000146f64802c0f2000246f29443c0f297
:103538000003049303950294019046f2d043c0f22d
:10354800000300930b0040f20011300006f035fb39
:1035580003007b617b69002b02dd7b69ff2b01ddaa
:10356800002335e0fb680c331a00fb685a607b695e
:103578009ab2fb681a81fb681b6840221a43fb68f1
:103588001a60fb68043301211800fff75ffc030091
:10359800ebb1fb681b68402293431a00fb681a6072
:1035a800fb681b68082293431a00fb681a60fb68d3
:1035b8001b68202293431a00fb681a60fb681b688b
:1035c800802293431a00fb681a60012300e000235d
:1035d8001800bd4607b0f0bd80b58ab000aff860ee
:1035e800b9607a603b60fff744fc03000bb100232d
:1035f800bce1fb681b68402213400bb10023b5e116
:1036080000237b623b681bb17b680bb90023ade1eb
:10361800bb68002b00d183e046f6a403c0f2000388
:10362800b8680e22190006f03cfa03005bb146f6b2
:10363800b403c0f20003b8681122190006f031fa89
:103648000300002b6cd1fb680c331800bb6846f6ee
:10365800c802c0f2000240f2001106f0aefa030000
:103668007b6200233b6252e07a683b6ad2181721da
:103678007b1812781a707b181b781f2b0cd97b18b3
:103688001b787e2b08d87b6a5a1c7a62fa68d31892
:103698007a1812781a7337e01722bb181b780d2b8b
:1036a80031d0bb181b780a2b15d1fb680c331a00d4
:1036b8007b6ad0187b6a40f20012d11abb6846f6c2
:1036c800d002c0f2000206f078fa03001a007b6a02
:1036d8009b187b6218e0fb680c331a007b6ad018d1
:1036e8007b6a40f20012d11a1723fb181b7846f6a2
:1036f800d802c0f2000206f060fa03001a007b6ae2
:103708009b187b6200e0c0463b6a01333b623a6a21
:103718003b689a4200d3d7e07b6af52ba4d9d3e063
:10372800bb68002b62d046f6e003c0f20003b8681d
:103738000a22190006f0b5f90300002b56d1fb68e0
:103748000c33180046f6ec03c0f200031a0040f2ee
:10375800001106f032fa03007b620023fb613ce0b3
:10376800fb680c331a007b6ad0187b6a40f200129f
:10377800d11a7a68fb69d3181b7846f6fc02c0f2a6
:10378800000206f01afa03001a007b6a9b187b6293
:10379800fb6901330f221340e3b93b68013bfa6927
:1037a8009a4217d27b6af02b14d8fb680c331a00a4
:1037b8007b6ad0187b6a40f20012d11a46f60413cd
:1037c800c0f200031a0006f0f8f903001a007b6a39
:1037d8009b187b62fb690133fb61fa693b689a427b
:1037e80000d373e07b6afb2bbad96fe0bb686bb17f
:1037f800fb680c331800bb6846f6c802c0f200022a
:1038080040f2001106f0d9f903007b620023bb6186
:1038180052e07a68bb69d21816217b1812781a70a0
:103828007b181b781f2b0cd97b181b787e2b08d88c
:103838007b6a5a1c7a62fa68d3187a1812781a7353
:1038480037e01622bb181b780d2b31d0bb181b781c
:103858000a2b15d1fb680c331a007b6ad0187b6ad7
:1038680040f20012d11a46f61413c0f200031a00ef
:1038780006f0a3f903001a007b6a9b187b6218e024
:10388800fb680c331a007b6ad0187b6a40f200127e
:10389800d11a1623fb181b7846f6d802c0f200028c
:1038a80006f08bf903001a007b6a9b187b6200e024
:1038b800c046bb690133bb61ba693b689a4206d20c
:1038c8007b6af52ba5d902e0c04600e0c0467b6aba
:1038d8000bb37b6afd2b1ed87b6a012b0dd97b6a43
:1038e800023bfa68d3181b7b0d2b06d17b6a013b80
:1038f800fa68d3181b7b0a2b0dd07b6a5a1c7a6294
:10390800fa68d3180d221a737b6a5a1c7a62fa680d
:10391800d3180a221a73fa687b6ad3180c33002268
:103928001a707b6a0bb9002320e0fb680c331a007d
:10393800fb685a607b6a9ab2fb681a81fb681b684d
:1039480040221a43fb681a60fb68043301211800ff
:10395800fff77cfa030043b1fb681b6840229343de
:103968001a00fb681a60012300e000231800bd4616
:043978000ab080bd54
:020000040000fa
:10397c00f0b5bc4ca5441093040000230800089239
:10398c000693302851d02e2877d1e36be26c93420a
:10399c0058d25a1ce2631878002200230292039337
:1039ac00302853d001230993002300221e00150058
:1039bc001f001293059300930300303b092b62d92f
:1039cc002e2862d0099b0bb902950396069b002bff
:1039dc0000d1aee320230343652b00d0c1e39999ba
:1039ec00200004f0a7ff70b980231b0699420ad16e
:1039fc00999b002b00d1aae3e36c0020002113b1aa
:103a0c00e36b013be363029b039c1b184c41029349
:103a1c000394129c002c00d088e0989806f074f85f
:103a2c000022002304f0dcfe97e3e36be26c93428c
:103a3c0004d25a1ce26318780123a1e7200005f098
:103a4c0089fcf9e7200005f085fca5e7012252422c
:103a5c00d3170298039980185941e36be26c0290da
:103a6c000391934205d25a1ce26318780123069302
:103a7c0096e7200005f06efcf8e70023002209937e
:103a8c000292039390e72e280ed1099b002b4bd169
:103a9c000295039601330993e36be26c93423fd298
:103aac005a1ce263187887e7009a7c2a20dc2900ec
:103abc00320001250026491972410d0016003028ec
:103acc0000d0059137b1009a12a9920052580a21e0
:103adc004a43d318009a12a992005350012301377c
:103aec000693092fd8d1009b002701330093d3e70d
:103afc002a003300012500265219734115001e00bf
:103b0c003028c9d040f2f01212ab9b580593012318
:103b1c0005990b4312a98b5040f25c430593bbe70c
:103b2c00200005f017fc47e72e204fe7029a95423c
:103b3c001bd1039a964218d1002e16dc0eb9092d12
:103b4c0013d8089b1e2b03dc2300089ad34063b9bf
:103b5c00989805f0d9ff060020000f0005f0e2ff51
:103b6c0002000b00300039005ce7109b109adb0f51
:103b7c009b185b1003995b42da17914203dc11d15d
:103b8c00029a9a420ed92222374b98981a6005f065
:103b9c00bbff0122354b524204f022fe0122334b73
:103bac0052423fe7109b03996a3bda178a4203dcc7
:103bbc0011d1029a93420ed922222b4b98981a605b
:103bcc0005f0a2ff802300225b0304f009fe802392
:103bdc0000225b0326e70a21f7b9059b029c082b00
:103bec006bdca34269dc112c67dc092c1ad112980e
:103bfc0005f098ff040098980d0005f085ff020071
:103c0c000b00200029000de79a0012abd35812a824
:103c1c0006934b4301371350009b082ff4dd0133ff
:103c2c000093dae7082c25dc129805f07bff0600e0
:103c3c0098980f0005f068ff02000b003000390067
:103c4c0004f0cefd08231c1b094ba4000600e05811
:103c5c000f0005f059ff02000b003000390004f092
:103c6c00afff7ae2b4fdffffd8090020ffffef7f22
:103c7c002c9a00002300093b9a009b1a089a9b1867
:103c8c001e2b02dc129ada40bab9129805f04affe0
:103c9c00060098980f0005f037ff02000b0030006b
:103cac00390004f09dfd0a3c8e4ba4000600e05840
:103cbc000f0005f029ff53e70093009b12a9013b6d
:103ccc009a005258002af7d0092394fbf3f253437d
:103cdc00e31a0293dbb1002c01da093302930823b7
:103cec00029a12a89b1a7f4a9b009f5800231a0025
:103cfc001900009da9420dd12bb1a90012a80b509f
:103d0c002b0001330093029b0292e41a0934002326
:103d1c00059378e00568b5fbf7f6f3189c4603604d
:103d2c00714b7e4393fbf7f3ae1b7343914205d16a
:103d3c0065461db97f224d1c2a40093c01310430d7
:103d4c00d7e7059b1d3b0593009b5d1e7f231d4004
:103d5c000023069312aaab009b58da085b070a9360
:103d6c00069b0b920c9300230a9e0b9f0d930c9aaf
:103d7c000d9bb6185f4117b95b4b9e421ed95a4a30
:103d8c0000233000390005f0e9fc574a0690002367
:103d9c003000390005f0e2fcab0012a95a50009b30
:103dac00591e7f230b40ab420bd1029b9d4273d01b
:103dbc0002b900957f23013d1d40cbe732000697e9
:103dcc00eae7029a9542f5d1069ae2b17f21029a6e
:103ddc000934013a0a4002920298009a82420dd1ab
:103dec005a1e0a40920012a810589900009012a86e
:103dfc00095800980093014312a81150029b069990
:103e0c009b0012aa9950112c9bdd122c06d1029bff
:103e1c0012a99b00354a5b58934292d90126029b0a
:103e2c00009a934215d012aa9b009b582f4a93429a
:103e3c000fd92f4a93420ed17f22029b013313409c
:103e4c00009a9a4205d09b0012a92a4a5b589342c9
:103e5c0001d8122c50d032001b2c00dd0922059bfe
:103e6c0000219b18059333009340013b06931e4b96
:103e7c0013419c46029b009883420fd10029ced05f
:103e8c00421c7f20029b02409a4220d0009b12a829
:103e9c009b00c1500092c2e7029b95e79f0012a8bd
:103eac003d582800d040401812a978500699294056
:103ebc0065466943029dab4205d120b95d1c7f303c
:103ecc0005400295093c7f2001330340d3e7009b5a
:103edc0012aa013b03409b00d25812a9069232430e
:103eec00ca509ce72c9a000000ca9a3b5e7089006d
:103efc005f708900ff092f0f029b009a934209d132
:103f0c005a1c7f231a40130000920022013b9b0095
:103f1c0012a9ca50029b12aa9b00d05805f002feaf
:103f2c000022002304f05efb029b009a5e1c7f23a0
:103f3c001e40964208d101321a4013000092002212
:103f4c00013b9b0012ace2500022874b04f048fc72
:103f5c0004000d0012abb600f05805f0e3fd220092
:103f6c002b0004f03ffb04000d00989805f0ccfded
:103f7c0022002b000690079104f032fc059b109a4e
:103f8c00353311939b1a089a0a900b910c93934218
:103f9c0000dbb1e0002b00dab1e01d000123099336
:103fac00342d00ddafe069220020521b6f4905f073
:103fbc004ffa0a9a0b9b05f05ffe35220e900f917b
:103fcc00521b0020694905f043fa02000b000a98c5
:103fdc000b9905f0b7fe02000b0006000f000a98c3
:103fec000b9905f027fe02000b000e980f9904f0b8
:103ffc00f9fa0a900b917f22029b0099023313402d
:10400c008b4232d012a99b005b5859498b4200d984
:10401c0080e02bb9029c009b033414409c420dd0d1
:10402c000022544b0698079904f0dafb02000b00af
:10403c003000390004f0d6fa06000f0035235b1b64
:10404c00012b12dd0022494b3000390005f07afebd
:10405c000022002305f0b7fc38b1300039000022f3
:10406c00424b04f0bffa06000f000a980b99109b04
:10407c0032005c42089be41a3b0004f0b3fa0e9a3f
:10408c000f9b05f0d7fd119b621e5b000090019108
:10409c005b089a422adc05f051fe0022364b05f0f3
:1040ac00d9fa90b1099b2bb10c9b5d1b2b005d1eab
:1040bc00ab410993314b00980199002204f090fb1d
:1040cc00059b0090019101330593059b0334343318
:1040dc00a34208da099b4bb10022002330003900bf
:1040ec0005f071fc10b92222254b1a60059a009834
:1040fc00019905f01ffe30e0089d00234fe70123d6
:10410c00002509934fe7002300241e000e930f9403
:10411c00270070e71b498b4202d000221a4b81e723
:10412c00029c009b0334144000229c42f6d1134b9a
:10413c0078e7002808dbe36c13b1e36b013be36326
:10414c00069b002b00d064e416220d4b1a60002154
:10415c00200005f00dfd0020002140f24c239d4471
:10416c00f0bd0028e7da54e465cdcd410000f03f06
:10417c00ff64cd1d0000d03f000040430000e03f35
:0c418c00d80900200065cd1d0000e83fb0
:020000040000fa
:104198002c0100004750532052617720446174611c
:1041a8003a00c046257300004750474c4c2c253038
:1041b80032642530372e34662c25632c2530336441
:1041c8002530372e34662c25632c25303264253073
:1041d8003264253032642e30302c25632c410000a7
:1041e8002425732a253032580d0a00004750524db5
:1041f800432c2530326425303264253032642e3029
:10420800302c412c253032642530372e34662c254d
:10421800632c253033642530372e34662c25632ce7
:10422800252e31662c252e31662c2530326425301a
:104238003264253032642c2c2c410000496e6a65aa
:1042480063746564202575206279746573206f66d0
:104258002046414b452047505320646174612e002d
:10426800504d3a207468652068657864756d7020d3
:104278002830206279746573293a0000504d3a203d
:104288007468652068657864756d702028257520c8
:104298006279746573293a00253032582000c04687
:1042a800252e2a730d0a000025730d0a0000c0464a
:1042b8005b44454255475d20257300005b444542f9
:1042c80055475d20252e2a730d0a00005b444542a0
:1042d80055475d2025730d0a0000c046504d2052f9
:1042e8004157204845580000504d3a20506172739c
:1042f8006564204f4b3a20504d312e303d25752caa
:1043080020504d322e353d25752c20504d31303df5
:10431800257500002d2d3a2d2d3a2d2d207c204c71
:1043280061743a2057616974696e6720666f7220fc
:10433800646174612e2e2e2c202d207c204c6f6ef3
:10434800673a2057616974696e6720666f722064e6
:104358006174612e2e2e2c202d00c046436f6d6295
:10436800696e65642047505320616e6420504d206b
:1043780073656e736f722070726f6a6563742073f1
:1043880074617274696e672075702e2e2e00c04697
:10439800504d532070617273657220696e6974693b
:1043a800616c697a656400004465627567206d6fa9
:1043b800646520656e61626c656400004552524f09
:1043c800523a204750532052582073657475702014
:1043d8006661696c65642100475053205258207308
:1043e80065747570207375636365737366756c00a7
:1043f8004552524f523a20504d20525820736574fe
:104408007570206661696c6564210000504d20520a
:10441800582073657475702073756363657373666c
:10442800756c00004552524f523a20434443205283
:1044380058207365747570206661696c6564210025
:104448004344432052582073657475702073756314
:104458006365737366756c004750532046616b69da
:104468006e67204d6f646520454e41424c45442e91
:10447800205265616c204750532055415254207793
:10448800696c6c2062652069676e6f7265642e00c6
:10449800496e697469616c697a6174696f6e2063c9
:1044a8006f6d706c6574652c20656e746572696ecd
:1044b80067206d61696e206c6f6f70000d0a0000d7
:1044c8005241572046414b452047505320444154c0
:1044d80041202866726f6d20417373656d626c7937
:1044e80020427566666572293a00c046494e464fb5
:1044f8003a2049676e6f72696e67207265616c2039
:1045080047505320686172647761726520646174f2
:1045180061206576656e7420286c656e3a20257575
:1045280029207768696c652066616b696e672e0063
:104538004750533a2052585f434f4d504c5f4441c7
:104548005441206576656e742e20486172647761e7
:104558007265206c656e3a2025752e0047505320f1
:104568005241572044415441204445544543544501
:1045780044202d205052494e54494e472044495218
:104588004543542042554646455220434f4e5445d4
:104598004e54530047505320417373656d626c79d4
:1045a800204f766572666c6f772e20436c6561725a
:1045b800696e672e204861642025752c20676f740a
:1045c8002025752e0000c0464750533a20455252c8
:1045d8004f52204661696c656420746f2072652da6
:1045e80061726d2052580000244750474c4c00001f
:1045f80046414b450000c0465245414c0000c0466c
:104608004750474c4c205061727365642026204601
:104618006f726d6174746564204f4b2066726f6da4
:1046280020257320646174612e00c0464750474cb2
:104638004c2050617273652f466f726d617420460d
:1046480061696c656420666f723a20257300c04604
:104658004c454420626c696e6b20636f6d706c65ad
:1046680074650000427574746f6e207072657373a0
:104678006564202d20646973706c6179696e6720a8
:1046880062616e6e65720000475053204c6f6f7008
:1046980020436865636b20287468726f74746c6556
:1046a80064293a20636f6d706c5f747970653d257d
:1046b800642c2068775f6c656e3d25752c206173ce
:1046c80073656d626c795f6c656e3d257500c046db
:1046d8004750533a2052585f434f4d504c5f444126
:1046e8005441206576656e742c206275742068616b
:1046f800726477617265206c656e20697320302e54
:104708000000c0465761746368646f673a20436c61
:10471800656172696e6720706f74656e7469616c2b
:104728006c7920737475636b20666c6167732061a4
:10473800667465722035207365636f6e6473206fcd
:104748006620696e61637469766974790000c04691
:104758005761746368646f673a2047505320525812
:10476800206170706561727320737475636b2c209f
:1047780072652d61726d696e6700c046576174631a
:1047880068646f673a204552524f52204661696cff
:10479800656420746f2072652d61726d20475053d7
:1047a8002052582061667465722061626f72742e9f
:1047b8000000c0465761746368646f673a204750c9
:1047c800532052582072652d61726d65642073758f
:1047d800636365737366756c6c7920616674657262
:1047e8002061626f72742e005761746368646f672a
:1047f8003a20504d205258206170706561727320c4
:10480800737475636b2c2072652d61726d696e67a8
:104818000000c0465761746368646f673a20455268
:10482800524f52204661696c656420746f2072652e
:104838002d61726d20504d2052582061667465724a
:104848002061626f72742e005761746368646f67c9
:104858003a20504d2052582072652d61726d656462
:10486800207375636365737366756c6c7920616614
:104878007465722061626f72742e00002573475050
:10488800533a2025732573207c202573504d3a20f8
:10489800504d312e303a2025752c20504d322e3572
:1048a8003a2025752c20504d31303a202575257336
:0448b8000000c046f6
:020000040000fa
:1048bc00f0b595b004000492022900d929e1af4b60
:1048cc0001335b18db7f49005bb21293ab4bc91809
:1048dc0024228b5e0a93e36be26c93422cd25a1c1b
:1048ec00e2631d78202df6d02b00093b042bf2d966
:1048fc0001222b2d25d0069202232d2d22d000270c
:10490c0020239f4a2b43ba181278934229d0032fa5
:10491c0003d040d9049b002b3ed0e26c12b1e36b68
:10492c00013be363049b4bb3032f27d012b1e36b22
:10493c00013be363013ff7e7200004f00bfd0500aa
:10494c00d0e70023d31a0693e26ce36b934203d2b5
:10495c005a1ce2631d78d2e7200004f0fbfc050032
:10496c00cde77e1c072f09d0e36be26c93420dd28e
:10497c005a1ce2631d783700082ec1d1069b00201b
:10498c00013300d1a2e27f4915b0f0bd200004f044
:10499c00e1fc0500efe7b7b1e36c002b00d1b1e00f
:1049ac00e36b013be363ade07e1c022f00d19ae286
:1049bc00e36be26c93426bd25a1ce2631d783700b6
:1049cc00032e00d18fe220236f4a2b43ba181278a2
:1049dc009342e9d0002fdfd1129b0b93302d00d0e6
:1049ec0069e2e36be26c934200d39ce05a1ce263f5
:1049fc0018782023e26c0343782b00d057e2e36b4a
:104a0c00934200d393e05a1ce263187800230f936f
:104a1c00302800d18fe02e2800d199e0002200230d
:104a2c00089209930e93002300221393574b0025f1
:104a3c001092119300230026029203930300303b43
:104a4c000c93092b00d8bbe020230343613b052bbf
:104a5c0000d8b5e02e2800d1b4e00f9b002b00d07d
:104a6c001be1e36c002b00d132e2049ae36b002ac9
:104a7c0000d10be10e9a002a00d005e1023be36362
:104a8c00069805f041f80022002303f0a9fe7be70d
:104a9c00200004f05ffc050091e75a1ce2631878d3
:104aac002838431e9841c0b2012540b1e36c13b9bc
:104abc000020374968e7e36b013be363f8e7e36bfe
:104acc00e26c934211d25a1ce26318780300303b1b
:104adc00092b08d9202302009a431300413b192bc0
:104aec0001d95f2805d10135e9e7200004f032fc3b
:104afc00ece72928dcd0e26c12b1e36b013be363f9
:104b0c00049b6bb91622234b1a600021200005f080
:104b1c002ff80020002137e712b1e36b013be36370
:104b2c00013df9d2c4e7200004f014fc61e7200039
:104b3c0004f010fc6ae7e36be26c934204d25a1c5b
:104b4c00e2631878012362e7200004f003fcf9e724
:104b5c00e36be26c93420dd25a1ce263187800228c
:104b6c00002301256d42ee1708920993302813d0cb
:104b7c00012357e7200004f0edfbf0e72c9a00002e
:104b8c00ce9c00000000f07fd79c00000000f03f9e
:104b9c000000f87fd8090020e36be26c93420bd243
:104bac005a1ce2631878089a099b521973410892af
:104bbc00099301230f93d9e7200004f0cbfbf2e714
:104bcc002e2813d10e9b002b00d086e10c950d9650
:104bdc0001330e93e36be26c934251d25a1ce263a5
:104bec001878089509960c9d0d9e27e7392803dd4a
:104bfc0020230343573b0c93002e2adc0eb9072dc0
:104c0c000dd80c9b3f01df1901220023521973416f
:104c1c00089d099e0c920d9301230f93dae70d2d3d
:104c2c0017d8109811990022b34b03f0d9fd1090ae
:104c3c0011910c9804f068ff109a119b03f0d0fdb1
:104c4c0002000b000298039903f0ccfc0290039134
:104c5c00dae70c9b002bd7d0139b002bd4d11098e8
:104c6c0011990022a54b03f0bbfd0b00020002982a
:104c7c00039903f0b7fc0123029003911393c3e74c
:104c8c00200004f067fbace7033bf8e6013be36371
:104c9c000021200004f06cfff2e60e9b0bb9089586
:104cac0009960122002302e0ad185e413f01002e5f
:104cbc0003dc002ef8d1072df6d9202630437028be
:104ccc000cd10499200003f035fe70b980231b062b
:104cdc0099420ad1049b002b00d116e7e36c13b167
:104cec00e36b013be36300200021002f00d1c7e6fa
:104cfc00089a099b08246442e51712196b411400a9
:104d0c00960f9b003343a20012184b41049205935b
:104d1c000a9b05995b42da17914203dc11d1049a84
:104d2c009a420ed92222764b06981a6004f0ecfeb9
:104d3c000122744b524203f053fd0122714b52423b
:104d4c00a3e60a9b05996a3bda178a4203dc33d146
:104d5c00049a934230d92222694b06981a6004f0c7
:104d6c00d3fe802300225b0303f03afd8023002254
:104d7c005b038ae6002202980399604b04f06afcfc
:104d8c007f00002800d187e00298039900225e4b37
:104d9c0004f050ff013702000b000298039903f056
:104dac0021fc01225242d3170290039104980599d9
:104dbc008018594104900591002fdbda049805996d
:104dcc00129b2022dc17002312184b410a98c117a2
:104ddc00121a8b419c4203dc08d11299914205d9dd
:104dec00049b0a9a9b1a20330b935ad40b9b342b9b
:104dfc005adc54220b9b0020d21a434904f028fba6
:104e0c00040006980d0004f07ffe0b000200290040
:104e1c00200004f031ff0b9b04000d001f2b0ddc58
:104e2c00029803990022002304f0cdfd30b9fb0752
:104e3c0004d400220023029203930137069804f055
:104e4c0063fe029a039b0690079103f0c9fc029043
:104e5c000391380004f066fe069a079b03f0c0fc31
:104e6c0022002b0003f0befb029a039b03f0bafb5b
:104e7c0022002b0004f0defe0022002304000d00b3
:104e8c0004f0a1fd10b122221d4b1a60049a2000df
:104e9c00290004f04fff77e5029a039b10001900dc
:104eac007de700230b93a4e700240025c6e712b18d
:104ebc00e36b013be363049b129a0193069b29006d
:104ecc00009320000a9bfef753fd5de50f495be55f
:104edc00049b002b00d0d3e5dae60f9b2e20002b91
:104eec0000d0dee6bde5e36be26c934200d2d4e584
:104efc00200004f02ffad3e50000b03f0000e03fa3
:104f0c00d8090020ffffef7f0000f03f0000f0ff0a
:020000040000fa
:104f1c0080b582b000af0200fb1d1a70fb1d1b7820
:104f2c007f2b12d8fb1d1b781a001f231a4011006f
:104f3c004ef20013cef20003fa1d127852b252094f
:104f4c000120884001009200d150c046bd4602b0fd
:104f5c0080bd90b583b000af02003960fb1d1a70a4
:104f6c00fb1d1b787f2b2fd84ef20013cef20003c3
:104f7c00fa1d127852b29208c0329200d358fa1d20
:104f8c001278110003220a40d200ff2191400a003e
:104f9c00d2431a4010003b689b01ff221a40fb1db4
:104fac001b78190003230b40db009a4011004ef2d2
:104fbc000013cef20003fa1d127852b2920801438c
:104fcc00c0329200d15037e04ef60053cef20003bf
:104fdc00fa1d127811000f220a40083a9208063284
:104fec0092009b1804331b68fa1d127811000322df
:104ffc000a40d200ff2191400a00d2431a4010000f
:10500c003b689b01ff221a40fb1d1b7819000323f0
:10501c000b40db009a404ef60053cef20003f91d14
:10502c0009780c000f212140083989080243063108
:10503c0089005b1804331a60c046bd4603b090bdae
:10504c0080b582b000af00237b6040f20043c4f215
:10505c00000301229a7140f20043c4f200030222c1
:10506c009a7000e0c04640f20043c4f200039b7902
:10507c00dbb21a0001231340002bf3d040f20043a3
:10508c00c4f2000301229a7145f20003c4f200132a
:10509c0004225a6041f60003c4f2000340f20232cb
:1050ac001a6200e0c04641f60003c4f20003da685d
:1050bc008023db021340002bf4d041f20003c4f236
:1050cc00000300221a8600e0c04641f20003c4f23d
:1050dc0000031a6980235b041340002bf4d046f2c2
:1050ec002003c0f280031b687b607a68fc23db051d
:1050fc0013407b607b68db0b7b607b6840f200229b
:10510c0013437b6041f20003c4f200037a685a63d4
:10511c0000e0c04641f20003c4f200031a69802388
:10512c005b041340002bf4d041f20003c4f20003e3
:10513c001b8e9ab241f20003c4f2000302210a430f
:10514c0092b21a8600e0c04641f20003c4f200039a
:10515c001a6980235b041340002bf4d041f6004302
:10516c00c4f2000340f205129a6200e0c04641f618
:10517c000043c4f200035b6810221340002bf5d1ee
:10518c0041f60043c4f2000340f20712c0f20202df
:10519c001a6200e0c04641f60043c4f200035b68ab
:1051ac0004221340002bf5d1c046bd4602b080bd91
:1051bc0080b500af41f60043c4f2000390224221b7
:1051cc00995000e0c04641f60043c4f2000390221f
:1051dc009b5842221340002bf4d042f60023c4f219
:1051ec00000301221a7000e0c04642f60023c4f20c
:1051fc0000035b6801221340002bf5d142f600231b
:10520c00c4f200030f225a63c046bd4680bd80b570
:10521c0000af42f60023c4f200031b78dab242f668
:10522c000023c4f2000302210a43d2b21a7000e038
:10523c00c04642f60023c4f200035b68022213400e
:10524c00002bf5d1c046bd4680bd80b500af40f205
:10525c000023c4f2002301221a70c046c046c04687
:10526c00c046bd4680bd80b500af43f20023c4f2fa
:10527c00000348f200025a6143f20023c4f2000317
:10528c0048f200029a6043f20023c4f200034f225a
:10529c0000219954c046bd4680bd80b586b000af94
:1052ac000200bb1d1a803b1d0a1c1a8010217b18a2
:1052bc0000221a607b1800225a6008203b1800223a
:1052cc001a603b1800225a603b1d00229b5edb4398
:1052dc001bb2ba1d0020125e13401ab2bb1d1a80fd
:1052ec00bb1d1b880122134033b17b181b6848f28d
:1052fc0000021a437b181a603b1d1b8801221340c5
:10530c003bb108217b181b6848f200021a437b183a
:10531c001a6043f20023c4f200031022ba18126878
:10532c009a6143f20023c4f200030822ba181268ef
:10533c005a61c046bd4606b080bd80b500af40f690
:10534c00e013c2f200031b889bb2032293439ab270
:10535c0040f6e013c2f200031a8042f60023c4f2b6
:10536c0000039b6b0422134073b940f6e013c2f2a6
:10537c0000031b889bb2012213439ab240f6e01340
:10538c00c2f200031a800de040f6e013c2f20003f3
:10539c001b889bb2022213439ab240f6e013c2f26e
:1053ac0000031a8042f60023c4f200035a6942f645
:1053bc000023c4f2000304210a435a61c046bd46cf
:1053cc0080bd80b500af43f20023c4f200038022fd
:1053dc0012045a6043f20023c4f200035722032143
:1053ec00995443f20023c4f200033b229b5cdab2d3
:1053fc0043f20023c4f200030f210a40d1b23b2236
:10540c00995442f60023c4f200031a6b42f60023af
:10541c00c4f2000304210a431a6342f60023c4f2c7
:10542c000003da6942f60023c4f200030c490a4077
:10543c00da6142f60023c4f20003da6942f6002373
:10544c00c4f2000340f600310a43da6142f600234d
:10545c00c4f2000304221a61c046bd4680bdc0469a
:10546c00fff0ffff80b582b000afba1d40f6e0132d
:10547c00c2f200031b88138040f6e013c2f2000353
:10548c0000221a80bb1d1b881800bd4602b080bdcf
:10549c0080b500afbff35f8f62b603210520fff725
:1054ac0058fd01235b4203211800fff752fd052034
:1054bc00fff72efd01235b421800fff729fdc046c4
:1054cc00bd4680bd80b500affff7bafdfff7bdfe4e
:1054dc00fff76efefff775fffff7c5fefdf7e8f867
:1054ec0001f02cfe01f04efcfff791fe02f041faa8
:1054fc00fff7ceffc046bd4680bd80b582b000af81
:10550c003b00180002f06dfa3b001800fdf7f6fbab
:10551c003b00180001f070ff3b00180001f094fdf7
:08552c00c046bd4602b080bd7f
:020000040000fa
:10553400f0b58fb002aff860b9607a60fb6833b140
:10554400fb68180004f000fb0300052b0ad848f69a
:105554006073c0f200037968b8681a0004f02ffb86
:1055640000235ae01c203b1800210a1c1a80022246
:10557400995418257b1900210a1c1a800222995477
:105584001426bb1900210a1c1a8002229954f968b6
:1055940004003b180222180004f0a4fbfb68991cc9
:1055a4007b190222180004f09dfbfb68191dbb192e
:1055b4000222180004f096fb3b19180004f0f2f8dc
:1055c4000300bb627b19180004f0ecf803007b6253
:1055d400bb19180004f0e6f803003b62bb6a083309
:1055e400fb62fb6a172b03ddfb6a183bfb6205e0d9
:1055f400fb6a002b02dafb6a1833fb62fc6a48f68a
:105604006c72c0f200027968b8683b6a01937b6ae5
:105614000093230004f0d3fa01231800bd460db013
:10562400f0bd90b58db000af786039607b6813b180
:105634007b681b7813b90023002453e07b681800af
:1056440004f082fa02003b689a4202d2002300244a
:1056540048e03a68796818243b19180004f042fbc2
:1056640021007a183b68d31800221a707b1818009e
:1056740004f044fb03000c00bb62fc627b6818006e
:1056840004f062fa02003b689a420cd93b687a68db
:10569400d11808243b190f22180004f023fb3b19ee
:1056a4000022da7303e00823fb1800221a7008238f
:1056b400fb18180004f022fb03000c003b627c6220
:1056c40000220023c4f24e03386a796a03f07cfa9c
:1056d40003000c0018002100ba6afb6a02f086ff7e
:1056e40003000c0018002100bd460db090bdb0b5fc
:1056f400e2b004aff860b9607a60fb681bb1bb68c4
:105704000bb17b680bb90023d9e1bb6800221a7086
:1057140048f67c73c0f20003f8680722190004f00d
:10572400c2f903000bb10023c9e1f968bc243b1999
:105734006b22180004f0d6fa3b196b22002199540d
:10574400002340f27412ba18136011e0a023fa186f
:1057540040f274103b181b68990048f68473c0f239
:1057640000038b500200bb181b680133ba18136086
:1057740040f27413fb181b68062be7ddbc23fb18ef
:10578400073340f27012b9180b60002340f26c1119
:1057940079180b60bb181b6840f26812ba181360c2
:1057a40037e040f27012bb181b681b782c2b04d016
:1057b400bb181b681b782a2b24d140f267143b19b1
:1057c40040f270103a18126812781a703b181b686d
:1057d40000221a7040f26c117b181b685a1c79184d
:1057e4000a60a022ba189b0040f26815791909686a
:1057f40099503b181b6801337a1913603b191b78c5
:105804002a2b13d040f27012bb181b680133ba184c
:10581400136040f27013fb181b681b783bb140f215
:105824006c13fb181b68062bbbdd00e0c04640f27e
:1058340068117b181b681b78c3b140f26c103b18cd
:105844001b68062b12dc7b181a6840f27013fb18d5
:105854001b689a420ad23b181b685a1c381802600b
:10586400a022ba189b00791809689950a022bb1885
:105874001b6840f2601179180b60bb185b6840f23a
:105884005c1179180b60bb189b6840f258117918a9
:105894000b60bb18db6840f2541179180b6040f2be
:1058a4006c13fb181b68042b02ddbb181b6903e097
:1058b40048f68473c0f2000340f25012b9180b602a
:1058c4009423f918bb181b680c221800fff730fe4c
:1058d40040f26013fb181b681a7840f24f13fb1850
:1058e400511e8a411a7040f25c12bb181b681b7867
:1058f4005bb1bb181b681b784e2b04d0bb181b680c
:105904001b78532b01d1012200e0002240f24e15f6
:105914007b191a701a7801210a401a7040f24f1349
:10592400fb181b7883b340f26013fb181b68022139
:105934001800fff776fe03000c0040f24012ba187c
:10594400136054607b191b782bb140f25c13fb1875
:105954001b681a7800e02d2240f23f117b181a7060
:105964007b181b7848f68872c0f20002542178181c
:10597400029340f24013fb185c681b680093019487
:10598400402104f01cf909e048f69c73c0f20003be
:105994005422b8181a00402104f011f940f25813a7
:1059a400fb181b681a7840f23e13fb18511e8a41fb
:1059b4001a7040f25412bb181b681b785bb1bb18f9
:1059c4001b681b78452b04d0bb181b681b78572b0e
:1059d40001d1012200e0002240f23d157b191a702a
:1059e4001a7801210a401a7040f23e13fb181b7802
:1059f40083b340f25813fb181b6803211800fff708
:105a040010fe03000c0040f23012ba181360546008
:105a14007b191b782bb140f25413fb181b681a78be
:105a240000e02d2240f22f117b181a707b181b788e
:105a340048f6b872c0f2000214217818029340f2ba
:105a44003013fb185c681b6800930194402104f038
:105a5400b6f809e048f6cc73c0f200031422b81873
:105a64001a00402104f0abf89423fc1848f6ec72b9
:105a7400c0f200027968b86848f6fc73c0f200030b
:105a840002931423fb1801935423fb18009323005f
