:020000040000fa
:10000000f87f0020f1620000272d0000272d00005e
:1000100000000000000000000000000000000000e0
:10002000000000000000000000000000272d00007c
:100030000000000000000000272d00004b4b0000d6
:10004000272d0000272d0000272d0000272d000060
:10005000272d0000a3250000272d0000272d0000dc
:10006000272d0000272d0000272d0000272d000040
:10007000272d0000272d0000272d0000272d000030
:10008000272d0000272d0000272d0000272d000020
:10009000272d0000272d0000272d0000272d000010
:1000a000272d0000272d0000272d0000272d000000
:1000b000272d0000272d0000272d0000272d0000f0
:1000c000272d0000272d0000272d0000272d0000e0
:1000d000272d0000272d0000272d0000272d0000d0
:1000e000272d0000272d0000272d0000272d0000c0
:1000f000272d0000272d0000272d0000272d0000b0
:10010000272d0000272d0000272d0000272d00009f
:10011000272d0000272d0000272d0000272d00008f
:10012000272d0000272d0000272d0000272d00007f
:10013000272d0000272d0000272d0000272d00006f
:10014000272d0000272d0000272d0000272d00005f
:0c015000272d0000272d0000272d0000a7
:020000040000fa
:10015c00f8b5c046f8bc08bc9e467047356900002f
:10016c00f8b5c046f8bc08bc9e4670471169000043
:020000040000fa
:10017c00784f0000010000008a52000001000000ce
:020000040000fa
:10018c000fb480b500afc046bd4680bc08bc04b0ff
:10019c00184780b500af40f20003c2f2000340f2f2
:1001ac00b8320021180006f03ffe02f0b9fa334bca
:1001bc00180002f0b3fd40f20003c2f2000340f25b
:1001cc00b432c821995040f20003c2f2000340f24d
:1001dc00b0320021995040f20003c2f2000340f209
:1001ec00ab320121995440f20003c2f2000340f2f9
:1001fc005811234a5a5040f20003c2f2000340f255
:10020c005c12802199521f4b180004f0a6f840f2a2
:10021c000003c2f2000340f220311b4a5a5040f254
:10022c000003c2f2000340f2243240219952174bd2
:10023c00180004f069fa40f20003c2f2000340f225
:10024c000c11134a5a5040f20003c2f2000340f260
:10025c001012402199520f4b180003f02dfa40f266
:10026c000003c2f200031b6801221a4340f2000390
:10027c00c2f200031a60c046bd4680bd6c0300206c
:10028c0064010020580100202c03002020030020d2
:10029c00180100200c01002090b587b000aff86069
:1002ac00b9607a601a00bb1c1a8046f26023c0f257
:1002bc000003fa681900100006f044fb03007b6190
:1002cc007b690bb900233be07a69fb68d31a9ab2bd
:1002dc0012217b1802321a807a18bb1c12881b88d8
:1002ec009a4201d300232be012243b191a88f96897
:1002fc007b68180006f08efd20003b181b887a687e
:10030c00d31800221a70bb68198810243b193a18ac
:10031c0012888a1a1a803b191b884bb13b181b8810
:10032c00fa68d1183b191a88fb68180006f076fc9d
:10033c00bb681022ba1812881a801223fb181b886b
:10034c001800bd4607b090bdf0b5edb004af02f09b
:10035c0002fa40f284143b19180004f05ffc02f01e
:10036c00aff90300190040f20003c2f2000340f29f
:10037c00ac32995240f20003c2f2000340f2ac32ac
:10038c009b5a1a000123134093b140f20003c2f2ae
:10039c0000031b6801221a4340f20003c2f200035f
:1003ac001a603b191a6840f2b833c2f200031a60a3
:1003bc0040f20003c2f20003180000f0c5ff40f247
:1003cc000003c2f2000340f25e129b5a9bb2012b57
:1003dc0000d0eae040f20003c2f200031b680222e4
:1003ec001a4340f20003c2f200031a6040f2841375
:1003fc00fb181a6840f2b833c2f200031a6040f2dc
:10040c000003c2f2000340f2e4229b5a190040f2ae
:10041c000003c2f2000340f260129b5a9bb2cb184d
:10042c00ff2b00ddace040f20003c2f2000340f20f
:10043c00e4229b5ae133ff331a0040f20003c2f26c
:10044c000003d318181d40f20003c2f2000340f25f
:10045c0060129b5a9bb21a00984b190006f0dafcfa
:10046c0040f20003c2f2000340f260129b5a9ab2af
:10047c0040f20003c2f2000340f2e4215b5ad318ad
:10048c0099b240f20003c2f2000340f2e422995206
:10049c0040f20003c2f2000340f2e4229b5a19001e
:1004ac0040f20003c2f2000340f2e4125b189b1806
:1004bc0000221a7064e03b1d180006f067fc030074
:1004cc003a1d46f26421c0f2000140f20000c2f273
:1004dc00000001f015fa46f26c23c0f20003381d3f
:1004ec000622190006f0effb0300002b48d140f266
:1004fc000003c2f2000340f2e6220021995440f2bc
:10050c000003c2f2000340f2f6220021995440f29b
:10051c000003c2f2000340f20a32002199548423f2
:10052c00f9183b1d40f20012180002f00afa030001
:10053c0033b346f27423c0f2000361481022190051
:10054c0006f0ccfc46f28023c0f200035d48142276
:10055c00190006f0c3fc46f28823c0f200035a4887
:10056c001422190006f0bafc40f20003c2f2000398
:10057c001b6808221a4340f20003c2f200031a60ff
:10058c003a1d524952488023fff786fe0300002b88
:10059c0091d140f20003c2f2000340f25e1200213e
:1005ac0099524c4b180003f0d8fe40f20003c2f2f3
:1005bc00000340f226329b5a9bb2012b00d07be108
:1005cc0040f20003c2f200031b6810221a4340f2ef
:1005dc000003c2f200031a6040f28413fb181a687d
:1005ec0040f2b833c2f200031a6040f20003c2f2c8
:1005fc00000340f228329b5a9bb2072b12d940f2cf
:10060c000003c2f2000340f228329b5a9bb2324ada
:10061c0046f29021c0f2000140f20000c2f200004c
:10062c0001f06ef940f20003c2f2000340f2ab326b
:10063c009b5c002b00d1eee002f0e8ff03001a00f7
:10064c0001235340dbb2002b00d1e4e040f2000365
:10065c00c2f200031b6840221340002b00d0dae0ea
:10066c0040f20003c2f2000340f228329b5a9bb2c4
:10067c00072b00d8cfe0002340f29c143a191360ea
:10068c003b191b688422ba18d0183b191b6840f21e
:10069c000012d31a190046f29823c0f200031a0074
:1006ac0006f098fb02003b191b689b183a19136063
:1006bc0040f29a13fb1800221a806be064010020b0
:1006cc00e6020020f60200200a030020e4020020cb
:1006dc00e4010020580100202c03002040f29c155e
:1006ec007b191b688422ba18d0187b191b6840f23e
:1006fc000012d31a1c0040f29a16bb191a8840f249
:10070c000003c2f2000340f22c319b185b181b78db
:10071c0046f2a822c0f20002210006f05bfb0200a8
:10072c0028003b181b689b1839180b60bb191b88d9
:10073c0001331a000f2313402bbbbb191a8840f24c
:10074c000003c2f2000340f228315b5a9bb2013b1a
:10075c009a4218da04003b191b688422ba18d01884
:10076c003b191b6840f20012d31a190046f2b02351
:10077c00c0f200031a0006f02dfb02003b191b68a7
:10078c009b183a19136040f29a12bb18ba181288c7
:10079c0001321a8040f20003c2f2000340f2283208
:1007ac009b5a9bb240f29a12ba1812889a4205d2fe
:1007bc0040f29c13fb181b68fa2b8fdd40f29c1443
:1007cc003b191b6884257a19d0183b191b6840f219
:1007dc000012d31a190046f2c423c0f200031a0007
:1007ec0006f0f8fa02003b191b689b183a191360c3
:1007fc0040f20003c2f200037a195a603b191b68dd
:10080c009ab240f20003c2f200031a81bb4b0121e1
:10081c00180002f0e8fe40f29813fb1800221a8030
:10082c0030e040f29813fb181a8840f20003c2f231
:10083c00000340f22c319b185b181a7840f2971584
:10084c007c19af4baf4940f20000c2f2000002f03d
:10085c00a1fa030023707b191b7863b940f20003e3
:10086c00c2f200031b6820221a4340f20003c2f2ba
:10087c0000031a6014e040f29812bb18ba181288e0
:10088c0001321a8040f20003c2f2000340f2283217
:10089c009b5a9bb240f29812ba1812889a42c0d353
:1008ac0040f20003c2f2000340f2263200219952ba
:1008bc00954b180003f028ff40f20003c2f200032e
:1008cc001b6808221340002b3ed040f20003c2f2fa
:1008dc00000340f2e6229b5c43b946f2cc23c0f203
:1008ec0000038a481022190006f0f8fa40f20003bf
:1008fc00c2f2000340f2f6229b5c43b946f2d823c5
:10090c00c0f2000382481422190006f0e7fa40f204
:10091c000003c2f2000340f20a329b5c43b946f278
:10092c00e423c0f200037b481422190006f0d6fa27
:10093c0040f20003c2f200031b6880221a4340f20b
:10094c000003c2f200031a6040f20003c2f200037b
:10095c001b68202213405bb140f20003c2f200037b
:10096c001b6880221a4340f20003c2f200031a6093
:10097c0040f2bc33c2f200031b685a1c40f2bc3379
:10098c00c2f200031a6040f20003c2f2000340f20c
:10099c00b4329b585b0840f290117a18136040f205
:1009ac00bc33c2f20003186840f28f143a197b185a
:1009bc001968002388425b4113703b191b782bb1db
:1009cc0040f2bc33c2f2000300221a6040f2000372
:1009dc00c2f200031b688022134083b340f2000371
:1009ec00c2f200031b684022134043bb40f28f133a
:1009fc00fb181b781bb340f20003c2f2000340f259
:100a0c0098329a5a40f20003c2f2000340f29a3133
:100a1c00595a40f20003c2f2000340f29c301b5ab8
:100a2c003c4e3b4d394c40f20000c2f200000293a8
:100a3c000191009233002a00210000f091fe02f097
:100a4c00e5fd03001a0001235340dbb263b140f211
:100a5c000003c2f200031b68402293431a0040f2c9
:100a6c000003c2f200031a6040f28413fb181a68e8
:100a7c0040f2b833c2f200031b68d31a052b39d9e4
:100a8c0040f20003c2f200031b68402293431a0099
:100a9c0040f20003c2f200031a6003f070fc030082
:100aac006bb103f079fc40f20003c2f2000340f298
:100abc005e1200219952184b180003f04efc03f003
:100acc0035fe03006bb103f03efe40f20003c2f2b0
:100adc00000340f22632002199520b4b180003f010
:100aec0013fe40f28413fb181a6840f2b833c2f2ba
:100afc0000031a60c046bd4669b0f0bd040000207a
:100b0c00920300206c03002020030020e60200204a
:100b1c00f60200200a0300205801002080b500af27
:0c0b2c00fff737fbfff710fcfce7c046aa
:020000040000fa
:100b3800f0b5bc4ca54410930400002308000892ab
:100b48000693302851d02e2877d1e36be26c93427c
:100b580058d25a1ce26318780022002302920393a9
:100b6800302853d001230993002300221e001500ca
:100b78001f001293059300930300303b092b62d9a1
:100b88002e2862d0099b0bb902950396069b002b71
:100b980000d1aee320230343652b00d0c1e399992c
:100ba800200005f003f870b980231b0699420ad18a
:100bb800999b002b00d1aae3e36c0020002113b11c
:100bc800e36b013be363029b039c1b184c410293bc
:100bd8000394129c002c00d088e0989806f0bcf88a
:100be8000022002304f038ff97e3e36be26c9342a2
:100bf80004d25a1ce26318780123a1e7200005f00b
:100c0800e6fcf9e7200005f0e2fca5e701225242e4
:100c1800d3170298039980185941e36be26c02904c
:100c28000391934205d25a1ce26318780123069374
:100c380096e7200005f0cbfcf8e700230022099393
:100c48000292039390e72e280ed1099b002b4bd1db
:100c58000295039601330993e36be26c93423fd20a
:100c68005a1ce263187887e7009a7c2a20dc29005e
:100c7800320001250026491972410d00160030285e
:100c880000d0059137b1009a12a9920052580a2152
:100c98004a43d318009a12a99200535001230137ee
:100ca8000693092fd8d1009b002701330093d3e77f
:100cb8002a003300012500265219734115001e0031
:100cc8003028c9d040f2f01212ab9b58059301238b
:100cd80005990b4312a98b5040f25c430593bbe77f
:100ce800200005f074fc47e72e204fe7029a954252
:100cf8001bd1039a964218d1002e16dc0eb9092d85
:100d080013d8089b1e2b03dc2300089ad34063b931
:100d1800989806f021f8060020000f0006f02af83f
:100d280002000b00300039005ce7109b109adb0fc3
:100d38009b185b1003995b42da17914203dc11d1cf
:100d4800029a9a420ed92222374b98981a6006f0d6
:100d580003f80122354b524204f07efe0122334b48
:100d680052423fe7109b03996a3bda178a4203dc39
:100d780011d1029a93420ed922222b4b98981a60cd
:100d880005f0eaff802300225b0304f065fe802360
:100d980000225b0326e70a21f7b9059b029c082b72
:100da8006bdca34269dc112c67dc092c1ad1129880
:100db80005f0e0ff040098980d0005f0cdff020053
:100dc8000b00200029000de79a0012abd35812a897
:100dd80006934b4301371350009b082ff4dd013372
:100de8000093dae7082c25dc129805f0c3ff06000b
:100df80098980f0005f0b0ff02000b003000390092
:100e080004f02afe08231c1b094ba4000600e05826
:100e18000f0005f0a1ff02000b003000390005f0bb
:100e28000bf87ae2b4fdffffc4040020ffffef7f58
:100e3800546c00002300093b9a009b1a089a9b18df
:100e48001e2b02dc129ada40bab9129805f092ff0a
:100e5800060098980f0005f07fff02000b00300095
:100e6800390004f0f9fd0a3c8e4ba4000600e05856
:100e78000f0005f071ff53e70093009b12a9013b97
:100e88009a005258002af7d0092394fbf3f25343ef
:100e9800e31a0293dbb1002c01da09330293082329
:100ea800029a12a89b1a7f4a9b009f5800231a0097
:100eb8001900009da9420dd12bb1a90012a80b5011
:100ec8002b0001330093029b0292e41a0934002399
:100ed800059378e00568b5fbf7f6f3189c460360c0
:100ee800714b7e4393fbf7f3ae1b7343914205d1dd
:100ef80065461db97f224d1c2a40093c013104304a
:100f0800d7e7059b1d3b0593009b5d1e7f231d4076
:100f18000023069312aaab009b58da085b070a93d2
:100f2800069b0b920c9300230a9e0b9f0d930c9a21
:100f38000d9bb6185f4117b95b4b9e421ed95a4aa2
:100f480000233000390005f01ffd574a06900023a2
:100f58003000390005f018fdab0012a95a50009b6b
:100f6800591e7f230b40ab420bd1029b9d4273d08d
:100f780002b900957f23013d1d40cbe7320006975b
:100f8800eae7029a9542f5d1069ae2b17f21029ae0
:100f98000934013a0a4002920298009a82420dd11d
:100fa8005a1e0a40920012a810589900009012a8e0
:100fb800095800980093014312a81150029b069902
:100fc8009b0012aa9950112c9bdd122c06d1029b72
:100fd80012a99b00354a5b58934292d90126029b7d
:100fe800009a934215d012aa9b009b582f4a93420d
:100ff8000fd92f4a93420ed17f22029b013313400f
:10100800009a9a4205d09b0012a92a4a5b5893423b
:1010180001d8122c50d032001b2c00dd0922059b70
:1010280000219b18059333009340013b06931e4b08
:1010380013419c46029b009883420fd10029ced0d1
:10104800421c7f20029b02409a4220d0009b12a89b
:101058009b00c1500092c2e7029b95e79f0012a82f
:101068003d582800d040401812a9785006992940c8
:1010780065466943029dab4205d120b95d1c7f30ae
:1010880005400295093c7f2001330340d3e7009bcc
:1010980012aa013b03409b00d25812a90692324380
:1010a800ca509ce7546c000000ca9a3b5e708900e5
:1010b8005f708900ff092f0f029b009a934209d1a4
:1010c8005a1c7f231a40130000920022013b9b0008
:1010d80012a9ca50029b12aa9b00d05805f04afeda
:1010e8000022002304f0bafb029b009a5e1c7f23b7
:1010f8001e40964208d101321a4013000092002285
:10110800013b9b0012ace2500022874b04f0a4fc88
:1011180004000d0012abb600f05805f02bfe2200bb
:101128002b0004f09bfb04000d00989805f014feba
:1011380022002b000690079104f08efc059b109a64
:10114800353311939b1a089a0a900b910c9393428a
:1011580000dbb1e0002b00dab1e01d0001230993a8
:10116800342d00ddafe069220020521b6f4905f0e5
:1011780081fa0a9a0b9b05f087fe35220e900f9193
:10118800521b0020694905f075fa02000b000a9805
:101198000b9905f0d9fe02000b0006000f000a9813
:1011a8000b9905f057fe02000b000e980f9904f0fa
:1011b80055fb0a900b917f22029b00990233134042
:1011c8008b4232d012a99b005b5859498b4200d9f7
:1011d80080e02bb9029c009b033414409c420dd044
:1011e8000022544b0698079904f036fc02000b00c5
:1011f8003000390004f032fb06000f0035235b1b7a
:10120800012b12dd0022494b3000390005f09cfe0d
:101218000022002305f0d6fc38b130003900002246
:10122800424b04f01bfb06000f000a980b99109b19
:1012380032005c42089be41a3b0004f00ffb0e9a54
:101248000f9b05f007fe119b621e5b000090019149
:101258005b089a422adc05f073fe0022364b05f043
:101268000ffb90b1099b2bb10c9b5d1b2b005d1ee6
:10127800ab410993314b00980199002204f0ecfb33
:10128800059b0090019101330593059b033434338a
:10129800a34208da099b4bb1002200233000390031
:1012a80005f090fc10b92222254b1a60059a009887
:1012b800019905f041fe30e0089d00234fe7012326
:1012c800002509934fe7002300241e000e930f9476
:1012d800270070e71b498b4202d000221a4b81e796
:1012e800029c009b0334144000229c42f6d1134b0d
:1012f80078e7002808dbe36c13b1e36b013be36399
:10130800069b002b00d064e416220d4b1a600021c6
:10131800200005f049fd0020002140f24c239d44a7
:10132800f0bd0028e7da54e465cdcd410000f03f78
:10133800ff64cd1d0000d03f000040430000e03fa7
:0c134800c40400200065cd1d0000e83f3b
:020000040000fa
:1013540090b585b000af78607b681b6801221340ac
:10136400002b4bd002f056f90300002b48d17b68c8
:101374001b6840221340002b44d17a6843f6fc33a7
:10138400c0f2000353607b6840f298221a817b68a4
:101394001b6840221a437b681a607b68043301216e
:1013a400180002f024f903009bb17b681b6801223a
:1013b40093431a007b681a607b681b68402293433e
:1013c4001a007b681a607b6840f2aa3201219954a2
:1013d40019e008243b19180003f024fc21007b18b1
:1013e4001a684cf60023c3f69a335a437b185b6899
:1013f400d2187b6840f2b0315a5004e0c04602e093
:10140400c04600e0c046bd4605b090bdf0b597b0fb
:1014140006af78613961fa60bb6002f0fbf8030043
:101424000bb10023c0e07b691b6840221340002bf2
:1014340045d0142608217b189b19180003f0f2fbf1
:1014440008217b189b191b683b6000237b604cf6ca
:101454000022c3f69a3200233868796805f034fa1a
:1014640002000b0008217918891949680c0000252d
:1014740012196b411c001300bb63fc637b6940f2cf
:10148400b0329b583b6300237b63b96bfa6b3b6bb5
:101494007c6bc91aa2410b00140034b96cb94cf628
:1014a4000022c3f69a32934207d97b691b68402213
:1014b40093431a007b691a6001e0002374e07b699e
:1014c4000c33180043f6ec31c0f2000143f6986285
:1014d400c0f20002bb68059343f6c833c0f20003b0
:1014e4000493fb68039343f6c833c0f200030293ea
:1014f4003b69019343f6e433c0f2000300930b000d
:1015040040f2001105f06afc0300fb62fb6a002b49
:1015140002ddfb6aff2b01dd002345e07b690c3310
:101524001a007b695a60fb6a9ab27b691a817b69eb
:101534001b6840221a437b691a601c2408257b1906
:101544001b19180003f06efb210028003b185b18e0
:101554001a684cf60023c3f69a335a433b185b18b7
:101564005b68d2187b6940f2b0315a507b6904330e
:101574000121180002f03bf80300a3b17b691b684a
:10158400402293431a007b691a607b691b68082216
:1015940093431a007b691a60bb6d13b1bb6d0022c3
:1015a4001a70012300e000231800bd4611b0f0bdfd
:1015b400f0b595b004af78610e00100019000a234d
:1015c40040f2080cbc446344321c1a80082340f2e5
:1015d400080cbc446344021c1a800e23fb180a1c2a
:1015e4001a8002f017f803000bb10023b8e07b69fe
:1015f4001b6840221340002b45d0142608217b1879
:101604009b19180003f00efb08217b189b191b681b
:101614003b6000237b604cf60022c3f69a32002321
:101624003868796805f050f902000b000821791830
:10163400891949680c00002512196b411c0013001c
:10164400bb63fc637b6940f2b0329b583b6300236d
:101654007b63b96bfa6b3b6b7c6bc91aa2410b00c1
:10166400140034b96cb94cf60022c3f69a32934292
:1016740007d97b691b68402293431a007b691a606f
:1016840001e000236ce07b690c331d000a2340f267
:10169400080cbc4463441988082340f2080cbc4479
:1016a400634418880e23fb181c8843f6f433c0f2f5
:1016b400000343f6c862c0f2000202940190009154
:1016c40040f20011280005f089fb0300fb62fb6a6d
:1016d400002b02ddfb6aff2b01dd002340e07b6968
:1016e4000c331a007b695a60fb6a9ab27b691a81cf
:1016f4007b691b6840221a437b691a601c240825f5
:101704007b191b19180003f08dfa210028003b18df
:101714005b181a684cf60023c3f69a335a433b18f5
:101724005b185b68d2187b6940f2b0315a507b6910
:1017340004330121180001f05aff03007bb17b69d7
:101744001b68402293431a007b691a607b691b68fb
:10175400202293431a007b691a60012300e00023ce
:101764001800bd4611b0f0bdf0b591b00aaff860f5
:10177400b9607a603b6001f04dff03000bb10023b8
:10178400bee0fb681b68402213400bb10023b7e0a6
:10179400bb6873b1bb681b785bb17b684bb17b687a
:1017a4001b7833b13b6823b13b681b780bb1012232
:1017b40000e0002213203b181a701a7801210a4015
:1017c4001a703b181b78a3b3fb680c331e0030233c
:1017d400fb1818883423fb181c883823fb181d8831
:1017e40043f6ec31c0f2000143f60472c0f2000289
:1017f40043f6c833c0f20003089307950694059096
:1018040043f6f433c0f2000304933b6803937b680c
:101814000293bb68019343f6e433c0f200030093e0
:101824000b0040f20011300005f0d8fa03007b6190
:1018340028e0fb680c331e003023fb18188834237f
:10184400fb181c883823fb181d8843f6ec31c0f2c2
:10185400000143f66c72c0f2000243f6c833c0f2d2
:101864000003049303950294019043f6f433c0f209
:10187400000300930b0040f20011300005f0aefab3
:1018840003007b617b69002b02dd7b69ff2b01dd9b
:10189400002335e0fb680c331a00fb685a607b694f
:1018a4009ab2fb681a81fb681b6840221a43fb68e2
:1018b4001a60fb6804330121180001f098fe03004c
:1018c400ebb1fb681b68402293431a00fb681a6063
:1018d400fb681b68082293431a00fb681a60fb68c4
:1018e4001b68202293431a00fb681a60fb681b687c
:1018f400802293431a00fb681a60012300e000234e
:101904001800bd4607b0f0bd80b58ab000aff860de
:10191400b9607a603b6001f07dfe03000bb10023e7
:10192400f4e0fb681b68402213400bb10023ede098
:10193400bb68002b69d043f6c873c0f20003b868d3
:101944000322190005f0c3f90300002b5dd1002325
:101954007b62fb680c331800bb6843f6cc72c0f2a0
:10196400000240f2001105f039fa03007b62002303
:101974003b6233e07a683b6ad2181b217b181278e9
:101984001a700a00bb181b780d2b23d0bb181b78c8
:101994000a2b15d1fb680c331a007b6ad0187b6aba
:1019a40040f20012d11a43f6dc73c0f200031a00ad
:1019b40005f014fa03001a007b6a9b187b620ae0a4
:1019c4007b6a5a1c7a62fa68d3181b22ba181278f6
:1019d4001a7300e0c0463b6a01333b623a6a3b68d3
:1019e4009a4202d27b6af52bc4d9fa687b6ad3186f
:1019f4000c3300221a70fb680c331a00fb685a601f
:101a04007b6a9ab2fb681a8168e0bb6833b1bb6831
:101a1400180005f0bff90300023300e000237b61e6
:101a24007a693b68d318fb61fb69ff2b07d97b6993
:101a3400ff22d31a3b607a693b68d318fb61bb6809
:101a4400c3b17b69b3b1fb680c331800bb6843f6c0
:101a5400e072c0f2000240f2001105f0bff9fb6829
:101a64000c331a007b69d3183a687968180005f0ba
:101a7400d5f906e0fb680c333a687968180005f07c
:101a8400cdf93b68dbb1fb69023bfa68d3181b7bd9
:101a94000d2b14d0fb69013bfa68d3181b7b0a2b6e
:101aa4000dd0fb695a1cfa61fa68d3180d221a7317
:101ab400fb695a1cfa61fa68d3180a221a73fa6885
:101ac400fb69d3180c3300221a70fb680c331a001c
:101ad400fb685a60fb699ab2fb681a81fb681b6851
:101ae40040221a43fb681a60fb6804330121180082
:101af40001f07dfd030043b1fb681b684022934362
:101b04001a00fb681a60012300e000231800bd4698
:041b14000ab080bdd6
:020000040000fa
:101b1800f0b595b004000492022900d929e1af4b31
:101b280001335b18db7f49005bb21293ab4bc918da
:101b380024228b5e0a93e36be26c93422cd25a1cec
:101b4800e2631d78202df6d02b00093b042bf2d937
:101b580001222b2d25d0069202232d2d22d00027dd
:101b680020239f4a2b43ba181278934229d0032f77
:101b780003d040d9049b002b3ed0e26c12b1e36b3a
:101b8800013be363049b4bb3032f27d012b1e36bf4
:101b9800013be363013ff7e7200004f018fd05006f
:101ba800d0e70023d31a0693e26ce36b934203d287
:101bb8005a1ce2631d78d2e7200004f008fd0500f6
:101bc800cde77e1c072f09d0e36be26c93420dd260
:101bd8005a1ce2631d783700082ec1d1069b0020ed
:101be800013300d1a2e27f4915b0f0bd200004f016
:101bf800eefc0500efe7b7b1e36c002b00d1b1e0d4
:101c0800e36b013be363ade07e1c022f00d19ae257
:101c1800e36be26c93426bd25a1ce2631d78370087
:101c2800032e00d18fe220236f4a2b43ba18127873
:101c38009342e9d0002fdfd1129b0b93302d00d0b7
:101c480069e2e36be26c934200d39ce05a1ce263c6
:101c580018782023e26c0343782b00d057e2e36b1b
:101c6800934200d393e05a1ce263187800230f9341
:101c7800302800d18fe02e2800d199e000220023df
:101c8800089209930e93002300221393574b0025c3
:101c98001092119300230026029203930300303b15
:101ca8000c93092b00d8bbe020230343613b052b91
:101cb80000d8b5e02e2800d1b4e00f9b002b00d04f
:101cc8001be1e36c002b00d132e2049ae36b002a9b
:101cd80000d10be10e9a002a00d005e1023be36334
:101ce800069805f039f80022002303f0b5fe7be7db
:101cf800200004f06cfc050091e75a1ce263187898
:101d08002838431e9841c0b2012540b1e36c13b98d
:101d18000020374968e7e36b013be363f8e7e36bcf
:101d2800e26c934211d25a1ce26318780300303bec
:101d3800092b08d9202302009a431300413b192b91
:101d480001d95f2805d10135e9e7200004f03ffcff
:101d5800ece72928dcd0e26c12b1e36b013be363ca
:101d6800049b6bb91622234b1a600021200005f052
:101d78001bf80020002137e712b1e36b013be36356
:101d8800013df9d2c4e7200004f021fc61e72000fe
:101d980004f01dfc6ae7e36be26c934204d25a1c20
:101da800e2631878012362e7200004f010fcf9e7e9
:101db800e36be26c93420dd25a1ce263187800225e
:101dc800002301256d42ee1708920993302813d09d
:101dd800012357e7200004f0fafbf0e7546c0000f9
:101de800da6e00000000f07fe36e00000000f03fb4
:101df8000000f87fc4040020e36be26c93420bd22e
:101e08005a1ce2631878089a099b52197341089280
:101e1800099301230f93d9e7200004f0d8fbf2e7d8
:101e28002e2813d10e9b002b00d086e10c950d9621
:101e380001330e93e36be26c934251d25a1ce26376
:101e48001878089509960c9d0d9e27e7392803dd1b
:101e580020230343573b0c93002e2adc0eb9072d91
:101e68000dd80c9b3f01df19012200235219734141
:101e7800089d099e0c920d9301230f93dae70d2d0f
:101e880017d8109811990022b34b03f0e5fd109074
:101e980011910c9804f060ff109a119b03f0dcfd7f
:101ea80002000b000298039903f0d8fc02900391fa
:101eb800dae70c9b002bd7d0139b002bd4d11098ba
:101ec80011990022a54b03f0c7fd0b0002000298f0
:101ed800039903f0c3fc0123029003911393c3e712
:101ee800200004f074fbace7033bf8e6013be36336
:101ef8000021200004f058fff2e60e9b0bb908956c
:101f080009960122002302e0ad185e413f01002e30
:101f180003dc002ef8d1072df6d92026304370288f
:101f28000cd10499200003f041fe70b980231b06f0
:101f380099420ad1049b002b00d116e7e36c13b138
:101f4800e36b013be36300200021002f00d1c7e6cb
:101f5800089a099b08246442e51712196b4114007a
:101f6800960f9b003343a20012184b41049205932d
:101f78000a9b05995b42da17914203dc11d1049a56
:101f88009a420ed92222764b06981a6004f0e4fe93
:101f98000122744b524203f05ffd0122714b524201
:101fa800a3e60a9b05996a3bda178a4203dc33d118
:101fb800049a934230d92222694b06981a6004f099
:101fc800cbfe802300225b0303f046fd8023002222
:101fd8005b038ae6002202980399604b04f050fce8
:101fe8007f00002800d187e00298039900225e4b09
:101ff80004f030ff013702000b000298039903f048
:102008002dfc01225242d31702900391049805999e
:102018008018594104900591002fdbda049805993e
:10202800129b2022dc17002312184b410a98c11773
:10203800121a8b419c4203dc08d11299914205d9ae
:10204800049b0a9a9b1a20330b935ad40b9b342b6c
:102058005adc54220b9b0020d21a434904f00afb95
:10206800040006980d0004f077fe0b00020029001a
:10207800200004f009ff0b9b04000d001f2b0ddc52
:10208800029803990022002304f09cfd30b9fb0755
:1020980004d400220023029203930137069804f027
:1020a8005bfe029a039b0690079103f0d5fc029011
:1020b8000391380004f05efe069a079b03f0ccfcff
:1020c80022002b0003f0cafb029a039b03f0c6fb15
:1020d80022002b0004f0befe0022002304000d00a5
:1020e80004f070fd10b122221d4b1a60049a2000e2
:1020f800290004f021ff77e5029a039b10001900dc
:102108007de700230b93a4e700240025c6e712b15e
:10211800e36b013be363049b129a0193069b29003e
:10212800009320000a9bfef703fd5de50f495be580
:10213800049b002b00d0d3e5dae60f9b2e20002b62
:1021480000d0dee6bde5e36be26c934200d2d4e555
:10215800200004f03cfad3e50000b03f0000e03f67
:10216800c4040020ffffef7f0000f03f0000f0fff5
:020000040000fa
:1021780080b582b000af0200fb1d1a70fb1d1b78f2
:102188007f2b12d8fb1d1b781a001f231a40110041
:102198004ef20013cef20003fa1d127852b2520921
:1021a8000120884001009200d150c046bd4602b0cf
:1021b80080bd90b583b000af02003960fb1d1a7076
:1021c800fb1d1b787f2b2fd84ef20013cef2000395
:1021d800fa1d127852b29208c0329200d358fa1df2
:1021e8001278110003220a40d200ff2191400a0010
:1021f800d2431a4010003b689b01ff221a40fb1d86
:102208001b78190003230b40db009a4011004ef2a3
:102218000013cef20003fa1d127852b2920801435d
:10222800c0329200d15037e04ef60053cef2000390
:10223800fa1d127811000f220a40083a9208063255
:1022480092009b1804331b68fa1d127811000322b0
:102258000a40d200ff2191400a00d2431a401000e0
:102268003b689b01ff221a40fb1d1b7819000323c2
:102278000b40db009a404ef60053cef20003f91de6
:1022880009780c000f2121400839890802430631da
:1022980089005b1804331a60c046bd4603b090bd80
:1022a80080b582b000af00237b6040f20043c4f2e7
:1022b800000301229a7140f20043c4f20003022293
:1022c8009a7000e0c04640f20043c4f200039b79d4
:1022d800dbb21a0001231340002bf3d040f2004375
:1022e800c4f2000301229a7145f20003c4f20013fc
:1022f80004225a6041f60003c4f2000340f202329d
:102308001a6200e0c04641f60003c4f20003da682e
:102318008023db021340002bf4d041f20003c4f207
:10232800000300221a8600e0c04641f20003c4f20e
:1023380000031a6980235b041340002bf4d046f293
:102348002003c0f280031b687b607a68fc23db05ee
:1023580013407b607b68db0b7b607b6840f200226c
:1023680013437b6041f20003c4f200037a685a63a6
:1023780000e0c04641f20003c4f200031a6980235a
:102388005b041340002bf4d041f20003c4f20003b5
:102398001b8e9ab241f20003c4f2000302210a43e1
:1023a80092b21a8600e0c04641f20003c4f200036c
:1023b8001a6980235b041340002bf4d041f60043d4
:1023c800c4f2000340f205129a6200e0c04641f6ea
:1023d8000043c4f200035b6810221340002bf5d1c0
:1023e80041f60043c4f2000340f20712c0f20202b1
:1023f8001a6200e0c04641f60043c4f200035b687d
:1024080004221340002bf5d1c046bd4602b080bd62
:1024180080b500af41f60043c4f200039022422188
:10242800995000e0c04641f60043c4f200039022f0
:102438009b5842221340002bf4d042f60023c4f2ea
:10244800000301221a7000e0c04642f60023c4f2dd
:1024580000035b6801221340002bf5d142f60023ec
:10246800c4f200030f225a63c046bd4680bd80b542
:1024780000af42f60023c4f200031b78dab242f63a
:102488000023c4f2000302210a43d2b21a7000e00a
:10249800c04642f60023c4f200035b6802221340e0
:1024a800002bf5d1c046bd4680bd80b500af40f2d7
:1024b8000023c4f2002301221a70c046c046c04659
:1024c800c046bd4680bd80b500af43f20023c4f2cc
:1024d800000348f200025a6143f20023c4f20003e9
:1024e80048f200029a6043f20023c4f200034f222c
:1024f80000219954c046bd4680bd80b586b000af66
:102508000200bb1d1a803b1d0a1c1a8010217b1873
:1025180000221a607b1800225a6008203b1800220b
:102528001a603b1800225a603b1d00229b5edb4369
:102538001bb2ba1d0020125e13401ab2bb1d1a80ce
:10254800bb1d1b880122134033b17b181b6848f25e
:1025580000021a437b181a603b1d1b880122134096
:102568003bb108217b181b6848f200021a437b180c
:102578001a6043f20023c4f200031022ba1812684a
:102588009a6143f20023c4f200030822ba181268c1
:102598005a61c046bd4606b080bd80b500af40f266
:1025a800cc43c2f200031b889bb2032293439ab226
:1025b80040f2cc43c2f200031a8042f60023c4f270
:1025c80000039b6b0422134073b940f2cc43c2f260
:1025d80000031b889bb2012213439ab240f2cc43fa
:1025e800c2f200031a800de040f2cc43c2f20003ad
:1025f8001b889bb2022213439ab240f2cc43c2f228
:1026080000031a8042f60023c4f200035a6942f616
:102618000023c4f2000304210a435a61c046bd46a0
:1026280080bd80b500af43f20023c4f200038022ce
:1026380012045a6043f20023c4f200035722032114
:10264800995443f20023c4f200033b229b5cdab2a4
:1026580043f20023c4f200030f210a40d1b23b2207
:10266800995442f60023c4f200031a6b42f6002381
:10267800c4f2000304210a431a6342f60023c4f299
:102688000003da6942f60023c4f200030c490a4049
:10269800da6142f60023c4f20003da6942f6002345
:1026a800c4f2000340f600310a43da6142f600231f
:1026b800c4f2000304221a61c046bd4680bdc0466c
:1026c800fff0ffff80b582b000afba1d40f2cc43e7
:1026d800c2f200031b88138040f2cc43c2f200030d
:1026e80000221a80bb1d1b881800bd4602b080bda1
:1026f80080b500afbff35f8f62b603210520fff7f7
:1027080058fd01235b4203211800fff752fd052005
:10271800fff72efd01235b421800fff729fdc04695
:10272800bd4680bd80b500affff7bafdfff7bdfe1f
:10273800fff76efefff775fffff7c5fe00f07efda1
:1027480001f038fe01f050fcfff791fe02f04dfa5f
:10275800fff7ceffc046bd4680bd80b582b000af52
:102768003b00180002f079fa3b00180000f0a9febf
:102778003b00180001f07cff3b00180001f09cfdb5
:08278800c046bd4602b080bd51
:020000040000fa
:10279000f0b58fb002aff860b9607a60fb6833b112
:1027a000fb68180004f0f8fa0300052b0ad846f27b
:1027b0002013c0f200037968b8681a0004f010fb17
:1027c00000235ae01c203b1800210a1c1a80022218
:1027d000995418257b1900210a1c1a800222995449
:1027e0001426bb1900210a1c1a8002229954f96888
:1027f00004003b180222180004f076fbfb68991cc9
:102800007b190222180004f06ffbfb68191dbb192d
:102810000222180004f068fb3b19180004f0d8f8f5
:102820000300bb627b19180004f0d2f803007b623e
:10283000bb19180004f0ccf803003b62bb6a0833f4
:10284000fb62fb6a172b03ddfb6a183bfb6205e0aa
:10285000fb6a002b02dafb6a1833fb62fc6a46f261
:102860002c12c0f200027968b8683b6a01937b6a57
:102870000093230004f0b4fa01231800bd460db004
:10288000f0bd90b58db000af786039607b6813b152
:102890007b681b7813b90023002453e07b68180081
:1028a00004f07afa02003b689a4202d20023002424
:1028b00048e03a68796818243b19180004f014fbc2
:1028c00021007a183b68d31800221a707b18180070
:1028d00004f016fb03000c00bb62fc627b6818006e
:1028e00004f05afa02003b689a420cd93b687a68b5
:1028f000d11808243b190f22180004f0f5fa3b19ef
:102900000022da7303e00823fb1800221a70082360
:10291000fb18180004f0f4fa03000c003b627c6220
:1029200000220023c4f24e03386a796a03f088fa61
:1029300003000c0018002100ba6afb6a02f092ff43
:1029400003000c0018002100bd460db090bdb0b5cd
:10295000e2b004aff860b9607a60fb681bb1bb6895
:102960000bb17b680bb90023d9e1bb6800221a7058
:1029700046f23c13c0f20003f8680722190004f085
:10298000a8f903000bb10023c9e1f968bc243b1985
:102990006b22180004f0a8fa3b196b22002199540d
:1029a000002340f27412ba18136011e0a023fa1841
:1029b00040f274103b181b68990046f24413c0f2b1
:1029c00000038b500200bb181b680133ba18136058
:1029d00040f27413fb181b68062be7ddbc23fb18c1
:1029e000073340f27012b9180b60002340f26c11eb
:1029f00079180b60bb181b6840f26812ba18136094
:102a000037e040f27012bb181b681b782c2b04d0e7
:102a1000bb181b681b782a2b24d140f267143b1982
:102a200040f270103a18126812781a703b181b683e
:102a300000221a7040f26c117b181b685a1c79181e
:102a40000a60a022ba189b0040f26815791909683b
:102a500099503b181b6801337a1913603b191b7896
:102a60002a2b13d040f27012bb181b680133ba181e
:102a7000136040f27013fb181b681b783bb140f2e7
:102a80006c13fb181b68062bbbdd00e0c04640f250
:102a900068117b181b681b78c3b140f26c103b189f
:102aa0001b68062b12dc7b181a6840f27013fb18a7
:102ab0001b689a420ad23b181b685a1c38180260dd
:102ac000a022ba189b00791809689950a022bb1857
:102ad0001b6840f2601179180b60bb185b6840f20c
:102ae0005c1179180b60bb189b6840f2581179187b
:102af0000b60bb18db6840f2541179180b6040f290
:102b00006c13fb181b68042b02ddbb181b6903e068
:102b100046f24413c0f2000340f25012b9180b60a1
:102b20009423f918bb181b680c221800fff730fe1d
:102b300040f26013fb181b681a7840f24f13fb1821
:102b4000511e8a411a7040f25c12bb181b681b7838
:102b50005bb1bb181b681b784e2b04d0bb181b68dd
:102b60001b78532b01d1012200e0002240f24e15c8
:102b70007b191a701a7801210a401a7040f24f131b
:102b8000fb181b7883b340f26013fb181b6802210b
:102b90001800fff776fe03000c0040f24012ba184e
:102ba000136054607b191b782bb140f25c13fb1847
:102bb0001b681a7800e02d2240f23f117b181a7032
:102bc0007b181b7846f24812c0f200025421781894
:102bd000029340f24013fb185c681b680093019459
:102be000402104f0fdf809e046f25c13c0f2000356
:102bf0005422b8181a00402104f0f2f840f2581399
:102c0000fb181b681a7840f23e13fb18511e8a41cc
:102c10001a7040f25412bb181b681b785bb1bb18ca
:102c20001b681b78452b04d0bb181b681b78572bdf
:102c300001d1012200e0002240f23d157b191a70fb
:102c40001a7801210a401a7040f23e13fb181b78d3
:102c500083b340f25813fb181b6803211800fff7d9
:102c600010fe03000c0040f23012ba1813605460da
:102c70007b191b782bb140f25413fb181b681a7890
:102c800000e02d2240f22f117b181a707b181b7860
:102c900046f27812c0f2000214217818029340f232
:102ca0003013fb185c681b6800930194402104f00a
:102cb00097f809e046f28c13c0f200031422b8180a
:102cc0001a00402104f08cf89423fc1846f2ac1250
:102cd000c0f200027968b86846f2bc13c0f2000383
:102ce00002931423fb1801935423fb180093230031
:102cf00004f076f8030040f22812b9180b60bb18f4
:102d00001b68002b06ddbb181b687a689a4201d944
:102d1000012300e000231a1c01231340dbb218003a
:062d2000bd465eb0b0bd2f
:020000040000fa
:022d2600fee7c6
:020000040000fa
:102d280080b582b000af78607b6826220021180049
:102d380004f07cf87b682122002199547b682022ca
:102d4800002199547b6800229a84c046bd4602b08f
:102d580080bd80b582b000af786039603b682122c1
:102d68009b5c1a0045f26863c0f20003786819009a
:102d7800fdf708fa3b682122002199543b6820227c
:102d8800002199543b6800229a843b6800225a84a7
:102d9800c046bd4602b080bd90b587b000aff860b0
:102da800b9603b60fb1d1a70bb6820229b5c1f2b1f
:102db80017d9bb6821229b5c9bb1bb6820229b5c16
:102dc8001a0045f2a063c0f20003f8681900fdf785
:102dd800d9f9ba68fb6811001800fff7baff062393
:102de80028e2bb6821229b5c062b00d90be29a00e3
:102df800844bd3181b689f46fb1d1b78422b00d0c1
:102e080014e2bb68fa1d12781a70bb6820220121ef
:102e18009954fb1d1b789ab2bb689a84bb6821221f
:102e28000121995402e2fb1d1b784d2b1ad1bb6876
:102e380020229b5c5a1cd0b2ba6820215054190039
:102e4800bb68fa1d12785a54bb689a8cfb1d1b7814
:102e58009bb2d3189ab2bb689a84bb68212202211c
:102e68009954e6e1fb1d1a7845f2d463c0f20003d9
:102e7800f8681900fdf786f9ba68fb6811001800b0
:102e8800fff767fffb1d1b78422b09d13c68fb1d30
:102e98001a78b968f8682300fff77eff0300c9e1d4
:102ea8000423c7e1bb6820229b5c5a1cd0b2ba68d5
:102eb800202150541900bb68fa1d12785a54bb6877
:102ec8009a8cfb1d1b789bb2d3189ab2bb689a8464
:102ed800fb1d1b789bb21b029ab2bb685a84bb6865
:102ee800212203219954a4e1bb6820229b5c5a1c2f
:102ef800d0b2ba68202150541900bb68fa1d127864
:102f08005a54bb689a8cfb1d1b789bb2d3189ab293
:102f1800bb689a84bb685a8cfb1d1b789bb2134311
:102f28009ab2bb685a84bb685b8c1a00bb685b8c1e
:102f380045f21071c0f20001f868fdf723f9bb688b
:102f48005b8c3bb1bb685b8c1c2b03d8bb685b8c70
:102f5800012b12d8bb685b8c1a0045f24073c0f293
:102f68000003f8681900fdf70df9ba68fb6811004d
:102f78001800fff7eefe05235ce1bb68212204215f
:102f8800995456e1bb6820229b5c5a1cd0b2ba689f
:102f9800202150541900bb68fa1d12785a54bb6896
:102fa80020229b5c1a00bb685b8c02339a4208dcc7
:102fb800bb689a8cfb1d1b789bb2d3189ab2bb686e
:102fc8009a84bb6820229b5c023bba68528c93426d
:102fd80000d02de1bb6821220521995428e1bb6866
:102fe80020229b5c5a1cd0b2ba6820215054190088
:102ff800bb68fa1d12785a54bb68212206219954dd
:1030080017e1c04648580000bb6820229b5c5a1c48
:10301800d0b2ba68202150541900bb68fa1d127842
:103028005a54bb6820229b5c023bba68d35c1b02e3
:103038001ab2bb6820215b5c013bb968cb5c1bb250
:1030480013431ab216217b181a80bb689b8c1a008e
:103058000c007b181b8845f26c71c0f20001f868ff
:10306800fdf790f8bb689b8c3a1912889a4200d0f9
:10307800b8e045f29873c0f20003fa68190010002e
:10308800fdf780f8bb685b8c1b2b00d897e0bb680a
:103098001b791b021ab2bb685b791bb213431bb2c4
:1030a8009ab23b681a80bb689b791b021ab2bb684c
:1030b800db791bb213431bb29ab23b685a80bb68d8
:1030c8001b7a1b021ab2bb685b7a1bb213431bb292
:1030d8009ab23b689a80bb689b7a1b021ab2bb689b
:1030e800db7a1bb213431bb29ab23b68da80bb6827
:1030f8001b7b1b021ab2bb685b7b1bb213431bb260
:103108009ab23b681a81bb689b7b1b021ab2bb68e8
:10311800db7b1bb213431bb29ab23b685a81bb6874
:103128001b7c1b021ab2bb685b7c1bb213431bb22d
:103138009ab23b689a81bb689b7c1b021ab2bb6837
:10314800db7c1bb213431bb29ab23b68da81bb68c3
:103158001b7d1b021ab2bb685b7d1bb213431bb2fb
:103168009ab23b681a82bb689b7d1b021ab2bb6885
:10317800db7d1bb213431bb29ab23b685a82bb6811
:103188001b7e1b021ab2bb685b7e1bb213431bb2c9
:103198009ab23b689a82bb689b7e1b021ab2bb68d4
:1031a800db7e1bb213431bb29ab23b68da82ba6861
:1031b800fb6811001800fff7ccfd00233ae0bb685c
:1031c8005b8c1a0045f2b073c0f20003f86819006e
:1031d800fcf7d8ffba68fb6811001800fff7b9fdc3
:1031e800052327e045f2f073c0f20003fa681900de
:1031f8001000fcf7c7ffba68fb6811001800fff75a
:10320800a8fd032316e0bb6821229b5c1a0045f643
:103218001c03c0f20003f8681900fcf7b3ffba6892
:10322800fb6811001800fff794fd02e0c04600e0bb
:0c323800c04601231800bd4607b090bd41
:020000040000fa
:1032440080b500af41f60043c4f20003d02242210e
:10325400995000e0c04641f60043c4f20003d02276
:103264009b5840221340002bf4d040f26843c2f232
:1032740000032c220021180003f0dafd40f2684319
:10328400c2f2000341f20002c4f200221a6041f2c9
:103294000003c4f2002301221a6000e0c04641f298
:1032a4000003c4f20023db6901221340002bf5d193
:1032b40041f20003c4f2002304221a6041f2000325
:1032c400c4f20023196841f20003c4f2002300226f
:1032d400c4f210020a431a6041f20002c4f200224e
:1032e40041f20003c4f2002352685a6041f2000321
:1032f400c4f200232c4a9a8140f26843c2f20003cc
:1033040000225a6240f26843c2f200034ef6c2320f
:10331400c0f20b029a6241f20003c4f200235a681d
:1033240041f20003c4f20023c32109040a435a6092
:1033340000e0c04641f20003c4f20023db6904222a
:103344001340002bf5d143f20023c4f2000384227e
:1033540040f20031995043f20023c4f20003c82222
:103364000321995443f20023c4f20003b42203213d
:10337400995441f20003c4f200231a6841f2000395
:10338400c4f2002302210a431a6000e0c04641f25d
:103394000003c4f20023db6902221340002bf5d1a1
:1033a400c046bd4680bdc0462bf6ffff80b582b047
:1033b40000af78607b685b6963b17b685b690122fd
:1033c400da807b685b697a68128c92b21a817b68b6
:1033d40000225a617b6800229a617b680022da61cc
:1033e4007b6800221a84c046bd4602b080bd80b509
:1033f40086b000af786039601623fb1800221a806b
:103404001523fb1800221a707b681b681b7edbb235
:103414001a0001231340002b51d07b681b8a9bb2f6
:1034240083b17b68db68591c7a68d1601b78dab297
:103434007b681b689a627b681b8a9bb2013b9ab2c9
:103444007b681a827b681b8a9bb2002b37d17b680e
:103454000022da607b681b899bb22bb37b685b68b4
:103464001a687b68da607b685b689b889ab27b68c1
:103474001a827b685b6808331a007b685a607b6831
:103484001b899bb2013b9ab27b681a817b68db681b
:103494001bb17b681b8a9bb28bb97b680022da6004
:1034a4007b6800221a820ae07b681b6801221a7575
:1034b4007b6800225a607b680022da60c046c046fe
:1034c400bd4606b080bd80b582b000af78607a6832
:1034d40040f26843c2f2000311001800fff787ffaf
:1034e400c046bd4602b080bd80b582b000af7860f2
:1034f4007b681b8a9bb25bb97b681b899bb23bb917
:103504007b681b681b7edbb21a00012313400bb9d6
:10351400012300e000231a1c01231340dbb218002e
:10352400bd4602b080bd80b588b000aff860b96018
:103534007a601e23fb18082252421a80bb680bb122
:103544007b680bb901233ae07b68202b01d9002367
:1035540035e0fb681800fff7c7ff03000bb1002339
:103564002de00023bb6100237b611ce0bb69db0011
:10357400ba68d3189b881e22ba1812889a4201d2bc
:1035840000231ce0bb69db00ba68d3189a881e21ab
:103594007b18791809888a1a1a807b6901337b6140
:1035a400bb690133bb61ba697b689a42ded3fb68ad
:1035b400ba685a607b689ab2fb681a8101231800c2
:1035c400bd4608b080bd80b582b000af78607b682e
:1035d40000221a817b6800225a607b6800221a82ca
:1035e4007b680022da60c046bd4602b080bd80b56b
:1035f40082b000af786039603a68796840f2684315
:10360400c2f200031800fff78eff03001800bd4646
:1036140002b080bd80b500af40f26843c2f200033f
:103624001800fff761ff03001800bd4680bd80b598
:1036340000af40f26843c2f200031800fff7c3ff73
:10364400c046bd4680bd80b582b000af78607b685f
:103654005b695a1e9341dbb21800bd4602b080bdbf
:1036640080b582b000af786039603b685bb13b687d
:103674001b6843b13b689b882bb13b689b884ff622
:10368400f872934201d9002316e07b685b690bb1a1
:10369400002311e03b680022da803b6800221a8193
:1036a4007b6800221a847b681833180001f0d7fa6b
:1036b4007b683a685a6101231800bd4602b080bd98
:1036c40080b582b000af78607a6840f26843c2f295
:1036d400000311001800fff7c3ff03001800bd46e4
:1036e40002b080bd80b500af40f26843c2f200036f
:1036f4001800fff7a8ff03001800bd4680bd80b581
:1037040000af40f26843c2f200031800fff74efe18
:08371400c046bd4680bdc04661
:020000040000fa
:10371c00f0b59bb013930b6815900a934b680d9101
:10372c0002938b68ce680b930b69189313680693fe
:10373c0053680698089300220023089903f080f937
:10374c0060b90a9b5b0734d408200a9b0340099399
:10375c000b9b0393099b73b1202306e08022120676
:10376c009446089b634408932d2333700b9b013bb9
:10377c00039301230993089b06995b005b088e4a0f
:10378c00d9b9934219d1139b099a413bb018192b03
:10379c0011d88a4903f0a8fb300003f0f7fa0a9b12
:1037ac000200009331000b9b159802f0dafd1bb060
:1037bc00f0bd2b23d9e78249ece7934202d80bd119
:1037cc00069b4bb1139b099a413bb018192b01d89e
:1037dc007c49dfe77c49dde7002200230698089945
:1037ec0003f0eef90024794d0027e8bb070002e056
:1037fc000137049c059d0022754b2000290002f026
:10380c0029f9069a089b0490059103f0faf8002810
:10381c00eed0002304931fe06e4b9f4213da049bff
:10382c008bb900226c4b0698089902f013f96a4b7d
:10383c000690089120002900002202f00bf90123c8
:10384c0004000d000493200029000022604b02f0bc
:10385c00f1fa04000d00013f22002b000698089994
:10386c0003f0eef80028d7d1139803f022fbc3b273
:10387c000c93029b002b00da93e10c9b0493672bb7
:10388c0000d0afe0029b002b00d185e13b1d03db98
:10389c00029b9f4200daa1e06523b5e000220023e1
:1038ac000e920f9303e106940795049b0897652be2
:1038bc0000d01ce10023089319e1029b5bb9089b23
:1038cc00002b08da2e23149a0134b354039b013bca
:1038dc0003930123029323002a19302101e0f154b0
:1038ec0001339a42fbd1039a2b193030551b5c1cc7
:1038fc00f0546b1e0393002523e00d9b14941b695d
:10390c001093053ba34200d8fde0069a079b0e9846
:10391c00129902f08ffa02f0edfa1090119103f067
:10392c001bf9092800dd092010230a9a13400343d0
:10393c00002bc2d10c9b672bbfd1089b002bcada82
:10394c00013580200006844612990e9a61440b00c2
:10395c001098119900920193069a079b03f09afa1a
:10396c0080231b06cb180e90129306980799184bc0
:10397c00002202f05ffa089b06900791013b089326
:10398c00bce00a9bdb0600d4c1e02e233355013486
:10399c00bde00a2297fbf2f56a43ba1a3032013bba
:1039ac00f254039a2f00013a0392bde0039b325c60
:1039bc00f3181a540138e3e00000f07f806e000029
:1039cc00846e0000886e00008c6e00000000f03fda
:1039dc0000002440d4feffff00005043002f12daf9
:1039ec0066230493029b01330293049b662b0cd138
:1039fc00002f02da002400276d4d0c9b672b02d0a0
:103a0c00029bdb19029366230493069b0e940f957d
:103a1c001293089b1093002314930e9a0f9b1298e9
:103a2c00109902f007fa02f065fa1690179103f05c
:103a3c0093f819908020000684461099129a6144dc
:103a4c000b0016981799009201930e9a0f9b03f096
:103a5c0021fa80231b06cb181290109300220e988b
:103a6c000f99544b02f0e6f9149b0e900f91013311
:103a7c001493149a029b9342cfd100224e4b01f027
:103a8c00e9ff0e900f9102000b001298109902f0b2
:103a9c00d7ff002800d001e70e9a0f9b12981099bf
:103aac0003f08ef818b1199bdb0700d4f6e60e9ada
:103abc000f9b0698089901f0cffe00220e901291f0
:103acc003c4b2000290001f0c5ff0e9a129b06907a
:103adc00079102f0b1fe002800d1e4e6049b013707
:103aec00662b00d0e1e6029b089701330293002578
:103afc00029a089b099c9b1a16930295089b169a8e
:103b0c00934200d0f9e6029b002b00d139e700214b
:103b1c00049b30190170652b25d1189b013bf15486
:103b2c008f4201da7f420131002f00d031e7189a21
:103b3c009a1a0332002a00dd2be75d1e2d2201b9f3
:103b4c00023a7255139a023b413a192a01d845227e
:103b5c000492049af1180a70039a023a03929c4256
:103b6c0001da03f0c1f903230a9a1340022b00d0a7
:103b7c0012e6039b002b00dc0ee6300003f006f986
:103b8c00099b834200dc11e7f018039a302103f003
:103b9c004bf900230b93ffe50123029376e60623f2
:103bac00fbe70c9b672bfad004930623029319e7cf
:0c3bbc000000f03f000024400000144016
:020000040000fa
:103bc8001b5b306d0000c0461b5b324a0000c046dc
:103bd8001b5b313b314800001b5b4b001b5b316dad
:103be8000000c0461b5b33326d00c0461b5b33369a
:103bf8006d00c0461b5b306d1b5b324a1b5b313b63
:103c080031482b2d2d2d2d2d2d2d2d2d2d2d2d2dbf
:103c18002d2d2d2d2d2d2d2d2d2d2d2d2d2d2d2dcc
:103c28002d2d2d2d2d2d2d2d2d2d2d2d2d2d2d2dbc
:103c38002d2d2d2d2d2d2d2d2d2d2d2d2d2d2d2dac
:103c48002d2d2d2d2d2d2d2b0d0a7c204545452064
:103c58003139323a20456c656374726963616c204e
:103c6800616e6420456c656374726f6e696373205e
:103c7800456e67696e656572696e67204c61626f33
:103c88007261746f72792056492020202020207c90
:103c98000d0a7c2020202020202020202041636144
:103ca80064656d6963205965617220323032342d44
:103cb800323032352c2053656d657374657220324d
:103cc80020202020202020202020202020202020ec
:103cd800202020202020207c0d0a7c20202020204d
:103ce80020202020202020202020202020202020cc
:103cf80020202020202020202020202020202020bc
:103d080020202020202020202020202020202020ab
:103d18002020202020202020202020202020207c3f
:103d28000d0a7c20436f6d62696e65642050726f66
:103d38006a6563743a20475053204d6f64756c650b
:103d480020616e6420504d2053656e736f72202081
:103d5800202020202020202020202020202020205b
:103d6800202020202020207c0d0a7c2020202020bc
:103d7800202020202020202020202020202020203b
:103d8800202020202020202020202020202020202b
:103d9800202020202020202020202020202020201b
:103da8002020202020202020202020202020207caf
:103db8000d0a7c20417574686f72733a204465203f
:103dc80056696c6c612c20457374726164612c2097
:103dd800262052616d6f73202845454520313932c0
:103de800203253292020202020202020202020207d
:103df800202020202020207c0d0a7c20446174652e
:103e08003a20202020323032352020202020202047
:103e1800202020202020202020202020202020209a
:103e2800202020202020202020202020202020208a
:103e38002020202020202020202020202020207c1e
:103e48000d0a2b2d2d2d2d2d2d2d2d2d2d2d2d2ddf
:103e58002d2d2d2d2d2d2d2d2d2d2d2d2d2d2d2d8a
:103e68002d2d2d2d2d2d2d2d2d2d2d2d2d2d2d2d7a
:103e78002d2d2d2d2d2d2d2d2d2d2d2d2d2d2d2d6a
:103e88002d2d2d2d2d2d2d2b0d0a0d0a0000c04690
:103e980025735b4750535d2054696d653a2025733f
:103ea8002573207c204c61743a2025732573207c6f
:103eb800204c6f6e3a20257325730d0a0000c0460a
:103ec80025735b504d5d20504d312e303a202575bd
:103ed8002075672f6d33207c20504d322e353a20c7
:103ee80025752075672f6d33207c20504d31303a71
:103ef8002025752075672f6d330d0a0025735b47e4
:103f080050535d2054696d653a2025732573207cd4
:103f1800204c61743a202573207c204c6f6e3a2027
:103f28002573202025735b504d5d20504d312e3078
:103f38003a2025752075672f6d33207c20504d322f
:103f48002e353a2025752075672f6d33207c20503b
:103f58004d31303a2025752075672f6d3325730d47
:103f68000a00c04625735b4750535d20576169744a
:103f7800696e6720666f7220646174612e2e2e2030
:103f88002025735b504d5d20504d312e303a202551
:103f9800752075672f6d33207c20504d322e353ab1
:103fa8002025752075672f6d33207c20504d3130ca
:103fb8003a2025752075672f6d3325730d0a00008b
:103fc800475053001b5b33326d5b25735d201b5bd1
:103fd800306d00000d0a00001b5b33336d5b2573e9
:083fe8005d201b5b306d000041
:020000040000fa
:103ff00080b500af41f60043c4f20003c82242215d
:10400000995000e0c04641f60043c4f20003c822c4
:104010009b5840221340002bf4d040f21043c2f2d0
:1040200000032c220021180002f004ff40f210438c
:10403000c2f2000340f60002c4f200221a6040f609
:104040000003c4f2002301221a6000e0c04640f6db
:104050000003c4f20023db6901221340002bf5d1d9
:1040600040f60003c4f2002304221a6040f6000365
:10407000c4f20023196840f60003c4f200230022b2
:10408000c4f210020a431a6040f60003c4f200238f
:104090005a6840f60003c4f2002340210a435a60e4
:1040a00040f60003c4f200232c4a9a8140f21043e8
:1040b000c2f2000300225a6240f21043c2f200032f
:1040c0004ef6c232c0f20b029a6240f60003c4f20e
:1040d00000235a6840f60003c4f20023c3210904f8
:1040e0000a435a6000e0c04640f60003c4f20023d1
:1040f000db6904221340002bf5d143f20023c4f204
:104100000003842240f20031995043f20023c4f2ac
:104110000003c8220321995443f20023c4f2000390
:10412000b4220321995440f60003c4f200231a6814
:1041300040f60003c4f2002302210a431a6000e0a3
:10414000c04640f60003c4f20023db69022213409c
:10415000002bf5d1c046bd4680bdc0462bf6ffff03
:1041600080b582b000af78607b685b6963b17b68c3
:104170005b690122da807b685b697a68128c92b293
:104180001a817b6800225a617b6800229a617b68f1
:104190000022da617b6800221a84c046bd4602b064
:1041a00080bd90b589b000af786039601e217b1862
:1041b00000221a801d203b1800221a707b681b68a1
:1041c0001b7edbb21a00042313407bb17b681a68a4
:1041d0007b18528b1a807b187a18128837490a4349
:1041e0001a807b681b689a6a3b181a707b685b6947
:1041f000002b5dd01e23fb181b8848f203021340de
:1042000048f20002934213d17b685b691a687b68ad
:104210001b8c9bb2591c88b279680884d3181d2264
:10422000ba1812781a707b683a68183303ca03c345
:104230007b681b685b8b9bb21ab21e23fb180021a4
:104240005b5ef7210b401bb213431ab27b681b68fd
:1042500092b25a837b681b8c9ab27b685b699b889d
:104260009bb29a4204d37b681800fff779ff20e0e5
:104270007b681b8c9bb2ebb10c217a187b681833de
:1042800011cb11c27a18396814243b19180000f0b8
:104290002cfd7b6824331a003b191100180000f034
:1042a00028fc031e06db7b681800fff759ff00e0bf
:1042b000c046c046c046bd4609b090bd0080ffff65
:1042c00080b582b000af78607a6840f21043c2f2e5
:1042d000000311001800fff764ffc046bd4602b09e
:1042e00080bd80b582b000af78607b685b695a1e84
:1042f0009341dbb21800bd4602b080bd90b585b0d9
:1043000000af786039603b685bb13b681b6843b1c4
:104310003b689b882bb13b689b884ff6f8729342b1
:1043200001d900231be07b685b690bb1002316e019
:104330003b680022da803b6800221a817b680022f9
:104340001a8408243b19180000f08bfc7b683a198a
:10435000183303ca03c37b683a685a610123180003
:10436000bd4605b090bd80b582b000af78607a6878
:1043700040f21043c2f2000311001800fff7beff25
:1043800003001800bd4602b080bd80b500af40f20a
:104390001043c2f200031800fff7a3ff0300180048
:1043a000bd4680bd80b500af40f21043c2f20003ad
:0c43b0001800fff7d5fec046bd4680bdda
:020000040000fa
:1043bc0080b500af41f60043c4f20003c422422191
:1043cc00995000e0c04641f60043c4f20003c422f9
:1043dc009b5840221340002bf4d040f23c43c2f2d5
:1043ec0000032c220021180002f01efd40f23c4379
:1043fc00c2f2000340f20042c4f200221a6040f202
:10440c000043c4f2002301221a6000e0c04640f2cf
:10441c000043c4f20023db6901221340002bf5d1c9
:10442c0040f20043c4f2002304221a6040f200431d
:10443c00c4f20023196840f20043c4f200230022a6
:10444c00c4f210020a431a6040f20042c4f2002285
:10445c0040f20043c4f2002352685a6040f2004319
:10446c00c4f200232b4a9a8140f23c43c2f200036f
:10447c0000225a6240f23c43c2f200034ef6c232b2
:10448c00c0f20b029a6240f20043c4f200235a6855
:10449c0040f20043c4f20023c32109040a435a60ca
:1044ac0000e0c04640f20043c4f20023db69042262
:1044bc001340002bf5d143f20023c4f20003202259
:1044cc005a6043f20023c4f200034522032199549d
:1044dc0043f20023c4f2000332223021995440f2fb
:1044ec000043c4f200231a6840f20043c4f20023d4
:1044fc0002210a431a6000e0c04640f20043c4f2b5
:10450c000023db6902221340002bf5d1c046bd46c7
:10451c0080bdc0462bf6ffff80b582b000af78603f
:10452c007b685b6963b17b685b690122da807b68bd
:10453c005b697a68128c92b21a817b6800225a618c
:10454c007b6800229a617b680022da617b6800221a
:10455c001a84c046bd4602b080bd90b587b000af8e
:10456c007860396016217b1800221a8015203b18c0
:10457c0000221a707b681b681b7edbb21a000423b6
:10458c00134063b17b681b685b8b9ab27b1836490e
:10459c000a431a807b681b689a6a3b181a707b68fe
:1045ac005b69002b59d01623fb181b8848f20302b9
:1045bc00134048f20002934213d17b685b691a687e
:1045cc007b681b8c9bb2591c88b279680884d31801
:1045dc001522ba1812781a707b683a68183303ca15
:1045ec0003c37b681b685b8b9bb21ab21623fb1848
:1045fc0000215b5ef7210b401bb213431ab27b68a0
:10460c001b6892b25a837b681b8c9ab27b685b697d
:10461c009b889bb29a4204d37b681800fff77cffff
:10462c001ce07b681b8c9bb2cbb17b6818331a00e7
:10463c0039680c243b19180000f051fb7b682433bb
:10464c001a003b191100180000f04dfa031e06db8e
:10465c007b681800fff760ff00e0c046c046c0460c
:10466c00bd4607b090bdc0460080ffff80b582b04c
:10467c0000af78607a6840f23c43c2f2000311004c
:10468c001800fff76affc046bd4602b080bd80b57a
:10469c0082b000af78607b685b695a1e9341dbb2d5
:1046ac001800bd4602b080bd80b582b000af786006
:1046bc0039603b685bb13b681b6843b13b689b88c6
:1046cc002bb13b689b884ff6f872934201d90023bb
:1046dc0016e07b685b690bb1002311e03b6800229c
:1046ec00da803b6800221a817b6800221a847b687e
:1046fc001833180000f0affa7b683a685a6101234e
:10470c001800bd4602b080bd80b582b000af7860a5
:10471c007a6840f23c43c2f2000311001800fff724
:10472c00c3ff03001800bd4602b080bd80b500afca
:10473c0040f23c43c2f200031800fff7a8ff03004d
:10474c001800bd4680bd80b500af40f23c43c2f2bc
:10475c0000031800fff7e0fec046bd4680bdc04612
:020000040000fa
:10476c000023f0b506001500b1b00791039307992b
:10477c000b78002b00d10ae101235b420c9310aba8
:10478c0000240e9380230b940d940f930b5d0bb1af
:10479c00252b29d134b12200300002f080fa079b7e
:1047ac001b190793079b1a78252a00d0e4e040f2e6
:1047bc00020c012110270133049307930798037807
:1047cc002b2b1ad025d8202b1ad0232b1dd02a2bdb
:1047dc0028d002f0f7f80d90079b1a78303a092a86
:1047ec0031d801330793f7e70134cfe70b9b0593df
:1047fc000b4301300b930790e0e704230b9a0fe077
:10480c000b9b0593059a08230ae00b9b05933b43ee
:10481c00efe72d2bead0302bd9d162460b9b0593b9
:10482c001343e6e72b6801301a1d1b6807902a60ba
:10483c000d93002b07da0b9a5b4205920122059926
:10484c000d934a400b920b9bda0702d5022293433d
:10485c000b93079b1a782e2a0ed10022581c0c920f
:10486c0007905a782a2a27d1023307932b681a1dee
:10487c001b682a6005930c9307a802f039f9079b73
:10488c000700187802f015fb692800d182e034dcaf
:10489c00632800d1d7e01adc252800d1e4e0612898
:1048ac0058d0049b01220793002352420c920b9385
:1048bc000d9300930232e1e002f084f80c90079b18
:1048cc001a78303a092ad7d801330793f7e76428c6
:1048dc0060d06728e5dc2a00390008a802f0caf984
:1048ec00002800d1abe0079b0ba95a1c07921b7840
:1048fc0008aa3000fef70cff3de0702800d17be0e9
:10490c0016dc6e2800d193e06f28cad12b00002250
:10491c00390008a801f04cfb002800d18fe0079b60
:10492c0008aa01330ba93000079302f015fb22e013
:10493c00752840d078284ed07328b2d1802f00d063
:10494c007de0079b2a6801330793131d2b601268c7
:10495c00002384e02a00390008a802f08bf9002813
:10496c0000d16ce0079b0ba95a1c07921b7808aa74
:10497c00300002f0f3fa2418039b1c19a34200dc4c
:10498c007ee04f223f4b1a6001235b420393039856
:10499c0031b0f0bd2b000122390008a801f008fb52
:1049ac0000284cd0079b08aa01330ba930000793b1
:1049bc0001f059fbdfe72b000022390008a801f0b9
:1049cc00f7fae0b3079b08aa01330ba93000079351
:1049dc0001f0d0fdcfe72b000022390008a801f030
:1049ec00e7fa60b3079b5a1c07921b7808aa0ba91d
:1049fc00300001f087f9bee72b000022f02108a857
:104a0c0001f0d6fad8b1079b099a01330793089b9a
:104a1c0013435bb91c4802f0b9f902000b9b1a490d
:104a2c0000930d9b300001f09cfca4e77823dde79c
:104a3c00039b39001a1908a82b0001f009fd079bec
:104a4c000133079398e7802ff9d1079b0133079324
:104a5c002b681a1d1b682a6008aa137001230ba966
:104a6c00300001f02dfe86e7802fe8d10122079b54
:104a7c00013307930b9b049300930d9b0349d1e7e0
:104a8c00039474e6c40400201e6f0000246f000021
:020000040000fa
:104a9c0080b582b000af786019e07b685b6843f248
:104aac000062ccf265429a187b685a607b681b687e
:104abc00013305d07b681b685a1c7b681a6006e0c2
:104acc007a684cf6ff13c3f69a33536007e07b68a1
:104adc005a684cf6ff13c3f69a339a42ddd8c04697
:104aec00bd4602b080bd80b582b000af7860396041
:104afc007b681a683b681b689a4202d201235b42ae
:104b0c0019e07b681a683b681b689a4201d901233b
:104b1c0011e07b685a683b685b689a4202d20123b9
:104b2c005b4208e07b685a683b685b689a4201d933
:104b3c00012300e000231800bd4602b080bd80b503
:104b4c0082b000af3a0040f2b043c2f2000303cb94
:104b5c0003c23b005b6844f64032c0f24c029a1828
:104b6c003b005a600de03b005b6843f20062ccf204
:104b7c0065429a183b005a603b001b685a1c3b006c
:104b8c001a603b005a684cf6ff13c3f69a339a42ec
:104b9c00e9d840f2b843c2f200031b685a1c40f239
:104bac00b843c2f200031a6040f2b043c2f20003f1
:104bbc003a0003ca03c340f2b843c2f200031b68b5
:104bcc005a1c40f2b843c2f200031a604ef21003b2
:104bdc00cef2000348f25812c0f215029a60c04699
:104bec00bd4602b080bd80b500af4ef21003cef2d0
:104bfc0000034ef660225a604ef21003cef2000310
:104c0c0048f25812c0f215029a604ef21003cef21e
:104c1c00000307221a60c046bd4680bd80b584b033
:104c2c0000af786040f2b843c2f200031b68fb602f
:104c3c007a6840f2b043c2f2000303cb03c240f2e5
:104c4c00b843c2f200031b68fa689a42ead1c04624
:104c5c00bd4604b080bd90b587b000af78604ef211
:104c6c001003cef200039b684ef66022d31a7b61d0
:104c7c000c243b191800fff7d1ff20003b18596892
:104c8c007a6913005b019b1a9b009b18db001a00ce
:104c9c000c23b2fbf3f3ca183b185a600ee00c213c
:104cac007b185b6843f20062ccf265429a187b1861
:104cbc005a607b181b685a1c7b181a600c217b18d5
:104ccc005a684cf6ff13c3f69a339a42e7d87b68be
:104cdc007a1803ca03c3c046bd4607b090bd80b561
:104cec0088b000aff860b9607a6014217b1800229c
:104cfc001a607b1800225a600023fb61bb681a689b
:104d0c007b681b689a4207d2bb681a687b681b6871
:104d1c00d21a7b181a6007e0bb681a687b681b689c
:104d2c00d21a1423fb181a60bb681a687b681b68bc
:104d3c009a4233d27b681a68bb681b68d31afb6132
:104d4c0015e0fb6943f2006cccf2654c6344fb61eb
:104d5c001422bb181b6823b9bb18012252421a60db
:104d6c0005e014217b181b685a1e7b181a60fa691f
:104d7c004cf6ff13c3f69a339a42e2d81422bb18ae
:104d8c001b6823b9bb18012252421a600ee0142191
:104d9c007b181b685a1e7b181a6007e0bb685a68a0
:104dac007b685b68d21a1423fb185a60fb681422c8
:0e4dbc00ba1803ca03c3c046bd4608b080bd86
:020000040000fa
:024dca00704730
:020000040000fa
:104dcc00f0b54e4657464546de469046e0b51600d1
:104ddc001f0002000b0012184b41bf4a85b08146e0
:104dec00934200d952e134003d000023a4197d41c7
:104dfc000022cff6e07312196b410024cff6c07479
:104e0c00a34200d942e100d13de1002300240093ec
:104e1c000194cb0fdb077c0001934d006308c24665
:104e2c000393cb466d089d4200d8bae02b0d9c46ef
:104e3c00002b50d080200903090b40030843039931
:104e4c004a46090d0300894600297ad080253c0387
:104e5c00240b6d0325434046290066464f46e14529
:104e6c0000db20e114001d00241a8d41002d06db0f
:104e7c0023002b43002b00d19de022002b00013e90
:104e8c0092185b41be42edd1b94614001d00241aa4
:104e9c008d41002d06db23002b43002b00d18ae033
:104eac0022002b00802040030100184206d1484606
:104ebc0092185b4101381942fad0814649464c1e82
:104ecc0000d5f2e00020210580185941009b019c7f
:104edc00c018614171e02a00002d00d1a3e04ff60b
:104eec00ff739d4200d9d6e040f2180910232a0422
:104efc007a4ca24201d84b461202794ca24201d8fc
:104f0c0004331201774ca24201d802339200d243ef
:104f1c00d20f9a180b235b429c4694442b3a914631
:104f2c0000d5a6e005004c46a5402b0001006046cc
:104f3c0081400a0041428c460399090d894600299b
:104f4c0084d10398010000283ed04ff6ff708142b7
:104f5c0000d9a4e040f21808102009045f4da942c2
:104f6c0001d8404609025e4da94201d8043009011e
:104f7c005c4da94201d802308900c943c90f4118c0
:104f8c000b2040428146203889440d183fd4340010
:104f9c00ac4021004d463400ac4020006c42a14690
:104fac005be79d4202d1c14500d93fe7da4504d108
:104fbc00039bab4201d10098019905b03cbc9046d3
:104fcc009946a246ab46f0bd40464ff6ff78082501
:104fdc00c24502d8102130041035404ca04201d8f3
:104fec00290000023e4da84201d8043100013d4d7c
:104ffc00a84201d802318000c043c00f09180b2011
:10500c00404281462031203889440d18bfd548468e
:10501c0020213500091acd40039ca846844021006c
:10502c0044462143b6e74ff6ff7c4b4640f2080955
:10503c00e34503d840f2180910220304274ca3427d
:10504c0001d84a461b02264ca34201d804321b014c
:10505c00244ca34201d802329b00db43db0fd21855
:10506c000b235b429c46203294442b3a914600d44d
:10507c0058e76246202364469b1aa5400200da409a
:10508c002b00134352e7002a00d1bee6002100207a
:10509c00c7f6f87191e740f20809002328e740f2bf
:1050ac00080800205ae7e146efe648460121091ab4
:1050bc0020204042081807d41c00c4402000cb40dc
:1050cc00020000210020ffe620201c00401a844032
:1050dc001000c8402043f2e7ffffdfffffffff0097
:0850ec00ffffff0fffffff3f74
:020000040000fa
:1050f400f0b585b000930393009b02900c0016005a
:10510400150001900f00002b00d0c9e08a424ad953
:10511400100001f0b9fc48b12023019f1b1adf40a5
:10512400019b84408340854027430193aab22b0c02
:10513400b7fbf3f1160094461a004a434e43bf1ad4
:10514400019a3f04140c27430a00be4207d97f1971
:10515400013abd4203d8be4201d98a1e7f19be1b43
:10516400b6fbf3f14b436446f61a6b464c439b88fb
:1051740036041e430f00b44207d97619013fb542e5
:1051840003d8b44201d98f1e76191204341b3a4352
:105194000a9b23b1c4401c6000230a994b60100091
:1051a400009905b0f0bd02b9ffde100001f06cfcff
:1051b400b8bb0123a41b00932b0cb4fbf3f21f0018
:1051c40011005743aeb27143e41b019f24043f0c0a
:1051d4003c439446a1420ad9012764197f42bc4446
:1051e400a54204d8a14202d9023a94466419641a29
:1051f400b4fbf3f77b43e41a6b467e439b88240499
:105204001c433900a64207d964190139a54203d8c1
:10521400a64201d9b91e641963461a04a41b0a43a1
:10522400b6e7202223000199121ad3408440d140ca
:10523400019a8540824021438c46290cb3fbf1f44a
:1052440001920a00624326009b1a6246afb27e4373
:10525400120c1b04134322009e4207d95b19013a26
:105264009d4203d89e4201d9a21e5b199b1bb3fb2e
:10527400f1f671435b1a614677438cb21b041c43fd
:105284003100a74207d964190139a54203d8a742be
:1052940001d9b11e641912040a43e41b00928be77e
:1052a400009b8b420ad90a9b002b00d1abe0029ae7
:1052b40059601a60002300931a0070e7039801f004
:1052c400e3fbd8b9039ba34203d3029b02009e4293
:1052d4000ad8029b01229e1b039b0196e41a029b9f
:1052e400b342ad416d42671b0a9b0093002b00d172
:1052f40055e7019982c30023009350e720231b1a2a
:1053040001933300019a039fd34087401f43230036
:105314000199d340029a8440ca4022439446029a97
:10532400390c8240b3fbf1f402920a0086406243d6
:10533400009626009b1a6246bdb26e43120c1b04f3
:10534400134322009e4207d9db19013a9f4203d836
:105354009e4201d9a21edb199e1bb6fbf1f46346e3
:1053640061436543761a360499b20e432300b5426d
:1053740007d9f619013bb74203d8b54201d9a31e98
:10538400f61912041a436b461c88009b711b8c4649
:10539400190c230096b2150c6c4373434d437143af
:1053a4001e0c091971188c4202d9802464022d192b
:1053b4000c0c9bb209046519c918ac4503d30bd175
:1053c400029b8b4208d2009b013ace1ab14289411a
:1053d4004942cf193100ed1b0a9b0093002b00d1e9
:1053e400dde6029b019c591a63465d1b029b8b42be
:1053f4009b415b42ed1a2b00c140a340c5401943b9
:0a5404000a9b22c377e70a9b55e7d5
:020000040000fa
:10540e00f0b5002485b00194a14207da04000d0026
:10541e0000216042a941012464420194002b07da65
:10542e00019c1d00e4430194140000236242ab4131
:10543e0014001e0000900f00002b00d092e08a4254
:10544e004ad9100001f01bfb48b12023009a1b1a09
:10545e00da40009b87408340844017430093220c20
:10546e00b7fbf2f0150003004543a1b24b437f1b7f
:10547e00009d3f042d0c2f438446bb420ad90125c3
:10548e003f196d42ac44bc4204d8bb4202d902382b
:10549e0084463f19ff1ab7fbf2f06b464243414375
:1054ae00bf1a1d883f043d430200a94206d9651963
:1054be00013aac4202d8a94200d9821e63461b04af
:1054ce0013431800019b310023b103003400002167
:1054de005842a14105b0f0bd02b9ffde100001f047
:1054ee00cefa10b93f1b0126b9e720213a00009be6
:1054fe00091aca40cb400099844081400091210c8a
:10550e008740b2fbf1f00e00050046433b43a7b2c5
:10551e007d43921b12041e0c3243ac46060095428c
:10552e0007d91219013e944203d8954201d9861e1d
:10553e0012196046121ab2fbf1f041434743521a58
:10554e0012049bb2134302009f4207d91b19013a62
:10555e009c4203d89f4201d9821e1b193604df1bc1
:10556e0016437ce78b4272d8180001f088fa38b9de
:10557e00be426fd30300009aa24243410026a0e729
:10558e00202322001b1ada40864016433a00009967
:10559e008440da408740d9400294340c3943b2fb40
:1055ae00f4f73b000391b1b24b439c4623007b437f
:1055be00d21a039b12041b0c1a433b00944507d9c5
:1055ce009219013b964203d8944501d9bb1e9219fc
:1055de006546521bb2fbf4f77c43121b6c467943b3
:1055ee00a489120422433c00914207d99219013c2e
:1055fe00964203d8914201d9bc1e92196d462e894e
:10560e001b04370023439cb26743029d511a2d0c95
:10561e001a0c56436c436a433d0cac46a4196444c1
:10562e00a64202d980256d025219260cb21891425b
:10563e000bd30026914200d043e7009d2404bfb255
:10564e00e4198540a54200d33be7013b96e70026cf
:0a565e00330036e70600012333e7ae
:020000040000fa
:105668005061727365723a20526573657474696e1d
:1056780067207061636b65742073746174652e2094
:1056880043757272656e74207374617465207761f6
:10569800732025640d0a00005061727365722045fd
:1056a80052523a20427566666572206f7665726658
:1056b8006c6f77206265666f7265207265736574ba
:1056c8002e204964783a2025640d0a0050617273cf
:1056d8006572204552523a20457870656374656456
:1056e80020534232202830783444292c20676f74a4
:1056f800203078253032582e2052657365747469cd
:105708006e672e0d0a00c0465061727365723a20aa
:105718004578706563746564207061796c6f616445
:10572800206c656e203d2025752028307825303482
:1057380058290d0a0000c0465061727365722045f1
:1057480052523a20496e76616c6964206c656e67c6
:1057580074682025752e20526573657474696e67a8
:105768002e0d0a005061727365723a2043616c63b2
:105778002043533a203078253034582c2052656322
:10578800762043533a203078253034580d0a0000eb
:105798005061727365723a20436865636b73756d07
:1057a800204f4b210d0a000050617273657220452d
:1057b80052523a205061636b657420746f6f207386
:1057c800686f7274202825752920666f72206675a7
:1057d8006c6c2070617273652c2062757420435361
:1057e800204f4b2e0d0a00005061727365722045e0
:1057f80052523a20436865636b73756d206d697307
:105808006d617463682e20526573657474696e6780
:105818002e0d0a00506172736572204552523a206b
:10582800556e6b6e6f776e20737461746520256496
:105838002e20526573657474696e672e0d0a000018
:10584800002e00002e2e0000ac2e0000f02e0000ce
:0c5858008c2f0000e62f00001030000034
:020000040000fa
:10586400f0b40125ed070f005f405ad48b4200d1fc
:10587400824205d950404240504059404b40594023
:105884004e18760ddf187f0d3bd0741c640529d0ab
:10589400f41b352c26d80e0ddb022b43db0ac90280
:1058a4002943c9121700202c1ed2e741e240574079
:1058b400e3415a40a340e3405a4000248018594130
:1058c4000ad3b21c520521d0c207012f624117002e
:1058d4004008cb0718434908013636054208af4152
:1058e40060417141f0bc7047203c06d01f00e74185
:1058f400e3405f400024012a6741c0186141ebd3b3
:10590400dfe7002eeed129400020ebe70136310518
:105914000020e7e7e742e5d10020c143090dc904af
:10592400e0e76b400e00871a9e4104d26e40c01b14
:10593400b141d21973414e18df18ac0ae642e9d2dc
:10594400760d7f0d31d0f41b362ccbd8b4460e0d1a
:10595400db022b43db0ac9022943c90a012c32d8d2
:1059640004d1d4075208df073a435b08ef0a6442c4
:10597400904199411ed0002239424dd12419404111
:1059840049410124394204d10134001849413942c2
:10599400fad06246a24204d9361b013e3605891963
:1059a400a0e7f10ac90700209ce736429ad10020fb
:1059b400002197e70200224394d0b842ded20100ce
:1059c40020002024e3d1202c13dd203ce2411700e9
:1059d400a240e2405740e3415a40a340e3405a40ca
:1059e400012fbf410137174300227c429841914166
:1059f4000ce01700e741e2405740e3415a40a3401e
:105a0400e3405a407c429041994100220f0303d263
:105a1400013e241940414941013e36054708ac4145
:085a240050417141f0bc7047d4
:020000040000fa
