:020000040000fa
:10000000f07f0020d9a10000338d0000338d000067
:1000100000000000000000000000000000000000e0
:10002000000000000000000000000000338d000010
:100030000000000000000000338d0000b38a0000c3
:10004000338d0000338d0000338d0000338d0000b0
:10005000338d00002f650000338d0000338d0000cc
:10006000338d0000338d0000338d0000338d000090
:10007000338d0000338d0000338d0000338d000080
:10008000338d0000338d0000338d0000338d000070
:10009000338d0000338d0000338d0000338d000060
:1000a000338d0000338d0000338d0000338d000050
:1000b000338d0000338d0000338d0000338d000040
:1000c000338d0000338d0000338d0000338d000030
:1000d000338d0000338d0000338d0000338d000020
:1000e000338d0000338d0000338d0000338d000010
:1000f000338d0000338d0000338d0000338d000000
:10010000338d0000338d0000338d0000338d0000ef
:10011000338d0000338d0000338d0000338d0000df
:10012000338d0000338d0000338d0000338d0000cf
:10013000338d0000338d0000338d0000338d0000bf
:10014000338d0000338d0000338d0000338d0000af
:0c015000338d0000338d0000338d000063
:020000040000fa
:10015c00f8b5c046f8bc08bc9e467047e5a8000040
:10016c00f8b5c046f8bc08bc9e467047c1a8000054
:020000040000fa
:10017c00e08e000001000000f29100000100000080
:020000040000fa
:10018c00b0b5aab000aff860b960bb1d1a80bb1d3a
:10019c001b88002b00d189e044f6a013c0f20003a9
:1001ac00fa681900100001f013febb68a422ba18fb
:1001bc001360bb1d1b88ba68d3189822ba18136039
:1001cc006be0a423fb181b68a022ba18136005e08f
:1001dc00a022bb181b680133ba181360a0217b182e
:1001ec001a689823fb181b689a4209d27b181b6863
:1001fc001b780a2b04d07b181b681b780d2be7d1be
:10020c00a023fb181a68a423fb181b68d21a9e2182
:10021c007b181a800a00bb181b88fbb1bb181b8803
:10022c00802b02d9bb1880221a809e257b191a8834
:10023c00a423fb18196814243b1918000af0c8fdf4
:10024c007b191b883a190021d1543a1944f6b01382
:10025c00c0f20003f868190001f0bafda023fb18e6
:10026c001b68a422ba18136005e0a422bb181b68f3
:10027c000133ba181360a4217b181a689823fb1851
:10028c001b689a4209d27b181b681b780a2becd08e
:10029c007b181b681b780d2be7d0a423fb181a685e
:1002ac009823fb181b689a428bd300e0c046bd46ce
:1002bc002ab0b0bd80b584b000af78600f23fb18b6
:1002cc0000221a707b681b78242b0dd17b680133bc
:1002dc007b6009e07b685a1c7a6019780f22bb1886
:1002ec00ba1812784a401a707b681b781bb17b686d
:1002fc001b782a2beed10f23fb181b781800bd4658
:10030c0004b080bdf0b5abb006af78613961fa606e
:10031c000af00efd010040f6106391fbf3f213009e
:10032c001b019b1a1a01d21a13011a008b1a1800fe
:10033c000af0d6fc00220023c4f2240309f02efd9f
:10034c0003000c00180021000af061f8031c84253e
:10035c0008217a18521913600af0eafc010040f2e5
:10036c00f41391fbf3f213005b019b1a9b009b1897
:10037c009b00cb1a18000af0b3fc00220023c4f235
:10038c00240309f00bfd03000c00180021000af0f7
:10039c003ef8031c802608217a18921913607b18ea
:1003ac009b1918680af0fef941f26f22ccf2830215
:1003bc004af2ca13c3f6fd7309f000fb03000c00ec
:1003cc00180021000af023f8031c84203c18236039
:1003dc000822bc18631918680af0e4f904000d002f
:1003ec000822b9188b1918680af0dcf938607960a2
:1003fc008423fb1818680af0d5f90a00010044f6aa
:10040c00b413c0f200031426082038188019049184
:10041c00059239687a6802910392009401951a004a
:10042c0064210af0b4fc7b230822b918cc183500df
:10043c001600bb185b191800fff73cff0300237074
:10044c007b2340f2080cbc4463441b78ba19541942
:10045c0044f6d412c0f20002f96838690093230004
:10046c000af095fcc046bd4625b0f0bdf0b5d646a9
:10047c004f464646c0b5ceb014af78613961fa60cc
:10048c0041f2e403c2f200031b68591d45f28013cc
:10049c00c0f2010391fbf3f213005b009b181a01ed
:1004ac00d21a13019b1adb01ca1a41f2e403c2f2fd
:1004bc0000031a6041f2e403c2f200031b6840f629
:1004cc00106293fbf2f3dc2240f2080cbc44624451
:1004dc00136041f2e403c2f20003196840f61063a2
:1004ec0091fbf3f213001b019b1a1a01d21a130190
:1004fc001a008b1a3c2293fbf2f3d82240f2080c20
:10050c00bc446244136041f2e403c2f200031a6873
:10051c003c2392fbf3f10b001b015b1a9b00d31adb
:10052c00d42240f2080cbc44624413600af000fc74
:10053c0002004bf6a033c0f20d0392fbf3f14bf625
:10054c00a033c0f20d034b43d31a18000af0c8fbba
:10055c00002248f60003c4f2c30309f01ffc030099
:10056c000c00c82240f2080cbc4462441360546076
:10057c000af0defb03001a00012313400bb94e22d4
:10058c0000e05322c72340f2080cbc4463441a70a9
:10059c00c8250826bb195b195c681b68180021006c
:1005ac0009f05cfc03000c00180021000af078fa3a
:1005bc000300c022b91989180b60bb199b18186865
:1005cc000af08efb03000c001a002300b91949191c
:1005dc00086849680af01afc03000c001800210096
:1005ec0000220023c4f24e0309f0e8f903000c00ca
:1005fc00b82240f2080cbc446244136054600af008
:10060c0097fb020047f24073c0f21b0392fbf3f11d
:10061c0047f24073c0f21b034b43d31a18000af085
:10062c005ffb002248f60003c4f2c30309f0b6fbdb
:10063c0003000c00b02240f2080cbc44624413606e
:10064c0054600af075fb03001a00012313400bb928
:10065c00452200e05722af2340f2080cbc4463440f
:10066c001a70b0250826bb195b195c681b6818004a
:10067c00210009f0f3fb03000c00180021000af024
:10068c000ffa0300a822b91989180b60bb199b1823
:10069c0018680af025fb03000c001a002300b91996
:1006ac004919086849680af0b1fb03000c001800ee
:1006bc00210000220023c4f24e0309f07ff903004d
:1006cc000c00a02240f2080cbc446244136054603d
:1006dc0001239c2240f2080cbc44624413600af0d3
:1006ec0027fb02000723c8f20003134004d5013b8b
:1006fc000822524213430133043398220826b919b5
:10070c0089180b600af014fb0300322293fbf2f2ff
:10071c0032214a439b1a18000af0e2fa0022002305
:10072c00c4f2240309f03afb03000c00180021006a
:10073c0000220023c3f6e07309f042f803000c001a
:10074c001800210009f063fe031c9425ba195119f5
:10075c000b600af0edfa030042f2107293fbf2f216
:10076c0042f210714a439b1a18000af0b9fa00229f
:10077c000023c4f2240309f011fb03000c00180041
:10078c00210000220023c4f259030af03ffb0300ae
:10079c000c001800210009f03afe031c9021ba1934
:1007ac00501803600af0c4fa010040f2e83391fbe0
:1007bc00f3f213005b019b1a9b009b18db00cb1a16
:1007cc0018000af08dfa00220023c4f2240309f069
:1007dc00e5fa03000c001800210000220023c4f2eb
:1007ec0049030af013fb03000c001800210009f068
:1007fc000efe031c8c203200b9180c182360c72481
:10080c00bb181b191e78af24bb181b191c78a046eb
:10081c00bb185c19206809f0c5ff04000d0090217d
:10082c000822bb185b18186809f0bcff38607960a7
:10083c008c2140f2080cbc446144086809f0b2fffa
:10084c00dc2340f2080cbc4463441b68994644f614
:10085c00e012c0f2000240f2100c40f2080aba4456
:10086c00d4441290139138687968109011910e94b9
:10087c000f95982340f2080aba4453441b680c9312
:10088c009c2340f2080aba4453441b680b9343461a
:10089c000a93a02340f20808b84443445c681b68e0
:1008ac0008930994a82340f20808b84443441b68f1
:1008bc0007930696b82340f20808b84443445c6892
:1008cc001b6804930594c02340f20808b8444344c1
:1008dc001b680293d42340f20808b84443441b68b5
:1008ec000193d82340f20808b84443441b68009392
:1008fc004b46782160460af04afa8b250822bb1831
:10090c005c191026bb189b191800fff7d3fc0300c9
:10091c0023700822bb185b191b78ba18941944f67b
:10092c00d412c0f20002f9683869009323000af06f
:10093c002efac046bd463ab01cbc90469946a2461b
:10094c00f0bdf0b5c64600b5c6b008af78613961e8
:10095c00fa60e72340f2080cbc44634441221a704d
:10096c000323e02240f2080cbc44624413600af0fa
:10097c00dff90200062392fbf3f10b005b005b181e
:10098c005b00d31a0333dc2240f2080cbc446244f3
:10099c001360902340f2080cbc44634400221a609c
:1009ac0004333822002118000af01cfa0023ec2230
:1009bc0040f2080cbc44624413602de00af0b8f914
:1009cc0002001f23c8f20003134004d5013b202270
:1009dc00524213430133013344f63022c0f2000279
:1009ec00102408257919081905210af0d0f97b196a
:1009fc001a19902340f2080cbc44634411001800ef
:100a0c000af0baf9ec227b199b181b68013340f2ef
:100a1c00080cbc4462441360ec2340f2080cbc4448
:100a2c0063441a68dc2108203b185b181b689a4247
:100a3c00c4db3b185b181b68e82240f2080cbc4472
:100a4c00624413601fe0902408257b191b191800c1
:100a5c000af062f903001a007b191b199a1844f664
:100a6c003423c0f200031000190002231a000af00c
:100a7c00aff9e8227b199b181b68013340f2080c74
:100a8c00bc4462441360e82340f2080cbc44634449
:100a9c001b680b2bd7dd902408257b191b191b78a1
:100aac0053b17b191b1918000af036f90300013bee
:100abc007a1912190021d1540af03af902003c2398
:100acc0092fbf3f10b001b015b1a9b00d31a18006d
:100adc000af006f900220023c4f2240309f05ef99f
:100aec0003000c001800210000220023c3f6f07351
:100afc0008f066fe03000c001800210009f087fcca
:100b0c00031cd82508203a18521913600af010f962
:100b1c000300322293fbf2f232214a439b1a180053
:100b2c000af0def800220023c4f2240309f036f99f
:100b3c0003000c001800210000220023c3f6e07310
:100b4c0008f03efe03000c001800210009f05ffcc9
:100b5c00031cd42608203a18921913600af0e8f8fe
:100b6c000300322293fbf2f232214a439b1a180003
:100b7c000af0b6f800220023c4f2240309f00ef99f
:100b8c0003000c001800210000220023c3f6e073c0
:100b9c0008f016fe03000c001800210009f037fcc9
:100bac00031cd0220820391889180b60e72340f267
:100bbc00080cbc4463441b7898463b185b191868b6
:100bcc0009f0f0fd04000d0008203b189b19186873
:100bdc0009f0e8fd38607960d0220826bb199b1813
:100bec00186809f0dffd44f63822c0f20002182321
:100bfc00be19f6180690079138687968049005912b
:100c0c0002940395902108243b195b180193e02171
:100c1c0040f2080cbc4461440b68009343467821b5
:100c2c0030000af0b4f8cf2623003a19941918258d
:100c3c00fa1853191800fff73dfb03002370082422
:100c4c003b199b191b783a19541944f6d412c0f26b
:100c5c000002f9683869009323000af098f8c0463e
:100c6c00bd463eb004bc9046f0bdf0b5c9b004af73
:100c7c00f860b9607a603b600af05af8020007230a
:100c8c00c8f20003134004d5013b0822524213431f
:100c9c000133053340f20c12b9180b603b68012b81
:100cac0007d1bb181b6899b2fb6840f6b642995243
:100cbc0007e0fb6840f6b6429b5a40f20c12ba1899
:100ccc0013609c23fb1800221a6004334c22002171
:100cdc0018000af087f8002340f20812ba181360c3
:100cec003b68013b9b007a1cff32136000237a1d8a
:100cfc00ff32136096e07b1cff331a687b1dff33b9
:100d0c001b68d31840f20c12ba1812689a4200dc15
:100d1c0081e00af00df802001f23c8f20003134013
:100d2c0004d5013b20225242134301330133fc24ee
:100d3c003a19136009f0fcff03005b2293fbf2f2fb
:100d4c005b214a439b1af8257a19136009f0f0ffce
:100d5c00010040f2681391fbf3f213005b009b1847
:100d6c001a01d21ad3001a008b1af426ba1913607e
:100d7c0009f0deff0300322293fbf2f232214a43e8
:100d8c009b1a0a33f022ba18136009f0d1ff020043
:100d9c00052392fbf3f10b009b005b18d31a93b95c
:100dac003b19196844f65822c0f200021023f818b7
:100dbc00bb191b6801937b191b6800930b00142152
:100dcc0009f0e5ff18e0fc23fb18196844f66822cb
:100ddc00c0f200021023f818f023fb181b680293d2
:100dec00f423fb181b680193f823fb181b68009372
:100dfc000b00142109f0cbff1023fa189c23fb18cd
:100e0c001100180009f0b8ff40f20812bb181b685b
:100e1c000133ba1813607b1dff331b6801337a1d35
:100e2c00ff3213607b1dff331b68032b00dc62e772
:100e3c009c243b191b7843b13b19180009f06cff3b
:100e4c000300013b3a190021d15440f2241340f223
:100e5c00080cbc4463441b6840f20812ba181268b0
:100e6c001a6040f2201340f2080cbc446344196829
:100e7c0044f68022c0f20002242578199c23fb182a
:100e8c00029340f20c13fb181b6801933b68009310
:100e9c000b00782109f07bffef26bc197b19180099
:100eac00fff708fa03002370bb191b787c1944f672
:100ebc00d412c0f200027968b8680093230009f0dc
:100ecc0066ffc046bd4645b0f0bdf0b5bbb00caf3b
:100edc00f860b9607a6040f66453c2f200031b6894
:100eec00591c45f28013c0f2010391fbf3f213007d
:100efc005b009b181a01d21a13019b1adb01ca1a48
:100f0c0040f66453c2f200031a6040f66453c2f216
:100f1c0000031b6840f6106293fbf2f3b422ba187c
:100f2c00136040f66453c2f20003196840f6106374
:100f3c0091fbf3f213001b019b1a1a01d21a130135
:100f4c001a008b1a3c2293fbf2f3b022ba181360ee
:100f5c0040f66453c2f200031a683c2392fbf3f18f
:100f6c000b001b015b1a9b00d31aac22ba1813603e
:100f7c0009f0defe030042f2283293fbf2f242f259
:100f8c0028314a439b1a180009f0aafe00220023bc
:100f9c00c4f2590308f002ff03000c00a022ba1897
:100fac001360546009f0c4fe03001a0001231340bf
:100fbc000bb94e2200e053229f23fb181a70a02578
:100fcc007b195c681b681800210008f047ff0300c0
:100fdc000c001800210009f063fd03009822b918d9
:100fec000b60bb18186809f07bfe03000c001a009c
:100ffc00230079190868496809f008ff03000c0000
:10100c001800210000220023c4f24e0308f0d6fc85
:10101c0003000c009022ba181360546009f088fe8b
:10102c00030044f2506293fbf2f244f250614a43e3
:10103c009b1a180009f054fe00220023c4f2590335
:10104c0008f0acfe03000c008822ba181360546040
:10105c0009f06efe03001a00012313400bb9452260
:10106c0000e0572287257b191a708826bb195c680b
:10107c001b681800210008f0f1fe03000c0018009a
:10108c00210009f00dfd03008022b9180b60b9187e
:10109c00086809f025fe03000c001a002300b9199a
:1010ac000868496809f0b2fe03000c001800210022
:1010bc0000220023c4f24e0308f080fc03000c0055
:1010cc00bb67fc6777203b1841221a709f217b1865
:1010dc0019787b191b783a18107898243c192668d3
:1010ec0044f69422c0f2000210257d190a90ac201f
:1010fc00381800680990b020381800680890b4209f
:10110c003818006807900693bb6ffc6f0493059426
:10111c008023fb181b68039302919023fb185c68d7
:10112c001b680093019433006421280009f02ffe02
:10113c007626bc1910257b191800fff7bbf80300a5
:10114c002370bb191b787c1944f6d412c0f2000230
:10115c007968b8680093230009f019fec046bd46b3
:10116c002fb0f0bdf0b5ce46474680b5cdb014af2c
:10117c00f860b9607a6041f2e803c2f200031b68c0
:10118c00591c45f28013c0f2010391fbf3f21300da
:10119c005b009b181a01d21a13019b1adb01ca1aa5
:1011ac0041f2e803c2f200031a6041f2e803c2f212
:1011bc0000031b6840f6106293fbf2f3dc22ba18b2
:1011cc00136041f2e803c2f20003196840f61063a1
:1011dc0091fbf3f213001b019b1a1a01d21a130193
:1011ec001a008b1a3c2293fbf2f3d822ba18136024
:1011fc0041f2e803c2f200031a683c2392fbf3f1bc
:10120c000b001b015b1a9b00d31ad422ba18136073
:10121c000123d022ba1813600123cc22ba18136010
:10122c001823c822ba18136009f082fd030042f299
:10123c00283293fbf2f242f228314a439b1a1800ef
:10124c0009f04efd00220023c4f2590308f0a6fd5c
:10125c0003000c00c022ba181360546009f068fd3a
:10126c0003001a00012313400bb94e2200e0532255
:10127c00bf23fb181a70c0257b195c681b6818000b
:10128c00210008f0ebfd03000c001800210009f010
:10129c0007fc0300b822b9180b60bb18186809f0da
:1012ac001ffd03000c001a00230079190868496817
:1012bc0009f0acfd03000c001800210000220023f3
:1012cc00c4f24e0308f07afb03000c00b022ba18eb
:1012dc001360546009f02cfd030044f2506293fb40
:1012ec00f2f244f250614a439b1a180009f0f8fce0
:1012fc0000220023c4f2590308f050fd03000c0037
:10130c00a822ba181360546009f012fd03001a00e9
:10131c00012313400bb9452200e05722a7257b1966
:10132c001a70a826bb195c681b681800210008f00d
:10133c0095fd03000c001800210009f0b1fb03001f
:10134c00a022b9180b60b918086809f0c9fc030091
:10135c000c001a002300b9190868496809f056fdf9
:10136c0003000c001800210000220023c4f24e03dd
:10137c0008f024fb03000c009821781803604460eb
:10138c0009f0d6fc010040f2f41391fbf3f21300c8
:10139c005b019b1a9b009b189b00cb1a180009f051
:1013ac009ffc00220023c4f2240308f0f7fc030086
:1013bc000c001800210009f02af8031c94203c189a
:1013cc00236009f0b5fc010040f6106391fbf3f2c9
:1013dc0013001b019b1a1a01d21a13011a008b1a43
:1013ec00180009f07dfc00220023c4f2240308f04d
:1013fc00d5fc03000c001800210009f008f8031cb0
:10140c0090243e193360bf26bb191e787b191d78ba
:10141c00a84694203d18286809f0c4f904000d0072
:10142c0090203818006809f0bdf9dc23fb181b6804
:10143c00994644f6cc22c0f2000240f2140cbc4493
:10144c00c823fb181b681293cc23fb181b68119341
:10145c00d023fb181b6810930e900f910c940d95d4
:10146c0040460a90982179180b684c6808930994a7
:10147c00a023fb181b6807930696b023fb185c6827
:10148c001b6804930594b823fb181b680293d423a0
:10149c00fb181b680193d823fb181b6800934b4661
:1014ac007821604609f073fc8f257c191426bb1932
:1014bc001800fef7fffe030023707b191b78bc1984
:1014cc0044f6d412c0f200027968b8680093230085
:1014dc0009f05dfcc046bd4639b00cbc904699463f
:1014ec00f0bdb0b5a8b002af78607b6840f668324a
:1014fc00002199527b6840f6681c634440f200223c
:10150c000021180009f06efc0c257b1980220021ab
:10151c00180009f067fc79197b6880221800fff726
:10152c0021fe7b191b7843b37b6840f668329b5acb
:10153c001c007b19180009f0effb0300e31840f2c4
:10154c00ff12934219d87b6840f6681c63447a19e1
:10155c001100180009f010fc7b6840f668329c5aa8
:10156c007b19180009f0d8fb03009bb2e31899b261
:10157c007b6840f6683299521de00c23fb181b78ef
:10158c0063b944f61c32c0f2000244f62433c0f2b4
:10159c0000037868190000f01bfc0ce00c23fb180e
:1015ac0044f61c32c0f2000244f65c31c0f2000179
:1015bc00786800f00dfc0c257b19802200211800a6
:1015cc0009f010fc79197b6880221800fef79afe4e
:1015dc007b191b7843b37b6840f668329b5a1c001e
:1015ec007b19180009f098fb0300e31840f2ff1276
:1015fc00934219d87b6840f6681c63447a19110031
:10160c00180009f0b9fb7b6840f668329c5a7b19cc
:10161c00180009f081fb03009bb2e31899b27b68b8
:10162c0040f6683299521de00c23fb181b7863b905
:10163c0044f69832c0f2000244f62433c0f20003a0
:10164c007868190000f0c4fb0ce00c23fb1844f67e
:10165c009832c0f2000244f65c31c0f200017868a6
:10166c0000f0b6fb0c257b1980220021180009f034
:10167c00b9fb79197b6880221800fef7f7fe7b19fd
:10168c001b7843b37b6840f668329b5a1c007b196d
:10169c00180009f041fb0300e31840f2ff129342db
:1016ac0019d87b6840f6681c63447a19110018003d
:1016bc0009f062fb7b6840f668329c5a7b19180073
:1016cc0009f02afb03009bb2e31899b27b6840f641
:1016dc00683299521de00c23fb181b7863b944f651
:1016ec00a032c0f2000244f62433c0f20003786842
:1016fc00190000f06dfb0ce00c23fb1844f6a03233
:10170c00c0f2000244f65c31c0f20001786800f0cf
:10171c005ffb0c257b1980220021180009f062fb6d
:10172c0079197b6880221800fff70bf97b191b785d
:10173c0043b37b6840f668329b5a1c007b19180037
:10174c0009f0eafa0300e31840f2ff12934219d8a9
:10175c007b6840f6681c63447a191100180009f084
:10176c000bfb7b6840f668329c5a7b19180009f019
:10177c00d3fa03009bb2e31899b27b6840f6683247
:10178c0099521de00c23fb181b7863b944f6a83260
:10179c00c0f2000244f62433c0f20003786819004a
:1017ac0000f016fb0ce00c23fb1844f6a832c0f238
:1017bc00000244f65c31c0f20001786800f008fbce
:1017cc0009f0b6fa02000723c8f20003134004d54f
:1017dc00013b082252421343013305338c203a1843
:1017ec0013603b181b6899b27b6840f6b64299525d
:1017fc003b181b680333002b00da03339b10942235
:10180c00b9180b60bb181b683bb98c23fb181b6801
:10181c00002b02dd0123ba1813609422bb181b683d
:10182c0033b98c23fb181b6813b90123ba18136046
:10183c0001239022ba1813607de00c257b198022bd
:10184c000021180009f0cefa9023fb181a687919b8
:10185c0078680823fb1801939423fb181b680093ea
:10186c0013008022fff701fa7b191b7843b37b68c6
:10187c0040f668329b5a1c007b19180009f04cfa90
:10188c000300e31840f2ff12934219d87b6840f62c
:10189c00681c63447a191100180009f06dfa7b6812
:1018ac0040f668329c5a7b19180009f035fa03008f
:1018bc009bb2e31899b27b6840f6683299521de0ee
:1018cc000c23fb181b7863b944f6b032c0f200024b
:1018dc0044f62433c0f200037868190000f078fa5b
:1018ec000ce00c23fb1844f6b032c0f2000244f6b4
:1018fc005c31c0f20001786800f06afabb68a3b9e9
:10190c009023fb181b68012b0fd18c22bb181b6872
:10191c00002b0addbb181a6844f6b833c0f200037a
:10192c007868190000f054fa0ee09022bb181b687e
:10193c000133ba1813609023fb181a689423fb1810
:10194c001b689a4200dc78e70c257b198022002169
:10195c00180009f047fa79197b6880221800fff704
:10196c00b4fa7b191b7843b37b6840f668329b5af8
:10197c001c007b19180009f0cff90300e31840f2a2
:10198c00ff12934219d87b6840f6681c63447a199d
:10199c001100180009f0f0f97b6840f668329c5a87
:1019ac007b19180009f0b8f903009bb2e31899b23f
:1019bc007b6840f6683299521de00c23fb181b78ab
:1019cc0063b944f60842c0f2000244f62433c0f274
:1019dc0000037868190000f0fbf90ce00c23fb18ed
:1019ec0044f60842c0f2000244f65c31c0f2000139
:1019fc00786800f0edf97b6840f668329b5a1a0063
:101a0c0044f61043c0f200037868190000f0e0f9c6
:101a1c00c046bd4626b0b0bd90b59bb000aff860d7
:101a2c00b960bb1d1a80bb1d1b884bb944f63443ef
:101a3c00c0f20003fa681900100000f0c9f96be05d
:101a4c00bb1d1a8844f65043c0f20003f868190015
:101a5c0000f0bef96223fb1800221a8055e0002327
:101a6c007b666023fb1800221a8020e07b6e10221c
:101a7c00ba18d0187b6e5022d11a6223fb181a8820
:101a8c0060243b191b88d3181a00bb689b181b7861
:101a9c0044f66c42c0f2000209f079f902007b6e48
:101aac009b187b663b193a19128801321a80602107
:101abc007b181b880f2b09d86223fb181a887b18fc
:101acc001b88d218bb1d1b889a42cfdb7b6e002b68
:101adc0015dd7b6e013b10217a18d35c202b04d1d1
:101aec007b6e013b7a180021d1541023fa1844f66e
:101afc00b013c0f20003f868190000f069f9622213
:101b0c00bb18ba18128810321a806223fa18bb1d3f
:101b1c0012881b889a42a2d3bd461bb090bd0eb44e
:101b2c0090b5ccb002af786047f2305340f224123b
:101b3c00ba18136001e004f0d4fd7b681b684022e6
:101b4c0013401bb902f0a3f9030043b140f2241176
:101b5c007b181b685a1e79180a60002bebd17b6826
:101b6c001b6840221340002b00d023e102f08ff9b8
:101b7c000300002b00d01de140f23813fb1840f29b
:101b8c001012b9180b60bb181b6840f23412ba184b
:101b9c00126840f66850c2f2000040f2001108f0e2
:101bac0067fc030040f22012b9180b60bb181b68cd
:101bbc00002b00dc00e1bb181b68ff2b0bd9ff23ab
:101bcc00b9180b6040f66853c2f20003ba181268d9
:101bdc009b1800221a7040f220117b181b68012bf5
:101bec0015dd7b181b689a1e40f66853c2f2000381
:101bfc009b5c0d2b0bd17b181b685a1e40f668534f
:101c0c00c2f200039b5c0a2b01d1012200e00022ee
:101c1c0040f217103b181a701a7801210a401a70fa
:101c2c003b181b7801225340dbb28bb140f22012df
:101c3c00bb181b68002b0bddbb181b685a1e40f62b
:101c4c006853c2f200039b5c0a2b01d1012200e015
:101c5c00002240f21613fb181a701a7801210a4060
:101c6c001a7040f21713fb181b78e3b140f6685357
:101c7c00c2f200030c22b81840f20212190009f04b
:101c8c0019f9524b40f2281cbc44634440f2021236
:101c9c000021995440f22013fb181b6840f21c12cf
:101cac00ba18136032e040f21613fb181b78d3b14c
:101cbc0040f22013fb181b68591e44f67442c0f204
:101ccc0000020c23f81840f66853c2f2000300938c
:101cdc000b0040f2031109f05af8030040f21c12f9
:101cec00ba18136012e040f66853c2f2000344f6cf
:101cfc007c42c0f200020c21781840f2031109f06a
:101d0c0046f8030040f21c12ba18136040f21c147f
:101d1c003b191b68002b51dd3b191b68ff2b4dd861
:101d2c007b680c3318003b191b6801331a000c2319
:101d3c00fb18190009f04cf87b680c331a007b680f
:101d4c005a603b191b689ab27b681a817b681b68c6
:101d5c0040221a437b681a607b6804330121180007
:101d6c0002f082f80300ebb147f2305340f2181244
:101d7c00ba18136001e004f0b4fc02f088f8030018
:101d8c0043b140f218117b181b685a1e79180a606f
:101d9c00002bf0d17b681b68402293431a007b68b0
:101dac001a600ce07b681b68402293431a007b6826
:101dbc001a6004e0c04602e0c04600e0c046bd46e2
:101dcc004ab090bc08bc03b01847c046e4feffff05
:101ddc000eb4b0b5d1b002af78607b6840f6c342a8
:101dec009b5c01225340dbb2002b00d029e147f26f
:101dfc00305340f23412ba18136001e004f071fc55
:101e0c007b681b68402213401bb902f040f80300aa
:101e1c0043b140f234117b181b685a1e79180a60c2
:101e2c00002bebd17b681b6840221340002b00d0a9
:101e3c0009e102f02cf80300002b00d003e140f282
:101e4c00481340f2080cbc446344fb60fb6840f24e
:101e5c00441240f2080cbc446244126840f66860bc
:101e6c00c2f2000040f2001108f002fb030040f245
:101e7c002c117a1813607b181b68002b00dce4e033
:101e8c007b181b68ff2b00d9dfe07b181b68012b2c
:101e9c0015dd7b181b689a1e40f66863c2f20003be
:101eac009b5c0d2b0bd17b181b685a1e40f668638c
:101ebc00c2f200039b5c0a2b01d1012200e000223c
:101ecc0040f22b103b181a701a7801210a401a7034
:101edc003b181b7801225340dbb28bb140f22c1221
:101eec00bb181b68002b0bddbb181b685a1e40f679
:101efc006863c2f200039b5c0a2b01d1012200e053
:101f0c00002240f22a13fb181a701a7801210a4099
:101f1c001a7040f22b13fb181b7873b140f66863f0
:101f2c00c2f2000344f68442c0f200021021781879
:101f3c0040f2181108f02bff28e040f22a13fb188e
:101f4c001b78abb140f22c13fb181b68591e44f6de
:101f5c009042c0f200021023f81840f66863c2f2f7
:101f6c00000300930b0040f2181108f010ff0de075
:101f7c0040f66863c2f2000344f6a042c0f20002cd
:101f8c001021781840f2181108f001ff10257b1968
:101f9c00180008f0c1fe030040f22c143a1913602b
:101fac003b191b68002b52d03b191b68ff2b4ed8da
:101fbc007b680c3318003b191b6801331a007b1922
:101fcc00190008f005ff7b680c331a007b685a6017
:101fdc003b191b689ab27b681a817b681b6840228c
:101fec001a437b681a607b6804330121180001f0e6
:101ffc003bff0300ebb147f2305340f23012ba18fa
:10200c00136001e004f06dfb01f041ff030043b1ec
:10201c0040f230117b181b685a1e79180a60002b8d
:10202c00f0d17b681b68402293431a007b681a60ce
:10203c000ee07b681b68402293431a007b681a6091
:10204c0006e0c04604e0c04602e0c04600e0c046e0
:10205c00bd464fb0b0bc08bc03b0184790b589b0b2
:10206c0000aff860b9607a60ba68f96814243b195b
:10207c00180006f0e8fd20003b181a6813005b01fd
:10208c009b1a9b009b18db0019003b185a6844f202
:10209c004023c0f20f03b2fbf3f3cb18fb61f969d9
:1020ac007a68002391425b41dbb21800bd4609b04f
:1020bc0090bdb0b588b002af786040f65053c2f214
:1020cc0000031b88002b00d1cbe040f65053c2f22a
:1020dc0000031a8840f6d043c2f200037868190056
:1020ec00fff79afc15217b1800221a7040f650530a
:1020fc00c2f200031b88012b10d940f6d043c2f268
:10210c0000031b78422b09d140f6d043c2f20003e6
:10211c005b784d2b02d17b1801221a707b6840f63c
:10212c00c3429b5cb3b17b681b68402293431a008b
:10213c007b681a6040f65053c2f200031b8840f6cd
:10214c00d042c2f2000244f6b041c0f200017868fd
:10215c0002f050fa1623fb1800221a8067e07b6805
:10216c0040f6844299181623fb181a8840f6d0437f
:10217c00c2f200039a5c7b6840f6aa4c63441425b7
:10218c007c19786804f0c6fd030023707b191b785a
:10219c00002b46d17b681b6820221a437b681a608f
:1021ac007b6840f6b0429b5a1c007b6840f6b242fa
:1021bc009b5a1d007b6840f6b4429b5a44f6bc41c6
:1021cc00c0f20001786800932b002200fff700fe9c
:1021dc000021012004f055f908243b19180006f0e1
:1021ec00d1fc20003b181a6813005b019b1a9b0062
:1021fc009b18db0019003b185a6844f24023c0f2cc
:10220c000f03b2fbf3f3cb183b6140f65c53c2f205
:10221c0000033a691a6040f66053c2f200030122cf
:10222c001a701622bb18ba18128801321a8040f69e
:10223c005053c2f200031b881622ba1812889a4215
:10224c008dd340f65053c2f2000300221a8040f6a0
:10225c00d043c2f2000380220021180008f0c2fd16
:10226c0000e0c046bd4606b0b0bd80b582b000af40
:10227c0040f20003c2f2000340f6d04200211800e5
:10228c0008f0b0fd40f20003c2f2000340f2581215
:10229c000121995444f6e843c0f20003a2481a0005
:1022ac00962108f074fd04f001fa3b00180006f0ca
:1022bc0086fc3b005b68180008f002fe0021012040
:1022cc0004f0dff844f63052c0f2000240f2000392
:1022dc00c2f2000311001800fff77afd934b1800af
:1022ec0004f0dcfc44f66452c0f2000240f200033d
:1022fc00c2f2000311001800fff76afd40f2000360
:10230c00c2f2000340f6cc42c821995040f20003bf
:10231c00c2f2000340f6c8420021995040f200037b
:10232c00c2f2000340f6c3420121995444f67c5298
:10233c00c0f2000240f20003c2f2000311001800c8
:10234c00fff746fd40f20003c2f2000340f25c11bd
:10235c00774a5a5040f20003c2f2000340f2601276
:10236c0040f600019952734b180005f0a9ff0300c9
:10237c001a0001235340dbb263b144f69052c0f211
:10238c00000240f20003c2f2000311001800fff734
:10239c001ffd0be044f6ac52c0f2000240f2000309
:1023ac00c2f2000311001800fff712fd40f2000307
:1023bc00c2f2000340f638415f4a5a5040f2000323
:1023cc00c2f2000340f63c42402199525b4b18008c
:1023dc0006f04ef903001a0001235340dbb263b13f
:1023ec0044f6c452c0f2000240f20003c2f20003f1
:1023fc0011001800fff7ecfc0be044f6e052c0f2c1
:10240c00000240f20003c2f2000311001800fff7b3
:10241c00dffc40f20003c2f2000340f20c11484a08
:10242c005a5040f20003c2f2000340f21012402155
:10243c009952444b180001f080fd03001a0001234f
:10244c005340dbb263b144f6f852c0f2000240f2e2
:10245c000003c2f2000311001800fff7b9fc0be0f7
:10246c0044f61462c0f2000240f20003c2f2000310
:10247c0011001800fff7acfc40f20003c2f200039d
:10248c0040f258129b5c63b144f62c62c0f200021d
:10249c0040f20003c2f2000311001800fff798fc91
:1024ac0022e0244b180005f00bff03001a00012357
:1024bc005340dbb263b144f69052c0f2000240f2da
:1024cc000003c2f2000311001800fff781fc0be0bf
:1024dc0044f6ac52c0f2000240f20003c2f2000318
:1024ec0011001800fff774fc40f20003c2f2000365
:1024fc001b6801221a4340f20003c2f200031a6067
:10250c000121002003f0bdff44f66462c0f200021a
:10251c0040f20003c2f2000311001800fff758fc50
:10252c00c046bd4602b080bda20b0020840c00202a
:10253c00680100205c010020440c0020380c0020b5
:10254c00180100200c01002090b587b000aff86096
:10255c00b9607a601a00bb1c1a8044f69063c0f212
:10256c000003fa681900100008f0c4f903007b613d
:10257c007b690bb900233be07a69fb68d31a9ab2ea
:10258c0012217b1802321a807a18bb1c12881b8805
:10259c009a4201d300232be012243b191a88f968c4
:1025ac007b68180008f014fc20003b181b887a6824
:1025bc00d31800221a70bb68198810243b193a18da
:1025cc0012888a1a1a803b191b884bb13b181b883e
:1025dc00fa68d1183b191a88fb68180008f0f6fa4b
:1025ec00bb681022ba1812881a801223fb181b8899
:1025fc001800bd4607b090bdb0b592b002af04f064
:10260c0070f804f06ef804f06cf80c243b19180008
:10261c0006f0b8fa20003b181a6813005b019b1aed
:10262c009b009b18db0019003b185a6844f24023ae
:10263c00c0f20f03b2fbf3f3cb18fb6240f20003c2
:10264c00c2f2000340f258129b5c002b00d178e0e0
:10265c0040f66873c2f200031b68fa6ad31a40f2a0
:10266c00e732934237d940f20003c2f2000318005c
:10267c00fef737ff40f66873c2f20003fa6a1a607d
:10268c0040f20003c2f2000340f6c3429b5c13b35a
:10269c0040f20003c2f2000340f668329b5ad3b1f9
:1026ac0044f69462c0f2000240f20003c2f200034e
:1026bc0011001800fff78cfb40f20003c2f200037c
:1026cc0040f668329a5acd4940f20003c2f2000338
:1026dc001800fdf755fd40f20003c2f2000340f272
:1026ec0062129b5a9bb2012b00d029e140f20003ed
:1026fc00c2f2000340f6c3429b5c9bb140f2000364
:10270c00c2f2000340f264129b5a9bb21a0044f6c8
:10271c00c061c0f2000140f20003c2f200031800d5
:10272c00fff756fbb64b02220021180008f05afbab
:10273c0040f20003c2f2000340f2621200219952ef
:10274c00fee040f20003c2f2000340f262129b5a18
:10275c009bb2012b00d0f3e02a243a1940f200037b
:10276c00c2f2000340f264115b5a13803b191a88c1
:10277c0044f60471c0f2000140f20003c2f20003ff
:10278c001800fff725fb3b191b88002b00d19ae0a2
:10279c0040f20003c2f2000340f6c3429b5cabb1b3
:1027ac0044f63072c0f2000240f20003c2f20003a1
:1027bc0011001800fff70cfb3b191a88914940f2e5
:1027cc000003c2f200031800fdf7dafc40f200032c
:1027dc00c2f2000340f668329b5a1a002a217b1879
:1027ec001b88d31840f2ff12934223dc40f2000303
:1027fc00c2f2000340f668329b5a1a007f4bd01885
:10280c000c007b181a887f4b190008f0e1fa40f293
:10281c000003c2f2000340f668329a5a3b191b8837
:10282c00d31899b240f20003c2f2000340f66832aa
:10283c00995236e040f20003c2f2000340f66832cf
:10284c009b5a1a002a243b191b8844f66871c0f263
:10285c00000140f20000c2f20000fff7b9fa3b1988
:10286c001b889ab240f2ff118a4201d940f2ff1341
:10287c009bb21a006349614b180008f0a9fa2a238d
:10288c00fb181b889ab240f2ff118a4201d940f220
:10289c00ff1399b240f20003c2f2000340f6683213
:1028ac00995240f20003c2f2000340f668329b5a80
:1028bc00190040f20003c2f2000340f668125b18e4
:1028cc009b1800221a704e4b02220021180008f0af
:1028dc0089fa40f20003c2f2000340f25c11494a4b
:1028ec005a5040f20003c2f2000340f2601240f66c
:1028fc000001995240f20003c2f2000340f262124e
:10290c000021995205f0eefc03001a0001235340fc
:10291c00dbb2abb13c4b180005f0d2fc03001a0043
:10292c0001235340dbb25bb144f69c72c0f200024f
:10293c0040f20003c2f2000311001800fff748fa3e
:10294c0040f20003c2f2000340f668329b5a002b9f
:10295c0000d1f0e0294bfb633a23fb1800221a80cc
:10296c0075e07a6afb6bd31a9ab22223fb180232f7
:10297c001a802123fb187a6a12781a707b6a00225b
:10298c001a7044f6bc73c0f20003f86b06221900ef
:10299c0008f071f90300002b46d11c49fb6b962201
:1029ac00180003f094ff030093b340f20003c2f24b
:1029bc0000031b6808221a4340f20003c2f2000312
:1029cc001a6040f20003c2f2000340f258129b5c02
:1029dc0023b144f6c473c0f2000303e044f6cc7395
:1029ec00c0f2000344f6d471c0f2000140f20000c2
:1029fc00c2f200001a00fff7ebf915e0680900209d
:102a0c0064010020680100205c010020a20b002062
:102a1c00fa6b45f20001c0f2000140f20003c2f271
:102a2c0000031800fff7d4f97b6a2122ba18127838
:102a3c001a703a22bb18b91822203a180988128841
:102a4c008a181a803b181b88fa6bd318fb6344f660
:102a5c009063c0f20003fa6b1900100007f04afff4
:102a6c0003007b627b6a6bb140f20003c2f200038d
:102a7c0040f668329b5a1a00bc4bd318fa6b9a4238
:102a8c0000d26ee73a243b191b88002b53d040f23e
:102a9c000003c2f2000340f668329b5a3a191288be
:102aac009a4238d23b191a88b04bd11840f2000325
:102abc00c2f2000340f668329b5a1a003b191b887d
:102acc00d31a1a00a94b180008f080f840f2000342
:102adc00c2f2000340f668329a5a3b191b88d31a8b
:102aec0099b240f20003c2f2000340f668329952e8
:102afc0040f20003c2f2000340f668329b5a190000
:102b0c0040f20003c2f2000340f668125b189b18f7
:102b1c0000221a700fe040f20003c2f2000340f6ec
:102b2c0068320021995240f20003c2f2000340f6d1
:102b3c0068120021995440f66053c2f200031b78ce
:102b4c00f3b140f65c53c2f200031b68fa6ad31a65
:102b5c00312b15d90121002003f093fc40f6605372
:102b6c00c2f2000300221a7045f22402c0f20002e5
:102b7c0040f20003c2f2000311001800fff728f91d
:102b8c0003f064fd0300190040f20003c2f20003dd
:102b9c0040f6c442995240f20003c2f2000340f6e0
:102bac00c4429b5a1a00012313407bb340f200032a
:102bbc00c2f200031b6801221a4340f20003c2f266
:102bcc0000031a600c23fb181a6840f66c73c2f2ef
:102bdc0000031a6045f23802c0f2000240f2000312
:102bec00c2f2000311001800fff7f2f800210120d7
:102bfc0003f047fc40f65c53c2f20003fa6a1a6019
:102c0c0040f66053c2f2000301221a7040f2000336
:102c1c00c2f20003180001f011fa40f67073c2f210
:102c2c0000031b685a1c40f67073c2f200031a6052
:102c3c0040f67073c2f200031b6840f2e732934215
:102c4c002bd940f20003c2f2000340f262129b5aed
:102c5c009bb21c0040f20003c2f2000340f264126b
:102c6c009b5a9bb21d0040f20003c2f2000340f6d7
:102c7c0068329b5a45f25c01c0f2000140f2000040
:102c8c00c2f2000000932b002200fff7a1f840f6df
:102c9c007073c2f2000300221a6040f20003c2f209
:102cac00000340f262129b5a9bb2012b00d0a2e0af
:102cbc0040f20003c2f2000340f264129b5a9bb232
:102ccc001a0044f60471c0f2000140f20003c2f293
:102cdc0000031800fff77cf840f20003c2f2000377
:102cec001b6802221a4340f20003c2f200031a606e
:102cfc000c23fb181a6840f66c73c2f200031a60be
:102d0c000021012003f0bdfb40f65c53c2f200032e
:102d1c00fa6a1a6040f66053c2f2000301221a707c
:102d2c0044f63072c0f2000240f20003c2f200031b
:102d3c0011001800fff74cf840f20003c2f2000338
:102d4c0040f264129b5a9bb2a3b140f20003c2f250
:102d5c00000340f264129b5a9ab2054940f20003f8
:102d6c00c2f200031800fdf70bfa0fe0680900200f
:102d7c006801002045f2a402c0f2000240f20003f8
:102d8c00c2f2000311001800fff722f840f2000312
:102d9c00c2f2000340f2621200219952c94b022286
:102dac000021180008f01ef840f20003c2f20003e4
:102dbc0040f25c11c44a5a5040f20003c2f20003c4
:102dcc0040f2601240f600019952c04b180005f019
:102ddc0077fa03001a0001235340dbb25bb144f6cf
:102dec009c72c0f2000240f20003c2f20003110018
:102dfc001800fef7edff39243b1900221a7040f63b
:102e0c005053c2f200031b8893b13b1d180005f010
:102e1c00b9fe40f22c1240f65453c2f20003381d96
:102e2c001900fff71bf9030013b13b1901221a70ab
:102e3c0040f20003c2f2000340f63e429b5a9bb2a2
:102e4c00012b00d092e01e243a1940f20003c2f28a
:102e5c00000340f640415b5a13803b191b88002b42
:102e6c005ad040f65453c2f20003180005f08afe03
:102e7c0040f65053c2f200031b881a0021007b1845
:102e8c001b88d318802b20d840f65053c2f2000375
:102e9c001b881a0040f6d043c2f20003d0180c0075
:102eac007b181a888a4b190007f092ff40f6505392
:102ebc00c2f200031a883b191b88d3189ab240f649
:102ecc005053c2f200031a8026e040f6d043c2f2ff
:102edc00000380220021180007f084ff1e23fb183a
:102eec001b889ab2802a00d980239bb21a00784999
:102efc0040f6d043c2f20003180007f069ff1e230e
:102f0c00fb181b889ab2802a00d980239ab240f60b
:102f1c005053c2f200031a806e4b0222002118009b
:102f2c0007f060ff40f20003c2f2000340f63841a4
:102f3c00674a5a5040f20003c2f2000340f63c428a
:102f4c004021995240f20003c2f2000340f63e4287
:102f5c000021995205f09efb03001a0001235340f7
:102f6c00dbb21bb15c4b180005f082fb40f65053f2
:102f7c00c2f200031b881f2b09d83923fb181b78be
:102f8c00dbb140f65053c2f200031b88abb140f2e8
:102f9c000003c2f200031800fff78bf840f6505301
:102fac00c2f2000300221a8040f6d043c2f20003a2
:102fbc0080220021180007f015ff40f67073c2f252
:102fcc0000031b685a1c40f67073c2f200031a60af
:102fdc0040f67073c2f200031b6840f2e732934272
:102fec0005d940f67073c2f2000300221a6040f259
:102ffc000003c2f2000340f262129b5a9bb2012bf7
:10300c0000d0a2e11c243a1940f20003c2f20003e2
:10301c0040f264115b5a13803b191b88002b00d1c2
:10302c0068e13b191a88284940f20003c2f20003f8
:10303c001800fdf7a5f840f20003c2f2000340f6b9
:10304c0068329b5a1a0021007b181b88d31840f257
:10305c00ff12934244dc40f20003c2f2000340f63c
:10306c0068329b5a1a001d4bd0180c007b181a881a
:10307c00154b190007f0acfe40f20003c2f200033e
:10308c0040f668329a5a3b191b88d31899b240f211
:10309c000003c2f2000340f66832995240f200037a
:1030ac00c2f2000340f668329b5a190040f200034a
:1030bc00c2f2000340f668125b189b1800221a70cb
:1030cc004ae0c04664010020680100205c01002039
:1030dc00440c0020400c0020380c00206809002013
:1030ec00734b40f200220021180007f07bfe1c23da
:1030fc00fb181b889ab240f2ff118a4201d940f2a8
:10310c00ff139bb21a006b49694b180007f060fe65
:10311c001c23fb181b889ab240f2ff118a4201d97a
:10312c0040f2ff1399b240f20003c2f2000340f6e2
:10313c006832995240f20003c2f2000340f6683242
:10314c009b5a190040f20003c2f2000340f66812c9
:10315c005b189b1800221a70554b7b633223fb18ab
:10316c0000221a804de0ba697b6bd31a9ab21623ef
:10317c00fb1802321a801523fb18ba6912781a70e0
:10318c001423fb18ba6952781a70bb6900221a70a2
:10319c0044f6bc73c0f20003786b0622190007f0ea
:1031ac006afd0300e3b944497b6b9622180003f0d7
:1031bc008efb030063b140f20003c2f200031b68f4
:1031cc0008221a4340f20003c2f200031a6007e01f
:1031dc0040f20003c2f2000340f6a23200219954df
:1031ec00bb691522ba1812781a703222bb18b9189a
:1031fc001622ba18098812888a181a80bb690233f9
:10320c007b6344f69063c0f200037a6b19001000e4
:10321c0007f070fb0300bb61bb69002ba3d1322408
:10322c003b191b88002b49d040f20003c2f200036b
:10323c0040f668329b5a3a1912889a423ed83b198a
:10324c001a881b4bd11840f20003c2f2000340f65f
:10325c0068329b5a1a003b191b88d31a1a00144b5c
:10326c00180007f0b3fc40f20003c2f2000340f672
:10327c0068329a5a3b191b88d31a99b240f2000350
:10328c00c2f2000340f66832995240f20003c2f2d7
:10329c00000340f668329b5a190040f20003c2f258
:1032ac00000340f668125b189b1800221a7021e08c
:1032bc006809002068010020a20b002040f20003e6
:1032cc00c2f2000340f668329b5a3222ba181288b6
:1032dc009a420fd940f20003c2f2000340f6683262
:1032ec000021995240f20003c2f2000340f668122a
:1032fc0000219954b24b02220021180007f072fdf4
:10330c0040f20003c2f2000340f25c11ad4a5a5085
:10331c0040f20003c2f2000340f2601240f60001da
:10332c00995240f20003c2f2000340f262120021f3
:10333c00995204f0d7ff03001a0001235340dbb26b
:10334c001bb1a14b180004f0bbff40f20003c2f20a
:10335c0000031b6820221340002b42d040f20003d4
:10336c00c2f2000340f6c8429b58fa6ad21a40f2e5
:10337c000003c2f2000340f6cc415b589a4230d3b2
:10338c0040f20003c2f20003180000f02cf940f2e6
:10339c000003c2f200031b68202293431a0040f280
:1033ac000003c2f200031a6040f20003c2f20003f1
:1033bc001b680822134063b140f20003c2f2000301
:1033cc001b68082293431a0040f20003c2f2000368
:1033dc001a6040f20003c2f2000340f6c841fa6ad8
:1033ec005a5000f054fd03001a0001235340dbb285
:1033fc0063b140f20003c2f200031b684022934306
:10340c001a0040f20003c2f200031a600c23fb18ee
:10341c001a6840f66c73c2f200031b68d31a052bb2
:10342c0000d8c9e045f2d802c0f2000240f2000315
:10343c00c2f2000311001800fef7cafc40f20003b0
:10344c00c2f200031b68402293431a0040f20003af
:10345c00c2f200031a6004f045ff0300002b4fd0aa
:10346c0045f22412c0f2000240f20003c2f2000343
:10347c0011001800fef7acfc04f041ff40f2000311
:10348c00c2f2000340f26212002199524c4b02220c
:10349c000021180007f0a6fc40f20003c2f2000362
:1034ac0040f25c11474a5a5040f20003c2f200034a
:1034bc0040f2601240f600019952434b180004f0a0
:1034cc00fffe03001a0001235340dbb263b145f247
:1034dc005012c0f2000240f20003c2f200031100cd
:1034ec001800fef775fc0be045f28812c0f20002e2
:1034fc0040f20003c2f2000311001800fef768fc52
:10350c0005f0c8f80300002b4ed045f2bc12c0f2f7
:10351c00000240f20003c2f2000311001800fef793
:10352c0057fc05f0c4f840f20003c2f2000340f669
:10353c003e4200219952254b02220021180007f02f
:10354c0051fc40f20003c2f2000340f63841204a1d
:10355c005a5040f20003c2f2000340f63c424021b4
:10356c0099521c4b180005f083f803001a00012334
:10357c005340dbb263b145f2e812c0f2000240f2f4
:10358c000003c2f2000311001800fef721fc0be04f
:10359c0045f21c22c0f2000240f20003c2f200030a
:1035ac0011001800fef714fc0c23fb181a6840f6e7
:1035bc006c73c2f200031a60c046bd4610b0b0bdb9
:1035cc0064010020680100205c010020400c0020f8
:1035dc00440c0020380c002080b500affef745feef
:1035ec00fff70af8fce7f0b5cdb008af786047f20a
:1035fc00305340f20c12ba18136001e003f071f86a
:10360c007b681b68402213401bb900f040fc030090
:10361c0043b140f20c117b181b685a1e79180a60d2
:10362c00002bebd140f20c13fb181b6853b97b68d1
:10363c001b6840221340002b46d100f028fc0300ed
:10364c00002b41d17b6840f6a23298187b6840f67b
:10365c00b0429b5a1d007b6840f6b2429b5a1e003a
:10366c007b6840f6b4429b5a9c4647f27861c0f2a4
:10367c00000145f25022c0f200020c23fc1847f264
:10368c007063c0f20003069363460593049603959a
:10369c0047f28063c0f20003029347f27063c0f2fa
:1036ac000003019300900b0040f20011200007f082
:1036bc006efb0c23fa1844f6b013c0f200037868c2
:1036cc001900fef72cfa00e0c046bd4645b0f0bd2f
:020000040000fa
:1036dc0080b500af41f60043c4f20003d022422172
:1036ec00995000e0c04641f60043c4f20003d022da
:1036fc009b5840221340002bf4d040f67873c2f252
:10370c0000032c220021180007f06cfb40f67873a4
:10371c00c2f2000341f20002c4f200221a6041f22c
:10372c000003c4f2002301221a6000e0c04641f2fb
:10373c000003c4f20023db6901221340002bf5d1f6
:10374c0041f20003c4f2002304221a6041f2000388
:10375c00c4f20023196841f20003c4f200230022d2
:10376c00c4f210020a431a6041f20002c4f20022b1
:10377c0041f20003c4f2002352685a6041f2000384
:10378c00c4f200232c4a9a8140f67873c2f20003eb
:10379c0000225a6240f67873c2f200034ef6c2322f
:1037ac00c0f20b029a6241f20003c4f200235a6881
:1037bc0041f20003c4f20023c32109040a435a60f6
:1037cc0000e0c04641f20003c4f20023db6904228e
:1037dc001340002bf5d143f20023c4f200038422e2
:1037ec0040f20011995043f20023c4f20003c822a6
:1037fc000321995443f20023c4f20003b4220321a1
:10380c00995441f20003c4f200231a6841f20003f8
:10381c00c4f2002302210a431a6000e0c04641f2c0
:10382c000003c4f20023db6902221340002bf5d104
:10383c00c046bd4680bdc0462bf6ffff80b500af2d
:10384c0041f60043c4f20003c8224221995000e023
:10385c00c04641f60043c4f20003c8229b584022e4
:10386c001340002bf4d040f6a473c2f200032c22b8
:10387c000021180007f0b6fa40f6a473c2f2000358
:10388c0040f60002c4f200221a6040f60003c4f2b3
:10389c00002301221a6000e0c04640f60003c4f287
:1038ac000023db6901221340002bf5d140f6000305
:1038bc00c4f2002304221a6040f60003c4f2002371
:1038cc00196840f60003c4f200230022c4f210026f
:1038dc000a431a6040f60003c4f200235a6840f60b
:1038ec000003c4f2002340210a435a6040f600034f
:1038fc00c4f200232b4a9a8140f6a473c2f200034f
:10390c0000225a6240f6a473c2f200034ef6c23291
:10391c00c0f20b029a6240f60003c4f200235a680c
:10392c0040f60003c4f20023c32109040a435a6081
:10393c0000e0c04640f60003c4f20023db69042219
:10394c001340002bf5d143f20023c4f20003802274
:10395c0092025a6043f20023c4f200035122032165
:10396c00995443f20023c4f20003382220219954c5
:10397c0040f60003c4f200231a6840f60003c4f2b8
:10398c00002302210a431a6000e0c04640f60003ff
:10399c00c4f20023db6902221340002bf5d1c04690
:1039ac00bd4680bd2bf6ffff80b500af41f600434e
:1039bc00c4f20003c4224221995000e0c04641f6f3
:1039cc000043c4f20003c4229b5840221340002b36
:1039dc00f4d040f6d073c2f200032c220021180060
:1039ec0007f000fa40f6d073c2f2000340f2004236
:1039fc00c4f200221a6040f20043c4f200230122f8
:103a0c001a6000e0c04640f20043c4f20023db69b8
:103a1c0001221340002bf5d140f20043c4f20023e5
:103a2c0004221a6040f20043c4f20023196840f2e9
:103a3c000043c4f200230022c4f210020a431a60ad
:103a4c0040f20042c4f2002240f20043c4f20023d0
:103a5c0052685a6040f20043c4f200232b4a9a8108
:103a6c0040f6d073c2f2000300225a6240f6d073c3
:103a7c00c2f200034ef6c232c0f20b029a6240f25e
:103a8c000043c4f200235a6840f20043c4f20023fe
:103a9c00c32109040a435a6000e0c04640f20043c7
:103aac00c4f20023db6904221340002bf5d143f24e
:103abc000023c4f2000320225a6043f20023c4f214
:103acc00000345220321995443f20023c4f200035e
:103adc0032223021995440f20043c4f200231a6878
:103aec0040f20043c4f2002302210a431a6000e0b2
:103afc00c04640f20043c4f20023db6902221340ab
:103b0c00002bf5d1c046bd4680bdc0462bf6ffff4d
:103b1c0080b582b000af78607b685b6963b17b680d
:103b2c005b690122da807b685b697a68128c92b2dd
:103b3c001a817b6800225a617b6800229a617b683b
:103b4c000022da617b6800221a84c046bd4602b0ae
:103b5c0080bd90b587b000af786039601623fb1834
:103b6c0000221a801523fb1800221a707b681b6830
:103b7c001b7edbb21a0001231340002b50d07b6854
:103b8c001b8a9bb283b17b68db68591c7a68d16055
:103b9c001b78dab27b681b689a627b681b8a9bb2c3
:103bac00013b9ab27b681a827b681b8a9bb2002b02
:103bbc0036d17b680022da607b681b899bb22bb301
:103bcc007b685b681a687b68da607b685b689b88db
:103bdc009ab27b681a827b685b6808331a007b6830
:103bec005a607b681b899bb2013b9ab27b681a8135
:103bfc007b68db681bb17b681b8a9bb283b97b68d3
:103c0c000022da607b6800221a8209e07b681b685c
:103c1c0001221a757b6800225a607b680022da60e8
:103c2c007b681b681b7edbb21a000423134073b144
:103c3c007b681b685b8b9ab21623fb1836490a43c8
:103c4c001a807b681b689a6a1523fb181a707b68ac
:103c5c005b69002b59d01623fb181b8848f2030212
:103c6c00134048f20002934213d17b685b691a68d7
:103c7c007b681b8c9bb2591c88b279680884d3185a
:103c8c001522ba1812781a707b683a68183303ca6e
:103c9c0003c37b681b685b8b9bb21ab21623fb18a1
:103cac0000215b5ef7210b401bb213431ab27b68f9
:103cbc001b6892b25a837b681b8c9ab27b685b69d7
:103ccc009b889bb29a4204d37b681800fff720ffb5
:103cdc001ce07b681b8c9bb2cbb17b6818331a0041
:103cec0039680c243b19180004f0adff7b682433b1
:103cfc001a003b191100180004f0a9fe031e06db84
:103d0c007b681800fff704ff00e0c046c046c046c1
:103d1c00bd4607b090bdc0460080ffff80b582b0a5
:103d2c0000af78607a6840f67873c2f20003110035
:103d3c001800fff70eff7a6840f6a473c2f2000376
:103d4c0011001800fff705ff7a6840f6d073c2f235
:103d5c00000311001800fff7fcfec046bd4602b080
:103d6c0080bd80b582b000af78607b681b8a9bb247
:103d7c005bb97b681b899bb23bb97b681b681b7e5c
:103d8c00dbb21a00012313400bb9012300e000231e
:103d9c001a1c01231340dbb21800bd4602b080bdd3
:103dac0080b588b000aff860b9607a601e23fb184c
:103dbc00082252421a80bb680bb17b680bb90123f5
:103dcc003ae07b68202b01d9002335e0fb68180012
:103ddc00fff7c7ff03000bb100232de00023bb61ed
:103dec0000237b611ce0bb69db00ba68d3189b889d
:103dfc001e22ba1812889a4201d200231ce0bb6919
:103e0c00db00ba68d3189a881e217b1879180988a8
:103e1c008a1a1a807b6901337b61bb690133bb61f0
:103e2c00ba697b689a42ded3fb68ba685a607b68d1
:103e3c009ab2fb681a8101231800bd4608b080bdf8
:103e4c0080b582b000af78607b6800221a817b68f5
:103e5c0000225a607b6800221a827b680022da609a
:103e6c00c046bd4602b080bd80b582b000af786060
:103e7c0039603a68796840f67873c2f2000318002a
:103e8c00fff78eff03001800bd4602b080bd80b561
:103e9c0000af40f67873c2f200031800fff761ff21
:103eac0003001800bd4680bd80b500af40f67873a6
:103ebc00c2f200031800fff7c3ffc046bd4680bd29
:103ecc0080b582b000af78607b685b695a1e934105
:103edc00dbb21800bd4602b080bd80b582b000af29
:103eec00786039603b685bb13b681b6843b13b68e9
:103efc009b882bb13b689b884ff6f872934201d993
:103f0c00002316e07b685b690bb1002311e03b6872
:103f1c000022da803b6800221a817b6800221a8416
:103f2c007b681833180004f04afe7b683a685a61c3
:103f3c0001231800bd4602b080bd80b582b000af31
:103f4c0078607a6840f67873c2f2000311001800aa
:103f5c00fff7c3ff03001800bd4602b080bd80b55b
:103f6c0000af40f67873c2f200031800fff7a8ff09
:103f7c0003001800bd4680bd80b500af40f67873d5
:103f8c00c2f200031800fff7c3fdc046bd4680bd5a
:103f9c0080b582b000af78607a6840f6a473c2f244
:103fac00000311001800fff798ff03001800bd462e
:103fbc0002b080bd80b500af40f6a473c2f200031e
:103fcc001800fff77dff03001800bd4680bd80b5cb
:103fdc0000af40f6a473c2f200031800fff798fd7f
:103fec00c046bd4680bd80b582b000af78607a68af
:103ffc0040f6d073c2f2000311001800fff76dfffa
:10400c0003001800bd4602b080bd80b500af40f67d
:10401c00d073c2f200031800fff752ff0300180020
:10402c00bd4680bd80b500af40f6d073c2f2000330
:0c403c001800fff76dfdc046bd4680bdba
:020000040000fa
:1040480090b585b000af78607b681b68012213408b
:10405800002b4bd0fff71dff0300002b48d17b68d6
:104068001b6840221340002b44d17a6847f2b4639e
:10407800c0f2000353607b6840f298221a817b6883
:104088001b6840221a437b681a607b68043301214d
:104098001800fff7ebfe03009bb17b681b68012249
:1040a80093431a007b681a607b681b68402293431d
:1040b8001a007b681a607b6840f6c2420121995455
:1040c80019e008243b19180004f05efd21007b1854
:1040d8001a684cf60023c3f69a335a437b185b6878
:1040e800d2187b6840f6c8415a5004e0c04602e046
:1040f800c04600e0c046bd4605b090bdf0b597b0db
:1041080006af78613961fa60bb60fff7c2fe030051
:104118000bb10023c0e07b691b6840221340002bd1
:1041280045d0142608217b189b19180004f02cfd93
:1041380008217b189b191b683b6000237b604cf6a9
:104148000022c3f69a3200233868796806f092fb99
:1041580002000b0008217918891949680c0000250c
:1041680012196b411c001300bb63fc637b6940f6aa
:10417800c8429b583b6300237b63b96bfa6b3b6b6c
:104188007c6bc91aa2410b00140034b96cb94cf607
:104198000022c3f69a32934207d97b691b684022f2
:1041a80093431a007b691a6001e0002374e07b697d
:1041b8000c33180047f2a461c0f2000147f6501210
:1041c800c0f20002bb68059347f27063c0f20003b7
:1041d8000493fb68039347f27063c0f200030293f1
:1041e8003b69019347f29c63c0f2000300930b0004
:1041f80040f2001106f0cdfd0300fb62fb6a002bc4
:1042080002ddfb6aff2b01dd002345e07b690c33ef
:104218001a007b695a60fb6a9ab27b691a817b69ca
:104228001b6840221a437b691a601c2408257b19e5
:104238001b19180004f0a8fc210028003b185b1883
:104248001a684cf60023c3f69a335a433b185b1896
:104258005b68d2187b6940f6c8415a507b690433c1
:1042680001211800fff702fe0300a3b17b691b6858
:10427800402293431a007b691a607b691b680822f5
:1042880093431a007b691a60bb6d13b1bb6d0022a2
:104298001a70012300e000231800bd4611b0f0bddc
:1042a800f0b595b004af78610e00100019000a232c
:1042b80040f2080cbc446344321c1a80082340f2c4
:1042c800080cbc446344021c1a800e23fb180a1c09
:1042d8001a80fff7defd03000bb10023b8e07b690d
:1042e8001b6840221340002b45d0142608217b1858
:1042f8009b19180004f048fc08217b189b191b68bf
:104308003b6000237b604cf60022c3f69a32002300
:104318003868796806f0aefa02000b0008217918af
:10432800891949680c00002512196b411c001300fb
:10433800bb63fc637b6940f6c8429b583b63002320
:104348007b63b96bfa6b3b6b7c6bc91aa2410b00a0
:10435800140034b96cb94cf60022c3f69a32934271
:1043680007d97b691b68402293431a007b691a604e
:1043780001e000236ce07b690c331d000a2340f246
:10438800080cbc4463441988082340f2080cbc4458
:10439800634418880e23fb181c8847f2ac63c0f2ec
:1043a800000347f68012c0f20002029401900091c7
:1043b80040f20011280006f0ecfc0300fb62fb6ae7
:1043c800002b02ddfb6aff2b01dd002340e07b6947
:1043d8000c331a007b695a60fb6a9ab27b691a81ae
:1043e8007b691b6840221a437b691a601c240825d4
:1043f8007b191b19180004f0c7fb210028003b1883
:104408005b181a684cf60023c3f69a335a433b18d4
:104418005b185b68d2187b6940f6c8415a507b69c3
:10442800043301211800fff721fd03007bb17b69ec
:104438001b68402293431a007b691a607b691b68da
:10444800202293431a007b691a60012300e00023ad
:104458001800bd4611b0f0bdf0b591b00aaff860d4
:10446800b9607a603b60fff714fd03000bb10023cd
:10447800bee0fb681b68402213400bb10023b7e085
:10448800bb6873b1bb681b785bb17b684bb17b6859
:104498001b7833b13b6823b13b681b780bb1012211
:1044a80000e0002213203b181a701a7801210a40f4
:1044b8001a703b181b78a3b3fb680c331e0030231b
:1044c800fb1818883423fb181c883823fb181d8810
:1044d80047f2a461c0f2000147f6bc12c0f2000224
:1044e80047f27063c0f2000308930795069405909d
:1044f80047f2ac63c0f2000304933b6803937b6804
:104508000293bb68019347f29c63c0f200030093d7
:104518000b0040f20011300006f03bfc03007b6109
:1045280028e0fb680c331e003023fb18188834235e
:10453800fb181c883823fb181d8847f2a461c0f2b9
:10454800000147f62422c0f2000247f27063c0f26d
:104558000003049303950294019047f2ac63c0f200
:10456800000300930b0040f20011300006f011fc2c
:1045780003007b617b69002b02dd7b69ff2b01dd7a
:10458800002335e0fb680c331a00fb685a607b692e
:104598009ab2fb681a81fb681b6840221a43fb68c1
:1045a8001a60fb68043301211800fff75ffc030061
:1045b800ebb1fb681b68402293431a00fb681a6042
:1045c800fb681b68082293431a00fb681a60fb68a3
:1045d8001b68202293431a00fb681a60fb681b685b
:1045e800802293431a00fb681a60012300e000232d
:1045f8001800bd4607b0f0bd80b58ab000aff860be
:10460800b9607a603b60fff744fc03000bb10023fc
:10461800bce1fb681b68402213400bb10023b5e1e5
:1046280000237b623b681bb17b680bb90023ade1bb
:10463800bb68002b00d183e047f68023c0f200035b
:10464800b8680e22190006f018fb03005bb147f6a4
:104658009023c0f20003b8681122190006f00dfb80
:104668000300002b6cd1fb680c331800bb6847f6bd
:10467800a422c0f2000240f2001106f08afb0300f7
:104688007b6200233b6252e07a683b6ad2181721aa
:104698007b1812781a707b181b781f2b0cd97b1883
:1046a8001b787e2b08d87b6a5a1c7a62fa68d31862
:1046b8007a1812781a7337e01722bb181b780d2b5b
:1046c80031d0bb181b780a2b15d1fb680c331a00a4
:1046d8007b6ad0187b6a40f20012d11abb6847f691
:1046e800ac22c0f2000206f054fb03001a007b6af9
:1046f8009b187b6218e0fb680c331a007b6ad018a1
:104708007b6a40f20012d11a1723fb181b7847f670
:10471800b422c0f2000206f03cfb03001a007b6ad8
:104728009b187b6200e0c0463b6a01333b623a6af1
:104738003b689a4200d3d7e07b6af52ba4d9d3e033
:10474800bb68002b62d047f6bc23c0f20003b868f0
:104758000a22190006f091fa0300002b56d1fb68d3
:104768000c33180047f6c823c0f200031a0040f2c1
:10477800001106f00efb03007b620023fb613ce0a6
:10478800fb680c331a007b6ad0187b6a40f200126f
:10479800d11a7a68fb69d3181b7847f6d822c0f279
:1047a800000206f0f6fa03001a007b6a9b187b6287
:1047b800fb6901330f221340e3b93b68013bfa69f7
:1047c8009a4217d27b6af02b14d8fb680c331a0074
:1047d8007b6ad0187b6a40f20012d11a47f6e023b0
:1047e800c0f200031a0006f0d4fa03001a007b6a2c
:1047f8009b187b62fb690133fb61fa693b689a424b
:1048080000d373e07b6afb2bbad96fe0bb686bb14e
:10481800fb680c331800bb6847f6a422c0f20002fc
:1048280040f2001106f0b5fa03007b620023bb6179
:1048380052e07a68bb69d21816217b1812781a7070
:104848007b181b781f2b0cd97b181b787e2b08d85c
:104858007b6a5a1c7a62fa68d3187a1812781a7323
:1048680037e01622bb181b780d2b31d0bb181b78ec
:104878000a2b15d1fb680c331a007b6ad0187b6aa7
:1048880040f20012d11a47f6f023c0f200031a00d2
:1048980006f07ffa03001a007b6a9b187b6218e017
:1048a800fb680c331a007b6ad0187b6a40f200124e
:1048b800d11a1623fb181b7847f6b422c0f200025f
:1048c80006f067fa03001a007b6a9b187b6200e017
:1048d800c046bb690133bb61ba693b689a4206d2dc
:1048e8007b6af52ba5d902e0c04600e0c0467b6a8a
:1048f8000bb37b6afd2b1ed87b6a012b0dd97b6a13
:10490800023bfa68d3181b7b0d2b06d17b6a013b4f
:10491800fa68d3181b7b0a2b0dd07b6a5a1c7a6263
:10492800fa68d3180d221a737b6a5a1c7a62fa68dd
:10493800d3180a221a73fa687b6ad3180c33002238
:104948001a707b6a0bb9002320e0fb680c331a004d
:10495800fb685a607b6a9ab2fb681a81fb681b681d
:1049680040221a43fb681a60fb68043301211800cf
:10497800fff77cfa030043b1fb681b6840229343ae
:104988001a00fb681a60012300e000231800bd46e6
:044998000ab080bd24
:020000040000fa
:10499c002c01000047505320526177204461746110
:1049ac003a00c0462573000047505654472c252e1c
:1049bc0031662c542c2c4d2c252e31662c4e2c254e
:1049cc002e31662c4b2c41002425732a253032586d
:1049dc000d0a000047504747412c253032642530e2
:1049ec003264253032642e30302c25303264253040
:1049fc00372e34662c25632c253033642530372e26
:104a0c0034662c25632c25642c253032642c252e01
:104a1c0031662c252e31662c4d2c252e31662c4dd5
:104a2c002c2c000025642c002c00c046475047530a
:104a3c00412c25632c25642c25732c252e31662cba
:104a4c00252e31662c252e316600c0462530326469
:104a5c002c253032642c253033642c002530326404
:104a6c002c253032642c253033642c253032642cc8
:104a7c000000c04647504753562c25642c25642c07
:104a8c00253032642c2573004750474c4c2c253074
:104a9c0032642530372e34662c25632c2530336454
:104aac002530372e34662c25632c25303264253086
:104abc003264253032642e30302c25632c410000ba
:104acc004750524d432c253032642530326425300a
:104adc0032642e30302c412c253032642530372e68
:104aec0034662c25632c253033642530372e346600
:104afc002c25632c252e31662c252e31662c253049
:104b0c00326425303264253032642c2c2c41000068
:104b1c004750524d4300c0465761726e696e673afa
:104b2c002067656e65726174656420656d7074795b
:104b3c002073656e74656e636520666f72202573d5
:104b4c002c206e6f7420617070656e6465642e002d
:104b5c005761726e696e673a2047505320617373c8
:104b6c00656d626c79206275666665722066756c1f
:104b7c006c2c20636f756c64206e6f742061707088
:104b8c00656e642025733a202573000047505654f7
:104b9c004700c046475047474100c046475047531f
:104bac004100c046475047535600c0465761726e8d
:104bbc00696e673a204669727374204750475356a2
:104bcc00206d65737361676520666f7220256420a4
:104bdc00746f74616c2073617473207761732065da
:104bec006d7074792c20627265616b696e672047f9
:104bfc005356206c6f6f702e0000c0464750474cc8
:104c0c004c00c046496e6a65637465642025752046
:104c1c006279746573206f662046414b452047507e
:104c2c005320646174612e00504d3a2074686520e5
:104c3c0068657864756d70202830206279746573ae
:104c4c00293a0000504d3a207468652068657864f4
:104c5c00756d7020282575206279746573293a006a
:104c6c00253032582000c046252e2a730d0a00002c
:104c7c0025730d0a0000c0465b44454255475d2034
:104c8c00257300005b44454255475d20252e2a7351
:104c9c000d0a00005b44454255475d2025730d0a03
:104cac000000c046504d2052415720484558000046
:104cbc00504d3a20506172736564204f4b3a20502e
:104ccc004d312e303d25752c20504d322e353d2545
:104cdc00752c20504d31303d257500002d2d3a2d71
:104cec002d3a2d2d207c204c61743a20576169742b
:104cfc00696e6720666f7220646174612e2e2e2c93
:104d0c00202d207c204c6f6e673a205761697469a6
:104d1c006e6720666f7220646174612e2e2e2c20bb
:104d2c002d00c046436f6d62696e65642047505319
:104d3c0020616e6420504d2073656e736f7220700d
:104d4c00726f6a656374207374617274696e672024
:104d5c0075702e2e2e00c046504d5320706172730c
:104d6c00657220696e697469616c697a65640000aa
:104d7c004465627567206d6f646520656e61626c59
:104d8c00656400004552524f523a2047505320520e
:104d9c0058207365747570206661696c65642100b8
:104dac004750532052582073657475702073756387
:104dbc006365737366756c004552524f523a2050be
:104dcc004d205258207365747570206661696c654e
:104ddc0064210000504d205258207365747570206a
:104dec007375636365737366756c00004552524f3f
:104dfc00523a2043444320525820736574757020f6
:104e0c006661696c656421004344432052582073e9
:104e1c0065747570207375636365737366756c0068
:104e2c004750532046616b696e67204d6f64652057
:104e3c00454e41424c45442e205265616c204750f2
:104e4c005320554152542077696c6c20626520695f
:104e5c00676e6f7265642e00496e697469616c6966
:104e6c007a6174696f6e20636f6d706c6574652cfc
:104e7c0020656e746572696e67206d61696e206c59
:104e8c006f6f70000d0a00005241572046414b4590
:104e9c00204750532044415441202866726f6d20a6
:104eac00417373656d626c79204275666665722913
:104ebc003a00c046494e464f3a2049676e6f7269b8
:104ecc006e67207265616c20475053206861726474
:104edc00776172652064617461206576656e7420fb
:104eec00286c656e3a20257529207768696c6520d9
:104efc0066616b696e672e004750533a2052585fbb
:104f0c00434f4d504c5f44415441206576656e745f
:104f1c002e204861726477617265206c656e3a2050
:104f2c0025752e004750532052415720444154417f
:104f3c00204445544543544544202d205052494e5d
:104f4c0054494e4720444952454354204255464605
:104f5c00455220434f4e54454e5453004750532016
:104f6c00417373656d626c79204f766572666c6ff8
:104f7c00772e20436c656172696e672e20486164e0
:104f8c002025752c20676f742025752e0000c046d7
:104f9c004750533a204552524f52204661696c6536
:104fac006420746f2072652d61726d205258000060
:104fbc00244750474c4c000046414b450000c0462e
:104fcc005245414c0000c0464750474c4c20506164
:104fdc0072736564202620466f726d61747465640b
:104fec00204f4b2066726f6d2025732064617461b5
:104ffc002e00c0464750474c4c2050617273652fb1
:10500c00466f726d6174204661696c656420666fd1
:10501c00723a20257300c0464c454420626c696e80
:10502c006b20636f6d706c657465000042757474f1
:10503c006f6e2070726573736564202d20646973c4
:10504c00706c6179696e672062616e6e65720000ca
:10505c00475053204c6f6f7020436865636b20285a
:10506c007468726f74746c6564293a20636f6d7028
:10507c006c5f747970653d25642c2068775f6c6576
:10508c006e3d25752c20617373656d626c795f6c58
:10509c00656e3d257500c0464750533a2052585f07
:1050ac00434f4d504c5f44415441206576656e74be
:1050bc002c20627574206861726477617265206c53
:1050cc00656e20697320302e0000c04657617463f2
:1050dc0068646f673a20436c656172696e67207013
:1050ec006f74656e7469616c6c7920737475636b25
:1050fc0020666c616773206166746572203520735d
:10510c0065636f6e6473206f6620696e616374698a
:10511c00766974790000c0465761746368646f6780
:10512c003a20475053205258206170706561727359
:10513c0020737475636b2c2072652d61726d696eb2
:10514c006700c0465761746368646f673a204552c4
:10515c00524f52204661696c656420746f207265f1
:10516c002d61726d20475053205258206166746532
:10517c00722061626f72742e0000c04657617463b6
:10518c0068646f673a204750532052582072652d3f
:10519c0061726d6564207375636365737366756c9a
:1051ac006c792061667465722061626f72742e0076
:1051bc005761746368646f673a20504d20525820d1
:1051cc006170706561727320737475636b2c2072df
:1051dc00652d61726d696e670000c046576174631e
:1051ec0068646f673a204552524f52204661696c91
:1051fc00656420746f2072652d61726d20504d2096
:10520c0052582061667465722061626f72742e0050
:10521c005761746368646f673a20504d2052582070
:10522c0072652d61726d656420737563636573734c
:10523c0066756c6c792061667465722061626f7240
:10524c00742e000025734750533a20257325732084
:10525c007c202573504d3a20504d312e303a20256c
:10526c00752c20504d322e353a2025752c20504d62
:0c527c0031303a20257525730000c04633
:020000040000fa
:10528800f0b5bc4ca5441093040000230800089214
:105298000693302851d02e2877d1e36be26c9342e5
:1052a80058d25a1ce2631878002200230292039312
:1052b800302853d001230993002300221e00150033
:1052c8001f001293059300930300303b092b62d90a
:1052d8002e2862d0099b0bb902950396069b002bda
:1052e80000d1aee320230343652b00d0c1e3999995
:1052f800200004f00ffc70b980231b0699420ad1e4
:10530800999b002b00d1aae3e36c0020002113b184
:10531800e36b013be363029b039c1b184c41029324
:105328000394129c002c00d088e0989805f0dafcd1
:105338000022002304f044fb97e3e36be26c934202
:1053480004d25a1ce26318780123a1e7200005f073
:10535800eff8f9e7200005f0ebf8a5e70122524243
:10536800d3170298039980185941e36be26c0290b5
:105378000391934205d25a1ce263187801230693dd
:1053880096e7200005f0d4f8f8e7002300220993f7
:105398000292039390e72e280ed1099b002b4bd144
:1053a8000295039601330993e36be26c93423fd273
:1053b8005a1ce263187887e7009a7c2a20dc2900c7
:1053c800320001250026491972410d0016003028c7
:1053d80000d0059137b1009a12a9920052580a21bb
:1053e8004a43d318009a12a9920053500123013757
:1053f8000693092fd8d1009b002701330093d3e7e8
:105408002a003300012500265219734115001e0099
:105418003028c9d040f2f01212ab9b5805930123f3
:1054280005990b4312a98b5040f25c430593bbe7e7
:10543800200005f07df847e72e204fe7029a9542b5
:105448001bd1039a964218d1002e16dc0eb9092ded
:1054580013d8089b1e2b03dc2300089ad34063b99a
:10546800989805f03ffc060020000f0005f048fc66
:1054780002000b00300039005ce7109b109adb0f2c
:105488009b185b1003995b42da17914203dc11d138
:10549800029a9a420ed92222374b98981a6005f040
:1054a80021fc0122354b524204f08afa0122334b87
:1054b80052423fe7109b03996a3bda178a4203dca2
:1054c80011d1029a93420ed922222b4b98981a6036
:1054d80005f008fc802300225b0304f071fa8023a6
:1054e80000225b0326e70a21f7b9059b029c082bdb
:1054f8006bdca34269dc112c67dc092c1ad11298e9
:1055080005f0fefb040098980d0005f0ebfb020087
:105518000b00200029000de79a0012abd35812a8ff
:1055280006934b4301371350009b082ff4dd0133da
:105538000093dae7082c25dc129805f0e1fb060059
:1055480098980f0005f0cefb02000b0030003900e0
:1055580004f036fa08231c1b094ba4000600e05887
:105568000f0005f0bffb02000b003000390004f00b
:1055780017fc7ae2b4fdffffd8100020ffffef7f91
:1055880004ac00002300093b9a009b1a089a9b1858
:105598001e2b02dc129ada40bab9129805f0b0fb59
:1055a800060098980f0005f09dfb02000b003000e4
:1055b800390004f005fa0a3c8e4ba4000600e058b6
:1055c8000f0005f08ffb53e70093009b12a9013be6
:1055d8009a005258002af7d0092394fbf3f2534358
:1055e800e31a0293dbb1002c01da09330293082392
:1055f800029a12a89b1a7f4a9b009f5800231a0000
:105608001900009da9420dd12bb1a90012a80b5079
:105618002b0001330093029b0292e41a0934002301
:10562800059378e00568b5fbf7f6f3189c46036028
:10563800714b7e4393fbf7f3ae1b7343914205d145
:1056480065461db97f224d1c2a40093c01310430b2
:10565800d7e7059b1d3b0593009b5d1e7f231d40df
:105668000023069312aaab009b58da085b070a933b
:10567800069b0b920c9300230a9e0b9f0d930c9a8a
:105688000d9bb6185f4117b95b4b9e421ed95a4a0b
:1056980000233000390005f04ff9574a06900023df
:1056a8003000390005f048f9ab0012a95a50009ba8
:1056b800591e7f230b40ab420bd1029b9d4273d0f6
:1056c80002b900957f23013d1d40cbe732000697c4
:1056d800eae7029a9542f5d1069ae2b17f21029a49
:1056e8000934013a0a4002920298009a82420dd186
:1056f8005a1e0a40920012a810589900009012a849
:10570800095800980093014312a81150029b06996a
:105718009b0012aa9950112c9bdd122c06d1029bda
:1057280012a99b00354a5b58934292d90126029be5
:10573800009a934215d012aa9b009b582f4a934275
:105748000fd92f4a93420ed17f22029b0133134077
:10575800009a9a4205d09b0012a92a4a5b589342a4
:1057680001d8122c50d032001b2c00dd0922059bd9
:1057780000219b18059333009340013b06931e4b71
:1057880013419c46029b009883420fd10029ced03a
:10579800421c7f20029b02409a4220d0009b12a804
:1057a8009b00c1500092c2e7029b95e79f0012a898
:1057b8003d582800d040401812a978500699294031
:1057c80065466943029dab4205d120b95d1c7f3017
:1057d80005400295093c7f2001330340d3e7009b35
:1057e80012aa013b03409b00d25812a906923243e9
:1057f800ca509ce704ac000000ca9a3b5e7089005e
:105808005f708900ff092f0f029b009a934209d10c
:105818005a1c7f231a40130000920022013b9b0070
:1058280012a9ca50029b12aa9b00d05805f068fa28
:105838000022002303f0c6ff029b009a5e1c7f2310
:105848001e40964208d101321a40130000920022ed
:10585800013b9b0012ace2500022874b04f0b0f8e9
:1058680004000d0012abb600f05805f049fa22000a
:105878002b0003f0a7ff04000d00989805f032fafa
:1058880022002b000690079104f09af8059b109ac5
:10589800353311939b1a089a0a900b910c939342f3
:1058a80000dbb1e0002b00dab1e01d000123099311
:1058b800342d00ddafe069220020521b6f4904f04f
:1058c800b5fe0a9a0b9b05f0c5fa35220e900f918a
:1058d800521b0020694904f0a9fe02000b000a9837
:1058e8000b9905f01dfb02000b0006000f000a983b
:1058f8000b9905f08dfa02000b000e980f9903f032
:1059080061ff0a900b917f22029b0099023313409a
:105918008b4232d012a99b005b5859498b4200d95f
:1059280080e02bb9029c009b033414409c420dd0ac
:105938000022544b0698079904f042f802000b0025
:105948003000390003f03eff06000f0035235b1bd3
:10595800012b12dd0022494b3000390005f0e0fa36
:105968000022002305f01df938b13000390000226b
:10597800424b03f027ff06000f000a980b99109b73
:1059880032005c42089be41a3b0003f01bff0e9aae
:105998000f9b05f03dfa119b621e5b000090019180
:1059a8005b089a422adc05f0b7fa0022364b04f06d
:1059b8003fff90b1099b2bb10c9b5d1b2b005d1e1b
:1059c800ab410993314b00980199002203f0f8ff8d
:1059d800059b0090019101330593059b03343433f3
:1059e800a34208da099b4bb100220023300039009a
:1059f80005f0d7f810b92222254b1a60059a0098ad
:105a0800019905f085fa30e0089d00234fe701234e
:105a1800002509934fe7002300241e000e930f94de
:105a2800270070e71b498b4202d000221a4b81e7fe
:105a3800029c009b0334144000229c42f6d1134b75
:105a480078e7002808dbe36c13b1e36b013be36301
:105a5800069b002b00d064e416220d4b1a6000212f
:105a6800200005f073f90020002140f24c239d44ea
:105a7800f0bd0028e7da54e465cdcd410000f03fe1
:105a8800ff64cd1d0000d03f000040430000e03f10
:0c5a9800d81000200065cd1d0000e83f84
:020000040000fa
